:100000000C9473080C9442110C9473110C94A41169
:100010000C94D5110C9406120C9437120C9468129F
:100020000C9499120C94A2080C94D8150C94A20864
:100030000C94A2080C94A2080C94A2080C94A20898
:100040000C94A2080C94CA120C94D0130C94A2081D
:100050000C94A2080C94B90C0C94A2080C94A2085D
:100060000C94A2080C9494130C94A2080C94A2086B
:100070000C94A2080C94A2080C94A2080C94A20858
:100080000C94F90C0C94A2080C94A2080C94A208ED
:100090000C94A2086E616E00696E6600FF0F00008E
:1000A0000801010000110000000800000000FF0F1F
:1000B000000008010100001400000008000000001A
:1000C000FF0F0000080101000013000000080000FD
:1000D0000000FF0F000008010100001200000008EE
:1000E00000000000FF0F00000801010000100000E8
:1000F000000800000000789CED5B2D74EA4A10AE09
:10010000AC44622B91482C125989AD445662AE40E2
:100110002010880804A6220281A84054C420222A64
:100120001008042206118188A88840F49D3973E6DE
:100130007C339B4D805EDE7BB7B7D9116D379BDD7D
:10014000CDFC7CF3B3DBBB5F7735D554534D35D550
:1001500054534D35D554534D35FDA13458CE3FFE43
:100160000E7A18DDFD1A4D376F5534791D4DABB839
:10017000D15BE8D15563EF5FCAD6C05B7637F72F06
:10018000BE5EDE959D9B7B754F773C79ADFAAEEAFE
:10019000AF72A9B1FEFC2B5A94B324CE8FEB2DCABB
:1001A00078319ADAB196EF9A9E37E52BC433E88519
:1001B0006F36DF1EBB633D3BF7E1EF7816E5D55F99
:1001C00065DF3F47ABDD392E7D8FD649D942CE8FD3
:1001D0001C66974A324FFCE3AA57291B2732F7BD0A
:1001E000AD2D3D9ED95D76C7E724AED7BC843AE9F4
:1001F000792E7D87B6DA15F9D949F384C98EF5735E
:10020000C2677FBE71AE0C640DA132990BB673AF9D
:100210009D8377AFF78179EC2CC3CC5D2F4F9E3750
:10022000D7C99CD76E1E5C8F3079C53ACD83F466F2
:10023000918F238FEF5572B0F430E299E71FC2031C
:10024000CD4D9E69B02C4A013C0803F42E5777BF70
:10025000962BFAAD1DD3338B5A58C16AB69F13AE95
:1002600066D819FC9CA9C27F7746C17CDEA38B2986
:1002700040679631E438CC30AA1CA32EA78711CD55
:1002800014E5B262773C9A326939C243A573F4CE61
:100290003FA477B72F720B7220A219F155C48B744B
:1002A000AE9F51FC051D946796BBD8854896F460B7
:1002B000344D4EF43B49DFE53256D4BDEC05FC929B
:1002C000CC13AB1D3E89FAADF7BCCC6DAF8B2A4089
:1002D000779E1F2BEB5165DEE61A629B797C1789AE
:1002E00033FF6CB3C88111E05DFF587C0B72107B4B
:1002F000D53A82DF9903FDA3FCDD3C7C7E3E4DF8C0
:10030000771B5F0235D8E345398D1319B5427AA2C0
:100310006D025CEE8ECFF1AD3BE637291A3F37D642
:10032000620934B1487A1CC798D8A33B0FB8C9FDFD
:10033000A203FCADD260455FA756A865A3AD585A8D
:10034000727A9A10E6425E4519F8340572101B82E3
:100350005CFBC7DDDEF2C5EA8FFCEEE25F18E85D0C
:10036000900780AFE1677E2E5A9BF2F18D254D12EA
:1003700076EDAF38D66FBDE7640EEDA1BF48032C14
:100380008A7D7E8A77151CF0EDBDCA935C4AEC0B22
:1003900045368365516E5944F6062D851D08EFAC30
:1003A00015E92636C092819C9393E8D0D384476A9E
:1003B000FD81CF723D6CB09527E99CDED03640BD03
:1003C00036D78A728971ACF517F9265119EFD746DD
:1003D00057C5CC4E3F075F8A64A5255FC87B240DB7
:1003E00070F926FBD27B713D496FE1AF405C23F38E
:1003F000764C3389FDD8088D1A553A9E2664C7B2CB
:1004000007F059D0C1A28F6EE24FD95E497B4447B5
:100410006497822C5A7F60115656D404F5291279BC
:1004200018E139FB8AF3D939F3CDE502EF4F7C9817
:10043000C5DC222AE8A755FEB52A3BE7F72C8E0932
:100440002EF15F328B1B3DF8F3C46B64CEDF2711B6
:1004500054B1D240F8C9BDD025D1734187DEC2CF97
:10046000DBE404F974C788A7084D84EF822C323B83
:10047000E90FACB938277C8CCD1638B370D1D2D700
:100480008A119CE8AC60AB9DC51D6F35DC9799F86F
:10049000A5255FC8B3F35F2EE768078C03C00FABD9
:1004A00081DDB14FE6556853248A80F0868BA5FC28
:1004B000BD4F131B75CB2E041DCA2A14F0DF2C73FD
:1004C000A2A7C960493AE32297E80071A1B1E6DF2B
:1004D00005F7754B4EB20F6B45AC277627CF9BCDFA
:1004E0009BFDA23CD9BC152B563C6698094E9667DD
:1004F00051C575AB50B52A3BB738AE6773B3733788
:100500007A90EAB0FDAE6B644E6B42935D2C453E33
:10051000A5896300A0435976EEC6693E3ECABB5A20
:10052000072462F545946598C47A62FB88CBD6921D
:100530007C5659865268D617F8ADD747FE5A01EF58
:10054000D1FE258D24C138809D6AAD288B4AABD061
:10055000C625CECE756CE5CEA4A33AD100177DCAD0
:10056000B273374ED3CD7D577B7EE1872FA22CC34C
:1005700024D6936244EDC649452B2FC60C6EB31E9C
:10058000FD56D9B95FE32842A39FE7B2F3AF47F323
:100590009C9D43E683A5E0DB6E9F9CA85232FFC082
:1005A000CC1283DDFDA25EE81CCEA228B72EEEC4DD
:1005B00067AF62ADE99CDE8325D1CCE257E399CCED
:1005C0000B24D198F4F8DE58CB8ACC435F76EED377
:1005D0000D578288F07D71BEF5E8452C29238BDB11
:1005E00056C7CA46896711DED94C049592CBD1C64D
:1005F00025CECE2903779FB46342CB32AF116CB5C1
:10060000A6802C9AB9719A6E12F35BE21A4CB11F54
:1006100033687FB1790BB6B222EB896FB7F61B2C2A
:100620000A4A8EE646F26E26A2D1E116D9B97ECFED
:1006300045F7CBB2F3CBD1C625F1CCF38FC6DAE6C2
:100640007B9D348B366F16EB93933C254E370FC54D
:100650002CD1DAC7E33B46171B455896F86BB10A15
:100660000833C8AA9455EEF6E86709FAB8ECE66FC5
:100670005A7E9CA9FA22206B7D1A1DACCCE9545CF1
:10068000134E2DACDEC81ABC47BDA28BEE363BB76D
:10069000BBEFA4BC4A6F61F757550B7489BFF9FBD8
:1006A000375F76EEF7885A7E829B3E8E593DD5D5D0
:1006B000E7AA9373BDEAF9ECDCAF5FDCE45979BDDE
:1006C000CB37FA12FA5BCECE393BB71603EEDBAF6F
:1006D00004BAB3C5FACF21DDF34B3C29AF405183B7
:1006E00097F07B5CDEA3F5BF3E2DBA54C7DCD1E7A3
:1006F000298B82EDDF401C1DB8554A3FF705DDD937
:10070000E270A268C9BD31A34F9A7B8BF23B07F020
:10071000AC9764E75A0F74D338D01DB7E3EA3B13A4
:10072000B7386BABE9675018F41642E87D9AA0170A
:10073000F6D01DA357D7BFD18BF32FCA0DA457FBFB
:100740004D8A439874CC19CF7CBBD07BC339BBDEB8
:100750001BEF229EFD4CBAEEFE2388B2AFA277D0EB
:10076000672E90A3CEBDA4E66EFD1CB08BAB3EDC25
:10077000B4E744DE8F3B383A26D615645DE783E65E
:1007800049CE418DAA45FAF6CCCF6AD7DE8C12420B
:100790003505B7196CFC000BD39E0A9AA0BD12ACAC
:1007A000544B02351D1D4BE34445D754741D04754D
:1007B0003E9CDAD89C83EC9C6B0D6874266B7B9A0C
:1007C00007ED17931379E5FED177F6DF3F5A0FCA8D
:1007D00023D117E576EEF25A5E94EBF99353F3606A
:1007E000EF970C335DF57267EA1F9B07375FB6E33F
:1007F000A969BE5E43BF6F775A1380E25A1272CB6B
:10080000CD464872A2623541D74EC0259CDAD868E1
:10081000DCB57B1A399A8681D659D2228D66AB1DFA
:1008200061501814794811978DD2A87A7CFF026E16
:100830003CBE6B044CE7E9DC7F8A1B6CE96C0A72F6
:10084000CC133A6DD23B9DBC624F511E06547BC403
:10085000D33008037DE3926E2D76C7EE4918F87AFF
:100860001DE97D7ECDEE2E436026CD21E4CBBA2E50
:10087000AF6BDCD0745DFB83543893B2B5862C6AC1
:10088000AC8799965C632D372CB1C230D3BE076D0F
:1008900034B5764E3B1B4DC10D7DF6D63F129669A1
:1008A0006D420B83286F85E0D7F366B0ECA4DA0BBA
:1008B000B64220EC6A47678EFAF482B273AD7F834A
:1008C000659ED097D955FC2761E7E816767719021F
:1008D00033E9136AC470BA2E8FDAACAE4AE8D37328
:1008E00048857315370B8F671615D3F960A977B351
:1008F0005C8DA6CF1B3727E366356198D1CE745F38
:100900006F81AFA56CAF2C77A3BDC7333CCD223A26
:10091000D1B0511270A6933E4D34EA504DDCEA5FDF
:100920003C1B661A19B8152BE7E5D4584B7EDB8EB5
:1009300051E76CC7D2ABABA3181B6CD1ABF3FBE593
:10094000CAD7EB1F4B755D21F4EAFAEFE3BBF44A1B
:1009500005D7EE4DCFCC5AE3F27DF2AAFD0ADD9722
:10096000B488DC0AB388B286A2A4A2DC6A429E5094
:10097000AD53A3503AD75E79B7B7B2C23C84001AE0
:100980009B07CBFB9730D0DA69B5AB1D6B0C208B86
:100990007A18E93DBB3E86DB35D67D196632F9E330
:1009A0007A8D32C818FEEBB8DEB57BE617ED0892FB
:1009B00009B6748BDBFACA4EFA30F29DFF50555BD4
:1009C000FF4DBADF49350AF16D31E1129D10146F08
:1009D00095D13CAD3039E92F2479B563A09CD52E53
:1009E000DA6D2B8446ECF6ADD0469DAE8FE1F52F47
:1009F00097F8A598C904AF735E13FC19DEBF17D72B
:100A0000BBBA438D221D8D8A83E56E1F6CB54FA145
:100A1000EF1F4D7DB222BFF0F88EB59E37AD9050DE
:100A2000CCBE8B99DB716FE1AB90360FF1ACB1D6D8
:100A3000FA435A379A826B56BB0801E219384D08BF
:100A4000A7E723AC09B6EE6D846BAA70B7B0BBAF55
:100A50006678B78DEB5DDDA1166CB5CFA55928374B
:100A6000D33A4AD27EDED8137FF942F218C088E426
:100A7000B45C65112C3BCA755C30CC064B9FE6F02C
:100A80001A93578DFAEECDABFE51EFA879E82D748D
:100A900094B9DBBBBBA318D0FD5F026DAFE7E816CE
:100AA0007677FBCA0AD37571BDAB3B3FAB5D735F15
:100AB000E2B67677ABCA0AD335717D51777E562B75
:100AC000FFCFEA22E12EAA3D59FA5A2F305CCF7CA3
:100AD0004DEFD777C14FE4FFEC7E1A696ED65453C1
:100AE0004D3501276BFAB3E8AB7EF212E237F9BF5E
:100AF00054E81C964E0AEE5FF8BC7BF24AC4F5B38C
:100B0000C6BAB17E7C27A2FAD76AB7DBEFF679D2F4
:100B10003CD01951FF482743F30F3A3F2AFBEFD44B
:100B2000BA5DD3284767F9C433D46782AD543AD24B
:100B300039F222AA1DFFDFD801048126C53368D20D
:100B4000606935A91D976952FFF8133509924585EB
:100B500095FE8757248B1399E4D48EAFA9B37F4FAA
:100B60008226D189A35F93E85C406B52B0852675DD
:100B7000D23F599348B22243BF64710B2FCAE98C0C
:100B8000F0FF96C7F725F68A5693F8DE965F939E98
:100B900037659A34FFF8AA2669C9D259AB48368B13
:100BA00044B29357A979CC3F366F7576F62792AB4E
:100BB000491C294193F80C923489CE1245B24F93C7
:100BC000764CF556224816D5D661B65CFD9EBCFF24
:100BD00001E1EA97A82F0C240C120CFF0BF60BEC8A
:100BE0000BE30B54534D53204F6666005072656300
:100BF0006861726765004149522773204F6E00415A
:100C000049522773202620436F6F6C616E74204F0A
:100C10006E0053432E5368616C6C6F774869737430
:100C20006F72790053432E486973746F7279005361
:100C3000432E496E697469616C008D0C890C800CBF
:100C4000770C720C6A0C620C5A0C520C520C520C3F
:100C5000520C496E76616C6964004D554C54492DB7
:100C600038004D554C54492D37004D554C54492DA5
:100C70003600436F6465005468726F74746C65006D
:100C80004272616B6542616C005069740044656634
:100C900061756C7400F10CE70CDD0CD50CCD0CC546
:100CA0000CBD0CB50CAD0CAD0CAD0CAD0C496E769D
:100CB000616C696400496E76616C696400496E76A6
:100CC000616C696400496E76616C696400496E7696
:100CD000616C696400496E76616C696400434C4BD9
:100CE00020444956203000434C4B20444956203282
:100CF00000434C4B20444956203400440D3F0D39ED
:100D00000D330D2D0D270D210D1B0D130D130D137F
:100D10000D130D496E76616C6964005452512D3883
:100D2000005452512D37005452512D360032343078
:100D30004E6D003136304E6D003132304E6D003820
:100D4000304E6D004D43204F66660052454D4F5466
:100D50004520454D455247454E435920534855542B
:100D6000444F574E00556E6B6E6F776E20424D5359
:100D7000204572726F720053687574646F776E20CD
:100D80004C617463682054726970706564005265C8
:100D9000736F6C766572204E6F7420436F6E6E6554
:100DA00063746564004D4320437572722053656E11
:100DB000736F72204661756C7400476174652044DE
:100DC00052562033204F76657274656D700047610E
:100DD0007465204452562032204F76657274656DDA
:100DE000700047617465204452562031204F76656B
:100DF0007274656D7000504342204F766572746561
:100E00006D70004D6F64756C652043204F76657280
:100E100074656D70004D6F64756C652042204F766F
:100E2000657274656D70004D6F64756C652041204E
:100E30004F76657274656D70004D6F746F72204FE0
:100E40007665722054656D70004D4320436F6D6D63
:100E5000616E64204D657373616765204C6F7374B8
:100E6000004D4320556E64657220566F6C74616747
:100E700065004D43204857204F7665722D437572AB
:100E800072656E74004D4320446573617420466141
:100E9000756C74004D4320496E76657274657220DE
:100EA00054696D656F7574004D43204469726563C4
:100EB00074696F6E204572726F72004D4320496EE7
:100EC000766572746572204F76657274656D700018
:100ED0004D43204F76657220566F6C7461676500D4
:100EE0004D43204F7665722043757272656E7400B3
:100EF0004D43204F766572205370656564004E4FF8
:100F00002043454C4C20434F4D4D5300416E2045EE
:100F10002D53746F7020697320507265737365640C
:100F20000052656D6F74652052657175657374004C
:100F3000494D44204552524F52004253504420459F
:100F400052524F5200494E56414C4944204D53474E
:100F5000004856205052454348415247494E473A6F
:100F600020252E30665600736252494F2057415259
:100F70004D3A20252E30664300474C56204C4F57A3
:100F800020564F4C544147453A20252E3266560094
:100F90005041434B204C4F5720564F4C54414745EE
:100FA0003A20252E3266560042415454455259206B
:100FB0005741524D3A20252E326643004D4F544F33
:100FC00052205741524D3A20252E32664300434F5E
:100FD0004E54524F4C4C4552205741524D3A2025C9
:100FE0002E3266430000407A10F35A00A0724E1869
:100FF000090010A5D4E80000E87648170000E40BCB
:1010000054020000CA9A3B000000E1F50500008090
:10101000969800000040420F000000A086010000EA
:1010200000102700000000E803000000006400003A
:101030000000000A00000000000100000000002C79
:1010400076D888DC674F0823DFC1DFAE59E1B1B73E
:1010500096E5E3E453C63AE651997696E8E6C2840B
:1010600026EB898C9B62ED407C6FFCEFBC9C9F4023
:10107000F2BAA56FA5F490055A2AF75C936B6CF948
:10108000676DC11BFCE0E40D47FEF520E6B500D01E
:10109000ED902E0300943577050080841E08000033
:1010A000204E0A000000C80C333333330F986E1201
:1010B000831141EF8D2114893BE65516CFFEE6DB07
:1010C00018D1844B381BF77C1D901DA4BBE4242051
:1010D0003284725E228100C9F124ECA1E53D270033
:1010E000230E9815371611241FBECFEFD0E1DEBFB7
:1010F000CDBF12E0A0E0B1E0E2E6F8E600E00BBF11
:1011000002C007900D92AA39B107D9F724E0AAE9E5
:10111000B2E001C01D92A935B207E1F710E1C6EEB9
:10112000D0E100E006C022970109FE010BBF0E943A
:10113000F131C03ED10780E00807A9F70E94D62907
:101140000C942F340C9400002F923F924F925F9298
:101150006F927F928F929F92AF92BF92CF92DF92C7
:10116000EF92FF920F931F93CF93DF93CDB7DEB72C
:1011700063970FB6F894DEBF0FBECDBF7C011B0195
:101180006A01FC0117821682838181FF66C3BE015A
:101190006F5F7F4F4B01F7019381F10193FD8591C3
:1011A00093FF81911F01882309F453C3853239F4D9
:1011B00093FD859193FF81911F01853239F4B70129
:1011C00090E00E94663356016501E5CF10E0512C96
:1011D00020E02032A0F48B3269F030F4803259F0F4
:1011E000833269F420612CC08D3239F0803339F4B8
:1011F000216026C02260246023C0286021C027FD12
:1012000027C030ED380F3A3078F426FF06C0FAE0F8
:101210001F9F300D1124132F13C06AE0569E300D0E
:101220001124532E20620CC08E3221F426FD11C3EE
:10123000206406C08C3611F4206802C0883641F460
:10124000F10193FD859193FF81911F018111C1CF20
:101250009BEB980F933018F42061805E06C09BE9E9
:10126000980F933008F0AAC12F7E26FF16E02F7347
:10127000722E853621F4F22FF0647F2E08C0863658
:1012800021F4622F6068762E02C01111115077FE92
:1012900007C01C3348F444244394410E27E00BC09C
:1012A000183030F4212F06C027E04CE3442E03C051
:1012B00027E017E0412C560174E0A70EB11CF6019F
:1012C0006081718182819381042DA4010E94593231
:1012D0006C01098100FF02C003FF06C071FC07C05A
:1012E00072FC08C0612C08C03DE2632E05C02BE2F1
:1012F000622E02C090E2692E802F8C7099F16620D8
:1013000011F084E001C083E0851510F0512C0BC072
:10131000581A73FC08C0B70180E290E00E9466335F
:101320005A94C9F7F3CF662029F0B701862D90E0D3
:101330000E94663303FD03C008E910E002C004E91F
:1013400010E0F72DF0717F2EF8018491882309F4C5
:1013500076C271108052B70190E00E9466330F5F31
:101360001F4FF2CF77FE0FC04C0C04FF04C08A81E0
:10137000813309F44A94141474F5F8E0F41578F5FF
:1013800088E0482E2CC076FC2AC0812F90E08C1576
:101390009D059CF06CEFC6166FEFD60674F0772DA6
:1013A0007068772E0AC0E2E0F0E0EC0FFD1FE10F5D
:1013B000F11D8081803319F411501111F4CF77FEA3
:1013C0000EC044244394410E812F90E0C816D906E4
:1013D0002CF41C1904C04424439401C010E077FE8F
:1013E00007C01C141D043CF496012F5F3F4F05C03D
:1013F00025E030E002C021E030E0662011F02F5FF0
:101400003F4F112331F0412F50E04F5F5F4F240FCA
:10141000351F452D50E02417350714F4521A01C02A
:10142000512C872D897049F4552039F0B70180E29D
:1014300090E00E9466335A94F7CF662029F0B701F6
:10144000862D90E00E94663373FC09C0552039F068
:10145000B70180E390E00E9466335A94F7CF77FE9D
:101460005FC09C2D8D2DD7FE02C090E080E0692EDC
:10147000782E40E050E0C601841991099D878C8741
:10148000960126193709280D391D812F90E0EE2786
:10149000FF27E81BF90BFF87EE87FFEF6F167F062C
:1014A00069F4B7018EE290E02B8B3A8B488B598B15
:1014B0000E946633598948893A892B89C614D70412
:1014C00054F06C857D85661577052CF4F901E40FE1
:1014D000F51F818101C080E371E0671A71084F5FD9
:1014E0005F4FEE85FF856E167F066CF0B70190E0CA
:1014F0002B8B3A8B488B598B0E9466332B893A8908
:1015000048895989CACF6C147D0439F49A8196337D
:1015100018F4953311F404FF81E3B70190E04BC058
:101520008A81813309F00F7EB70190E00E94663313
:10153000111105C074FE18C085E490E017C0B70112
:101540008EE290E00E94663382E066246394680E27
:10155000F401E80FF11D8081B70190E00E9466332D
:10156000115041F3862DF1CF85E690E0B7010E943E
:101570006633D7FC05C0C114D10439F404FF05C09B
:10158000D194C194D1088DE201C08BE2B70190E003
:101590000E94663380E36AE0C616D1042CF08F5FA8
:1015A000FAE0CF1AD108F7CFB70190E00E94663376
:1015B000B701C601C0960E94663341C1833631F03F
:1015C000833779F0833509F058C021C0560172E0A5
:1015D000A70EB11CF6018081898301E010E064014F
:1015E00014C05601F2E0AF0EB11CF601C080D180EC
:1015F00026FF03C0612F70E002C06FEF7FEFC601CE
:101600002B8B0E945B338C012B892F7715C05601E1
:10161000F2E0AF0EB11CF601C080D18026FF03C0FE
:10162000612F70E002C06FEF7FEFC6012B8B0E942D
:1016300050338C012B892068722E23FD1AC0852D12
:1016400090E008171907A8F4B70180E290E00E9423
:1016500066335A94F4CFF60177FC859177FE819139
:101660006F01B70190E00E94663351105A94015007
:1016700011090115110579F7E2C0843611F0893698
:1016800051F5560127FF09C0F4E0AF0EB11CF60179
:1016900060817181828193810AC0F2E0AF0EB11C3A
:1016A000F60160817181882777FD8095982F022F40
:1016B0000F7697FF08C090958095709561957F4F44
:1016C0008F4F9F4F00682AE030E0A4010E94D13381
:1016D000C82EC8183EC0022F853721F40F7E2AE09D
:1016E00030E01DC0097F8F3691F018F4883559F02D
:1016F000B0C0803719F0883711F0ABC0006104FF2B
:1017000009C0046007C024FF08C0066006C028E0C6
:1017100030E005C020E130E002C020E132E05601B7
:1017200007FF09C0F4E0AF0EB11CF60160817181C2
:101730008281938108C0F2E0AF0EB11CF601608196
:10174000718180E090E0A4010E94D133C82EC818B6
:101750000F7706FF0BC0202F2E7FC11650F404FF19
:101760000AC002FD08C0202F2E7E05C0DC2C202FD1
:1017700003C0DC2C01C0D12E24FF0DC0FE01EC0DF6
:10178000F11D8081803311F4297E09C022FF06C03B
:10179000D394D39404C0822F867809F0D39423FD88
:1017A00013C020FF06C01C2DD51418F4150D1D19EB
:1017B000D52CD51468F4B70180E290E02B8B0E9401
:1017C0006633D3942B89F5CFD51410F45D1801C07E
:1017D000512C24FF12C0B70180E390E02B8B0E94B4
:1017E00066332B8922FF17C021FF03C088E590E0F4
:1017F00002C088E790E0B7010CC0822F867859F0CC
:1018000021FD02C080E201C08BE227FD8DE2B7011D
:1018100090E00E946633C11638F4B70180E390E08F
:101820000E9466331150F7CFCA94F401EC0DF11DFC
:101830008081B70190E00E946633C110F5CF55203A
:1018400009F4C2CCB70180E290E00E9466335A945A
:10185000F6CFF7018681978102C08FEF9FEF6396E5
:101860000FB6F894DEBF0FBECDBFDF91CF911F91B1
:101870000F91FF90EF90DF90CF90BF90AF909F902F
:101880008F907F906F905F904F903F902F90089532
:1018900080E090E00895FC0124853585F901E05849
:1018A000FF4F8081918180589F4F329620813181F6
:1018B000821B930B8F77907897FF0895019780682C
:1018C0009F6F01960895FC0184859585FC01EE5774
:1018D000FF4F20813181DC01A058BF4F4D915C91B9
:1018E00042175307C1F0DC01A20FB31F8C912F5F89
:1018F0003F4F2F77307837FD04C03183208390E04D
:1019000008952150310920683F6F2F5F3F4F318389
:10191000208390E008958FEF9FEF0895FC01848568
:101920009585FC01E058FF4FDC01AE57BF4F8D910C
:101930009C91918380830895DC015296ED91FC91F6
:10194000539741E050E05B960C905B9702C0440FC8
:10195000551F0A94E2F7208130E024233523232BFE
:10196000D1F35696ED91FC915797608381E090E01A
:1019700008951F920F920FB60F9211240BB60F927B
:101980002F933F934F935F936F938F939F93EF9317
:10199000FF936091C6002091D8033091D903C9010B
:1019A00001968F77907897FD1FC04091DA03509190
:1019B000DB038417950741F0F901E85AFC4F608377
:1019C0009093D9038093D803FF91EF919F918F91CA
:1019D0006F915F914F913F912F910F900BBE0F90A0
:1019E0000FBE0F901F901895019780689F6F01960A
:1019F000DCCF1F920F920FB60F9211240BB60F92ED
:101A00002F933F934F935F936F938F939F93EF9396
:101A1000FF936091CE002091540330915503C9018A
:101A200001968F77907897FD1FC040915603509193
:101A300057038417950741F0F901EC52FD4F60837D
:101A40009093550380935403FF91EF919F918F9151
:101A50006F915F914F913F912F910F900BBE0F901F
:101A60000FBE0F901F901895019780689F6F019689
:101A7000DCCF7F928F929F92AF92BF92CF92DF92F4
:101A8000EF92FF920F931F93CF93DF93EC016A01C4
:101A90007B01413482E458078FE06807710508F440
:101AA00055C0EA89FB8981E090E00C8C02C0880F68
:101AB000991F0A94E2F7808360E079E08DE390E07B
:101AC000A70196010E94C5312150310941095109F0
:101AD0005695479537952795C901EE85FF859083E3
:101AE000E889F9898083EC89FD89408181E090E073
:101AF0009C01088C02C0220F331F0A94E2F7422B8C
:101B00004083EC89FD8940819C01098C02C0220F31
:101B1000331F0A94E2F7422B4083EC89FD89208130
:101B20000A8C02C0880F991F0A94E2F7282B2083A1
:101B3000DF91CF911F910F91FF90EF90DF90CF90A9
:101B4000BF90AF909F908F907F90089560E874E869
:101B50008EE190E0A70196010E94C53149015A012A
:101B600081E0881A9108A108B108B694A7949794C7
:101B70008794A50194012F5F3F4F4F4F5F4F220F76
:101B8000331F441F551F220F331F441F551F220FA1
:101B9000331F441F551F220F331F441F551F60E082
:101BA00074E284EF90E00E94C5310FEF10E0AFEFD8
:101BB000B0E00E94E731A70196010E94C531021BE7
:101BC000130B10161106CCF5722E709460E079E0BC
:101BD0008DE390E0A70196010E94C53121503109A3
:101BE000410951092E7F2E5F3F4F4F4F5F4F220F0C
:101BF000331F441F551F220F331F441F551F60E022
:101C000074E284EF90E00E94C5310FEF10E0AFEF77
:101C1000B0E00E94E731A70196010E94C531021B86
:101C2000130B101611066CF42095271508F439CF04
:101C3000EA89FB891082C40150CF77247394720E15
:101C4000C5CF2F5FF2CF1092BA021092B90288EE80
:101C500093E0A0E0B0E08093BB029093BC02A0931D
:101C6000BD02B093BE022AE131E03093B802209366
:101C7000B70248E553E05093C4024093C30245ECD9
:101C800050E05093C6024093C50244EC50E050939C
:101C9000C8024093C70240EC50E05093CA02409300
:101CA000C90241EC50E05093CC024093CB0246EC89
:101CB00050E05093CE024093CD02E4E0E093CF0297
:101CC00073E07093D00267E06093D10255E05093C7
:101CD000D20241E04093D30210929D0210929C02E6
:101CE00080939E0290939F02A093A002B093A102C2
:101CF00030939B0220939A0284ED92E09093A70286
:101D00008093A6028DEC90E09093A9028093A802A4
:101D10008CEC90E09093AB028093AA0288EC90E068
:101D20009093AD028093AC0289EC90E09093AF0267
:101D30008093AE028EEC90E09093B1028093B0025B
:101D4000E093B2027093B3026093B4025093B50271
:101D50004093B6020895CF92DF92EF92FF920F93D5
:101D60001F93CF93DF936C0141155105F1F08B0167
:101D7000EA01E12CF12CD8016D918D01D601ED9194
:101D8000FC910190F081E02DC6010995E80EF91E45
:101D90002197209781F7C701DF91CF911F910F9174
:101DA000FF90EF90DF90CF900895E12CF12CF3CFCE
:101DB000DB010D900020E9F7AD0141505109461BB0
:101DC000570BDC01ED91FC910280F381E02D099429
:101DD000EF92FF920F931F93CF93DF93EC01FB01E0
:101DE00001900020E9F7AF0141505109461B570B04
:101DF000E881F9810280F381E02D09958C01E88169
:101E0000F9810190F081E02D6DE0CE0109957C0112
:101E1000E881F9810190F081E02D6AE0CE01099519
:101E20000E0D1F1D800F911FDF91CF911F910F91FC
:101E3000FF90EF9008952F923F924F925F926F9292
:101E40007F928F929F92AF92BF92CF92DF92EF924A
:101E5000FF920F931F93CF93DF93CDB7DEB7A19778
:101E60000FB6F894DEBF0FBECDBF8C0141155105F2
:101E700009F4C7C04A30510509F474C0942E6B01AF
:101E8000EE24D7FCE094FE2C19A2B1E0B41708F0C0
:101E9000C1C0442E512C612C712C5E01E1E2AE0ECA
:101EA000B11C02C069017A01C701B601A301920108
:101EB0000E94C5316C2D929E60191124F1E0AF1A79
:101EC000B10890E3960F87E3860F6A3008F4892FF4
:101ED000D5018C93211531054105510519F7F501FF
:101EE00001900020E9F7AF01415051094A195B09FF
:101EF000D801ED91FC910280F381E02DB501C8017C
:101F000009953C01D801ED91FC910190F081E02D03
:101F10006DE0C80109957C01D801ED91FC9101901B
:101F2000F081E02D6AE0C8010995E60CF71C8E0DE2
:101F30009F1DA1960FB6F894DEBF0FBECDBFDF91F7
:101F4000CF911F910F91FF90EF90DF90CF90BF90B6
:101F5000AF909F908F907F906F905F904F903F9049
:101F60002F9008954B01AA2497FCA094BA2CB7FC9B
:101F700059C0D82C792DC50119A27E01B1E2EB0E12
:101F8000F11CBAE04B2E512C612C712C0BC0862F0A
:101F9000D7018C932115310541055105F1F0D22E61
:101FA000732FCA016D2DA30192010E94C5318D2DA1
:101FB000EAE02E9F80191124F1E0EF1AF10860E3A6
:101FC000680F97E3980F8A3010F3892FD7018C930D
:101FD000211531054105510511F7F7010190002048
:101FE000E9F7AF01415051094E195F09D801ED9150
:101FF000FC910280F381E02DB701C80109953C01F5
:1020000081CFDC01ED91FC910190F081E02D0995EB
:102010003C0178CFFAE04F2E512C612C712CAAE0B4
:102020009A2E3BCFDC01ED91FC910190F081E02DE7
:102030006DE209951C01CC24DD247601C818D9086D
:10204000EA08FB0819A25E01B1E2AB0EB11C8AE0FE
:10205000482E512C612C712C02C069017A01C701F4
:10206000B601A30192010E94C5316C2DEAE02E9FBA
:1020700060191124F1E0AF1AB10890E3960F87E3DD
:10208000860F6A3008F4892FD5018C93211531050C
:102090004105510511F7F50101900020E9F7AF0165
:1020A000415051094A195B09D801ED91FC91028018
:1020B000F381E02DB501C80109953C01620C731C48
:1020C00021CF8F929F92AF92BF92CF92DF92EF92E9
:1020D000FF920F931F93CF93DF93CDB7DEB7A197F6
:1020E0000FB6F894DEBF0FBECDBF7C01D42EE52F16
:1020F000CB012115310509F470C0C22E19A2B1E03F
:10210000B21708F075C0822E912CA12CB12C8E0133
:102110000F5D1F4F0BC0862FF801808321153105FD
:1021200041055105E9F0D22EE32FCA016D2D7E2F16
:10213000A50194010E94C5318D2DC29E80191124E4
:102140000150110960E3680F97E3980F8A3018F384
:10215000892FF8018083211531054105510519F7B3
:10216000D8010D900020E9F7AD0141505109401B05
:10217000510BD701ED91FC910280F381E02DB80164
:10218000C70109958C01D701ED91FC910190F08177
:10219000E02D6DE0C70109955C01D701ED91FC913F
:1021A0000190F081E02D6AE0C70109950A0D1B1D21
:1021B000800F911FA1960FB6F894DEBF0FBECDBF62
:1021C000DF91CF911F910F91FF90EF90DF90CF9013
:1021D000BF90AF909F908F900895D701ED91FC91A3
:1021E0000190F081E02D642FC70109958C01CBCFC0
:1021F0007AE0872E912CA12CB12CFAE0CF2E87CF3C
:10220000EF92FF920F931F93CF93DF93CDB7DEB77B
:10221000C054D1090FB6F894DEBF0FBECDBF2B96C8
:10222000EEACFFAC2B979E01235B3F4F2D964EAD3E
:102230005FAD2D9760E470E08E010F5F1F4FC80106
:102240000E949833D8010D900020E9F7AD0141506C
:102250005109401B510BD701ED91FC910280F38194
:10226000E02DB801C7010995C05CDF4F0FB6F894A7
:10227000DEBF0FBECDBFDF91CF911F910F91FF90B9
:10228000EF9008951F920F920FB60F9211240BB684
:102290000F922F933F934F935F936F937F938F93FF
:1022A0009F93AF93BF93EF93FF938091DC03909143
:1022B000DD03892B29F0E091DC03F091DD03099522
:1022C000FF91EF91BF91AF919F918F917F916F910E
:1022D0005F914F913F912F910F900BBE0F900FBECA
:1022E0000F901F9018951F920F920FB60F92112406
:1022F0000BB60F922F933F934F935F936F937F9300
:102300008F939F93AF93BF93EF93FF938091DE03DF
:102310009091DF03892B29F0E091DE03F091DF0338
:102320000995FF91EF91BF91AF919F918F917F910F
:102330006F915F914F913F912F910F900BBE0F9036
:102340000FBE0F901F9018951F920F920FB60F920D
:1023500011240BB60F922F933F934F935F936F937C
:102360007F938F939F93AF93BF93EF93FF9380914E
:10237000E0039091E103892B29F0E091E003F091D3
:10238000E1030995FF91EF91BF91AF919F918F91DB
:102390007F916F915F914F913F912F910F900BBE65
:1023A0000F900FBE0F901F9018951F920F920FB6AF
:1023B0000F9211240BB60F922F933F934F935F937D
:1023C0006F937F938F939F93AF93BF93EF93FF93FD
:1023D0008091E2039091E303892B29F0E091E203DD
:1023E000F091E3030995FF91EF91BF91AF919F9118
:1023F0008F917F916F915F914F913F912F910F90AE
:102400000BBE0F900FBE0F901F9018951F920F924A
:102410000FB60F9211240BB60F922F933F934F9349
:102420005F936F937F938F939F93AF93BF93EF933C
:10243000FF938091E4039091E503892B29F0E091CB
:10244000E403F091E5030995FF91EF91BF91AF91FE
:102450009F918F917F916F915F914F913F912F91BC
:102460000F900BBE0F900FBE0F901F9018951F92EC
:102470000F920FB60F9211240BB60F922F933F932A
:102480004F935F936F937F938F939F93AF93BF937C
:10249000EF93FF938091E6039091E703892B29F056
:1024A000E091E603F091E7030995FF91EF91BF9169
:1024B000AF919F918F917F916F915F914F913F91DC
:1024C0002F910F900BBE0F900FBE0F901F9018957D
:1024D0001F920F920FB60F9211240BB60F922F93EB
:1024E0003F934F935F936F937F938F939F93AF939C
:1024F000BF93EF93FF938091E8039091E903892BB9
:1025000029F0E091E803F091E9030995FF91EF913B
:10251000BF91AF919F918F917F916F915F914F91FB
:102520003F912F910F900BBE0F900FBE0F901F90F9
:1025300018951F920F920FB60F9211240BB60F929F
:102540002F933F934F935F936F937F938F939F93BB
:10255000AF93BF93EF93FF938091EA039091EB03C6
:10256000892B29F0E091EA03F091EB030995FF91A3
:10257000EF91BF91AF919F918F917F916F915F91FB
:102580004F913F912F910F900BBE0F900FBE0F9068
:102590001F9018951F920F920FB60F9211242F9330
:1025A0003F938F939F93AF93BF938091ED0390914F
:1025B000EE03A091EF03B091F0033091EC0323E020
:1025C000230F2D3768F126E8230F0296A11DB11DB8
:1025D0002093EC038093ED039093EE03A093EF031D
:1025E000B093F0038091F1039091F203A091F30373
:1025F000B091F4030196A11DB11D8093F103909356
:10260000F203A093F303B093F403BF91AF919F91B2
:102610008F913F912F910F900FBE0F901F901895A3
:102620000196A11DB11DD4CF2FB7F8946091ED0391
:102630007091EE038091EF039091F0032FBF089506
:10264000CF92DF92EF92FF920F931F932FB7F894E0
:10265000C090ED03D090EE03E090EF03F090F00314
:102660002FBFEFB7F8940091ED031091EE03209186
:10267000EF033091F003EFBF0C191D092E093F093C
:10268000601771078207930760F71F910F91FF9002
:10269000EF90DF90CF9008950197009751F0880F49
:1026A000991F880F991F02972FB7F8940197F1F798
:1026B0002FBF0895789484B5886084BD84B5806404
:1026C00084BD84B5826084BD84B5816084BDEEE63E
:1026D000F0E0808181608083EAE7F0E080818460BF
:1026E000808380818260808380818160808380811B
:1026F000806880831092C10008959FB7F8948091FC
:10270000F50381110CC0289A209A8CB580618CBD8C
:102710008CB580648CBD219A229A8091F5038F5FDD
:102720008093F5039FBF08951F920F920FB60F92EB
:1027300011240BB60F922F933F934F935F936F9398
:102740007F938F939F93AF93BF93EF93FF93E0910A
:10275000F603F091F703309781F080917800209193
:1027600079006381748190E00180F281E02D922BE9
:1027700009951092F7031092F603FF91EF91BF9124
:10278000AF919F918F917F916F915F914F913F9109
:102790002F910F900BBE0F900FBE0F901F901895AA
:1027A0001F920F920FB60F9211240BB60F927F92C9
:1027B0008F929F92AF92BF92CF92DF92EF92FF9251
:1027C0000F931F932F933F934F935F936F937F9339
:1027D0008F939F93AF93BF93EF93FF93CF93DF9329
:1027E000CDB7DEB76197DEBFCDBFF090ED00B0EEA4
:1027F0007B2E10EDC12E00ECD02E80EBE82E00EAEF
:1028000010E9F0E8E0E770E660E550E440E330E22C
:1028100020E106C01092ED008091EE0085FD15C00C
:102820009091E0008091E100892B09F49FC0809194
:10283000E00080FDEFCF8091E00081FF82C0209317
:10284000ED008091EE0085FFEBCF1092EE008AE064
:1028500090E08C0F9D1F998788878091FA008A8766
:102860008091FA008B878091FA008C878091FA0022
:102870008D878091FA008E878091FA008F878091F2
:10288000FA00888B8091FA00898B8091EF008F701D
:102890008D838091EF00829581708F839091F000FD
:1028A00092FB992790F99E83882309F49DC040915B
:1028B000F3008091F2008090F1002091F00090E010
:1028C000982F88279295990F907EAA2797FDA0951B
:1028D000BA2F30E2839E40011124AA2497FCA094D1
:1028E000BA2C880D991DAA1DBB1D50E060E070E058
:1028F000E5E1440F551F661F771FEA95D1F7840F56
:10290000951FA61FB71F422F50E055954795559527
:10291000479555954795662757FD6095762F840F07
:10292000951FA61FB71F89839A83AB83BC836091D1
:10293000ED00E091F803F091F903CE0101960995BD
:1029400060CF8091E00082FF03C03093ED0064CF40
:102950008091E00083FF03C04093ED005DCF809144
:10296000E00084FF2BC05093ED0056CFF092ED00B5
:1029700061960FB6F894DEBF0FBECDBFDF91CF9149
:10298000FF91EF91BF91AF919F918F917F916F9147
:102990005F914F913F912F911F910F91FF90EF9079
:1029A000DF90CF90BF90AF909F908F907F900F90CF
:1029B0000BBE0F900FBE0F901F9018958091E000F6
:1029C00085FF03C06093ED0027CF8091E00086FD76
:1029D00022C08091E00087FD2FC08091E10080FF40
:1029E0001DC0F093ED0018CF2091F3008091F2000C
:1029F00090E095958795959587959595879595956B
:102A000087959595879538E0239F800D911D11241A
:102A10009A8389838CCF7093ED00FECE8091E10084
:102A200081FD07C08091E10082FF09C00093ED00A5
:102A3000F3CE1093ED00F0CEE093ED00EDCE80915B
:102A4000E10083FF03C0E092ED00E6CE8091E1005B
:102A500084FF03C0D092ED00DFCE8091E10085FFBE
:102A600003C0C092ED00D8CE8091E10086FFD4CEA5
:102A70007092ED00D1CE0F931F93CF93DF938C0113
:102A800040910D04242F332727FD30953F934F931A
:102A90001F938F9326E231E03F932F93C7EBD2E051
:102AA000DF93CF93ADDBE0910D048DB79EB7089611
:102AB0000FB6F8949EBF0FBE8DBFE7FD29C0609191
:102AC0000E0470E080E094E00E94B231C8010E94E0
:102AD0009E31FF27E7FDF095E650FC4F6083772796
:102AE0007F936F938AE291E09F938F93DF93CF93CD
:102AF00087DB80910D040F900F900F900F900F9037
:102B00000F90823054F010920D0481E080930C04F9
:102B1000DF91CF911F910F9108958F5F80930D04E6
:102B200081E080930C04DF91CF911F910F91089564
:102B30001092FD031092FF031092FE031092010405
:102B4000109200041092F7031092F603EAE7F0E007
:102B500097E09083ACE7B0E080E48C932081286814
:102B60002083109202041092040410920304109225
:102B70000604109205041092F7031092F603908356
:102B80008C932081286820831092070410920904F6
:102B90001092080410920B0410920A041092F7038A
:102BA0001092F60390838C938081886880830895C7
:102BB0001F920F920FB60F9211248F9380913A04B7
:102BC0008F5F80933A04809139048F5F809339043A
:102BD000809138048F5F80933804809137048F5F31
:102BE0008093370480913A048F3F49F180913804F3
:102BF0008C3320F0109238041092480480913704EE
:102C0000853170F01092370480914204813009F1CF
:102C1000809143048130C9F080914404813031F0C7
:102C20008F910F900FBE0F901F9018952D9919C07E
:102C30002D9A8F910F900FBE0F901F9018951092A4
:102C40003A0489E080930F04D1CF2E9B0CC02E98BC
:102C5000E3CF2F990AC02F9A809143048130E1F687
:102C6000F4CF2D98DDCF2E9AD7CF2F98D1CF1092B9
:102C70004A0410924C0410924D0410924E0410928B
:102C80004F048FEF9FEF9093510480935004109264
:102C90005604109255048CEF9FE090935804809353
:102CA000570487E08093520481E08093530410928C
:102CB0004B040895CF93DF93CDB7DEB729970FB6B6
:102CC000F894DEBF0FBECDBF10923A04DC012D9107
:102CD0003C912231310509F48BC090F5203131054A
:102CE00009F468C02131310511F5DC011796ED9129
:102CF000FC91189788E0AFE0B4E001900D928A95BE
:102D0000E1F749E050E065EA70E0CE0101960E94EB
:102D1000313380E48093ED001092EE008F818111B9
:102D200031C090E88D818F70892B8093EF002996B8
:102D30000FB6F894DEBF0FBECDBFDF91CF910895DF
:102D40002331310509F12431310589F7DC0117966A
:102D5000ED91FC91189788E0A7E1B4E001900D9205
:102D60008A95E1F749E050E067EB70E0CE0101960B
:102D70000E94313380E38093ED001092EE008F814A
:102D8000882379F290E9CECFDC011796ED91FC9182
:102D9000189788E0AFE1B4E001900D928A95E1F7D1
:102DA00049E050E069EC70E0CE0101960E943133B9
:102DB00080E2B0CFDC011796ED91FC91189788E086
:102DC000AFE2B4E001900D928A95E1F749E050E05E
:102DD0006DEE70E0CE0101960E9431331092ED004D
:102DE0001092EE008F81882309F49BCF90E99ACF4F
:102DF000DC011796ED91FC91189788E0A7E2B4E00A
:102E000001900D928A95E1F749E050E06BED70E09A
:102E1000CE0101960E94313380E17CCFFC0181819B
:102E200081115CC093858485289820E92EBD00001F
:102E30000DB407FEFDCF2EB524E22EBD00000DB46B
:102E400007FEFDCF2EB528EE2EBD00000DB407FE07
:102E5000FDCF2EB59EBD00000DB407FEFDCF9EB583
:102E60008EBD00000DB407FEFDCF8EB5289AA4EEEE
:102E700074E260E128986EBD00000DB407FEFDCF3E
:102E80008EB57EBD00000DB407FEFDCF8EB5AEBD84
:102E900000000DB407FEFDCF8EB51EBC00000DB4C2
:102EA00007FEFDCF8EB51EBC00000DB407FEFDCFA2
:102EB0009EB51EBC00000DB407FEFDCF8EB5289A4E
:102EC000292F382F438554854217530729F02F3F68
:102ED0003F4081F682E3089580E00895289A438573
:102EE0005485289880E98EBD00000DB407FEFDCF03
:102EF0008EB584E28EBD00000DB407FEFDCF8EB509
:102F000088EE8EBD00000DB407FEFDCF8EB54EBD20
:102F100000000DB407FEFDCF8EB55EBD00000DB400
:102F200007FEFDCF8EB51EBC00000DB407FEFDCF21
:102F30008EB51EBC00000DB407FEFDCF8EB5289ADD
:102F4000118270CFCF93FC01CB01258536852617E2
:102F5000370708F071C02181211174C033852485A1
:102F6000289840E94EBD00000DB407FEFDCF4EB5D8
:102F700044E24EBD00000DB407FEFDCF4EB548EE55
:102F80004EBD00000DB407FEFDCF4EB53EBD0000A6
:102F90000DB407FEFDCF3EB52EBD00000DB407FEFB
:102FA000FDCF2EB5289A258536852817390708F0D4
:102FB00040C0C4EEB4E2A0E16CEF7FE02898AEBD63
:102FC00000000DB407FEFDCF2EB5BEBD00000DB450
:102FD00007FEFDCF2EB5CEBD00000DB407FEFDCF20
:102FE0002EB51EBC00000DB407FEFDCF2EB51EBCD5
:102FF00000000DB407FEFDCF3EB51EBC00000DB4B1
:1030000007FEFDCF2EB5289A432F522F4F3F2FE0BA
:103010005207A9F023853485241B350B2C7F3F7084
:10302000AB01421B530B568745874817590708F4D5
:10303000C5CF818181113BC080E0CF91089582E3AB
:10304000CF910895289A43855485289820E92EBD6C
:1030500000000DB407FEFDCF2EB524E22EBD00000A
:103060000DB407FEFDCF2EB528EE2EBD00000DB429
:1030700007FEFDCF2EB54EBD00000DB407FEFDCFFF
:103080002EB55EBD00000DB407FEFDCF2EB51EBCF3
:1030900000000DB407FEFDCF2EB51EBC00000DB420
:1030A00007FEFDCF2EB5289A21E0218357CF438517
:1030B000548560E070E050586F4E7F4F2898862FFF
:1030C00080688EBD00000DB407FEFDCF8EB55EBDDD
:1030D00000000DB407FEFDCF8EB54EBD00000DB44F
:1030E00007FEFDCF8EB581E08183A6CF6F927F92E0
:1030F0008F929F92AF92BF92CF92DF92EF92FF9208
:103100000F931F93CF93DF9300D000D0CDB7DEB7DE
:103110008C013B012D5F3F4F4F4F5F4F2C7F21159F
:1031200031054105510509F440C068EED62E74E220
:10313000E72EE0E9FE2ECC24C394D8011D968D9194
:103140009C911E97A0E0B0E082179307A407B507F3
:1031500008F43FC080E090E0DC01F301E80FF91FC4
:10316000E491EEBD00000DB407FEFDCF6EB50196F3
:10317000A11DB11D82179307A407B50770F3D801ED
:103180001B968D919C911C97820F931F9F701C968C
:103190009C938E931B971D968D919C911E97821BDD
:1031A000930B1E969C938E931D9780E00F900F902B
:1031B0000F900F90DF91CF911F910F91FF90EF90A3
:1031C000DF90CF90BF90AF909F908F907F906F9047
:1031D0000895F801818181118FC0F801938584855C
:1031E0002898FEBC00000DB407FEFDCF6EB5EEBC06
:1031F00000000DB407FEFDCF6EB5DEBC00000DB4BF
:1032000007FEFDCF6EB59EBD00000DB407FEFDCFDD
:103210009EB58EBD00000DB407FEFDCF8EB5289A79
:10322000D8011D96ED91FC911E974F01A12CB12C58
:10323000DA01C90182169306A406B50610F4D50179
:10324000C4010097A105B10509F4CFC0812C912CD0
:103250005401F301E80DF91DE491EEBD00000DB439
:1032600007FEFDCF6EB5EFEF8E1A9E0AAE0ABE0ABC
:1032700088169906AA06BB0661F74C015D01F1E0CC
:103280008F1A9108A108B108B4016F5F7F4F660ED5
:10329000771EF801A584B684F80163857485680FEC
:1032A000791F7F7074876387A81AB90AB686A586C6
:1032B000281B390B4A0B5B0B922F832F2130F8E030
:1032C0003F074105510510F090E088E0692F782F05
:1032D000C80129833A834B835C8334DE29813A8198
:1032E0004B815C81823309F482C02115310541058F
:1032F000510509F022CF59CF289A838594852898C3
:10330000FEBC00000DB407FEFDCF6EB5EEBC0000A4
:103310000DB407FEFDCF6EB5DEBC00000DB407FE98
:10332000FDCF6EB58EBD00000DB407FEFDCF6EB5AE
:103330009EBD00000DB407FEFDCF8EB51EBC000083
:103340000DB407FEFDCF8EB51EBC00000DB407FE08
:10335000FDCF8EB5289AD80111961C9211971B9615
:103360009C911B971C968C912898FEBC00000DB474
:1033700007FEFDCF6EB5EEBC00000DB407FEFDCF1D
:103380006EB5DEBC00000DB407FEFDCF6EB59EBD70
:1033900000000DB407FEFDCF9EB58EBD00000DB43C
:1033A00007FEFDCF8EB5289AF80183859485A0E0AD
:1033B000B0E09058AF4EBF4F28986A2F60686EBD3E
:1033C00000000DB407FEFDCF6EB59EBD00000DB42C
:1033D00007FEFDCF6EB58EBD00000DB407FEFDCF1C
:1033E0008EB5D8011196CC921BCF5F0155CF82E3E9
:1033F000DDCECF92DF92EF92FF920F931F93CF9388
:10340000DF9300D0CDB7DEB76C017B01FC01818179
:10341000882309F441C0F60185859685049780F1DB
:103420004EBD00000DB407FEFDCF8EB55EBD0000A1
:103430000DB407FEFDCF8EB5EEBC00000DB407FE47
:10344000FDCF8EB5FEBC00000DB407FEFDCF8EB5DE
:10345000F6018385948504969F709487838785857C
:10346000968504979687858780E00F900F90DF916F
:10347000CF911F910F91FF90EF90DF90CF90089523
:1034800064E070E0C60149835A835CDD49815A815A
:10349000823331F682E3E9CF0385148520E030E002
:1034A00010582F4E3F4F2898822F80688EBD000005
:1034B0000DB407FEFDCF8EB51EBD00000DB407FE96
:1034C000FDCF8EB50EBD00000DB407FEFDCF8EB54D
:1034D00081E0F601818385859685049760F464E038
:1034E00070E0C60149835A832DDD49815A818233B8
:1034F00011F482E325C04EBD00000DB407FEFDCFE0
:103500008EB55EBD00000DB407FEFDCF8EB5EEBCDE
:1035100000000DB407FEFDCF8EB5FEBC00000DB45B
:1035200007FEFDCF8EB5F6018385948504969F70C6
:10353000948783878585968504979687858780E01D
:10354000289AF60143855485289890E99EBD00008D
:103550000DB407FEFDCF9EB594E29EBD00000DB4F4
:1035600007FEFDCF9EB598EE9EBD00000DB407FE90
:10357000FDCF9EB54EBD00000DB407FEFDCF9EB53C
:103580005EBD00000DB407FEFDCF9EB51EBC000061
:103590000DB407FEFDCF9EB51EBC00000DB407FEA6
:1035A000FDCF9EB5289AF60111825FCF0F931F932E
:1035B000CF93DF938B01D82FC92F20914B04222367
:1035C00009F442C020915704309158042430310549
:1035D00070F10EBD00000DB407FEFDCF8EB51EBD0F
:1035E00000000DB407FEFDCF8EB5DEBD00000DB4AA
:1035F00007FEFDCF8EB5CEBD00000DB407FEFDCF9A
:103600008EB5809155049091560404969F709093C6
:103610005604809355042450310930935804209364
:10362000570480E0DF91CF911F910F91089564E0DE
:1036300070E08AE494E086DC823309F49BC0209138
:10364000570430915804C5CFE0915504F0915604C9
:10365000AF0160E070E050586F4E7F4F2898862F82
:1036600080688EBD00000DB407FEFDCF8EB55EBD37
:1036700000000DB407FEFDCF8EB54EBD00000DB4A9
:1036800007FEFDCF8EB581E080934B042091570457
:10369000309158042430310580F464E070E08AE40D
:1036A00094E050DC823309F46BC0E0915504F09152
:1036B000560420915704309158040EBD00000DB4FB
:1036C00007FEFDCF8EB51EBD00000DB407FEFDCF79
:1036D0008EB5DEBD00000DB407FEFDCF8EB5CEBDAC
:1036E00000000DB407FEFDCF8EB53496FF70F09349
:1036F0005604E09355042450310930935804209324
:10370000570480E0289AAF01289890E99EBD0000F8
:103710000DB407FEFDCF9EB594E29EBD00000DB432
:1037200007FEFDCF9EB598EE9EBD00000DB407FECE
:10373000FDCF9EB54EBD00000DB407FEFDCF9EB57A
:103740005EBD00000DB407FEFDCF9EB51EBC00009F
:103750000DB407FEFDCF9EB51EBC00000DB407FEE4
:10376000FDCF9EB5289A10924B04DF91CF911F9107
:103770000F91089582E3DF91CF911F910F910895EA
:1037800082E3E0915504F0915604BCCF6F927F9292
:103790008F929F92AF92BF92CF92DF92EF92FF9261
:1037A0000F931F93CF93DF9300D000D0CDB7DEB738
:1037B0003C018B012D5F3F4F4F4F5F4F2C7F2115F9
:1037C000310541055105E9F1F8EEDF2EA4E2EA2EBC
:1037D000B0E9FB2ECC24C394D3011D968D919C910E
:1037E0001E97A0E0B0E082179307A407B507E8F1A1
:1037F000F80180E090E0DC0161916EBD00000DB445
:1038000007FEFDCF6EB50196A11DB11D821793076E
:10381000A407B50788F3D3011B968D919C911C9743
:10382000820F931F9F701C969C938E931B971D96DF
:103830008D919C911E97821B930B1E969C938E9349
:103840001D9780E00F900F900F900F90DF91CF9118
:103850001F910F91FF90EF90DF90CF90BF90AF90AE
:103860009F908F907F906F900895F30181818111D7
:103870008DC0F301938584852898FEBC00000DB4AB
:1038800007FEFDCF6EB5EEBC00000DB407FEFDCF08
:103890006EB5DEBC00000DB407FEFDCF6EB59EBD5B
:1038A00000000DB407FEFDCF9EB58EBD00000DB427
:1038B00007FEFDCF8EB5289AD3011D96ED91FC91A0
:1038C0001E974F01A12CB12CDA01C9018216930673
:1038D000A406B50610F4D501C4010097A105B105F1
:1038E00009F4CDC0F801812C912C540161916EBD79
:1038F00000000DB407FEFDCF6EB56FEF861A960A75
:10390000A60AB60A88169906AA06BB0679F74C01DC
:103910005D01E1E08E1A9108A108B108B4016F5F62
:103920007F4F060F171FF301A584B684F30163854B
:103930007485680F791F7F7074876387A81AB90A26
:10394000B686A586281B390B4A0B5B0B922F832F5B
:103950002130F8E03F074105510510F090E088E084
:10396000692F782FC30129833A834B835C83EADA7A
:1039700029813A814B815C81823309F482C021150F
:1039800031054105510509F027CF5BCF289A838582
:1039900094852898FEBC00000DB407FEFDCF6EB5DF
:1039A000EEBC00000DB407FEFDCF6EB5DEBC00001E
:1039B0000DB407FEFDCF6EB58EBD00000DB407FE41
:1039C000FDCF6EB59EBD00000DB407FEFDCF8EB5D8
:1039D0001EBC00000DB407FEFDCF8EB51EBC00005E
:1039E0000DB407FEFDCF8EB5289AD30111961C9217
:1039F00011971B969C911B971C968C912898FEBC46
:103A000000000DB407FEFDCF6EB5EEBC00000DB496
:103A100007FEFDCF6EB5DEBC00000DB407FEFDCF86
:103A20006EB59EBD00000DB407FEFDCF9EB58EBDE8
:103A300000000DB407FEFDCF8EB5289AF3018385F3
:103A40009485A0E0B0E09058AF4EBF4F28986A2F01
:103A500060686EBD00000DB407FEFDCF6EB59EBD63
:103A600000000DB407FEFDCF6EB58EBD00000DB495
:103A700007FEFDCF8EB5D3011196CC921DCF5F010D
:103A800055CF82E3DFCE8F929F92AF92BF92CF92BB
:103A9000DF92EF92FF920F931F93CF93DF931F92CA
:103AA000CDB7DEB74C016B015A014CE05FEF6FEF11
:103AB0007FEF29839EDCA501662757FD6095762F51
:103AC000BA0155274427C601A0E0B0E0482B592B86
:103AD0006A2B7B2BC4018DDCA80160E070E0BA0189
:103AE000552744272981422BC40183DCF70101902B
:103AF0000020E9F7EE19FF099F0140E050E0F401D2
:103B00008181882381F0B701C4010F90DF91CF91AB
:103B10001F910F91FF90EF90DF90CF90BF90AF90EB
:103B20009F908F9033CE83859485A0E0B0E090582D
:103B3000AF4EBF4F28986A2F60686EBD00000DB46D
:103B400007FEFDCF6EB59EBD00000DB407FEFDCF94
:103B50006EB58EBD00000DB407FEFDCF8EB581E0C1
:103B6000F4018183B701C40111DE289AF401438571
:103B70005485289890E99EBD00000DB407FEFDCF46
:103B80009EB594E29EBD00000DB407FEFDCF9EB52C
:103B900098EE9EBD00000DB407FEFDCF9EB54EBD54
:103BA00000000DB407FEFDCF9EB55EBD00000DB454
:103BB00007FEFDCF9EB51EBC00000DB407FEFDCF75
:103BC0009EB51EBC00000DB407FEFDCF9EB5289A21
:103BD000F40111820F90DF91CF911F910F91FF900F
:103BE000EF90DF90CF90BF90AF909F908F9008950F
:103BF0000F931F93CF93DF93CDB7DEB7C054D10996
:103C00000FB6F894DEBF0FBECDBF9E012E5A3F4FB8
:103C100062964EAD5FAD629760E470E08E010F5F1B
:103C20001F4FC8010E9498334CE05FEF6FEF7FEFAA
:103C30008AE494E0DEDB2B964EAD5FAD2B9760E01F
:103C400070E02D968EAD9FAD2D97AA2797FDA0957C
:103C5000BA2FDC0199278827482B592B6A2B7B2BFD
:103C60008AE494E0C6DB60964EAD5FAD609760E09D
:103C700070E0BA01552744272E968FAD2E97482B1A
:103C80008AE494E0B6DBF80101900020E9F7E01B3C
:103C9000F10B9F0140E050E080914B04882381F0BC
:103CA000B8018AE494E072DDC05CDF4F0FB6F8948F
:103CB000DEBF0FBECDBFDF91CF911F910F91089551
:103CC0008091550490915604A0E0B0E09058AF4E1A
:103CD000BF4F28986A2F60686EBD00000DB407FEC4
:103CE000FDCF6EB59EBD00000DB407FEFDCF6EB5D5
:103CF0008EBD00000DB407FEFDCF8EB581E0809330
:103D00004B04B8018AE494E041DD289A40915504BF
:103D100050915604289890E99EBD00000DB407FE0E
:103D2000FDCF9EB594E29EBD00000DB407FEFDCF11
:103D30009EB598EE9EBD00000DB407FEFDCF9EB56A
:103D40004EBD00000DB407FEFDCF9EB55EBD000068
:103D50000DB407FEFDCF9EB51EBC00000DB407FEDE
:103D6000FDCF9EB51EBC00000DB407FEFDCF9EB575
:103D7000289A10924B0498CFEF92FF920F931F93C3
:103D8000CF93DF93CDB7DEB7C058D1090FB6F89403
:103D9000DEBF0FBECDBFC757DF4F08811981C9589D
:103DA000D040CE56DF4F68817981C259D040CE01D4
:103DB00001960E943A337E0181E4E80EF11C9E01D7
:103DC0002C563F4FAE014F5F5F4F60E470E0C7017C
:103DD0000E9498334CE05FEF6FEF7FEFC80109DB83
:103DE000C557DF4F48815981CB58D04060E070E023
:103DF000C357DF4F88819981CD58D040AA2797FDBE
:103E0000A095BA2FDC0199278827482B592B6A2BBC
:103E10007B2BC801EEDAC057DF4F48815981C0596A
:103E2000D04060E070E0BA0155274427C157DF4F0A
:103E30008881CF58D040482BC801DBDAF7010190C8
:103E40000020E9F7EE19FF099F0140E050E0F8017A
:103E50008181882389F0B701C80198DCC058DF4F01
:103E60000FB6F894DEBF0FBECDBFDF91CF911F918B
:103E70000F91FF90EF90089583859485A0E0B0E0C6
:103E80009058AF4EBF4F28986A2F60686EBD0000F3
:103E90000DB407FEFDCF6EB59EBD00000DB407FE4C
:103EA000FDCF6EB58EBD00000DB407FEFDCF8EB503
:103EB00081E0F8018183B701C80168DC289AF80124
:103EC00043855485289890E99EBD00000DB407FEF7
:103ED000FDCF9EB594E29EBD00000DB407FEFDCF60
:103EE0009EB598EE9EBD00000DB407FEFDCF9EB5B9
:103EF0004EBD00000DB407FEFDCF9EB55EBD0000B7
:103F00000DB407FEFDCF9EB51EBC00000DB407FE2C
:103F1000FDCF9EB51EBC00000DB407FEFDCF9EB5C3
:103F2000289AF80111829ACF4F925F926F927F92F6
:103F30008F929F92AF92BF92CF92DF92EF92FF92B9
:103F40001F93CF93DF93CDB7DEB72C970FB6F894BE
:103F5000DEBF0FBECDBF2C018CE0EAE0F1E0DE0158
:103F6000119601900D928A95E1F78CB58C7F8CBDEE
:103F70008DB581608DBD28981EBC00000DB407FE74
:103F8000FDCF8EB51EBC00000DB407FEFDCF8EB573
:103F90001EBC00000DB407FEFDCF8EB51EBC000098
:103FA0000DB407FEFDCF8EB51EBC00000DB407FE9C
:103FB000FDCF8EB5289A64E170E080E090E00E9429
:103FC000201364E170E080E090E00E94201310E094
:103FD00098E0692E24E2722E30E1832E4CE6942E76
:103FE00055E2A52E60E9B62E28988EBC00000DB4CF
:103FF00007FEFDCF8EB57EBC00000DB407FEFDCFE1
:104000008EB56EBC00000DB407FEFDCF8EB51EBC94
:1040100000000DB407FEFDCF8EB51EBC00000DB430
:1040200007FEFDCF4EB51EBC00000DB407FEFDCF50
:104030003EB51EBC00000DB407FEFDCF9EB51EBCF4
:1040400000000DB407FEFDCF8EB5289AC42ED32EE6
:10405000E92EF82E89E09DE30E944C1328988EBC2F
:1040600000000DB407FEFDCF8EB57EBC00000DB480
:1040700007FEFDCF8EB56EBC00000DB407FEFDCF70
:104080008EB51EBC00000DB407FEFDCF8EB51EBC64
:1040900000000DB407FEFDCFEEB51EBC00000DB450
:1040A00007FEFDCF3EB51EBC00000DB407FEFDCFE0
:1040B0009EB51EBC00000DB407FEFDCF8EB5289A3C
:1040C0004E2F532F692F782F4C195D096E097F09E8
:1040D000440F551F661F771F440F551F661F771F1C
:1040E000440F551F661F771F440F551F661F771F0C
:1040F000440F551F661F771F440F551F661F771FFC
:10410000411586EC58078DEC680782E07807F0F4DB
:104110002898BEBC00000DB407FEFDCF8EB5AEBC26
:1041200000000DB407FEFDCF8EB59EBC00000DB49F
:1041300007FEFDCF8EB51EBD00000DB407FEFDCFFE
:104140008EB5289A1F5F1F3109F04ECF289880E95D
:104150008EBD00000DB407FEFDCF8EB584E28EBD8E
:1041600000000DB407FEFDCF8EB58CE08EBD0000C3
:104170000DB407FEFDCF8EB54EBD00000DB407FE99
:10418000FDCF8EB55EBD00000DB407FEFDCF8EB530
:104190006EBD00000DB407FEFDCF8EB57EBD0000E4
:1041A0000DB407FEFDCF8EB5289A289880E98EBD04
:1041B00000000DB407FEFDCF8EB51EBC00000DB48F
:1041C00007FEFDCF8EB51EBC00000DB407FEFDCF6F
:1041D0008EB5FE013196CE010D9621912EBD0000C7
:1041E0000DB407FEFDCF2EB5E817F907B1F7289AF1
:1041F000289880E98EBD00000DB407FEFDCF8EB576
:1042000084E28EBD00000DB407FEFDCF8EB580E5C3
:104210008EBD00000DB407FEFDCF8EB582E08EBDD1
:1042200000000DB407FEFDCF8EB5289AF20114866A
:1042300013868CEF9FE0968785872C960FB6F894AF
:10424000DEBF0FBECDBFDF91CF911F91FF90EF90EA
:10425000DF90CF90BF90AF909F908F907F906F90A6
:104260005F904F900895CF92DF92EF92FF920F935D
:104270001F93CF93DF93CDB7DEB76F970FB6F89448
:10428000DEBF0FBECDBF40E051EE60E070E087EBD7
:1042900092E00E94390D8091500490915104019652
:1042A00019F08DB1887F8DB984B1856084B9289A61
:1042B0000E947D138CB58C7F8CBD8DB581608DBDCA
:1042C0008CB58F7D8CBD8CB5837F8CBD8AE494E0EA
:1042D0002BDE289880E98EBD00000DB407FEFDCFCF
:1042E0008EB584E28EBD00000DB407FEFDCF8EB505
:1042F00088E48EBD00000DB407FEFDCF8EB51EBC58
:1043000000000DB407FEFDCF8EB51EBC00000DB43D
:1043100007FEFDCF8EB5289A289880E98EBD000053
:104320000DB407FEFDCF8EB584E28EBD00000DB446
:1043300007FEFDCF8EB58CE48EBD00000DB407FEE8
:10434000FDCF8EB58AE08EBD00000DB407FEFDCF17
:104350008EB51EBC00000DB407FEFDCF8EB5289AA9
:10436000289880E98EBD00000DB407FEFDCF8EB504
:1043700084E28EBD00000DB407FEFDCF8EB580E453
:104380008EBD00000DB407FEFDCF8EB58CE08EBD56
:1043900000000DB407FEFDCF8EB51EBC00000DB4AD
:1043A00007FEFDCF8EB5289A289880E98EBD0000C3
:1043B0000DB407FEFDCF8EB584E28EBD00000DB4B6
:1043C00007FEFDCF8EB58CE38EBD00000DB407FE59
:1043D000FDCF8EB584E28EBD00000DB407FEFDCF8B
:1043E0008EB581E08EBD00000DB407FEFDCF8EB509
:1043F000289A289880E98EBD00000DB407FEFDCFF5
:104400008EB584E28EBD00000DB407FEFDCF8EB5E3
:1044100084E38EBD00000DB407FEFDCF8EB51EBC3B
:1044200000000DB407FEFDCF8EB51EBC00000DB41C
:1044300007FEFDCF8EB5289A289880E98EBD000032
:104440000DB407FEFDCF8EB584E28EBD00000DB425
:1044500007FEFDCF8EB588E38EBD00000DB407FECC
:10446000FDCF8EB589E28EBD00000DB407FEFDCFF5
:104470008EB51EBC00000DB407FEFDCF8EB5289A88
:10448000289880E98EBD00000DB407FEFDCF8EB5E3
:1044900084E28EBD00000DB407FEFDCF8EB58CE228
:1044A0008EBD00000DB407FEFDCF8EB58BE28EBD34
:1044B00000000DB407FEFDCF8EB51EBC00000DB48C
:1044C00007FEFDCF8EB5289A289880E98EBD0000A2
:1044D0000DB407FEFDCF8EB584E28EBD00000DB495
:1044E00007FEFDCF8EB588E28EBD00000DB407FE3D
:1044F000FDCF8EB584E28EBD00000DB407FEFDCF6A
:104500008EB582E08EBD00000DB407FEFDCF8EB5E6
:10451000289A289880E98EBD00000DB407FEFDCFD3
:104520008EB584E28EBD00000DB407FEFDCF8EB5C2
:1045300080E38EBD00000DB407FEFDCF8EB580EE8A
:104540008EBD00000DB407FEFDCF8EB581E08EBD9F
:1045500000000DB407FEFDCF8EB5289A289880E99B
:104560008EBD00000DB407FEFDCF8EB584E28EBD7A
:1045700000000DB407FEFDCF8EB584E48EBD0000B3
:104580000DB407FEFDCF8EB580E18EBD00000DB4E9
:1045900007FEFDCF8EB581E08EBD00000DB407FE95
:1045A000FDCF8EB5289A289880E98EBD00000DB405
:1045B00007FEFDCF8EB584E28EBD00000DB407FE70
:1045C000FDCF8EB588E68EBD00000DB407FEFDCF91
:1045D0008EB581E08EBD00000DB407FEFDCF8EB517
:1045E0001EBC00000DB407FEFDCF8EB5289A28989A
:1045F00080E98EBD00000DB407FEFDCF8EB584E2CC
:104600008EBD00000DB407FEFDCF8EB580E68EBDD9
:1046100000000DB407FEFDCF8EB51EBC00000DB42A
:1046200007FEFDCF8EB51EBC00000DB407FEFDCF0A
:104630008EB5289A289880E98EBD00000DB407FE3B
:10464000FDCF8EB584E28EBD00000DB407FEFDCF18
:104650008EB58CE68EBD00000DB407FEFDCF8EB585
:1046600085E08EBD00000DB407FEFDCF8EB51EBCEB
:1046700000000DB407FEFDCF8EB5289A289888E477
:104680008EBD00000DB407FEFDCF8EB51EBC000030
:104690000DB407FEFDCF8EB51EBC00000DB407FEA5
:1046A000FDCF8EB51EBC00000DB407FEFDCF8EB54C
:1046B0001EBC00000DB407FEFDCF8EB5289A64E144
:1046C00070E080E090E00E942013289880E98EBD81
:1046D00000000DB407FEFDCF8EB584E28EBD000054
:1046E0000DB407FEFDCF8EB584E58EBD00000DB480
:1046F00007FEFDCF8EB581E08EBD00000DB407FE34
:10470000FDCF8EB5289A40E150E060E070E087EB85
:1047100092E00E941B0F28988CE08EBD00000DB423
:1047200007FEFDCF8EB51EBC00000DB407FEFDCF09
:104730008EB51EBC00000DB407FEFDCF8EB51EBCAD
:1047400000000DB407FEFDCF8EB51EBC00000DB4F9
:1047500007FEFDCF3EB51EBC00000DB407FEFDCF29
:104760002EB51EBC00000DB407FEFDCF9EB51EBCCD
:1047700000000DB407FEFDCF8EB5289AC32ED22EB1
:10478000E92EF82E38E0C31631E0D306E306F10433
:10479000A1F06EE271E087EB92E00E94D80E20E17A
:1047A00030E0B701A60187EB92E00E94611065E45A
:1047B00071E087EB92E00E94E80E60E07FEF8FEF00
:1047C0009FEF0E94D61A67E070E080E096E20E94B8
:1047D000D61A86E1E9E6F1E0DE01119601900D922C
:1047E0008A95E1F76FEF7FEF8FEF94E00E94D61A82
:1047F000CE0101967C0100E016E02DE142E250E09E
:1048000060EF70E08AE494E03ED960E070E08FEF02
:1048100094E00E94D61A81E591E09F938F9386E001
:104820008F931F928DE18F931F9288E88F931F9231
:1048300080EF8F938AE494E09F938F93D9D960E0BF
:1048400070E0CB010E94D61A61E07FEF8FEF9FEFFF
:104850000E94D61A8AE494E00E940E1781E090E04C
:104860000090520402C0880F991F0A94E2F728981A
:1048700020E12EBD00000FB6F894DEBF0FBECDBF05
:104880000DB407FEFDCF2EB524E22EBD00000DB401
:1048900007FEFDCF2EB520E92EBD00000DB407FEAA
:1048A000FDCF2EB51EBC00000DB407FEFDCF2EB50A
:1048B0001EBC00000DB407FEFDCF9EB5289A982BB4
:1048C00080E928988EBD00000DB407FEFDCF2EB5FF
:1048D00024E22EBD00000DB407FEFDCF2EB58EBD27
:1048E00000000DB407FEFDCF8EB59EBD00000DB4D7
:1048F00007FEFDCF8EB5289A42E25FEF6FEF7FEFA4
:104900008AE494E00E94F91940E050E0BA018AE498
:1049100094E00E94F91980914B04882309F41CC487
:104920002FED3AE040E050E066EF70E08AE494E07A
:104930000E9476188AE494E00E940E1760E07FEFF0
:104940008FEF9FEF0E94D61A67E070E080E096E25A
:104950000E94D61A60E070E080E095E00E94D61ACE
:1049600060E070E080E091E00E94D61A41E358EEEA
:1049700063E077E08AE494E00E94F91941E354EFA0
:1049800061E178E08AE494E00E94F91960E070E067
:10499000CB010E94D61A61E07FEF8FEF9FEF0E945C
:1049A000D61A8AE494E00E940E178AE596E1909365
:1049B000F9038093F80381E08093D8001092DE0021
:1049C0001092DF0090EA9093DB001092EC0086E0FA
:1049D0008093E2008CE08093E30087E38093E4001F
:1049E0001092E5008091D80082608093D8001092E8
:1049F000ED001092EF001092EE0080E18093ED0048
:104A00001092EF001092EE0080E28093ED00109281
:104A1000EF001092EE0080E38093ED001092EF0023
:104A20001092EE0080E48093ED001092EF0010925F
:104A3000EE0080E58093ED001092EF001092EE0002
:104A400080E68093ED001092EF001092EE0080E778
:104A50008093ED001092EF001092EE0080E88093BA
:104A6000ED001092EF001092EE0080E98093ED00CF
:104A70001092EF001092EE009093ED001092EF0074
:104A80001092EE0080EB8093ED001092EF001092F8
:104A9000EE0080EC8093ED001092EF001092EE009B
:104AA00080ED8093ED001092EF001092EE0080EE0A
:104AB0008093ED001092EF001092EE0080EF809353
:104AC000ED001092EF001092EE00789449E050E073
:104AD0006DEE70E0CE0147960E94313349E050E020
:104AE00064EE70E0CE0101960E9431331092ED0029
:104AF0001092EE008091DE0081608093DE002D8DAB
:104B00008F89988DA98DBA8D222309F43CC4AC01FC
:104B1000BD0115E176956795579547951A95D1F79B
:104B20004093F300AC01BD010DE076956795579574
:104B300047950A95D1F74093F200AC01BD0195E08D
:104B400076956795579547959A95D1F74093F100DB
:104B5000880F880F880F8093F0008091F0009C8D63
:104B6000992309F4F7C294E0892B8093F0002D8DEE
:104B700089819A81AB81BC81222309F4F1C3AC0104
:104B8000BD01E5E17695679557954795EA95D1F78B
:104B90004093F700AC01BD01FDE076956795579510
:104BA0004795FA95D1F74093F600AC01BD01A5E019
:104BB0007695679557954795AA95D1F74093F50057
:104BC000880F880F880F8093F4009091F4008E81F5
:104BD000882309F4BDC224E081E03F81311101C086
:104BE00080E0820F892B8093F4008D8D8111B6C3F4
:104BF00090E88B8D8F70892B8093EF0049E050E017
:104C00006BED70E0CE0147960E94313349E050E0F1
:104C100062ED70E0CE0101960E94313380E1809315
:104C2000ED001092EE008091DE0082608093DE0045
:104C30002D8D8F89988DA98DBA8D222309F47BC380
:104C4000AC01BD0115E176956795579547951A9585
:104C5000D1F74093F300AC01BD010DE07695679567
:104C6000579547950A95D1F74093F200AC01BD01E5
:104C700095E076956795579547959A95D1F7409326
:104C8000F100880F880F880F8093F0008091F0006A
:104C90009C8D992309F45AC294E0892B8093F000EB
:104CA0002D8D89819A81AB81BC81222309F430C387
:104CB000AC01BD01E5E17695679557954795EA9575
:104CC000D1F74093F700AC01BD01FDE07695679503
:104CD00057954795FA95D1F74093F600AC01BD0181
:104CE000A5E07695679557954795AA95D1F7409396
:104CF000F500880F880F880F8093F4009091F400DE
:104D00008E81882309F420C224E081E03F813111A3
:104D100001C080E0820F892B8093F4008D8D81117A
:104D2000F5C290E88B8D8F70892B8093EF0049E05E
:104D300050E069EC70E0CE0147960E94313349E0C3
:104D400050E060EC70E0CE0101960E94313380E2C9
:104D50008093ED001092EE008091DE0084608093DD
:104D6000DE002D8D8F89988DA98DBA8D222309F4AF
:104D7000BAC2AC01BD0115E1769567955795479587
:104D80001A95D1F74093F300AC01BD010DE0769583
:104D90006795579547950A95D1F74093F200AC0176
:104DA000BD0195E076956795579547959A95D1F70A
:104DB0004093F100880F880F880F8093F000809156
:104DC000F0009C8D992309F4BDC194E0892B809358
:104DD000F0002D8D89819A81AB81BC81222309F459
:104DE0006FC2AC01BD01E5E1769567955795479592
:104DF000EA95D1F74093F700AC01BD01FDE076954F
:104E0000679557954795FA95D1F74093F600AC0111
:104E1000BD01A5E07695679557954795AA95D1F779
:104E20004093F500880F880F880F8093F4009091CD
:104E3000F4008E81882309F483C124E081E03F815E
:104E4000311101C080E0820F892B8093F4008D8D99
:104E5000811134C290E88B8D8F70892B8093EF0085
:104E600049E050E067EB70E0CE0147960E94313395
:104E700049E050E06EEA70E0CE0101960E943133C5
:104E800080E38093ED001092EE008091DE00886058
:104E90008093DE002D8D8F89988DA98DBA8D222368
:104EA00009F4F9C1AC01BD0115E1769567955795F7
:104EB00047951A95D1F74093F300AC01BD010DE081
:104EC00076956795579547950A95D1F74093F200E7
:104ED000AC01BD0195E076956795579547959A95F4
:104EE000D1F74093F100880F880F880F8093F0006E
:104EF0008091F0009C8D992309F420C194E0892BC6
:104F00008093F0002D8D89819A81AB81BC81222311
:104F100009F4AEC1AC01BD01E5E176956795579501
:104F20004795EA95D1F74093F700AC01BD01FDE04C
:104F30007695679557954795FA95D1F74093F60082
:104F4000AC01BD01A5E07695679557954795AA9563
:104F5000D1F74093F500880F880F880F8093F400F5
:104F60009091F4008E81882309F4E6C024E081E06A
:104F70003F81311101C080E0820F892B8093F400C2
:104F80008D8D811173C190E88B8D8F70892B8093EB
:104F9000EF0049E050E065EA70E0CE0147960E94DC
:104FA000313349E050E06CE970E0CE0101960E9497
:104FB000313380E48093ED001092EE008091DE00AA
:104FC00080618093DE002D8D8F89988DA98DBA8D9B
:104FD000222309F438C1AC01BD0115E1769567952E
:104FE000579547951A95D1F74093F300AC01BD0151
:104FF0000DE076956795579547950A95D1F74093BB
:10500000F200AC01BD0195E07695679557954795FF
:105010009A95D1F74093F100880F880F880F8093FD
:10502000F0008091F0009C8D992309F483C094E0F6
:10503000892B8093F0002D8D89819A81AB81BC8171
:10504000222309F4EDC0AC01BD01E5E17695679539
:1050500057954795EA95D1F74093F700AC01BD010C
:10506000FDE07695679557954795FA95D1F740936A
:10507000F600AC01BD01A5E076956795579547957B
:10508000AA95D1F74093F500880F880F880F809379
:10509000F4009091F4008E81882309F449C024E043
:1050A00081E03F81311101C080E0820F892B809324
:1050B000F4008D8D8111B2C090E88B8D8F70892B9B
:1050C0008093EF0089E080930F0480933B0487E096
:1050D0008093B00081E0809370009CE090930E0478
:1050E00010920C049FEF90930D041092FD03809397
:1050F000020482E08093070487B1807F87B988B17A
:105100008F6088B984B1806E84B985B18F7185B99B
:1051100010BA6F960FB6F894DEBF0FBECDBFDF9109
:10512000CF911F910F91FF90EF90DF90CF90089556
:1051300020E0B6CF90E07CCF20E019CF90E0DFCE2A
:1051400020E07CCE90E042CE20E0DFCD90E0A5CD07
:1051500020E042CD90E008CD809155049091560416
:10516000A0E0B0E09058AF4EBF4F28982A2F20689B
:105170002EBD00000DB407FEFDCF2EB59EBD000074
:105180000DB407FEFDCF2EB58EBD00000DB407FE99
:10519000FDCF8EB581E080934B042FED3AE040E0E7
:1051A00050E066EF70E08AE494E00E947618289A56
:1051B0008091550490915604289820E92EBD000056
:1051C0000DB407FEFDCF2EB524E22EBD00000DB4B8
:1051D00007FEFDCF2EB528EE2EBD00000DB407FE54
:1051E000FDCF2EB58EBD00000DB407FEFDCF2EB550
:1051F0009EBD00000DB407FEFDCF8EB51EBC0000A5
:105200000DB407FEFDCF8EB51EBC00000DB407FE29
:10521000FDCF8EB5289A10924B048CCB90E94DCFE0
:105220009C01369527953695279536952795209399
:10523000F7008295880F807E8093F6001092F5002B
:105240001092F40026CF9C01369527953695279528
:10525000369527952093F3008295880F807E809362
:10526000F2001092F1001092F000DBCE90E98CCEAB
:105270009C01369527953695279536952795209349
:10528000F7008295880F807E8093F6001092F500DB
:105290001092F40065CE9C0136952795369527959A
:1052A000369527952093F3008295880F807E809312
:1052B000F2001092F1001092F0001ACE90E9CBCDDE
:1052C0009C013695279536952795369527952093F9
:1052D000F7008295880F807E8093F6001092F5008B
:1052E0001092F400A4CD9C0136952795369527950C
:1052F000369527952093F3008295880F807E8093C2
:10530000F2001092F1001092F00059CD90E90ACD10
:105310009C013695279536952795369527952093A8
:10532000F7008295880F807E8093F6001092F5003A
:105330001092F400E3CC9C0136952795369527957D
:10534000369527952093F3008295880F807E809371
:10535000F2001092F1001092F00098CC90E949CC44
:105360009C01369527953695279536952795209358
:10537000F7008295880F807E8093F6001092F500EA
:105380001092F40022CC9C013695279536952795EE
:10539000369527952093F3008295880F807E809321
:1053A000F2001092F1001092F000D7CBCF93DF9370
:1053B000CDB7DEB7CA56D1090FB6F894DEBF0FBE1F
:1053C000CDBF0E945A130E9433218E010F5F1F4FE1
:1053D00065961FAF0EAF65979E012F5D3F4F679695
:1053E0003FAF2EAF67971AE4212E14E0312E809143
:1053F0000C04882349F18091F6039091F703892BDF
:1054000009F0FFCF80910D04992787FD9095FC014D
:10541000EE0FFF1FEE0FFF1FE80FF91FE350FC4FC9
:105420004BE355E15283418314821382F093F703D7
:10543000E093F60380818F70806480937C0080917C
:105440007A00806480937A00809139048C3008F06F
:10545000D1C080910F0480933B0480911504809308
:105460003C04809110048093410480911104909138
:105470001204A0911304B091140423968CAF9DAF35
:10548000AEAFBFAF239723968FAD23978983229624
:105490008FAD22978A8321968FAD21978B838FAD15
:1054A0008C8389819A81AB81BC8180933D049093E8
:1054B0003E04A0933F04B0934004809142048230A4
:1054C00009F4F5C080914204811101C02F988091A8
:1054D0004304823009F4F1C080914304811101C07A
:1054E0002E9880914404823009F4EDC080914404E8
:1054F000811101C02D98809148048111EAC08091EA
:105500003B04813009F454C108F447C2823009F4E5
:1055100092C160E07FEF8FEF9FEF0E94D61A67E0A5
:1055200070E080E096E20E94D61A86E1E9E6F1E0BA
:10553000DE01119601900D928A95E1F76FEF7FEFF2
:105540008FEF94E00E94D61ACE0101967C0100E014
:1055500016E02DE142E250E060EF70E08AE494E072
:105560000E94431D60E070E08FEF94E00E94D61A25
:1055700081E591E09F938F9386E08F931F928DE159
:105580008F931F9288E88F931F9280EF8F933F92A3
:105590002F920E94F81D6FEF7FEF8FEF94E00E9433
:1055A000D61A61E070E080E09FE10E94D61A40E0E8
:1055B00050E76DE07FE88AE494E00E94F91960E02A
:1055C00070E080E091E20E94D61A60E070E0CB01CA
:1055D0000E94D61A61E07FEF8FEF9FEF0E94D61AEC
:1055E0008AE494E00E940E170FB6F894DEBF0FBE57
:1055F000CDBFFDCE1092390486B189838091FC0322
:105600008C839091FA039B832091FB032A83309132
:105610004704831709F480C531E03093480432E031
:105620003093490410923804909345042093460423
:105630008093470480E58093ED0082E08093F3003F
:1056400080EA8093F2001092F1001092F00088E05E
:105650008093EF008091F0008093F0001092EE00B4
:1056600089818093FA008A818093FA008B818093EC
:10567000FA008C818093FA008D818093FA008E81EC
:105680008093FA008F818093FA0088858093FA00D6
:105690008091EF0080648093EF0080910D0487FF7C
:1056A000D8CE10920D0481E080930C04D2CE2F9AB4
:1056B00080914304823009F00FCF2E9A80914404E8
:1056C000823009F013CF2D9A80914804882309F481
:1056D00016CFE0914904F0E0E650FC4F0081809144
:1056E000490410E0813009F45CC508F441C58230FA
:1056F00061F4F801EE0FFF1FE65CF34F65917491C2
:1057000040E250E0CE010196BCD7CC24CA94DC2CF8
:10571000EC2C64E0F62E812C912CA12C72E0B72E9B
:1057200060E07FEF8FEF9FEF0E94D61A67E070E096
:1057300080E096E20E94D61AC501B4010E94D61AF2
:1057400067E070E080E096E20E94D61AC701B601D9
:105750000E94D61A1F930F9387EB91E09F938F932C
:1057600086E08F931F921FE11F931F9288E88F930B
:105770001F9280EF8F933F922F920E94F81D6596A3
:105780005FAD65975F9364968FAD64978F938FE15C
:1057900092E09F938F931F921F921F931F9289E114
:1057A0008F931F928F933F922F920E94F81D0DCFDF
:1057B00060E07FEF8FEF9FEF0E94D61A67E070E006
:1057C00080E096E20E94D61A60E07FEF80E092E0EF
:1057D0000E94D61A67E070E080E096E20E94D61A36
:1057E00060E070E080E094E00E94D61AAEE3B2E0A0
:1057F000BF93AF93E6E0FE2EFF921F920FE10F934F
:105800001F9284E48F931F9210EF1F933F922F9269
:105810000E94F81DA8E4B2E0BF93AF93FF921F92DD
:105820000F931F928CEC8F931F921F933F922F9296
:105830000E94F81DCACE80914104833009F4EAC465
:1058400008F4C8C4843009F405C5853009F0F3C4F0
:105850000E94141328E532E040E050E096D5633C06
:1058600071408105910508F420C5812C99249A94F2
:10587000A92CA2E0BA2EC12CDD24DA94ED2CB4E0E0
:10588000FB2E0EE911E07724739460E07FEF8FEF39
:105890009FEF0E94D61A67E070E080E096E20E94D7
:1058A000D61AC701B6010E94D61A1F930F9386E03D
:1058B0008F931F928FE18F931F9284E48F931F9297
:1058C00080EF8F933F922F920E94F81D80913D04AC
:1058D00090913E04A0913F04B0914004E0913C04BB
:1058E0000FB6F894DEBF0FBECDBFE33208F039C467
:1058F000F0E0EE0FFF1FED5AFD4F20813181BF9385
:10590000AF939F938F933F932F9386E08F931F9234
:105910008DE18F931F928CEA8F931F9280EF8F936C
:105920003F922F920E94BC1E0FB6F894DEBF0FBEAE
:10593000CDBF772011F1C501B4010E94D61A60E1F4
:105940007DE281E09CE10E94D61A60E070E080E098
:105950009BE10E94D61A67E070E080E096E20E9428
:10596000D61A60E07AE283E09BE10E94D61A67E0F3
:1059700070E080E096E20E94D61A60E070E0CB0111
:105980000E94D61A61E07FEF8FEF9FEF0E94D61A38
:105990008AE494E00E940E172ACDE0912804F0E0FA
:1059A000EE0FFF1FEB52F44F659174914EE150E002
:1059B000CE01819666D6E0912704F0E0EE0FFF1F3E
:1059C000EB52F44F659174914EE150E0CE01019697
:1059D00058D680912F049091300427969FAF8EAFB8
:1059E000279727968FAD279724968FAF24972696D3
:1059F0008FAD269725968FAF259725968EAD9FADB7
:105A000025976C01CC24B0E8DB22E12CF12C760147
:105A1000DD24CC249C0122273C77232B09F49DC351
:105A20009F77A0E0B0E0EDE0880F991FAA1FBB1F91
:105A3000EA95D1F7B85CC82AD92AEA2AFB2A8091CC
:105A400031049091320429969FAF8EAF2997299601
:105A50008FAD299724968FAF249728968FAD2897DE
:105A600025968FAF259725968EAD9FAD25974C0136
:105A7000882400E89022A12CB12C54019924882478
:105A80009C0122273C77232B09F463C39F77A0E076
:105A9000B0E06DE0880F991FAA1FBB1F6A95D1F770
:105AA000B85C882A992AAA2ABB2A8091330490914B
:105AB00034042B969FAF8EAF2B972B968FAD2B97E1
:105AC00024968FAF24972A968FAD2A9725968FAF6D
:105AD000259725968EAD9FAD25972C01442410E87F
