:10000000C8C100000C94220A0C94530A0C94840A70
:100010000C94B50A0C94E60A0C94170B0C94480B3C
:100020000C94790BE5C10000E3C10000E1C10000C0
:10003000DFC10000DDC10000DBC10000D9C100004C
:10004000D7C100000C94AA0BD3C10000D1C100009D
:10005000CFC10000E3C50000CBC10000C9C1000052
:10006000C7C10000C5C10000C3C10000C1C100007C
:10007000BFC10000BDC10000BBC10000B9C100008C
:100080000DC60000B5C10000B3C10000B1C1000041
:10009000AFC100006E616E00696E6600789CCDD4C1
:1000A000316EDB301406E047D1288122003974D04C
:1000B000647AC8A0D1A306C1766F9023F8081935D9
:1000C00008319D0E197B851E214760D1216B8F4021
:1000D000C34357065E588015FB4849899CB8CED269
:1000E000210F02347C12DFFB2942219C2D7D9EDFF3
:1000F000BF3B18D535C860974131D350BF5104DD9F
:100100001E3B0B46B6C04C45FC0DBCF235D0A0A53D
:1001100007A64BE29B735E83AF3B0F5B5381F49B5F
:10012000BD692ED60B1A94F42CA0BB9AC7F91E03F6
:10013000B5D1C3C134B989CE1D4757839BE8D3CA13
:100140001EF4621E5DF45EBBE407F3017D917C8DBD
:10015000DEE69DEBDEF766825E45976B03B42D7B92
:100160002F6D1EE7DBEB0B37B836C07CC906179D39
:10017000E77503CB3FE85C456FA2ABDA3CB9743559
:100180002C7FEFA26BE00E925B930FEB2F71272A6F
:10019000B2FBA539E86B896ED11FD165E7F36670B4
:1001A000826E815A896E45EF665D35E887DECDE067
:1001B00060A7C9DB55B5D10D090F6D74BE6F7B27E4
:1001C000764AD1F5E8F3105DF31FE8B1BFFB873F36
:1001D000B4C4024F0E279CDDB5C48184934E956351
:1001E0005F03F120C9CEE363F43F9CDF96692FB72C
:1001F00076C1B49354C151D1CE9DFCF286537B930A
:100200006EA0575759A618E4B99897391B394F0E65
:10021000C927507C12B362F6ECA677A57F66D92D6C
:10022000BA402FA28F5B32D0EA1E3D83A214629E99
:100230003C8DDE2708B0D2F719DC021497718127B4
:10024000EF1304F279F62DA3D947280A7105634FFD
:10025000090274DD2620006620A20FD1E384E13874
:100260003E441FA2A37F6F5F387F07FF27BCE06477
:10027000C5A99FDF77AF1C236D5EAE3FF6866F4F3B
:10028000F737DD59C67D3B339FC7F6CBE87F019D2D
:100290001F8D0800407A10F35A00A0724E18090012
:1002A00010A5D4E80000E87648170000E40B5402DB
:1002B0000000CA9A3B000000E1F505000080969816
:1002C00000000040420F000000A086010000001066
:1002D0002700000000E803000000006400000000A8
:1002E000000A00000000000100000000002C76D889
:1002F00088DC674F0823DFC1DFAE59E1B1B796E56F
:10030000E3E453C63AE651997696E8E6C28426EBD2
:10031000898C9B62ED407C6FFCEFBC9C9F40F2BAE5
:10032000A56FA5F490055A2AF75C936B6CF9676D7D
:10033000C11BFCE0E40D47FEF520E6B500D0ED90D2
:100340002E0300943577050080841E080000204E9F
:100350000A000000C80C333333330F986E12831138
:1003600041EF8D2114893BE65516CFFEE6DB18D10F
:10037000844B381BF77C1D901DA4BBE424203284E1
:10038000725E228100C9F124ECA1E53D27007807C7
:10039000631A11241FBECFEFD0E1DEBFCDBF11E045
:1003A000A0E0B1E0ECEFF8E300E00BBF02C0079083
:1003B0000D92AC36B107D9F722E0ACE6B1E001C04E
:1003C0001D92A73DB207E1F713E0C2E9D3E000E0D8
:1003D00006C022970109FE010BBF0E94B21ACE3857
:1003E000D10780E00807A9F70E945D1A0C947C1CD5
:1003F00007CE2F923F924F925F926F927F928F9291
:100400009F92AF92BF92CF92DF92EF92FF920F93A3
:100410001F93CF93DF93CDB7DEB763970FB6F894F2
:10042000DEBF0FBECDBF7C011B016A01FC0117823C
:100430001682838181FF66C3BE016F5F7F4F4B01D0
:10044000F7019381F10193FD859193FF81911F0144
:10045000882309F453C3853239F493FD859193FFC2
:1004600081911F01853239F4B70190E00E94B31BDE
:1004700056016501E5CF10E0512C20E02032A0F4B8
:100480008B3269F030F4803259F0833269F42061A4
:100490002CC08D3239F0803339F4216026C02260BF
:1004A000246023C0286021C027FD27C030ED380F0D
:1004B0003A3078F426FF06C0FAE01F9F300D112471
:1004C000132F13C06AE0569E300D1124532E206264
:1004D0000CC08E3221F426FD11C3206406C08C3678
:1004E00011F4206802C0883641F4F10193FD859132
:1004F00093FF81911F018111C1CF9BEB980F933026
:1005000018F42061805E06C09BE9980F933008F0D4
:10051000AAC12F7E26FF16E02F73722E853621F496
:10052000F22FF0647F2E08C0863621F4622F6068B7
:10053000762E02C01111115077FE07C01C3348F40B
:1005400044244394410E27E00BC0183030F4212F8F
:1005500006C027E04CE3442E03C027E017E0412CFF
:10056000560174E0A70EB11CF60160817181828191
:100570009381042DA4010E94C51A6C01098100FF1A
:1005800002C003FF06C071FC07C072FC08C0612CEA
:1005900008C03DE2632E05C02BE2622E02C090E24D
:1005A000692E802F8C7099F1662011F084E001C0D3
:1005B00083E0851510F0512C0BC0581A73FC08C04D
:1005C000B70180E290E00E94B31B5A94C9F7F3CFC1
:1005D000662029F0B701862D90E00E94B31B03FD31
:1005E00003C008E910E002C004E910E0F72DF07143
:1005F0007F2EF8018491882309F476C2711080520D
:10060000B70190E00E94B31B0F5F1F4FF2CF77FE40
:100610000FC04C0C04FF04C08A81813309F44A9452
:10062000141474F5F8E0F41578F588E0482E2CC021
:1006300076FC2AC0812F90E08C159D059CF06CEF14
:10064000C6166FEFD60674F0772D7068772E0AC045
:10065000E2E0F0E0EC0FFD1FE10FF11D808180333F
:1006600019F411501111F4CF77FE0EC044244394B5
:10067000410E812F90E0C816D9062CF41C1904C035
:100680004424439401C010E077FE07C01C141D04ED
:100690003CF496012F5F3F4F05C025E030E002C0DB
:1006A00021E030E0662011F02F5F3F4F112331F041
:1006B000412F50E04F5F5F4F240F351F452D50E015
:1006C0002417350714F4521A01C0512C872D897054
:1006D00049F4552039F0B70180E290E00E94B31B45
:1006E0005A94F7CF662029F0B701862D90E00E943A
:1006F000B31B73FC09C0552039F0B70180E390E0CB
:100700000E94B31B5A94F7CF77FE5FC09C2D8D2DAE
:10071000D7FE02C090E080E0692E782E40E050E0E5
:10072000C601841991099D878C879601261937097E
:10073000280D391D812F90E0EE27FF27E81BF90BCC
:10074000FF87EE87FFEF6F167F0669F4B7018EE231
:1007500090E02B8B3A8B488B598B0E94B31B5989A5
:1007600048893A892B89C614D70454F06C857D8555
:10077000661577052CF4F901E40FF51F818101C09E
:1007800080E371E0671A71084F5F5F4FEE85FF8568
:100790006E167F066CF0B70190E02B8B3A8B488B7E
:1007A000598B0E94B31B2B893A8948895989CACF32
:1007B0006C147D0439F49A81963318F4953311F44E
:1007C00004FF81E3B70190E04BC08A81813309F0D7
:1007D0000F7EB70190E00E94B31B111105C074FE9B
:1007E00018C085E490E017C0B7018EE290E00E9447
:1007F000B31B82E066246394680EF401E80FF11DD8
:100800008081B70190E00E94B31B115041F3862D07
:10081000F1CF85E690E0B7010E94B31BD7FC05C07D
:10082000C114D10439F404FF05C0D194C194D10896
:100830008DE201C08BE2B70190E00E94B31B80E320
:100840006AE0C616D1042CF08F5FFAE0CF1AD10807
:10085000F7CFB70190E00E94B31BB701C601C09665
:100860000E94B31B41C1833631F0833779F0833561
:1008700009F058C021C0560172E0A70EB11CF60164
:100880008081898301E010E0640114C05601F2E028
:10089000AF0EB11CF601C080D18026FF03C0612FCE
:1008A00070E002C06FEF7FEFC6012B8B0E94A81B88
:1008B0008C012B892F7715C05601F2E0AF0EB11CC9
:1008C000F601C080D18026FF03C0612F70E002C016
:1008D0006FEF7FEFC6012B8B0E949D1B8C012B8934
:1008E0002068722E23FD1AC0852D90E00817190785
:1008F000A8F4B70180E290E00E94B31B5A94F4CFB1
:10090000F60177FC859177FE81916F01B70190E048
:100910000E94B31B51105A94015011090115110581
:1009200079F7E2C0843611F0893651F5560127FF78
:1009300009C0F4E0AF0EB11CF601608171818281C3
:1009400093810AC0F2E0AF0EB11CF60160817181A3
:10095000882777FD8095982F022F0F7697FF08C084
:1009600090958095709561957F4F8F4F9F4F006850
:100970002AE030E0A4010E941E1CC82EC8183EC008
:10098000022F853721F40F7E2AE030E01DC0097F59
:100990008F3691F018F4883559F0B0C0803719F0CF
:1009A000883711F0ABC0006104FF09C0046007C0C4
:1009B00024FF08C0066006C028E030E005C020E142
:1009C00030E002C020E132E0560107FF09C0F4E048
:1009D000AF0EB11CF601608171818281938108C0E4
:1009E000F2E0AF0EB11CF6016081718180E090E011
:1009F000A4010E941E1CC82EC8180F7706FF0BC04A
:100A0000202F2E7FC11650F404FF0AC002FD08C03B
:100A1000202F2E7E05C0DC2C202F03C0DC2C01C033
:100A2000D12E24FF0DC0FE01EC0DF11D808180331D
:100A300011F4297E09C022FF06C0D394D39404C0C8
:100A4000822F867809F0D39423FD13C020FF06C0BF
:100A50001C2DD51418F4150D1D19D52CD51468F4BA
:100A6000B70180E290E02B8B0E94B31BD3942B89BB
:100A7000F5CFD51410F45D1801C0512C24FF12C01D
:100A8000B70180E390E02B8B0E94B31B2B8922FFE0
:100A900017C021FF03C088E590E002C088E790E01E
:100AA000B7010CC0822F867859F021FD02C080E288
:100AB00001C08BE227FD8DE2B70190E00E94B31BDD
:100AC000C11638F4B70180E390E00E94B31B1150C7
:100AD000F7CFCA94F401EC0DF11D8081B70190E0CD
:100AE0000E94B31BC110F5CF552009F4C2CCB70149
:100AF00080E290E00E94B31B5A94F6CFF701868102
:100B0000978102C08FEF9FEF63960FB6F894DEBF18
:100B10000FBECDBFDF91CF911F910F91FF90EF904E
:100B2000DF90CF90BF90AF909F908F907F906F900D
:100B30005F904F903F902F90089580E090E008954F
:100B4000FC0124853585F901E058FF4F80819181B2
:100B500080589F4F329620813181821B930B8F7773
:100B6000907897FF0895019780689F6F0196089588
:100B7000FC0184859585FC01EE57FF4F2081318172
:100B8000DC01A058BF4F4D915C9142175307C1F053
:100B9000DC01A20FB31F8C912F5F3F4F2F7730786E
:100BA00037FD04C03183208390E00895215031093E
:100BB00020683F6F2F5F3F4F3183208390E008957F
:100BC0008FEF9FEF0895FC0184859585FC01E05827
:100BD000FF4FDC01AE57BF4F8D919C919183808375
:100BE0000895DC015296ED91FC91539741E050E05D
:100BF0005B960C905B9702C0440F551F0A94E2F776
:100C0000208130E024233523232BD1F35696ED9118
:100C1000FC915797608381E090E008951F920F92B6
:100C20000FB60F9211240BB60F922F933F934F9351
:100C30005F936F938F939F93EF93FF936091C600A1
:100C40002091AA023091AB02C90101968F7790786A
:100C500097FD1FC04091AC025091AD0284179507DB
:100C600041F0F901E65DFD4F60839093AB02809304
:100C7000AA02FF91EF919F918F916F915F914F9198
:100C80003F912F910F900BBE0F900FBE0F901F90B2
:100C90001895019780689F6F0196DCCF1F920F9285
:100CA0000FB60F9211240BB60F922F933F934F93D1
:100CB0005F936F938F939F93EF93FF936091CE0019
:100CC0002091260230912702C90101968F779078F2
:100CD00097FD1FC040912802509129028417950763
:100CE00041F0F901EA55FE4F60839093270280930B
:100CF0002602FF91EF919F918F916F915F914F919C
:100D00003F912F910F900BBE0F900FBE0F901F9031
:100D10001895019780689F6F0196DCCF7F928F9224
:100D20009F92AF92BF92CF92DF92EF92FF920F937A
:100D30001F93CF93DF93EC016A017B01413482E47E
:100D400058078FE06807710508F455C0EA89FB89E8
:100D500081E090E00C8C02C0880F991F0A94E2F7A2
:100D6000808360E079E08DE390E0A70196010E9426
:100D7000861A2150310941095109569547953795F1
:100D80002795C901EE85FF859083E889F9898083DD
:100D9000EC89FD89408181E090E09C01088C02C0D3
:100DA000220F331F0A94E2F7422B4083EC89FD891E
:100DB00040819C01098C02C0220F331F0A94E2F784
:100DC000422B4083EC89FD8920810A8C02C0880F68
:100DD000991F0A94E2F7282B2083DF91CF911F916E
:100DE0000F91FF90EF90DF90CF90BF90AF909F90CA
:100DF0008F907F90089560E874E88EE190E0A701FD
:100E000096010E94861A49015A0181E0881A9108C8
:100E1000A108B108B694A79497948794A50194016A
:100E20002F5F3F4F4F4F5F4F220F331F441F551F00
:100E3000220F331F441F551F220F331F441F551FFE
:100E4000220F331F441F551F60E074E284EF90E0CF
:100E50000E94861A0FEF10E0AFEFB0E00E94A81AD0
:100E6000A70196010E94861A021B130B1016110689
:100E7000CCF5722E709460E079E08DE390E0A701EC
:100E800096010E94861A21503109410951092E7F8D
:100E90002E5F3F4F4F4F5F4F220F331F441F551F91
:100EA000220F331F441F551F60E074E284EF90E06F
:100EB0000E94861A0FEF10E0AFEFB0E00E94A81A70
:100EC000A70196010E94861A021B130B1016110629
:100ED0006CF42095271508F439CFEA89FB89108234
:100EE000C40150CF77247394720EC5CF2F5FF2CF19
:100EF00010928C0110928B0188EE93E0A0E0B0E09C
:100F000080938D0190938E01A0938F01B0939001F7
:100F10002AE131E030938A01209389014AE252E0CC
:100F2000509396014093950145EC50E05093980101
:100F30004093970144EC50E050939A0140939901FB
:100F400040EC50E050939C0140939B0141EC50E0F9
:100F500050939E0140939D0146EC50E05093A001B8
:100F600040939F01E4E0E093A10173E07093A2013C
:100F700067E06093A30155E05093A40141E04093E2
:100F8000A50110926F0110926E01809370019093F1
:100F90007101A0937201B093730130936D0120939E
:100FA0006C0186EA91E090937901809378018DEC51
:100FB00090E090937B0180937A018CEC90E0909389
:100FC0007D0180937C0188EC90E090937F01809379
:100FD0007E0189EC90E090938101809380018EECFA
:100FE00090E09093830180938201E0938401709359
:100FF000850160938601509387014093880108958D
:10100000CF92DF92EF92FF920F931F93CF93DF93D4
:101010006C0141155105F1F08B01EA01E12CF12C35
:10102000D8016D918D01D601ED91FC910190F08177
:10103000E02DC6010995E80EF91E2197209781F74A
:10104000C701DF91CF911F910F91FF90EF90DF903B
:10105000CF900895E12CF12CF3CFDB010D9000200F
:10106000E9F7AD0141505109461B570BDC01ED91E9
:10107000FC910280F381E02D09942F923F924F92D0
:101080005F926F927F928F929F92AF92BF92CF9218
:10109000DF92EF92FF920F931F93CF93DF93CDB721
:1010A000DEB7A1970FB6F894DEBF0FBECDBF8C019F
:1010B0004115510509F4C7C04A30510509F474C0FF
:1010C000942E6B01EE24D7FCE094FE2C19A2B1E023
:1010D000B41708F0C1C0442E512C612C712C5E0154
:1010E000E1E2AE0EB11C02C069017A01C701B6018E
:1010F000A30192010E94861A6C2D929E6019112400
:10110000F1E0AF1AB10890E3960F87E3860F6A30DB
:1011100008F4892FD5018C9321153105410551051E
:1011200019F7F50101900020E9F7AF01415051098D
:101130004A195B09D801ED91FC910280F381E02D01
:10114000B501C80109953C01D801ED91FC910190D0
:10115000F081E02D6DE0C80109957C01D801ED9189
:10116000FC910190F081E02D6AE0C8010995E60C40
:10117000F71C8E0D9F1DA1960FB6F894DEBF0FBE13
:10118000CDBFDF91CF911F910F91FF90EF90DF9036
:10119000CF90BF90AF909F908F907F906F905F9017
:1011A0004F903F902F9008954B01AA2497FCA09454
:1011B000BA2CB7FC59C0D82C792DC50119A27E01D3
:1011C000B1E2EB0EF11CBAE04B2E512C612C712CCC
:1011D0000BC0862FD7018C93211531054105510590
:1011E000F1F0D22E732FCA016D2DA30192010E943E
:1011F000861A8D2DEAE02E9F80191124F1E0EF1A56
:10120000F10860E3680F97E3980F8A3010F3892F95
:10121000D7018C93211531054105510511F7F701CF
:1012200001900020E9F7AF01415051094E195F09C3
:10123000D801ED91FC910280F381E02DB701C80146
:1012400009953C0181CFDC01ED91FC910190F08189
:10125000E02D09953C0178CFFAE04F2E512C612CFE
:10126000712CAAE09A2E3BCFDC01ED91FC9101900C
:10127000F081E02D6DE209951C01CC24DD2476017E
:10128000C818D908EA08FB0819A25E01B1E2AB0E42
:10129000B11C8AE0482E512C612C712C02C06901CE
:1012A0007A01C701B601A30192010E94861A6C2D32
:1012B000EAE02E9F60191124F1E0AF1AB10890E323
:1012C000960F87E3860F6A3008F4892FD5018C9337
:1012D000211531054105510511F7F5010190002057
:1012E000E9F7AF01415051094A195B09D801ED9165
:1012F000FC910280F381E02DB501C80109953C0104
:10130000620C731C21CF8F929F92AF92BF92CF92AB
:10131000DF92EF92FF920F931F93CF93DF93CDB79E
:10132000DEB7A1970FB6F894DEBF0FBECDBF7C012C
:10133000D42EE52FCB012115310509F470C0C22E42
:1013400019A2B1E0B21708F075C0822E912CA12C21
:10135000B12C8E010F5D1F4F0BC0862FF8018083CB
:101360002115310541055105E9F0D22EE32FCA01BF
:101370006D2D7E2FA50194010E94861A8D2DC29E8F
:10138000801911240150110960E3680F97E3980F49
:101390008A3018F3892FF801808321153105410522
:1013A000510519F7D8010D900020E9F7AD01415022
:1013B0005109401B510BD701ED91FC910280F38143
:1013C000E02DB801C70109958C01D701ED91FC9181
:1013D0000190F081E02D6DE0C70109955C01D70116
:1013E000ED91FC910190F081E02D6AE0C701099533
:1013F0000A0D1B1D800F911FA1960FB6F894DEBF3A
:101400000FBECDBFDF91CF911F910F91FF90EF9055
:10141000DF90CF90BF90AF909F908F900895D701AD
:10142000ED91FC910190F081E02D642FC7010995A9
:101430008C01CBCF7AE0872E912CA12CB12CFAE035
:10144000CF2E87CF1F920F920FB60F9211240BB69B
:101450000F922F933F934F935F936F937F938F934D
:101460009F93AF93BF93EF93FF938091AE029091C0
:10147000AF02892B29F0E091AE02F091AF020995FD
:10148000FF91EF91BF91AF919F918F917F916F915C
:101490005F914F913F912F910F900BBE0F900FBE18
:1014A0000F901F9018951F920F920FB60F92112454
:1014B0000BB60F922F933F934F935F936F937F934E
:1014C0008F939F93AF93BF93EF93FF938091B0025D
:1014D0009091B102892B29F0E091B002F091B10214
:1014E0000995FF91EF91BF91AF919F918F917F915E
:1014F0006F915F914F913F912F910F900BBE0F9085
:101500000FBE0F901F9018951F920F920FB60F925B
:1015100011240BB60F922F933F934F935F936F93CA
:101520007F938F939F93AF93BF93EF93FF9380919C
:10153000B2029091B302892B29F0E091B202F091AE
:10154000B3020995FF91EF91BF91AF919F918F9158
:101550007F916F915F914F913F912F910F900BBEB3
:101560000F900FBE0F901F9018951F920F920FB6FD
:101570000F9211240BB60F922F933F934F935F93CB
:101580006F937F938F939F93AF93BF93EF93FF934B
:101590008091B4029091B502892B29F0E091B402B8
:1015A000F091B5020995FF91EF91BF91AF919F9195
:1015B0008F917F916F915F914F913F912F910F90FC
:1015C0000BBE0F900FBE0F901F9018951F920F9299
:1015D0000FB60F9211240BB60F922F933F934F9398
:1015E0005F936F937F938F939F93AF93BF93EF938B
:1015F000FF938091B6029091B702892B29F0E09178
:10160000B602F091B7020995FF91EF91BF91AF91AA
:101610009F918F917F916F915F914F913F912F910A
:101620000F900BBE0F900FBE0F901F9018951F923A
:101630000F920FB60F9211240BB60F922F933F9378
:101640004F935F936F937F938F939F93AF93BF93CA
:10165000EF93FF938091B8029091B902892B29F002
:10166000E091B802F091B9020995FF91EF91BF9115
:10167000AF919F918F917F916F915F914F913F912A
:101680002F910F900BBE0F900FBE0F901F901895CB
:101690001F920F920FB60F9211240BB60F922F9339
:1016A0003F934F935F936F937F938F939F93AF93EA
:1016B000BF93EF93FF938091BA029091BB02892B65
:1016C00029F0E091BA02F091BB020995FF91EF91E8
:1016D000BF91AF919F918F917F916F915F914F914A
:1016E0003F912F910F900BBE0F900FBE0F901F9048
:1016F00018951F920F920FB60F9211240BB60F92EE
:101700002F933F934F935F936F937F938F939F9309
:10171000AF93BF93EF93FF938091BC029091BD0272
:10172000892B29F0E091BC02F091BD020995FF914F
:10173000EF91BF91AF919F918F917F916F915F9149
:101740004F913F912F910F900BBE0F900FBE0F90B6
:101750001F9018951F920F920FB60F9211242F937E
:101760003F938F939F93AF93BF938091BF029091CC
:10177000C002A091C102B091C2023091BE0223E02A
:10178000230F2D3768F126E8230F0296A11DB11D06
:101790002093BE028093BF029093C002A093C10227
:1017A000B093C2028091C3029091C402A091C5027D
:1017B000B091C6020196A11DB11D8093C302909302
:1017C000C402A093C502B093C602BF91AF919F918E
:1017D0008F913F912F910F900FBE0F901F901895F2
:1017E0000196A11DB11DD4CFCF92DF92EF92FF924F
:1017F0000F931F932FB7F894C090BF02D090C002F0
:10180000E090C102F090C2022FBFEFB7F8940091B0
:10181000BF021091C0022091C1023091C202EFBFFD
:101820000C191D092E093F096017710782079307DC
:1018300060F71F910F91FF90EF90DF90CF90089588
:101840000197009751F0880F991F880F991F0297F1
:101850002FB7F8940197F1F72FBF0895789484B5C6
:10186000886084BD84B5806484BD84B5826084BD95
:1018700084B5816084BDEEE6F0E080818160808384
:10188000EAE7F0E0808184608083808182608083E9
:101890008081816080838081806880831092C10014
:1018A00008959FB7F8948091C70281110CC0289ABF
:1018B000209A8CB580618CBD8CB580648CBD219ADA
:1018C000229A8091C7028F5F8093C7029FBF0895BD
:1018D0008091C902811160C02091D3023091D4025D
:1018E0009091D3028091D402289840E94EBD000027
:1018F0000DB407FEFDCF4EB544E24EBD00000DB461
:1019000007FEFDCF4EB548EE4EBD00000DB407FEFC
:10191000FDCF4EB59EBD00000DB407FEFDCF9EB5B8
:101920008EBD00000DB407FEFDCF8EB5289AE4EE03
:1019300074E260E128986EBD00000DB407FEFDCF93
:101940008EB57EBD00000DB407FEFDCF8EB5EEBD99
:1019500000000DB407FEFDCF8EB51EBC00000DB417
:1019600007FEFDCF8EB51EBC00000DB407FEFDCFF7
:101970005EB51EBC00000DB407FEFDCF4EB5289A23
:10198000852F942F2817390729F08F3F9F4091F614
:1019900082E3089580E00895289A2091D30230913F
:1019A000D402C901289840E94EBD00000DB407FEDD
:1019B000FDCF4EB544E24EBD00000DB407FEFDCF95
:1019C0004EB548EE4EBD00000DB407FEFDCF4EB53E
:1019D0008EBD00000DB407FEFDCF4EB59EBD0000CC
:1019E0000DB407FEFDCF8EB51EBC00000DB407FE82
:1019F000FDCF8EB51EBC00000DB407FEFDCF8EB529
:101A0000289A1092C9026CCFCF93FC01CB01258597
:101A100036852617370708F071C02181211174C05F
:101A200033852485289840E94EBD00000DB407FE9B
:101A3000FDCF4EB544E24EBD00000DB407FEFDCF14
:101A40004EB548EE4EBD00000DB407FEFDCF4EB5BD
:101A50003EBD00000DB407FEFDCF3EB52EBD00001B
:101A60000DB407FEFDCF2EB5289A2585368528179B
:101A7000390708F040C0C4EEB4E2A0E16CEF7FE0AB
:101A80002898AEBD00000DB407FEFDCF2EB5BEBD3B
:101A900000000DB407FEFDCF2EB5CEBD00000DB485
:101AA00007FEFDCF2EB51EBC00000DB407FEFDCF16
:101AB0002EB51EBC00000DB407FEFDCF3EB51EBC0A
:101AC00000000DB407FEFDCF2EB5289A432F522FEC
:101AD0004F3F2FE05207A9F023853485241B350B97
:101AE0002C7F3F70AB01421B530B5687458748172D
:101AF000590708F4C5CF818181113BC080E0CF91A7
:101B0000089582E3CF910895289A438554852898B3
:101B100020E92EBD00000DB407FEFDCF2EB524E256
:101B20002EBD00000DB407FEFDCF2EB528EE2EBD54
:101B300000000DB407FEFDCF2EB54EBD00000DB464
:101B400007FEFDCF2EB55EBD00000DB407FEFDCF34
:101B50002EB51EBC00000DB407FEFDCF2EB51EBC79
:101B600000000DB407FEFDCF2EB5289A21E0218399
:101B700057CF4385548560E070E050586F4E7F4FDB
:101B80002898862F80688EBD00000DB407FEFDCF1B
:101B90008EB55EBD00000DB407FEFDCF8EB54EBD07
:101BA00000000DB407FEFDCF8EB581E08183A6CF86
:101BB0006F927F928F929F92AF92BF92CF92DF925D
:101BC000EF92FF920F931F93CF93DF9300D000D03B
:101BD000CDB7DEB73C018B012D5F3F4F4F4F5F4FBD
:101BE0002C7F2115310541055105E9F188EED82EEC
:101BF00094E2E92E60E9F62ECC24C394D3011D961D
:101C00008D919C911E97A0E0B0E082179307A407E6
:101C1000B507E8F1F80180E090E0DC0161916EBD6C
:101C200000000DB407FEFDCF6EB50196A11DB11DDC
:101C300082179307A407B50788F3D3011B968D91EC
:101C40009C911C97820F931F9F701C969C938E9360
:101C50001B971D968D919C911E97821B930B1E9630
:101C60009C938E931D9780E00F900F900F900F9094
:101C7000DF91CF911F910F91FF90EF90DF90CF9068
:101C8000BF90AF909F908F907F906F900895F301D9
:101C9000818181118DC0F301938584852898FEBCD4
:101CA00000000DB407FEFDCF6EB5EEBC00000DB414
:101CB00007FEFDCF6EB5DEBC00000DB407FEFDCF04
:101CC0006EB59EBD00000DB407FEFDCF9EB58EBD66
:101CD00000000DB407FEFDCF8EB5289AD3011D96E6
:101CE000ED91FC911E974F01A12CB12CDA01C90195
:101CF00082169306A406B50610F4D501C401009718
:101D0000A105B10509F4CDC0F801812C912C540135
:101D100061916EBD00000DB407FEFDCF6EB56FEF93
:101D2000861A960AA60AB60A88169906AA06BB0655
:101D300079F74C015D01E1E08E1A9108A108B10824
:101D4000B4016F5F7F4F060F171FF301A584B684A0
:101D5000F30163857485680F791F7F7074876387CB
:101D6000A81AB90AB686A586281B390B4A0B5B0B45
:101D7000922F832F2130F8E03F074105510510F0E5
:101D800090E088E0692F782FC30129833A834B8341
:101D90005C833ADE29813A814B815C81823309F48C
:101DA00082C0211531054105510509F027CF5BCFD0
:101DB000289A838594852898FEBC00000DB407FE00
:101DC000FDCF6EB5EEBC00000DB407FEFDCF6EB5C5
:101DD000DEBC00000DB407FEFDCF6EB58EBD000069
:101DE0000DB407FEFDCF6EB59EBD00000DB407FE1D
:101DF000FDCF8EB51EBC00000DB407FEFDCF8EB525
:101E00001EBC00000DB407FEFDCF8EB5289AD3018D
:101E100011961C9211971B969C911B971C968C9166
:101E20002898FEBC00000DB407FEFDCF6EB5EEBCD9
:101E300000000DB407FEFDCF6EB5DEBC00000DB492
:101E400007FEFDCF6EB59EBD00000DB407FEFDCFB1
:101E50009EB58EBD00000DB407FEFDCF8EB5289A4D
:101E6000F30183859485A0E0B0E09058AF4EBF4F5A
:101E700028986A2F60686EBD00000DB407FEFDCF84
:101E80006EB59EBD00000DB407FEFDCF6EB58EBDD4
:101E900000000DB407FEFDCF8EB5D3011196CC9294
:101EA0001DCF5F0155CF82E3DFCE6F927F928F927D
:101EB0009F92AF92BF92CF92DF92EF92FF920F93D9
:101EC0001F93CF93DF9300D000D0CDB7DEB78C0146
:101ED0003B012D5F3F4F4F4F5F4F2C7F2115310549
:101EE0004105510509F440C078EED72EE4E2EE2E0C
:101EF000F0E9FF2ECC24C394D8011D968D919C91BE
:101F00001E97A0E0B0E082179307A407B50708F476
:101F10003FC080E090E0DC01F301E80FF91FE4919D
:101F2000EEBD00000DB407FEFDCF6EB50196A11DFC
:101F3000B11D82179307A407B50770F3D8011B964C
:101F40008D919C911C97820F931F9F701C969C9360
:101F50008E931B971D968D919C911E97821B930BC0
:101F60001E969C938E931D9780E00F900F900F907C
:101F70000F90DF91CF911F910F91FF90EF90DF9025
:101F8000CF90BF90AF909F908F907F906F9008956B
:101F9000F801818181118FC0F8019385848528988B
:101FA000FEBC00000DB407FEFDCF6EB5EEBC000018
:101FB0000DB407FEFDCF6EB5DEBC00000DB407FE0C
:101FC000FDCF6EB59EBD00000DB407FEFDCF9EB5E2
:101FD0008EBD00000DB407FEFDCF8EB5289AD80146
:101FE0001D96ED91FC911E974F01A12CB12CDA01A9
:101FF000C90182169306A406B50610F4D501C401E2
:102000000097A105B10509F4CFC0812C912C540192
:10201000F301E80DF91DE491EEBD00000DB407FEDB
:10202000FDCF6EB5EFEF8E1A9E0AAE0ABE0A881675
:102030009906AA06BB0661F74C015D01F1E08F1A13
:102040009108A108B108B4016F5F7F4F660E771E3B
:10205000F801A584B684F80163857485680F791F3B
:102060007F7074876387A81AB90AB686A586281B6D
:10207000390B4A0B5B0B922F832F2130F8E03F077F
:102080004105510510F090E088E0692F782FC801D4
:1020900029833A834B835C83B7DC29813A814B8166
:1020A0005C81823309F482C0211531054105510557
:1020B00009F022CF59CF289A838594852898FEBCB1
:1020C00000000DB407FEFDCF6EB5EEBC00000DB4F0
:1020D00007FEFDCF6EB5DEBC00000DB407FEFDCFE0
:1020E0006EB58EBD00000DB407FEFDCF6EB59EBD72
:1020F00000000DB407FEFDCF8EB51EBC00000DB470
:1021000007FEFDCF8EB51EBC00000DB407FEFDCF4F
:102110008EB5289AD80111961C9211971B969C9106
:102120001B971C968C912898FEBC00000DB407FEEE
:10213000FDCF6EB5EEBC00000DB407FEFDCF6EB551
:10214000DEBC00000DB407FEFDCF6EB59EBD0000E5
:102150000DB407FEFDCF9EB58EBD00000DB407FE89
:10216000FDCF8EB5289AF80183859485A0E0B0E074
:102170009058AF4EBF4F28986A2F60686EBD000020
:102180000DB407FEFDCF6EB59EBD00000DB407FE79
:10219000FDCF6EB58EBD00000DB407FEFDCF8EB530
:1021A000D8011196CC921BCF5F0155CF82E3DDCED3
:1021B0000F931F93CF93DF938B01D82FC92F2091BB
:1021C000C902222309F442C02091D5023091D602DF
:1021D0002430310570F10EBD00000DB407FEFDCFB7
:1021E0008EB51EBD00000DB407FEFDCF8EB5DEBD61
:1021F00000000DB407FEFDCF8EB5CEBD00000DB4BE
:1022000007FEFDCF8EB58091D3029091D402049643
:102210009F709093D4028093D3022450310930935D
:10222000D6022093D50280E0DF91CF911F910F91CC
:10223000089564E070E088EC92E0E6DB823309F414
:102240009BC02091D5023091D602C5CFE091D30238
:10225000F091D402AF0160E070E050586F4E7F4FB4
:102260002898862F80688EBD00000DB407FEFDCF34
:102270008EB55EBD00000DB407FEFDCF8EB54EBD20
:1022800000000DB407FEFDCF8EB581E08093C9023A
:102290002091D5023091D6022430310580F464E0DB
:1022A00070E088EC92E0B0DB823309F46BC0E0911F
:1022B000D302F091D4022091D5023091D6020EBD06
:1022C00000000DB407FEFDCF8EB51EBD00000DB49D
:1022D00007FEFDCF8EB5DEBD00000DB407FEFDCFBD
:1022E0008EB5CEBD00000DB407FEFDCF8EB5349681
:1022F000FF70F093D402E093D3022450310930935D
:10230000D6022093D50280E0289AAF01289890E960
:102310009EBD00000DB407FEFDCF9EB594E29EBDAC
:1023200000000DB407FEFDCF9EB598EE9EBD0000E7
:102330000DB407FEFDCF9EB54EBD00000DB407FEE7
:10234000FDCF9EB55EBD00000DB407FEFDCF9EB56E
:102350001EBC00000DB407FEFDCF9EB51EBC0000E4
:102360000DB407FEFDCF9EB5289A1092C902DF91E9
:10237000CF911F910F91089582E3DF91CF911F912B
:102380000F91089582E3E091D302F091D402BCCF83
:102390006FEF7FEF8FEF94E00BDF61E070E080E0A4
:1023A0009FE106DF8091C902882309F443C0209190
:1023B000D5023091D6022430310580F11EBC0000D8
:1023C0000DB407FEFDCF8EB580EF8EBD00000DB4BD
:1023D00007FEFDCF8EB58DE08EBD00000DB407FE6B
:1023E000FDCF8EB58FE88EBD00000DB407FEFDCF8A
:1023F0008EB58091D3029091D40204969F709093F1
:10240000D4028093D302245031093093D602209312
:10241000D50260E070E080E091E2CACE64E070E056
:1024200088EC92E0F1DA8233A1F32091D502309169
:10243000D602C4CF4091D3025091D402CA01A0E089
:10244000B0E09058AF4EBF4F28982A2F20682EBD7D
:1024500000000DB407FEFDCF2EB59EBD00000DB4EB
:1024600007FEFDCF2EB58EBD00000DB407FEFDCFDB
:102470008EB581E08093C9022091D5023091D602B9
:102480002430310578F464E070E088EC92E0BCDA46
:102490004091D3025091D402823361F12091D50250
:1024A0003091D6021EBC00000DB407FEFDCF8EB5E4
:1024B00080EF8EBD00000DB407FEFDCF8EB58DE020
:1024C0008EBD00000DB407FEFDCF8EB58FE88EBD2A
:1024D00000000DB407FEFDCF8EB54C5F5F4F5F70FF
:1024E0005093D4024093D302245031093093D60242
:1024F0002093D502289ACA01289820E92EBD000011
:102500000DB407FEFDCF2EB524E22EBD00000DB4A4
:1025100007FEFDCF2EB528EE2EBD00000DB407FE40
:10252000FDCF2EB58EBD00000DB407FEFDCF2EB53C
:102530009EBD00000DB407FEFDCF8EB51EBC000091
:102540000DB407FEFDCF8EB51EBC00000DB407FE16
:10255000FDCF8EB5289A1092C90260E070E080E04D
:1025600091E226CECF92DF92EF92FF920F931F93CC
:10257000CF93DF9300D0CDB7DEB76C017B01FC01B8
:102580008181882309F441C0F601858596850497E9
:1025900080F14EBD00000DB407FEFDCF8EB55EBDCF
:1025A00000000DB407FEFDCF8EB5EEBC00000DB4EB
:1025B00007FEFDCF8EB5FEBC00000DB407FEFDCFBB
:1025C0008EB5F6018385948504969F7094878387E2
:1025D0008585968504979687858780E00F900F9074
:1025E000DF91CF911F910F91FF90EF90DF90CF90EF
:1025F000089564E070E0C60149835A8305DA498191
:102600005A81823331F682E3E9CF0385148520E0D5
:1026100030E010582F4E3F4F2898822F80688EBD93
:1026200000000DB407FEFDCF8EB51EBD00000DB439
:1026300007FEFDCF8EB50EBD00000DB407FEFDCF29
:102640008EB581E0F601818385859685049760F4D7
:1026500064E070E0C60149835A83D6D949815A8122
:10266000823311F482E325C04EBD00000DB407FE95
:10267000FDCF8EB55EBD00000DB407FEFDCF8EB55B
:10268000EEBC00000DB407FEFDCF8EB5FEBC000011
:102690000DB407FEFDCF8EB5F601838594850496B3
:1026A0009F7094878387858596850497968785870D
:1026B00080E0289AF60143855485289890E99EBDCC
:1026C00000000DB407FEFDCF9EB594E29EBD000054
:1026D0000DB407FEFDCF9EB598EE9EBD00000DB473
:1026E00007FEFDCF9EB54EBD00000DB407FEFDCF29
:1026F0009EB55EBD00000DB407FEFDCF9EB51EBCAD
:1027000000000DB407FEFDCF9EB51EBC00000DB449
:1027100007FEFDCF9EB5289AF60111825FCF42E2F7
:102720005FEF6FEF7FEF88EC92E01CDF40E050E05E
:10273000BA0188EC92E016DF8091C902882309F47F
:1027400036C027EF31E040E050E06CE970E088EC03
:1027500092E0ABDBBDD860E07FEF8FEF9FEF28DD2D
:1027600067E070E080E096E223DD60E070E080E00A
:1027700095E01EDD60E070E080E091E019DD41E36E
:1027800050E468E077E088EC92E0ECDE41E354EF5F
:1027900061E178E088EC92E0E5DE60E070E0CB019A
:1027A00007DD61E07FEF8FEF9FEF02DD91C8809141
:1027B000D3029091D402A0E0B0E09058AF4EBF4F4A
:1027C00028982A2F20682EBD00000DB407FEFDCFEB
:1027D0002EB59EBD00000DB407FEFDCF2EB58EBDFB
:1027E00000000DB407FEFDCF8EB581E08093C902D5
:1027F00027EF31E040E050E06CE970E088EC92E0D7
:1028000054DB289A8091D3029091D402289820E931
:102810002EBD00000DB407FEFDCF2EB524E22EBD67
:1028200000000DB407FEFDCF2EB528EE2EBD000032
:102830000DB407FEFDCF2EB58EBD00000DB407FE12
:10284000FDCF2EB59EBD00000DB407FEFDCF8EB5A9
:102850001EBC00000DB407FEFDCF8EB51EBC0000EF
:102860000DB407FEFDCF8EB5289A1092C90272CF23
:10287000EF92FF920F931F93CF93DF93CDB7DEB705
:10288000C054D1090FB6F894DEBF0FBECDBF2B9652
:102890000EAD1FAD2B979E012C5A3F4F64964EAD47
:1028A0005FAD649760E470E0CE0101967C018DD746
:1028B0004CE05FEF6FEF7FEFC80154DE2D964EAD19
:1028C0005FAD2D9760E070E02F968EAD9FAD2F9796
:1028D000AA2797FDA095BA2FDC0199278827482BB6
:1028E000592B6A2B7B2BC8013DDE62964EAD5FAD46
:1028F000629760E070E0BA015527442760968FAD7B
:102900006097482BC8012EDEF70101900020E9F7FF
:10291000EE19FF099F0140E050E0F8018181882312
:1029200089F0B701C80144D9C05CDF4F0FB6F894F5
:10293000DEBF0FBECDBFDF91CF911F910F91FF90F2
:10294000EF90089583859485A0E0B0E09058AF4E55
:10295000BF4F28986A2F60686EBD00000DB407FE57
:10296000FDCF6EB59EBD00000DB407FEFDCF6EB568
:102970008EBD00000DB407FEFDCF8EB581E0F801DD
:102980008183B701C80114D9289AF8014385548579
:10299000289890E99EBD00000DB407FEFDCF9EB5BE
:1029A00094E29EBD00000DB407FEFDCF9EB598EEEB
:1029B0009EBD00000DB407FEFDCF9EB54EBD0000CC
:1029C0000DB407FEFDCF9EB55EBD00000DB407FE41
:1029D000FDCF9EB51EBC00000DB407FEFDCF9EB519
:1029E0001EBC00000DB407FEFDCF9EB5289AF8016D
:1029F00011829ACF0F931F93CF93DF93CDB7DEB79A
:102A000066970FB6F894DEBF0FBECDBF86E1EEE34A
:102A1000F1E08E010F5F1F4FD80101900D928A9552
:102A2000E1F76FEF7FEF8FEF94E0C2DB4CE05FEFF9
:102A30006FEF7FEF88EC92E095DD40EF50E062E2CF
:102A400070E088EC92E08EDD4DE150E060E076E0F1
:102A500088EC92E087DDF80101900020E9F7E01BA7
:102A6000F10B9F0140E050E08091C902882369F199
:102A7000B80188EC92E09CD860E070E08FEF94E0C1
:102A800097DB86E291E09F938F9386E08F931F926E
:102A90008DE18F931F9288E88F931F9280EF8F9321
:102AA00088EC92E09F938F93E3DE0FB6F894DEBF3D
:102AB0000FBECDBF66960FB6F894DEBF0FBECDBF7A
:102AC000DF91CF911F910F9108958091D302909142
:102AD000D402A0E0B0E09058AF4EBF4F28986A2FC4
:102AE00060686EBD00000DB407FEFDCF6EB59EBDE3
:102AF00000000DB407FEFDCF6EB58EBD00000DB415
:102B000007FEFDCF8EB581E08093C902B80188EC45
:102B100092E04ED8289A8091D3029091D4022898BE
:102B200020E92EBD00000DB407FEFDCF2EB524E236
:102B30002EBD00000DB407FEFDCF2EB528EE2EBD34
:102B400000000DB407FEFDCF2EB58EBD00000DB404
:102B500007FEFDCF2EB59EBD00000DB407FEFDCFD4
:102B60008EB51EBC00000DB407FEFDCF8EB51EBC99
:102B700000000DB407FEFDCF8EB5289A1092C90251
:102B80007BCF4F925F926F927F928F929F92AF9284
:102B9000BF92CF92DF92EF92FF921F93CF93DF937A
:102BA000CDB7DEB72C970FB6F894DEBF0FBECDBF02
:102BB0002C018CE0EAE0F1E0DE01119601900D922B
:102BC0008A95E1F78CB58C7F8CBD8DB581608DBD0C
:102BD00028981EBC00000DB407FEFDCF8EB51EBCAC
:102BE00000000DB407FEFDCF8EB51EBC00000DB475
:102BF00007FEFDCF8EB51EBC00000DB407FEFDCF55
:102C00008EB51EBC00000DB407FEFDCF8EB5289A10
:102C100064E170E080E090E00E94F40B64E170E019
:102C200080E090E00E94F40B10E0B8E06B2E84E2AC
:102C3000782E90E1892E2CE6922E35E2A32E40E9E3
:102C4000B42E28988EBC00000DB407FEFDCF8EB5C3
:102C50007EBC00000DB407FEFDCF8EB56EBC00003B
:102C60000DB407FEFDCF8EB51EBC00000DB407FEEF
:102C7000FDCF8EB51EBC00000DB407FEFDCF4EB5D6
:102C80001EBC00000DB407FEFDCF3EB51EBC00000B
:102C90000DB407FEFDCF9EB51EBC00000DB407FEAF
:102CA000FDCF8EB5289AC42ED32EE92EF82E89E0BA
:102CB0009DE30E94200C28988EBC00000DB407FEF6
:102CC000FDCF8EB57EBC00000DB407FEFDCF8EB5E6
:102CD0006EBC00000DB407FEFDCF8EB51EBC00001B
:102CE0000DB407FEFDCF8EB51EBC00000DB407FE6F
:102CF000FDCFEEB51EBC00000DB407FEFDCF3EB506
:102D00001EBC00000DB407FEFDCF9EB51EBC00002A
:102D10000DB407FEFDCF8EB5289A4E2F532F692F85
:102D2000782F4C195D096E097F09440F551F661FE6
:102D3000771F440F551F661F771F440F551F661FCF
:102D4000771F440F551F661F771F440F551F661FBF
:102D5000771F440F551F661F771F411586EC5807D4
:102D60008DEC680782E07807F0F42898BEBC00007C
:102D70000DB407FEFDCF8EB5AEBC00000DB407FE4E
:102D8000FDCF8EB59EBC00000DB407FEFDCF8EB505
:102D90001EBD00000DB407FEFDCF8EB5289A1F5F43
:102DA0001F3109F04ECF289880E98EBD00000DB488
:102DB00007FEFDCF8EB584E28EBD00000DB407FE88
:102DC000FDCF8EB58CE08EBD00000DB407FEFDCFAB
:102DD0008EB54EBD00000DB407FEFDCF8EB55EBDB5
:102DE00000000DB407FEFDCF8EB56EBD00000DB422
:102DF00007FEFDCF8EB57EBD00000DB407FEFDCFF2
:102E00008EB5289A289880E98EBD00000DB407FE83
:102E1000FDCF8EB51EBC00000DB407FEFDCF8EB5F4
:102E20001EBC00000DB407FEFDCF8EB5FE0131962D
:102E3000CE010D9621912EBD00000DB407FEFDCFF1
:102E40002EB5E817F907B1F7289A289880E98EBDC2
:102E500000000DB407FEFDCF8EB584E28EBD0000EC
:102E60000DB407FEFDCF8EB580E58EBD00000DB41C
:102E700007FEFDCF8EB582E08EBD00000DB407FECB
:102E8000FDCF8EB5289AF201148613868CEF9FE051
:102E9000968785872C960FB6F894DEBF0FBECDBF00
:102EA000DF91CF911F91FF90EF90DF90CF90BF9077
:102EB000AF909F908F907F906F905F904F9008950C
:102EC000CF92DF92EF92FF928091CE029091CF024B
:102ED000019619F08DB1887F8DB984B1856084B970
:102EE000289A0E94510C8CB58C7F8CBD8DB5816069
:102EF0008DBD8CB58F7D8CBD8CB5837F8CBD88ECF2
:102F000092E03FDE289880E98EBD00000DB407FEF8
:102F1000FDCF8EB584E28EBD00000DB407FEFDCF5F
:102F20008EB588E48EBD00000DB407FEFDCF8EB5D2
:102F30001EBC00000DB407FEFDCF8EB51EBC000008
:102F40000DB407FEFDCF8EB5289A289880E98EBD76
:102F500000000DB407FEFDCF8EB584E28EBD0000EB
:102F60000DB407FEFDCF8EB58CE48EBD00000DB410
:102F700007FEFDCF8EB58AE08EBD00000DB407FEC2
:102F8000FDCF8EB51EBC00000DB407FEFDCF8EB583
:102F9000289A289880E98EBD00000DB407FEFDCF69
:102FA0008EB584E28EBD00000DB407FEFDCF8EB558
:102FB00080E48EBD00000DB407FEFDCF8EB58CE021
:102FC0008EBD00000DB407FEFDCF8EB51EBC000007
:102FD0000DB407FEFDCF8EB5289A289880E98EBDE6
:102FE00000000DB407FEFDCF8EB584E28EBD00005B
:102FF0000DB407FEFDCF8EB58CE38EBD00000DB481
:1030000007FEFDCF8EB584E28EBD00000DB407FE35
:10301000FDCF8EB581E08EBD00000DB407FEFDCF63
:103020008EB5289A289880E98EBD00000DB407FE61
:10303000FDCF8EB584E28EBD00000DB407FEFDCF3E
:103040008EB584E38EBD00000DB407FEFDCF8EB5B6
:103050001EBC00000DB407FEFDCF8EB51EBC0000E7
:103060000DB407FEFDCF8EB5289A289880E98EBD55
:1030700000000DB407FEFDCF8EB584E28EBD0000CA
:103080000DB407FEFDCF8EB588E38EBD00000DB4F4
:1030900007FEFDCF8EB589E28EBD00000DB407FEA0
:1030A000FDCF8EB51EBC00000DB407FEFDCF8EB562
:1030B000289A289880E98EBD00000DB407FEFDCF48
:1030C0008EB584E28EBD00000DB407FEFDCF8EB537
:1030D0008CE28EBD00000DB407FEFDCF8EB58BE2F5
:1030E0008EBD00000DB407FEFDCF8EB51EBC0000E6
:1030F0000DB407FEFDCF8EB5289A289880E98EBDC5
:1031000000000DB407FEFDCF8EB584E28EBD000039
:103110000DB407FEFDCF8EB588E28EBD00000DB464
:1031200007FEFDCF8EB584E28EBD00000DB407FE14
:10313000FDCF8EB582E08EBD00000DB407FEFDCF41
:103140008EB5289A289880E98EBD00000DB407FE40
:10315000FDCF8EB584E28EBD00000DB407FEFDCF1D
:103160008EB580E38EBD00000DB407FEFDCF8EB599
:1031700080EE8EBD00000DB407FEFDCF8EB581E060
:103180008EBD00000DB407FEFDCF8EB5289A28989D
:1031900080E98EBD00000DB407FEFDCF8EB584E240
:1031A0008EBD00000DB407FEFDCF8EB584E48EBD4C
:1031B00000000DB407FEFDCF8EB580E18EBD00008E
:1031C0000DB407FEFDCF8EB581E08EBD00000DB4BD
:1031D00007FEFDCF8EB5289A289880E98EBD0000A5
:1031E0000DB407FEFDCF8EB584E28EBD00000DB498
:1031F00007FEFDCF8EB588E68EBD00000DB407FE3C
:10320000FDCF8EB581E08EBD00000DB407FEFDCF71
:103210008EB51EBC00000DB407FEFDCF8EB5289AFA
:10322000289880E98EBD00000DB407FEFDCF8EB555
:1032300084E28EBD00000DB407FEFDCF8EB580E6A2
:103240008EBD00000DB407FEFDCF8EB51EBC000084
:103250000DB407FEFDCF8EB51EBC00000DB407FEF9
:10326000FDCF8EB5289A289880E98EBD00000DB458
:1032700007FEFDCF8EB584E28EBD00000DB407FEC3
:10328000FDCF8EB58CE68EBD00000DB407FEFDCFE0
:103290008EB585E08EBD00000DB407FEFDCF8EB566
:1032A0001EBC00000DB407FEFDCF8EB5289A2898ED
:1032B00088E48EBD00000DB407FEFDCF8EB51EBCA8
:1032C00000000DB407FEFDCF8EB51EBC00000DB48E
:1032D00007FEFDCF8EB51EBC00000DB407FEFDCF6E
:1032E0008EB51EBC00000DB407FEFDCF8EB5289A2A
:1032F00064E170E080E090E00E94F40B40E150E077
:1033000060E070E089E891E00E943D0828988CE038
:103310008EBD00000DB407FEFDCF8EB51EBC0000B3
:103320000DB407FEFDCF8EB51EBC00000DB407FE28
:10333000FDCF8EB51EBC00000DB407FEFDCF8EB5CF
:103340001EBC00000DB407FEFDCF3EB51EBC000044
:103350000DB407FEFDCF2EB51EBC00000DB407FE58
:10336000FDCF9EB51EBC00000DB407FEFDCF8EB58F
:10337000289AC32ED22EE92EF82E88E0C81681E0B6
:10338000D806E806F104A9F064E571E089E891E067
:103390000E942D0820E130E0B701A60189E891E004
:1033A0000E94830981E090E0FF90EF90DF90CF9042
:1033B000089580E090E0FF90EF90DF90CF90089527
:1033C000FF920F931F93CF93DF9340E051EE60E0A5
:1033D00070E089E891E00E948E0672DD892B31F061
:1033E000DF91CF911F910F91FF90089598D9C1E07F
:1033F000D0E010E904E250E1F52E60E07FEF8FEFBE
:103400009FEF0E94D81067E070E080E096E20E9493
:10341000D810F0DA0E94C81160E070E0CB010E9481
:10342000D81061E07FEF8FEF9FEF0E94D8100E94CD
:10343000680CCE010090D00202C0880F991F0A9438
:10344000E2F72898FEBC00000DB407FEFDCF2EB5B4
:103450000EBD00000DB407FEFDCF2EB51EBD000051
:103460000DB407FEFDCF2EB51EBC00000DB407FE47
:10347000FDCF2EB51EBC00000DB407FEFDCF9EB5DE
:10348000289A982B28981EBD00000DB407FEFDCF8A
:103490008EB50EBD00000DB407FEFDCF8EB51EBD6E
:1034A00000000DB407FEFDCF8EB59EBD00000DB42B
:1034B00007FEFDCF8EB5289AA0CF0E942E0C80DF8C
:1034C00080E090E008951092C8021092CA02109213
:1034D000CB021092CC021092CD028FEF9FEF90930F
:1034E000CF028093CE021092D4021092D3028CEFBE
:1034F0009FE09093D6028093D50287E08093D0021C
:1035000081E08093D1021092C9020895A1E21A2E9F
:10351000AA1BBB1BFD010DC0AA1FBB1FEE1FFF1F77
:10352000A217B307E407F50720F0A21BB30BE40BC7
:10353000F50B661F771F881F991F1A9469F760950E
:103540007095809590959B01AC01BD01CF010895C8
:103550000DD0A59F900DB49F900DA49F800D911D3F
:10356000112408950790F691E02D0994A29FB001CF
:10357000B39FC001A39F700D811D1124911DB29FA7
:10358000700D811D1124911D0895283008F027E049
:103590003327DA01990F311D87FD9160009661058F
:1035A000710539F432602E5F3D9330E32A95E1F7DF
:1035B00008959F3F30F080387105610509F03C5F48
:1035C0003C5F3D93913008F08068911DDF93CF936D
:1035D0001F930F93FF92EF92192F987F9695E92FE3
:1035E00096959695E90FFF27E351FD4F99273327CD
:1035F000EE24FF24A701E70105900894079428F41E
:10360000360FE71EF81E491F511D660F771F881FD2
:10361000991F0694A1F70590079428F4E70EF81E69
:10362000491F561FC11D770F881F991F661F0694DB
:10363000A1F70590079428F4F80E491F561FC71FDD
:10364000D11D880F991F661F771F0694A1F705905B
:10365000079420F4490F561FC71FD81F990F661FE4
:10366000771F881F0694A9F784911095177041F071
:10367000D695C79557954795F794E7941A95C1F74E
:10368000E3E9F2E068941590159135916591959173
:1036900005907FE27395E118F10A430B560BC90BB5
:1036A000D009C0F7E10CF11E431F561FC91FD01DE2
:1036B0007EF4703311F48A95E6CFE894015030F02F
:1036C000080F0AF40027021708F4202F2395022F71
:1036D0007A3328F079E37D932A95E9F710C07D933A
:1036E0002A9589F6069497956795379517951794B7
:1036F000E118F10A430B560BC90BD00998F023953A
:103700007E9173957A3308F070E37C932013B8F7B9
:103710007E9170617D9330F0839571E37D9370E3CA
:103720002A95E1F71124EF90FF900F911F91CF910F
:10373000DF91992787FD90950895FC0105906150D0
:1037400070400110D8F7809590958E0F9F1F0895B7
:10375000FC016150704001900110D8F78095909560
:103760008E0F9F1F08950F931F93CF93DF93182FF2
:10377000092FEB018B8181FD03C08FEF9FEF20C0EC
:1037800082FF10C04E815F812C813D81421753071B
:103790007CF4E881F9819F012F5F3F4F39832883B3
:1037A000108306C0E885F985812F0995892B29F7B3
:1037B0002E813F812F5F3F4F3F832E83812F902F9C
:1037C000DF91CF911F910F9108950F931F93CF9386
:1037D000DF93CDB7DEB72E970FB6F894DEBF0FBEDE
:1037E000CDBF8C01CA0146E04C831A83098377FF61
:1037F00002C060E070E8615071097E836D83A901A9
:10380000BC01CE0101960E94F9014D815E8157FDF8
:103810000AC02F813885421753070CF49A01F8012A
:10382000E20FF31F10822E960FB6F894DEBF0FBE84
:10383000CDBFDF91CF911F910F910895FA01AA2773
:10384000283051F1203181F1E8946F936E7F6E5FE3
:103850007F4F8F4F9F4FAF4FB1E03ED0B4E03CD091
:10386000670F781F891F9A1FA11D680F791F8A1F74
:10387000911DA11D6A0F711D811D911DA11D20D0DB
:1038800009F468943F912AE0269F11243019305D95
:103890003193DEF6CF010895462F4770405D419386
:1038A000B3E00FD0C9F7F6CF462F4F70405D4A33D3
:1038B00018F0495D31FD4052419302D0A9F7EACF9B
:1038C000B4E0A6959795879577956795BA95C9F7CA
:1038D00000976105710508959B01AC010A2E0694BD
:1038E0005795479537952795BA95C9F7620F731F76
:0C38F000841F951FA01D0895F894FFCFC1
:1038FC000000D702200001000000000000020700B9
:10390C0000260000000000000000F1050008A005E2
:10391C00B8059D05E30557414954494E4720464F8C
:10392C00522043414E20444154412E2E2E00466FCE
:10393C00726D756C6120456C6563747269632032BD
:10394C00303135004572726F7220696E2063686980
:0C395C0070206964207265616420000026
:00000001FF
