:100000000C94B8080C945F0F0C94900F0C94C10FD3
:100010000C94F20F0C9423100C9454100C94851033
:100020000C94B6100C94E7080C94E0140C94E708B8
:100030000C94E7080C94E7080C94E7080C94E70884
:100040000C94E7080C94E9100C94EF110C94E70859
:100050000C94E7080C94FE0C0C94E7080C94E70849
:100060000C94E7080C94B3110C94E7080C94E7087F
:100070000C94E7080C94E7080C94E7080C94E70844
:100080000C943E0D0C94E7080C94E7080C94E708D8
:100090000C94E708B81D5F218C1D6D1D6D1D6D1D35
:1000A000FE1C6D1D6D1DFE1C6E616E00696E66008E
:1000B0000A01FF00ED00DA00D100C700BE00545372
:1000C0004D53204F666600507265636861726765C4
:1000D000004149522773204F6E0041495227732037
:1000E0002620436F6F6C616E74204F6E0053432E59
:1000F0005368616C6C6F77486973746F72790053E1
:10010000432E486973746F72790053432E496E69A8
:100110007469616C0075016A0158014C0142013635
:10012000012E01250144697361626C656400456EAE
:1001300061626C65640043757272656E7444726FBF
:1001400070005472616E73446961670053432E54AA
:1001500065726D696E616C0053432E5368616C6CFF
:100160006F77486973746F72790053432E486973CF
:10017000746F72790053432E496E697469616C0023
:10018000D301CF01C601BD01B801B001A801A00192
:100190009801980198019801496E76616C69640034
:1001A0004D554C54492D38004D554C54492D370070
:1001B0004D554C54492D3600436F646500546872A8
:1001C0006F74746C65004272616B6542616C0050C3
:1001D00069740044656661756C740039022F0225EC
:1001E000021B0213020B020302FB01F301F301F3F2
:1001F00001F301496E76616C696400496E76616C49
:10020000696400496E76616C696400496E76616C60
:10021000696400496E76616C696400434C4B20440C
:100220004956203000434C4B20444956203200436D
:100230004C4B20444956203400434C4B20444956F3
:1002400020380093028D02870281027B0273026BC9
:100250000263025B025B025B025B02496E76616CC9
:10026000696400496E76616C696400496E76616C00
:10027000696400496E76616C6964003132304E6D9C
:10028000003132304E6D003132304E6D003132303F
:100290004E6D004D43204F66660052454D4F54450C
:1002A00020454D455247454E4359205348555444E7
:1002B0004F574E00556E6B6E6F776E20424D532038
:1002C0004572726F720053687574646F776E204C5C
:1002D000617463682054726970706564005265735C
:1002E0006F6C766572204E6F7420436F6E6E65631F
:1002F000746564004D4320437572722053656E73BC
:100300006F72204661756C740047617465204452B9
:10031000562033204F76657274656D7000476174A6
:1003200065204452562032204F76657274656D7098
:100330000047617465204452562031204F76657223
:1003400074656D7000504342204F76657274656D20
:1003500070004D6F64756C652043204F7665727434
:10036000656D70004D6F64756C652042204F766539
:100370007274656D70004D6F64756C652041204F1F
:1003800076657274656D70004D6F746F72204F7674
:1003900065722054656D70004D4320436F6D6D6133
:1003A0006E64204D657373616765204C6F737400D4
:1003B0004D4320556E64657220566F6C746167659D
:1003C000004D43204857204F7665722D4375727259
:1003D000656E74004D4320446573617420466175F9
:1003E0006C74004D4320496E7665727465722054BA
:1003F000696D656F7574004D43204469726563745F
:10040000696F6E204572726F72004D4320496E769F
:100410006572746572204F76657274656D70004DFB
:1004200043204F76657220566F6C74616765004D8E
:1004300043204F7665722043757272656E74004D6D
:1004400043204F766572205370656564004E4F20DF
:1004500043454C4C20434F4D4D5300416E20452D9C
:1004600053746F70206973205072657373656400F4
:1004700052656D6F746520526571756573740049BE
:100480004D44204552524F52004253504420455251
:10049000524F5200494E56414C4944204D5347005B
:1004A0004856205052454348415247494E473A200A
:1004B000252E30665600736252494F205741524DE7
:1004C0003A20252E30664300474C56204C4F57208B
:1004D000564F4C544147453A20252E32665600501F
:1004E00041434B204C4F5720564F4C544147453ABF
:1004F00020252E3266560042415454455259205709
:1005000041524D3A20252E326643004D4F544F52F2
:10051000205741524D3A20252E32664300434F4E1C
:1005200054524F4C4C4552205741524D3A20252EA3
:1005300032664300FF0F00000801010000100000B8
:10054000000800000000FF0F000008010100001477
:100550000000000800000000FF0F0000080101007B
:1005600000130000000800000000FF0F0000080159
:10057000010000120000000800000000FF0F000052
:100580000801010000110000000800000000789C34
:10059000ED5B2D74EA4A10AEAC44622B91482C12EC
:1005A0005989AD445662AE402010880804A6220244
:1005B00081A84054C420222A1008042206118188F0
:1005C000A88840F49D3973E67C339B4D805EDE7BCA
:1005D000B7B7D9116D379BDDCDFC7CF3B3DBBB5FC7
:1005E0007735D554534D35D554534D35D554534D9A
:1005F00035FDA13458CE3FFE0E7A18DDFD1A4D3779
:100600006F5534791D4DABB8D15BE8D15563EF5FC1
:10061000CAD6C05B7637F72FBE5EDE959D9B7B7595
:100620004F773C79ADFAAEEAAF72A9B1FEFC2B5A16
:1006300094B324CE8FEB2DCA78319ADAB196EF9A23
:100640009E37E52BC433E8856F36DF1EBB633D3B29
:10065000F7E1EF7816E5D55F65DF3F47ABDD392E73
:100660007D8FD649D942CE8F1C66974A324FFCE324
:10067000AA57291B2732F7BDAD2D3D9ED95D76C700
:10068000E724AED7BC843AE9792E7D87B6DA15F92E
:10069000D949F384C98EF573C2677FBE71AE0C640D
:1006A0000DA132990BB673AF9D8377AFF78179ECCB
:1006B0002CC3CC5D2F4F9E37D7C99CD76E1E5C8F45
:1006C0003079C53ACD83F466918F238FEF5572B0A0
:1006D000F430E299E71FC203CD4D9E69B02C4A0168
:1006E0003C0803F42E5777BF962BFAAD1DD3338BFE
:1006F0005A58C16AB69F13AE66D819FC9CA9C27F2E
:100700007746C17CDEA38B2940679631E438CC3034
:10071000AA1CA32EA78711CD14E5B262773C9A32AA
:100720006939C243A573F4CE3FA477B72F720B7219
:1007300020A219F155C48B74AE9F51FC051D94671E
:1007400096BBD8854896F460344D4EF43B49DFE5BE
:100750003256D4BDEC05FC92CC13AB1D3E89FAADEC
:10076000F7BCCC6DAF8B2A40779E1F2BEB5165DE1B
:10077000E61A629B797C178933FF6CB3C88111E05C
:100780005DFF587C0B72107BD53A82DF9903FDA385
:10079000FCDD3C7C7E3E4DF8771B5F0235D8E3459F
:1007A000398D1319B5427AA26D025CEE8ECFF1AD90
:1007B0003BE637291A3F37D6620934B1487A1CC75D
:1007C00098D8A33B0FB8C9FDA203FCADD260455F2A
:1007D000A756A865A3AD585A727A9A10E6425E45AC
:1007E00019F8340572101B825CFBC7DDDEF2C5EA26
:1007F0008FFCEEE25F18E85D900780AFE1677E2E28
:100800005A9BF2F18D254D1276EDAF38D66FBDE7CC
:10081000640EEDA1BF48032C8A7D7E8A77151CF0FB
:10082000EDBDCA935C4AEC0B45368365516E594465
:10083000F6062D851D08EFAC15E92636C092819C81
:100840009393E8D0D384476AFD81CF723D6CB09515
:1008500027E99CDED03640BD36D78A728971ACF567
:1008600017F9265119EFD74657C5CC4E3F075F8A77
:1008700064A5255FC87B240D70F926FBD27B713DF2
:10088000496FE1AF405C23F3764C3389FDD8088D86
:100890001A553A9E2664C7B207F059D0C1A28F6E8E
:1008A000E24FD95E497B44476497822C5A7F60119E
:1008B0005656D404F529127918E139FB8AF3D9394F
:1008C000F3CDE502EF4F7C98C5DC222AE8A755FE60
:1008D000B52A3BE7F72C8E092EF15F328B1B3DF8D2
:1008E000F3C46B64CEDF271154B1D240F8C9BDD038
:1008F00025D1734187DEC2CFDBE404F974C788A732
:10090000084D84EF822C323BE90FACB938277C8C40
:10091000CD1638B370D1D2D78A119CE8AC60AB9DAC
:10092000C51D6F35DC9799F8A5255FC8B3F35F2E19
:10093000E768078C03C00FAB81DDB14FE655685304
:10094000248A80F0868BA5FCBD4F131B75CB2E042B
:100950001DCA2A14F0DF2C73A2A7C960493AE3220A
:1009600097E80071A1B1E6DF05F7754B4EB20F6B4A
:1009700045AC277627CF9BCD9BFDA23CD9BC152B40
:10098000563C6698094E966751C575AB50B52A3BE3
:10099000B738AE6773B373377A90EAB0FDAE6B6465
:1009A0004E6B42935D2C453EA5896300A04359766A
:1009B000EEC6693E3ECABB5A072462F54594659867
:1009C000C47A62FB88CBD6927C5659865268D61779
:1009D000F8ADD747FE5A01EFD1FE258D24C13880EE
:1009E0009D6AAD288B4AABD0C625CECE756CE5CEC0
:1009F000A4A33AD100177DCAB273374ED3CD7D5729
:100A00007B7EE1872FA22CC324D6936244EDC64996
:100A1000452B2FC60C6EB31EFD56D9B95FE3284295
:100A2000A39FE7B2F3AF47F39C9D43E683A5E0DBCA
:100A30006E9F9CA85232FFC0CC1283DDFDA25EE8FF
:100A40001CCEA228B72EEEC467AF62ADE99CDE8350
:100A500025D1CCE257E399CC0B24D198F4F8DE5899
:100A6000CB8ACC435F76EED30D578288F07D71BE82
:100A7000F5E8452C29238BDB56C7CA46896711DE6A
:100A8000D94C049592CBD1C625CECE2903779FB4FD
:100A90006342CB32AF116CB5A6802C9AB9719A6EB5
:100AA00012F35BE21A4CB11F33687FB1790BB6B217
:100AB00022EB896FB7F61B2C0A4A8EE646F26E26A9
:100AC000A2D1E116D9B97ECF45F7CBB2F3CBD1C6CF
:100AD00025F1CCF38FC6DAE67B9D348B366F16EBAF
:100AE00093933C254E370FC52CD1DAC7E33B46170D
:100AF0001B455896F86BB10A0833C8AA9455EEF610
:100B0000E86709FAB8ECE66F5A7E9CA9FA22206BD6
:100B10007D1A1DACCCE9545C134E2DACDEC81ABC5A
:100B200047BDA28BEE363BB7BBEFA4BC4A6F61F763
:100B300057550B7489BFF9FB375F76EEF7885A7EFD
:100B4000829B3E8E593DD5D5E7AA9373BDEAF9EC59
:100B5000DCAF5FDCE45979BDCB37FA12FA5BCECE5D
:100B6000393BB71603EEDBAF04BAB3C5FACF21DDCC
:100B7000F34B3C29AF40518397F07B5CDEA3F5BF7C
:100B80003E2DBA54C7DCD1E7298B82EDDF401C1D16
:100B9000B8554A3FF705DDD9E270A268C9BD31A357
:100BA0004F9A7B8BF23B07F0AC9764E75A0F74D3F4
:100BB00038D01DB7E3EA3B13B7386BABE967501881
:100BC000F41642E87D9AA017F6D01DA357D7BFD1DF
:100BD0008BF32FCA0DA457FB4D8A439874CC19CFC1
:100BE0007CBBD07BC339BBDE1BEF229EFD4CBAEE33
:100BF000FE2388B2AFA277D0672E90A3CEBDA4E625
:100C00006EFD1CB08BAB3EDCB4E744DE8F3B383A64
:100C100026D615645DE783E649CE418DAA45FAF6EE
:100C2000CCCF6AD7DE8C12423505B7196CFC000BAD
:100C3000D39E0A9AA0BD12AC544B02351D1D4BE346
:100C40004445D754741D04753E9CDAD89C83EC9CB3
:100C50006B0D6874266B7B9A07ED17931379E5FE8D
:100C6000D177F6DF3F5A0FCA23D117E576EEF25A55
:100C70005E94EBF99353F360EF970C335DF5726775
:100C8000EA1F9B07375FB6E3A969BE5E43BF6F7774
:100C90005A1380E25A1272CBCD464872A262354195
:100CA000D74EC0259CDAD868DCB57B1A399A868184
:100CB000D659D2228D66AB1D615018147948119710
:100CC0008DD2A87A7CFF026E3CBE6B044CE7E9DC57
:100CD0007F8A1B6CE96C0A72CC133A6DD23B9DBCC7
:100CE000624F511E06547BC4D33008037DE3926EDD
:100CF0002D76C7EE4918F87A1DE97D7ECDEE2E439C
:100D00006026CD21E4CBBA2EAF6BDCD0745DFB83C3
:100D1000543893B2B5862C6AAC8799965C632D37AC
:100D20002CB1C230D3BE076D34B5764E3B1B4DC1DE
:100D30000D7DF6D63F1296696D420B83286F85E0D4
:100D4000D7F366B0ECA4DA0BB64220EC6A47678EA4
:100D5000FAF482B273AD7F83659ED097D955FC2794
:100D600061E7E8167677190233E9136AC470BA2E80
:100D70008FDAACAE4AE8D37348857315370B8F67AB
:100D80001615D3F960A977B35C8DA6CF1B3727E37F
:100D900066356198D1CE745F6F81AFA56CAF2C774B
:100DA000A3BDC7333CCD223AD1B0511270A6933EB9
:100DB0004D34EA504DDCEA5F3C1B661A19B8152B1E
:100DC000E7E5D4584B7EDB8E51E76CC7D2ABABA3C3
:100DD000181B6CD1ABF3FBE5CAD7EB1F4B755D213C
:100DE000F4EAFAEFE3BBF44A05D7EE4DCFCC5AE371
:100DF000F27DF2AAFD0ADD97B488DC0AB388B286D8
:100E0000A2A4A2DC6A429E50AD53A3503AD75E79A9
:100E1000B7B7B2C23C84001A9B07CBFB9730D0DA3D
:100E200069B5AB1D6B0C208B7A18E93DBB3E86DBA8
:100E300035D67D196632F9E37A8D32C818FEEBB8E3
:100E4000DEB57BE617ED089209B6748BDBFACA4E65
:100E5000FA30F29DFF50555BFF4DBADF49350AF17C
:100E60006D31E1129D10146F95D13CAD3039E92FF1
:100E70002479B563A09CD52EDA6D2B8446ECF6ADB3
:100E8000D0469DAE8FE1F52F97F8A598C904AF73B2
:100E90005E13FC19DEBF17D7BBBA438D221D8D8AA6
:100EA00083E56E1F6CB54FA1EF1F4D7DB222BFF0E1
:100EB000F88EB59E37AD9050CCBE8B99DB716FE14B
:100EC000AB90360FF1ACB1D6FA435A379A826B56D3
:100ED000BB0801E219384D08A7E723AC09B6EE6D4F
:100EE000846BAA70B7B0BBAF6678B78DEB5DDDA140
:100EF000166CB5CFA5592837D33A4AD27EDED8131F
:100F00007FF942F218C088E4B45C65112C3BCA75C5
:100F10005C30CC064B9FE6F01A93578DFAEECDABC2
:100F2000FE51EFA879E82D7494B9DBBBBBA318D0B0
:100F3000FD5F026DAFE7E8167677FBCA0AD37571DD
:100F4000BDAB3B3FAB5D735FE2B67677ABCA0AD30E
:100F500035717D51777E562BFFCFEA22E12EAA3DD7
:100F600059FA5A2F305CCF7C4DEFD777C14FE4FF51
:100F7000EC7E1A696ED654534D3501276BFAB3E8EF
:100F8000AB7EF212E237F9BF54E81C964E0AEE5FD0
:100F9000F8BC7BF24AC4F5B3C6BAB17E7C27A2FA8C
:100FA000D76AB7DBEFF679D23CD01951FF48274317
:100FB000F30F3A3F2AFBEFD4BA5DD3284767F9C451
:100FC00033D46782AD543AD239F222AA1DFFDFD85A
:100FD00001048126C53368D2606935A91D9769521D
:100FE000FFF813350992458595FE8757248B139991
:100FF000E4D48EAFA9B37F4F8226D189A35F93E853
:101000005C406B52B0852675D23F599348B222435B
:10101000BF64710B2FCAE98CF0FF96C7F725F68ADB
:101020005693F8DE965F939E37659A34FFF8AA26AA
:1010300069C9D259AB48368B44B29357A979CC3F92
:10104000366F7576F62792AB491C294193F80C92BE
:101050003489CE1245B24F93764CF556224816D5B8
:10106000D661B65CFD9EBCFF01E1EA97A800407A1C
:1010700010F35A00A0724E18090010A5D4E8000021
:10108000E87648170000E40B54020000CA9A3B00BF
:101090000000E1F505000080969800000040420F36
:1010A000000000A08601000000102700000000E8FA
:1010B00003000000006400000000000A00000000BF
:1010C000000100000000002C76D888DC674F082360
:1010D000DFC1DFAE59E1B1B796E5E3E453C63AE6C6
:1010E00051997696E8E6C28426EB898C9B62ED40A6
:1010F0007C6FFCEFBC9C9F40F2BAA56FA5F49005F5
:101100005A2AF75C936B6CF9676DC11BFCE0E40D28
:1011100047FEF520E6B500D0ED902E03009435771C
:10112000050080841E080000204E0A000000C80C44
:10113000333333330F986E12831141EF8D211489AD
:101140003BE65516CFFEE6DB18D1844B381BF77C07
:101150001D901DA4BBE424203284725E228100C94C
:10116000F124ECA1E53D2700680EB713632FBC2FD7
:1011700011241FBECFEFD0E1DEBFCDBF12E0A0E053
:10118000B1E0E8E6F7E600E00BBF02C007900D9281
:10119000A03BB107D9F724E0A0EBB2E001C01D925B
:1011A000AF37B207E1F711E1CEE6D1E100E006C0CA
:1011B00022970109FE010BBF0E943E30C836D107BD
:1011C00080E00807A9F70E949B2D0C94A3330C9490
:1011D00000002F923F924F925F926F927F928F9278
:1011E0009F92AF92BF92CF92DF92EF92FF920F93B6
:1011F0001F93CF93DF93CDB7DEB763970FB6F89405
:10120000DEBF0FBECDBF7C011B016A01FC0117824E
:101210001682838181FF66C3BE016F5F7F4F4B01E2
:10122000F7019381F10193FD859193FF81911F0156
:10123000882309F453C3853239F493FD859193FFD4
:1012400081911F01853239F4B70190E00E94DA32B2
:1012500056016501E5CF10E0512C20E02032A0F4CA
:101260008B3269F030F4803259F0833269F42061B6
:101270002CC08D3239F0803339F4216026C02260D1
:10128000246023C0286021C027FD27C030ED380F1F
:101290003A3078F426FF06C0FAE01F9F300D112483
:1012A000132F13C06AE0569E300D1124532E206276
:1012B0000CC08E3221F426FD11C3206406C08C368A
:1012C00011F4206802C0883641F4F10193FD859144
:1012D00093FF81911F018111C1CF9BEB980F933038
:1012E00018F42061805E06C09BE9980F933008F0E7
:1012F000AAC12F7E26FF16E02F73722E853621F4A9
:10130000F22FF0647F2E08C0863621F4622F6068C9
:10131000762E02C01111115077FE07C01C3348F41D
:1013200044244394410E27E00BC0183030F4212FA1
:1013300006C027E04CE3442E03C027E017E0412C11
:10134000560174E0A70EB11CF601608171818281A3
:101350009381042DA4010E94CD316C01098100FF0D
:1013600002C003FF06C071FC07C072FC08C0612CFC
:1013700008C03DE2632E05C02BE2622E02C090E25F
:10138000692E802F8C7099F1662011F084E001C0E5
:1013900083E0851510F0512C0BC0581A73FC08C05F
:1013A000B70180E290E00E94DA325A94C9F7F3CF95
:1013B000662029F0B701862D90E00E94DA3203FD05
:1013C00003C00CEA10E002C008EA10E0F72DF0714B
:1013D0007F2EF8018491882309F476C2711080521F
:1013E000B70190E00E94DA320F5F1F4FF2CF77FE15
:1013F0000FC04C0C04FF04C08A81813309F44A9465
:10140000141474F5F8E0F41578F588E0482E2CC033
:1014100076FC2AC0812F90E08C159D059CF06CEF26
:10142000C6166FEFD60674F0772D7068772E0AC057
:10143000E2E0F0E0EC0FFD1FE10FF11D8081803351
:1014400019F411501111F4CF77FE0EC044244394C7
:10145000410E812F90E0C816D9062CF41C1904C047
:101460004424439401C010E077FE07C01C141D04FF
:101470003CF496012F5F3F4F05C025E030E002C0ED
:1014800021E030E0662011F02F5F3F4F112331F053
:10149000412F50E04F5F5F4F240F351F452D50E027
:1014A0002417350714F4521A01C0512C872D897066
:1014B00049F4552039F0B70180E290E00E94DA3219
:1014C0005A94F7CF662029F0B701862D90E00E944C
:1014D000DA3273FC09C0552039F0B70180E390E09F
:1014E0000E94DA325A94F7CF77FE5FC09C2D8D2D83
:1014F000D7FE02C090E080E0692E782E40E050E0F8
:10150000C601841991099D878C8796012619370990
:10151000280D391D812F90E0EE27FF27E81BF90BDE
:10152000FF87EE87FFEF6F167F0669F4B7018EE243
:1015300090E02B8B3A8B488B598B0E94DA32598979
:1015400048893A892B89C614D70454F06C857D8567
:10155000661577052CF4F901E40FF51F818101C0B0
:1015600080E371E0671A71084F5F5F4FEE85FF857A
:101570006E167F066CF0B70190E02B8B3A8B488B90
:10158000598B0E94DA322B893A8948895989CACF06
:101590006C147D0439F49A81963318F4953311F460
:1015A00004FF81E3B70190E04BC08A81813309F0E9
:1015B0000F7EB70190E00E94DA32111105C074FE6F
:1015C00018C085E490E017C0B7018EE290E00E9459
:1015D000DA3282E066246394680EF401E80FF11DAC
:1015E0008081B70190E00E94DA32115041F3862DDC
:1015F000F1CF85E690E0B7010E94DA32D7FC05C052
:10160000C114D10439F404FF05C0D194C194D108A8
:101610008DE201C08BE2B70190E00E94DA3280E3F4
:101620006AE0C616D1042CF08F5FFAE0CF1AD10819
:10163000F7CFB70190E00E94DA32B701C601C09639
:101640000E94DA3241C1833631F0833779F0833535
:1016500009F058C021C0560172E0A70EB11CF60176
:101660008081898301E010E0640114C05601F2E03A
:10167000AF0EB11CF601C080D18026FF03C0612FE0
:1016800070E002C06FEF7FEFC6012B8B0E94CF325C
:101690008C012B892F7715C05601F2E0AF0EB11CDB
:1016A000F601C080D18026FF03C0612F70E002C028
:1016B0006FEF7FEFC6012B8B0E94C4328C012B8908
:1016C0002068722E23FD1AC0852D90E00817190797
:1016D000A8F4B70180E290E00E94DA325A94F4CF85
:1016E000F60177FC859177FE81916F01B70190E05B
:1016F0000E94DA3251105A94015011090115110556
:1017000079F7E2C0843611F0893651F5560127FF8A
:1017100009C0F4E0AF0EB11CF601608171818281D5
:1017200093810AC0F2E0AF0EB11CF60160817181B5
:10173000882777FD8095982F022F0F7697FF08C096
:1017400090958095709561957F4F8F4F9F4F006862
:101750002AE030E0A4010E944533C82EC8183EC0DC
:10176000022F853721F40F7E2AE030E01DC0097F6B
:101770008F3691F018F4883559F0B0C0803719F0E1
:10178000883711F0ABC0006104FF09C0046007C0D6
:1017900024FF08C0066006C028E030E005C020E154
:1017A00030E002C020E132E0560107FF09C0F4E05A
:1017B000AF0EB11CF601608171818281938108C0F6
:1017C000F2E0AF0EB11CF6016081718180E090E023
:1017D000A4010E944533C82EC8180F7706FF0BC01E
:1017E000202F2E7FC11650F404FF0AC002FD08C04E
:1017F000202F2E7E05C0DC2C202F03C0DC2C01C046
:10180000D12E24FF0DC0FE01EC0DF11D808180332F
:1018100011F4297E09C022FF06C0D394D39404C0DA
:10182000822F867809F0D39423FD13C020FF06C0D1
:101830001C2DD51418F4150D1D19D52CD51468F4CC
:10184000B70180E290E02B8B0E94DA32D3942B898F
:10185000F5CFD51410F45D1801C0512C24FF12C02F
:10186000B70180E390E02B8B0E94DA322B8922FFB4
:1018700017C021FF03C088E590E002C088E790E030
:10188000B7010CC0822F867859F021FD02C080E29A
:1018900001C08BE227FD8DE2B70190E00E94DA32B1
:1018A000C11638F4B70180E390E00E94DA3211509B
:1018B000F7CFCA94F401EC0DF11D8081B70190E0DF
:1018C0000E94DA32C110F5CF552009F4C2CCB7011D
:1018D00080E290E00E94DA325A94F6CFF7018681D6
:1018E000978102C08FEF9FEF63960FB6F894DEBF2B
:1018F0000FBECDBFDF91CF911F910F91FF90EF9061
:10190000DF90CF90BF90AF909F908F907F906F901F
:101910005F904F903F902F90089580E090E0089561
:10192000FC0124853585F901E058FF4F80819181C4
:1019300080589F4F329620813181821B930B8F7785
:10194000907897FF0895019780689F6F019608959A
:10195000FC0184859585FC01EE57FF4F2081318184
:10196000DC01A058BF4F4D915C9142175307C1F065
:10197000DC01A20FB31F8C912F5F3F4F2F77307880
:1019800037FD04C03183208390E008952150310950
:1019900020683F6F2F5F3F4F3183208390E0089591
:1019A0008FEF9FEF0895FC0184859585FC01E05839
:1019B000FF4FDC01AE57BF4F8D919C919183808387
:1019C0000895DC015296ED91FC91539741E050E06F
:1019D0005B960C905B9702C0440F551F0A94E2F788
:1019E000208130E024233523232BD1F35696ED912B
:1019F000FC915797608381E090E008951F920F92C9
:101A00000FB60F9211240BB60F922F933F934F9363
:101A10005F936F938F939F93EF93FF936091C600B3
:101A20002091EE033091EF03C90101968F779078F2
:101A300097FD1FC04091F0035091F1038417950763
:101A400041F0F901E259FC4F60839093EF038093DA
:101A5000EE03FF91EF919F918F916F915F914F9165
:101A60003F912F910F900BBE0F900FBE0F901F90C4
:101A70001895019780689F6F0196DCCF1F920F9297
:101A80000FB60F9211240BB60F922F933F934F93E3
:101A90005F936F938F939F93EF93FF936091CE002B
:101AA00020916A0330916B03C90101968F7790787A
:101AB00097FD1FC040916C0350916D0384179507EB
:101AC00041F0F901E651FD4F608390936B038093E1
:101AD0006A03FF91EF919F918F916F915F914F9169
:101AE0003F912F910F900BBE0F900FBE0F901F9044
:101AF0001895019780689F6F0196DCCF7F928F9237
:101B00009F92AF92BF92CF92DF92EF92FF920F938C
:101B10001F93CF93DF93EC016A017B01413482E490
:101B200058078FE06807710508F455C0EA89FB89FA
:101B300081E090E00C8C02C0880F991F0A94E2F7B4
:101B4000808360E079E08DE390E0A70196010E9438
:101B5000EA2F21503109410951095695479537958A
:101B60002795C901EE85FF859083E889F9898083EF
:101B7000EC89FD89408181E090E09C01088C02C0E5
:101B8000220F331F0A94E2F7422B4083EC89FD8930
:101B900040819C01098C02C0220F331F0A94E2F796
:101BA000422B4083EC89FD8920810A8C02C0880F7A
:101BB000991F0A94E2F7282B2083DF91CF911F9180
:101BC0000F91FF90EF90DF90CF90BF90AF909F90DC
:101BD0008F907F90089560E874E88EE190E0A7010F
:101BE00096010E94EA2F49015A0181E0881A910862
:101BF000A108B108B694A79497948794A50194017D
:101C00002F5F3F4F4F4F5F4F220F331F441F551F12
:101C1000220F331F441F551F220F331F441F551F10
:101C2000220F331F441F551F60E074E284EF90E0E1
:101C30000E94EA2F0FEF10E0AFEFB0E00E942E30CD
:101C4000A70196010E94EA2F021B130B1016110622
:101C5000CCF5722E709460E079E08DE390E0A701FE
:101C600096010E94EA2F21503109410951092E7F26
:101C70002E5F3F4F4F4F5F4F220F331F441F551FA3
:101C8000220F331F441F551F60E074E284EF90E081
:101C90000E94EA2F0FEF10E0AFEFB0E00E942E306D
:101CA000A70196010E94EA2F021B130B10161106C2
:101CB0006CF42095271508F439CFEA89FB89108246
:101CC000C40150CF77247394720EC5CF2F5FF2CF2B
:101CD0001092D0021092CF0288EE93E0A0E0B0E024
:101CE0008093D1029093D202A093D302B093D402F6
:101CF0002AE131E03093CE022093CD024EE653E04C
:101D00005093DA024093D90245EC50E05093DC0244
:101D10004093DB0244EC50E05093DE024093DD023E
:101D200040EC50E05093E0024093DF0241EC50E081
:101D30005093E2024093E10246EC50E05093E402FB
:101D40004093E302E4E0E093E50273E07093E6027F
:101D500067E06093E70255E05093E80241E040936A
:101D6000E9021092B3021092B2028093B4029093EF
:101D7000B502A093B602B093B7023093B10220939C
:101D8000B0028AEE92E09093BD028093BC028DEC8B
:101D900090E09093BF028093BE028CEC90E0909311
:101DA000C1028093C00288EC90E09093C3028093BC
:101DB000C20289EC90E09093C5028093C4028EEC3D
:101DC00090E09093C7028093C602E093C80270939C
:101DD000C9026093CA025093CB024093CC0208958B
:101DE000CF92DF92EF92FF920F931F93CF93DF93E7
:101DF0006C0141155105F1F08B01EA01E12CF12C48
:101E0000D8016D918D01D601ED91FC910190F08189
:101E1000E02DC6010995E80EF91E2197209781F75C
:101E2000C701DF91CF911F910F91FF90EF90DF904D
:101E3000CF900895E12CF12CF3CFEF92FF920F9306
:101E40001F93CF93DF93CDB7DEB7C054D1090FB640
:101E5000F894DEBF0FBECDBF2B96EEACFFAC2B9738
:101E60009E01235B3F4F2D964EAD5FAD2D9760E4F5
:101E700070E08E010F5F1F4FC8010E940C33D80124
:101E80000D900020E9F7AD0141505109401B510B65
:101E9000D701ED91FC910280F381E02DB801C701DB
:101EA0000995C05CDF4F0FB6F894DEBF0FBECDBF03
:101EB000DF91CF911F910F91FF90EF9008951F92A6
:101EC0000F920FB60F9211240BB60F922F933F93E0
:101ED0004F935F936F937F938F939F93AF93BF9332
:101EE000EF93FF938091F2039091F303892B29F0F4
:101EF000E091F203F091F3030995FF91EF91BF9107
:101F0000AF919F918F917F916F915F914F913F9191
:101F10002F910F900BBE0F900FBE0F901F90189532
:101F20001F920F920FB60F9211240BB60F922F93A0
:101F30003F934F935F936F937F938F939F93AF9351
:101F4000BF93EF93FF938091F4039091F503892B56
:101F500029F0E091F403F091F5030995FF91EF91D9
:101F6000BF91AF919F918F917F916F915F914F91B1
:101F70003F912F910F900BBE0F900FBE0F901F90AF
:101F800018951F920F920FB60F9211240BB60F9255
:101F90002F933F934F935F936F937F938F939F9371
:101FA000AF93BF93EF93FF938091F6039091F70364
:101FB000892B29F0E091F603F091F7030995FF9141
:101FC000EF91BF91AF919F918F917F916F915F91B1
:101FD0004F913F912F910F900BBE0F900FBE0F901E
:101FE0001F9018951F920F920FB60F9211240BB6E7
:101FF0000F922F933F934F935F936F937F938F93A2
:102000009F93AF93BF93EF93FF938091F8039091C9
:10201000F903892B29F0E091F803F091F903099570
:10202000FF91EF91BF91AF919F918F917F916F91B0
:102030005F914F913F912F910F900BBE0F900FBE6C
:102040000F901F9018951F920F920FB60F921124A8
:102050000BB60F922F933F934F935F936F937F93A2
:102060008F939F93AF93BF93EF93FF938091FA0366
:102070009091FB03892B29F0E091FA03F091FB0387
:102080000995FF91EF91BF91AF919F918F917F91B2
:102090006F915F914F913F912F910F900BBE0F90D9
:1020A0000FBE0F901F9018951F920F920FB60F92B0
:1020B00011240BB60F922F933F934F935F936F931F
:1020C0007F938F939F93AF93BF93EF93FF938091F1
:1020D000FC039091FD03892B29F0E091FC03F09122
:1020E000FD030995FF91EF91BF91AF919F918F9162
:1020F0007F916F915F914F913F912F910F900BBE08
:102100000F900FBE0F901F9018951F920F920FB651
:102110000F9211240BB60F922F933F934F935F931F
:102120006F937F938F939F93AF93BF93EF93FF939F
:102130008091FE039091FF03892B29F0E091FE032B
:10214000F091FF030995FF91EF91BF91AF919F919E
:102150008F917F916F915F914F913F912F910F9050
:102160000BBE0F900FBE0F901F9018951F920F92ED
:102170000FB60F9211240BB60F922F933F934F93EC
:102180005F936F937F938F939F93AF93BF93EF93DF
:10219000FF938091000490910104892B29F0E09134
:1021A0000004F09101040995FF91EF91BF91AF9167
:1021B0009F918F917F916F915F914F913F912F915F
:1021C0000F900BBE0F900FBE0F901F9018950C94A0
:1021D0003E311F920F920FB60F9211242F933F930F
:1021E0008F939F93AF93BF938091030490910404C6
:1021F000A0910504B09106043091020423E0230F5E
:102200002D3768F126E8230F0296A11DB11D2093FA
:1022100002048093030490930404A0930504B093F4
:1022200006048091070490910804A0910904B091DC
:102230000A040196A11DB11D809307049093080420
:10224000A0930904B0930A04BF91AF919F918F911D
:102250003F912F910F900FBE0F901F9018950196F0
:10226000A11DB11DD4CF2FB7F894609103047091D4
:10227000040480910504909106042FBF0895CF9225
:10228000DF92EF92FF920F931F932FB7F894C090B5
:102290000304D0900404E0900504F09006042FBFDE
:1022A000EFB7F89400910304109104042091050401
:1022B00030910604EFBF0C191D092E093F09601764
:1022C00071078207930760F71F910F91FF90EF90BE
:1022D000DF90CF9008950197009751F0880F991FD4
:1022E000880F991F02972FB7F8940197F1F72FBF26
:1022F0000895789484B5886084BD84B5806484BD75
:1023000084B5826084BD84B5816084BDEEE6F0E072
:10231000808181608083EAE7F0E08081846080834F
:1023200080818260808380818160808380818068F9
:1023300080831092C10008959FB7F89480910B0498
:1023400081110CC0289A209A8CB580618CBD8CB507
:1023500080648CBD219A229A80910B048F5F8093B8
:102360000B049FBF08951F920F920FB60F92112476
:102370000BB60F922F933F934F935F936F937F937F
:102380008F939F93AF93BF93EF93FF93E0910C04D0
:10239000F0910D04309781F08091780020917900C0
:1023A0006381748190E00180F281E02D922B099588
:1023B00010920D0410920C04FF91EF91BF91AF9118
:1023C0009F918F917F916F915F914F913F912F914D
:1023D0000F900BBE0F900FBE0F901F9018951F927D
:1023E0000F920FB60F9211240BB60F927F928F921D
:1023F0009F92AF92BF92CF92DF92EF92FF920F9394
:102400001F932F933F934F935F936F937F938F937C
:102410009F93AF93BF93EF93FF93CF93DF93CDB78A
:10242000DEB76197DEBFCDBFF090ED00B0EE7B2E42
:1024300010EDC12E00ECD02E80EBE82E00EA10E962
:10244000F0E8E0E770E660E550E440E330E220E1E8
:1024500006C01092ED008091EE0085FD15C09091B0
:10246000E0008091E100892B09F49FC08091E00099
:1024700080FDEFCF8091E00081FF82C02093ED00CE
:102480008091EE0085FFEBCF1092EE008AE090E0A5
:102490008C0F9D1F998788878091FA008A87809189
:1024A000FA008B878091FA008C878091FA008D87E3
:1024B0008091FA008E878091FA008F878091FA00D0
:1024C000888B8091FA00898B8091EF008F708D83CB
:1024D0008091EF00829581708F839091F00092FB44
:1024E000992790F99E83882309F49DC04091F300B9
:1024F0008091F2008090F1002091F00090E0982F00
:1025000088279295990F907EAA2797FDA095BA2FBC
:1025100030E2839E40011124AA2497FCA094BA2C97
:10252000880D991DAA1DBB1D50E060E070E0E5E13B
:10253000440F551F661F771FEA95D1F7840F951F2B
:10254000A61FB71F422F50E05595479555954795C3
:1025500055954795662757FD6095762F840F951FF3
:10256000A61FB71F89839A83AB83BC836091ED005C
:10257000E0910E04F0910F04CE010196099560CF11
:102580008091E00082FF03C03093ED0064CF809122
:10259000E00083FF03C04093ED005DCF8091E00039
:1025A00084FF2BC05093ED0056CFF092ED00619662
:1025B0000FB6F894DEBF0FBECDBFDF91CF91FF9174
:1025C000EF91BF91AF919F918F917F916F915F91AB
:1025D0004F913F912F911F910F91FF90EF90DF90BE
:1025E000CF90BF90AF909F908F907F900F900BBE39
:1025F0000F900FBE0F901F9018958091E00085FFFF
:1026000003C06093ED0027CF8091E00086FD22C0DB
:102610008091E00087FD2FC08091E10080FF1DC008
:10262000F093ED0018CF2091F3008091F20090E03C
:102630009595879595958795959587959595879582
:102640009595879538E0239F800D911D11249A83DD
:1026500089838CCF7093ED00FECE8091E10081FDE7
:1026600007C08091E10082FF09C00093ED00F3CE26
:102670001093ED00F0CEE093ED00EDCE8091E100FF
:1026800083FF03C0E092ED00E6CE8091E10084FF7D
:1026900003C0D092ED00DFCE8091E10085FF03C042
:1026A000C092ED00D8CE8091E10086FFD4CE70922A
:1026B000ED00D1CE0F931F93CF93DF938C01409108
:1026C0002304242F332727FD30953F934F931F93E7
:1026D0008F9326E231E03F932F93CDECD2E0DF934E
:1026E000CF93ABDBE09123048DB79EB708960FB66E
:1026F000F8949EBF0FBE8DBFE7FD29C060912404F2
:1027000070E080E094E00E94D72FC8010E94C32FA0
:10271000FF27E7FDF095E05FFB4F608377277F930E
:102720006F938AE291E09F938F93DF93CF9385DB42
:10273000809123040F900F900F900F900F900F90A7
:10274000823054F01092230481E080932204DF91C0
:10275000CF911F910F9108958F5F8093230481E0A3
:1027600080932204DF91CF911F910F9108951092D1
:10277000130410921504109214041092170410926E
:10278000160410920D0410920C04EAE7F0E097E0B2
:102790009083ACE7B0E080E48C93208128682083AC
:1027A0001092180410921A041092190410921C042A
:1027B00010921B0410920D0410920C0490838C93C1
:1027C00020812868208310921D0410921F0410920B
:1027D0001E04109221041092200410920D041092F5
:1027E0000C0490838C93808188688083089524E909
:1027F00032E0FC01318320830895089580E090E069
:10280000089580E090E0089580E090E0089524E944
:1028100032E0FC01318320830895660F771F6058F2
:102820007E4FFB01859194910895660F771F655245
:102830007E4FFB01859194910895660F771F6D5B24
:102840007D4FFB0185919491089524E932E0FC01CC
:1028500031832083BCCC24E932E0FC013183208326
:10286000B6CCCF93DF93CDB7DEB729970FB6F894E8
:10287000DEBF0FBECDBF10923104DC012D913C9123
:102880002231310509F486C088F52031310509F47B
:1028900067C02131310509F5DC011796ED91FC91F6
:1028A000189788E0A7E4B4E001900D928A95E1F7CB
:1028B00049E050E065E875E0CE0101960E94A5323E
:1028C0001092ED001092EE008F81811131C090E8DE
:1028D0008D818F70892B8093EF0029960FB6F89425
:1028E000DEBF0FBECDBFDF91CF91089523313105FB
:1028F00009F12431310589F7DC011796ED91FC913E
:10290000189788E0AFE5B4E001900D928A95E1F761
:1029100049E050E06FE475E0CE0101960E94A532D7
:1029200080E38093ED001092EE008F81882379F28E
:1029300090E9CECFDC011796ED91FC91189788E0D5
:10294000A7E5B4E001900D928A95E1F749E050E0E7
:1029500061E675E0CE0101960E94A53280E2E1CFEA
:10296000DC011796ED91FC91189788E0A7E6B4E09A
:1029700001900D928A95E1F7809167048093270476
:1029800049E050E06DE375E0CE0101960E94A5326A
:1029900080E4C7CFDC011796ED91FC91189788E091
:1029A000AFE4B4E001900D928A95E1F749E050E080
:1029B00063E775E0CE0101960E94A53280E1B1CFB8
:1029C0001F920F920FB60F9211248F939F938091B5
:1029D00031048F5F80933104809133048F5F809343
:1029E0003304809135048F5F8093350480913704E0
:1029F0008F5F809337049091310480913004891760
:102A000020F41092310410922704909135048091A3
:102A10003404981720F01092350410922E049091EF
:102A2000370480913604891770F41092370480912E
:102A300028048130E9F0809129048130A9F0809147
:102A40002A04813039F09F918F910F900FBE0F9023
:102A50001F9018952D9914C02D9A9F918F910F90CA
:102A60000FBE0F901F9018952E9B0CC02E98E7CF8D
:102A70002F990AC02F9A80912904813001F7F4CF51
:102A80002D98E1CF2E9ADBCF2F98D5CFFC018181F5
:102A900081115CC093858485289820E92EBD0000B3
:102AA0000DB407FEFDCF2EB524E22EBD00000DB4FF
:102AB00007FEFDCF2EB528EE2EBD00000DB407FE9B
:102AC000FDCF2EB59EBD00000DB407FEFDCF9EB517
:102AD0008EBD00000DB407FEFDCF8EB5289AA4EE82
:102AE00074E260E128986EBD00000DB407FEFDCFD2
:102AF0008EB57EBD00000DB407FEFDCF8EB5AEBD18
:102B000000000DB407FEFDCF8EB51EBC00000DB455
:102B100007FEFDCF8EB51EBC00000DB407FEFDCF35
:102B20009EB51EBC00000DB407FEFDCF8EB5289AE1
:102B3000292F382F438554854217530729F02F3FFB
:102B40003F4081F682E3089580E00895289A438506
:102B50005485289880E98EBD00000DB407FEFDCF96
:102B60008EB584E28EBD00000DB407FEFDCF8EB59C
:102B700088EE8EBD00000DB407FEFDCF8EB54EBDB4
:102B800000000DB407FEFDCF8EB55EBD00000DB494
:102B900007FEFDCF8EB51EBC00000DB407FEFDCFB5
:102BA0008EB51EBC00000DB407FEFDCF8EB5289A71
:102BB000118270CFCF93FC01CB0125853685261776
:102BC000370708F071C02181211174C03385248535
:102BD000289840E94EBD00000DB407FEFDCF4EB56C
:102BE00044E24EBD00000DB407FEFDCF4EB548EEE9
:102BF0004EBD00000DB407FEFDCF4EB53EBD00003A
:102C00000DB407FEFDCF3EB52EBD00000DB407FE8E
:102C1000FDCF2EB5289A258536852817390708F067
:102C200040C0C4EEB4E2A0E16CEF7FE02898AEBDF6
:102C300000000DB407FEFDCF2EB5BEBD00000DB4E3
:102C400007FEFDCF2EB5CEBD00000DB407FEFDCFB3
:102C50002EB51EBC00000DB407FEFDCF2EB51EBC68
:102C600000000DB407FEFDCF3EB51EBC00000DB444
:102C700007FEFDCF2EB5289A432F522F4F3F2FE04E
:102C80005207A9F023853485241B350B2C7F3F7018
:102C9000AB01421B530B568745874817590708F469
:102CA000C5CF818181113BC080E0CF91089582E33F
:102CB000CF910895289A43855485289820E92EBD00
:102CC00000000DB407FEFDCF2EB524E22EBD00009E
:102CD0000DB407FEFDCF2EB528EE2EBD00000DB4BD
:102CE00007FEFDCF2EB54EBD00000DB407FEFDCF93
:102CF0002EB55EBD00000DB407FEFDCF2EB51EBC87
:102D000000000DB407FEFDCF2EB51EBC00000DB4B3
:102D100007FEFDCF2EB5289A21E0218357CF4385AA
:102D2000548560E070E050586F4E7F4F2898862F92
:102D300080688EBD00000DB407FEFDCF8EB55EBD70
:102D400000000DB407FEFDCF8EB54EBD00000DB4E2
:102D500007FEFDCF8EB581E08183A6CF6F927F9273
:102D60008F929F92AF92BF92CF92DF92EF92FF929B
:102D70000F931F93CF93DF9300D000D0CDB7DEB772
:102D80008C013B012D5F3F4F4F4F5F4F2C7F211533
:102D900031054105510509F440C078EED72EE4E233
:102DA000EE2EF0E9FF2ECC24C394D8011D968D9110
:102DB0009C911E97A0E0B0E082179307A407B50787
:102DC00008F43FC080E090E0DC01F301E80FF91F58
:102DD000E491EEBD00000DB407FEFDCF6EB5019687
:102DE000A11DB11D82179307A407B50770F3D80181
:102DF0001B968D919C911C97820F931F9F701C9620
:102E00009C938E931B971D968D919C911E97821B70
:102E1000930B1E969C938E931D9780E00F900F90BE
:102E20000F900F90DF91CF911F910F91FF90EF9036
:102E3000DF90CF90BF90AF909F908F907F906F90DA
:102E40000895F801818181118FC0F80193858485EF
:102E50002898FEBC00000DB407FEFDCF6EB5EEBC99
:102E600000000DB407FEFDCF6EB5DEBC00000DB452
:102E700007FEFDCF6EB59EBD00000DB407FEFDCF71
:102E80009EB58EBD00000DB407FEFDCF8EB5289A0D
:102E9000D8011D96ED91FC911E974F01A12CB12CEC
:102EA000DA01C90182169306A406B50610F4D5010D
:102EB000C4010097A105B10509F4CFC0812C912C64
:102EC0005401F301E80DF91DE491EEBD00000DB4CD
:102ED00007FEFDCF6EB5EFEF8E1A9E0AAE0ABE0A50
:102EE00088169906AA06BB0661F74C015D01F1E060
:102EF0008F1A9108A108B108B4016F5F7F4F660E69
:102F0000771EF801A584B684F80163857485680F7F
:102F1000791F7F7074876387A81AB90AB686A58659
:102F2000281B390B4A0B5B0B922F832F2130F8E0C3
:102F30003F074105510510F090E088E0692F782F98
:102F4000C80129833A834B835C8334DE29813A812B
:102F50004B815C81823309F482C021153105410522
:102F6000510509F022CF59CF289A83859485289856
:102F7000FEBC00000DB407FEFDCF6EB5EEBC000038
:102F80000DB407FEFDCF6EB5DEBC00000DB407FE2C
:102F9000FDCF6EB58EBD00000DB407FEFDCF6EB542
:102FA0009EBD00000DB407FEFDCF8EB51EBC000017
:102FB0000DB407FEFDCF8EB51EBC00000DB407FE9C
:102FC000FDCF8EB5289AD80111961C9211971B96A9
:102FD0009C911B971C968C912898FEBC00000DB408
:102FE00007FEFDCF6EB5EEBC00000DB407FEFDCFB1
:102FF0006EB5DEBC00000DB407FEFDCF6EB59EBD04
:1030000000000DB407FEFDCF9EB58EBD00000DB4CF
:1030100007FEFDCF8EB5289AF80183859485A0E040
:10302000B0E09058AF4EBF4F28986A2F60686EBDD1
:1030300000000DB407FEFDCF6EB59EBD00000DB4BF
:1030400007FEFDCF6EB58EBD00000DB407FEFDCFAF
:103050008EB5D8011196CC921BCF5F0155CF82E37C
:10306000DDCECF92DF92EF92FF920F931F93CF931B
:10307000DF9300D0CDB7DEB76C017B01FC0181810D
:10308000882309F441C0F60185859685049780F16F
:103090004EBD00000DB407FEFDCF8EB55EBD000035
:1030A0000DB407FEFDCF8EB5EEBC00000DB407FEDB
:1030B000FDCF8EB5FEBC00000DB407FEFDCF8EB572
:1030C000F6018385948504969F7094878387858510
:1030D000968504979687858780E00F900F90DF9103
:1030E000CF911F910F91FF90EF90DF90CF900895B7
:1030F00064E070E0C60149835A835CDD49815A81EE
:10310000823331F682E3E9CF0385148520E030E095
:1031100010582F4E3F4F2898822F80688EBD000098
:103120000DB407FEFDCF8EB51EBD00000DB407FE29
:10313000FDCF8EB50EBD00000DB407FEFDCF8EB5E0
:1031400081E0F601818385859685049760F464E0CB
:1031500070E0C60149835A832DDD49815A8182334B
:1031600011F482E325C04EBD00000DB407FEFDCF73
:103170008EB55EBD00000DB407FEFDCF8EB5EEBC72
:1031800000000DB407FEFDCF8EB5FEBC00000DB4EF
:1031900007FEFDCF8EB5F6018385948504969F705A
:1031A000948783878585968504979687858780E0B1
:1031B000289AF60143855485289890E99EBD000021
:1031C0000DB407FEFDCF9EB594E29EBD00000DB488
:1031D00007FEFDCF9EB598EE9EBD00000DB407FE24
:1031E000FDCF9EB54EBD00000DB407FEFDCF9EB5D0
:1031F0005EBD00000DB407FEFDCF9EB51EBC0000F5
:103200000DB407FEFDCF9EB51EBC00000DB407FE39
:10321000FDCF9EB5289AF60111825FCF6F927F9203
:103220008F929F92AF92BF92CF92DF92EF92FF92D6
:103230000F931F93CF93DF9300D000D0CDB7DEB7AD
:103240003C018B012D5F3F4F4F4F5F4F2C7F21156E
:10325000310541055105E9F1A8EEDA2EB4E2EB2E75
:1032600080E9F82ECC24C394D3011D968D919C91B6
:103270001E97A0E0B0E082179307A407B507E8F116
:10328000F80180E090E0DC0161916EBD00000DB4BA
:1032900007FEFDCF6EB50196A11DB11D82179307E4
:1032A000A407B50788F3D3011B968D919C911C97B9
:1032B000820F931F9F701C969C938E931B971D9655
:1032C0008D919C911E97821B930B1E969C938E93BF
:1032D0001D9780E00F900F900F900F90DF91CF918E
:1032E0001F910F91FF90EF90DF90CF90BF90AF9024
:1032F0009F908F907F906F900895F301818181114D
:103300008DC0F301938584852898FEBC00000DB420
:1033100007FEFDCF6EB5EEBC00000DB407FEFDCF7D
:103320006EB5DEBC00000DB407FEFDCF6EB59EBDD0
:1033300000000DB407FEFDCF9EB58EBD00000DB49C
:1033400007FEFDCF8EB5289AD3011D96ED91FC9115
:103350001E974F01A12CB12CDA01C90182169306E8
:10336000A406B50610F4D501C4010097A105B10566
:1033700009F4CDC0F801812C912C540161916EBDEE
:1033800000000DB407FEFDCF6EB56FEF861A960AEA
:10339000A60AB60A88169906AA06BB0679F74C0152
:1033A0005D01E1E08E1A9108A108B108B4016F5FD8
:1033B0007F4F060F171FF301A584B684F3016385C1
:1033C0007485680F791F7F7074876387A81AB90A9C
:1033D000B686A586281B390B4A0B5B0B922F832FD1
:1033E0002130F8E03F074105510510F090E088E0FA
:1033F000692F782FC30129833A834B835C83DADBFF
:1034000029813A814B815C81823309F482C0211584
:1034100031054105510509F027CF5BCF289A8385F7
:1034200094852898FEBC00000DB407FEFDCF6EB554
:10343000EEBC00000DB407FEFDCF6EB5DEBC000093
:103440000DB407FEFDCF6EB58EBD00000DB407FEB6
:10345000FDCF6EB59EBD00000DB407FEFDCF8EB54D
:103460001EBC00000DB407FEFDCF8EB51EBC0000D3
:103470000DB407FEFDCF8EB5289AD30111961C928C
:1034800011971B969C911B971C968C912898FEBCBB
:1034900000000DB407FEFDCF6EB5EEBC00000DB40C
:1034A00007FEFDCF6EB5DEBC00000DB407FEFDCFFC
:1034B0006EB59EBD00000DB407FEFDCF9EB58EBD5E
:1034C00000000DB407FEFDCF8EB5289AF301838569
:1034D0009485A0E0B0E09058AF4EBF4F28986A2F77
:1034E00060686EBD00000DB407FEFDCF6EB59EBDD9
:1034F00000000DB407FEFDCF6EB58EBD00000DB40B
:1035000007FEFDCF8EB5D3011196CC921DCF5F0182
:1035100055CF82E3DFCE8F929F92AF92BF92CF9230
:10352000DF92EF92FF920F931F93CF93DF931F923F
:10353000CDB7DEB74C016B015A014CE05FEF6FEF86
:103540007FEF29838EDDA501662757FD6095762FD5
:10355000BA0155274427C601A0E0B0E0482B592BFB
:103560006A2B7B2BC4017DDDA80160E070E0BA010D
:10357000552744272981422BC40173DDF7010190AF
:103580000020E9F7EE19FF099F0140E050E0F40147
:103590008181882381F0B701C4010F90DF91CF9121
:1035A0001F910F91FF90EF90DF90CF90BF90AF9061
:1035B0009F908F9033CE83859485A0E0B0E09058A3
:1035C000AF4EBF4F28986A2F60686EBD00000DB4E3
:1035D00007FEFDCF6EB59EBD00000DB407FEFDCF0A
:1035E0006EB58EBD00000DB407FEFDCF8EB581E037
:1035F000F4018183B701C40111DE289AF4014385E7
:103600005485289890E99EBD00000DB407FEFDCFBB
:103610009EB594E29EBD00000DB407FEFDCF9EB5A1
:1036200098EE9EBD00000DB407FEFDCF9EB54EBDC9
:1036300000000DB407FEFDCF9EB55EBD00000DB4C9
:1036400007FEFDCF9EB51EBC00000DB407FEFDCFEA
:103650009EB51EBC00000DB407FEFDCF9EB5289A96
:10366000F40111820F90DF91CF911F910F91FF9084
:10367000EF90DF90CF90BF90AF909F908F90089584
:10368000EF92FF920F931F93CF93DF93CDB7DEB7E7
:10369000C054D1090FB6F894DEBF0FBECDBF9E0156
:1036A0002C5A3F4F64964EAD5FAD649760E470E076
:1036B000CE0101960E940C33CE0101967C016296E8
:1036C0000EAD1FAD629760962FAD60972F964EADF1
:1036D0005FAD2F972D966EAD7FAD2D972B968EAD4E
:1036E0009FAD2B9718DFC05CDF4F0FB6F894DEBF9D
:1036F0000FBECDBFDF91CF911F910F91FF90EF9043
:103700000895EF92FF920F931F93CF93DF93CDB75E
:10371000DEB7C058D1090FB6F894DEBF0FBECDBFDB
:10372000CE56DF4F68817981C259D040CE010196D3
:103730000E94AE329E012C563F4FAE014F5F5F4F4D
:1037400060E470E0CE018F5B9F4F0E940C33CE018E
:103750008F5B9F4F7C01C057DF4F08811981C05993
:10376000D040C157DF4F2881CF58D040C357DF4FDB
:1037700048815981CD58D040C557DF4F6881798144
:10378000CB58D040C757DF4F88819981C958D04066
:10379000C2DEC058DF4F0FB6F894DEBF0FBECDBFFC
:1037A000DF91CF911F910F91FF90EF900895EF92CD
:1037B000FF920F931F93CF93DF93CDB7DEB7C05423
:1037C000D1090FB6F894DEBF0FBECDBF9E012C5AB3
:1037D0003F4F64964EAD5FAD649760E470E0CE01FC
:1037E00001960E940C33CE0101967C0100E016E0A8
:1037F00060962FAD60972F964EAD5FAD2F972D96AB
:103800006EAD7FAD2D972B968EAD9FAD2B9783DE42
:10381000C05CDF4F0FB6F894DEBF0FBECDBFDF91A7
:10382000CF911F910F91FF90EF900895EF92FF922B
:103830000F931F93CF93DF93CDB7DEB7C054D10959
:103840000FB6F894DEBF0FBECDBF2B960EAD1FADE9
:103850002B979E012C5A3F4F64964EAD5FAD6497F7
:1038600060E470E0CE0101967C010E940C334CE0D4
:103870005FEF6FEF7FEFC801F4DB2F964EAD5FADCA
:103880002F97662757FD6095762FBA015527442755
:103890004560C801E6DB60964FAD609750E060E0A0
:1038A00070E0C801DEDBF70101900020E9F7EE19B6
:1038B000FF099F0140E050E0F8018181882389F0F1
:1038C000B701C801ABDCC05CDF4F0FB6F894DEBFB8
:1038D0000FBECDBFDF91CF911F910F91FF90EF9061
:1038E000089583859485A0E0B0E09058AF4EBF4F17
:1038F00028986A2F60686EBD00000DB407FEFDCFEA
:103900006EB59EBD00000DB407FEFDCF6EB58EBD39
:1039100000000DB407FEFDCF8EB581E0F801818374
:10392000B701C8017BDC289AF801438554852898A3
:1039300090E99EBD00000DB407FEFDCF9EB594E258
:103940009EBD00000DB407FEFDCF9EB598EE9EBD56
:1039500000000DB407FEFDCF9EB54EBD00000DB4B6
:1039600007FEFDCF9EB55EBD00000DB407FEFDCF86
:103970009EB51EBC00000DB407FEFDCF9EB51EBC5B
:1039800000000DB407FEFDCF9EB5289AF801118204
:103990009ACF2F923F924F925F926F927F928F9227
:1039A0009F92AF92BF92CF92DF92EF92FF920F93CE
:1039B0001F93CF93DF93CDB7DEB7C456D1090FB6AF
:1039C000F894DEBF0FBECDBF1C01FC01EC5AFF4FC7
:1039D000208131817C0102E5E00EF11CD7018D913F
:1039E0009C91DC018C91D9018C930190F081E02DA8
:1039F000808190E08A30910508F489C0610133E14B
:103A0000C30ED11C40E05FEF6FEF7FEFC60129DBF3
:103A100047E050E060E076E2C60123DB8EE0E9E3B8
:103A2000F2E0DE01119601900D928A95E1F74FEFD9
:103A30005FEF6FEF74E0C60114DBAE014F5F5F4FC5
:103A40007A0100E016E02DE142E250E060EF70E024
:103A5000C60161DD40E050E06FEF74E0C60101DBBC
:103A600081E292E09F938F9386E08F931F928DE186
:103A70008F931F9288E88F931F9280EF8F93DF922E
:103A8000CF9295DE4FEF5FEF6FEF74E0C601E9DA9A
:103A900041E050E060E07FE1C601E3DA40E050E75A
:103AA0006DE07FE8C601DDDA40E050E060E071E201
:103AB000C601D7DA40E050E0BA01C601D2DA41E0EF
:103AC0005FEF6FEF7FEFC601CCDAC6010E944615AB
:103AD0000FB6F894DEBF0FBECDBFCC59DF4F0FB687
:103AE000F894DEBF0FBECDBFDF91CF911F910F9134
:103AF000FF90EF90DF90CF90BF90AF909F908F900E
:103B00007F906F905F904F903F902F900895FC01B1
:103B1000E65BFF4F0C942830D701ED91FC91818139
:103B2000833009F4DCC508F4F7C4843009F4BEC559
:103B3000853009F0AEC50E94331118E5812E12E0E0
:103B4000912EA12CB12CA50194010E94EA2F633C77
:103B500071408105910508F4CDC5812C99249A9472
:103B6000A92CF2E0BF2E0DE411E077247394EFC48A
:103B7000F101E45BFF4F0190F081E02DE181F0E085
:103B8000EE0FFF1FE055FF4F659174918E01015EAE
:103B90001F4F61961FAF0EAF61974EE150E0C80115
:103BA0000E94B5328101045B1F4FD801ED91FC9159
:103BB000E081F0E0EE0FFF1FEB5EFE4F6591749128
:103BC0004EE150E09E012F5F3F4F2F963FAF2EAF4B
:103BD0002F97C9010E94B532F101E65BFF4F0190BA
:103BE000F081E02D8081918121969FAF8EAF21974A
:103BF00021968FAD21978DAF8FAD8EAF8DAD9EADE0
:103C00006C01CC2430E8D322E12CF12C7601DD24A8
:103C1000CC249C0122273C77232B09F475C49F7781
:103C2000A0E0B0E06DE0880F991FAA1FBB1F6A9546
:103C3000D1F7B85CC82AD92AEA2AFB2A8281938163
:103C400023969FAF8EAF239723968FAD23978DAF8B
:103C500022968FAD22978EAF8DAD9EAD4C018824FC
:103C600040E89422A12CB12C5401992488249C0171
:103C700022273C77232B09F443C49F77A0E0B0E0D0
:103C80004DE0880F991FAA1FBB1F4A95D1F7B85C5A
:103C9000882A992AAA2ABB2A8481958125969FAFD2
:103CA0008EAF259725968FAD25978DAF24968FAD36
:103CB00024978EAF8DAD9EADAC014427507860E067
:103CC00070E0BA01552744279C0122273C77232B1B
:103CD00009F412C49F77A0E0B0E02DE0880F991F8F
:103CE000AA1FBB1F2A95D1F7B85C2C013D01442ABD
:103CF000552A662A772A65964CAE5DAE6EAE7FAECB
:103D000065978681978127969FAF8EAF27972796D5
:103D10008FAD27978DAF26968FAD26978EAF8DAD41
:103D20009EADAC014427507860E070E0BA015527A1
:103D300044279C0122273C77232B09F4D9C39F7782
:103D4000A0E0B0E0EDE0880F991FAA1FBB1FEA9525
:103D5000D1F7B85C2C013D01442A552A662A772AFE
:103D600069964CAE5DAE6EAE7FAE6997D801ED91AF
:103D7000FC918281938129969FAF8EAF29972996D6
:103D80008FAD29978DAF28968FAD28978EAF8DADCB
:103D90009EADAC014427507860E070E0BA01552731
:103DA00044279C0122273C77232B09F49DC39C01C7
:103DB0003F77C901A0E0B0E02DE0880F991FAA1F4E
:103DC000BB1F2A95D1F7B85C2C013D01442A552A26
:103DD000662A772A6D964CAE5DAE6EAE7FAE6D975D
:103DE000848195812B969FAF8EAF2B972B968FADAD
:103DF0002B978DAF2A968FAD2A978EAF8DAD9EAD46
:103E0000AC014427507860E070E0BA0155274427A0
:103E10009C0122273C77232B09F462C39F77A0E003
:103E2000B0E01DE0880F991FAA1FBB1F1A95D1F79C
:103E3000B85C2C013D01442A552A662A772AA196AE
:103E40004CAE5DAE6EAE7FAEA197868197812D960A
:103E50009FAF8EAF2D972D968FAD2D978DAF2C9652
:103E60008FAD2C978EAF4DAC5EACC2018827907899
:103E7000A0E0B0E0AC0133272227A5962CAF3DAFE0
:103E80004EAF5FAFA597C20188279C77892B09F4B5
:103E90003FC3E89457F8612C712C3DE0440C551C4D
:103EA000661C771C3A95D1F738EC731A81010D5EC8
:103EB0001F4F40E05FEF6FEF7FEFC801D2D847E0C0
:103EC00050E060E076E2C801CCD84FEF5FEF60E0F1
:103ED00074E0C801C6D8FF92EF92DF92CF9286E6D7
:103EE00091E09F938F931F921F927CE1272E2F9238
:103EF0001F921F921F92E5E03E2E3F921F930F9359
:103F000095DCBF92AF929F928F9280E791E09F9352
:103F10008F931F921F922F921F9289E18F931F926E
:103F20003F921F930F9382DC65964FAD65974F9339
:103F300064965FAD64975F9363968FAD63978F933D
:103F400062969FAD62979F938DE791E09F938F93C9
:103F50001F921F922F921F9282E38F931F923F9284
:103F60001F930F9363DC0FB6F894DEBF0FBECDBF77
:103F70006996BFAD6997BF9368962FAD68972F93E9
:103F800067963FAD67973F9366964FAD66974F93A1
:103F90008CE891E09F938F931F921F922F921F9214
:103FA0008BE48F931F923F921F930F933FDC6D968C
:103FB0005FAD6D975F936C968FAD6C978F936B969B
:103FC0009FAD6B979F936A96AFAD6A97AF9380EA68
:103FD00091E09F938F931F921F922F921F9284E6DE
:103FE0008F931F923F921F930F9320DCA5962CADC9
:103FF0003DAD4EAD5FADA597422A532A642A752A7E
:104000007F926F925F924F928BEA91E09F938F9392
:104010001F921F922F921F928DE78F931F923F92B4
:104020001F930F9303DC0FB6F894DEBF0FBECDBF16
:104030002F965FAD2F975F932E968FAD2E978F9310
:104040008AEB91E09F938F931F921F922F921F9262
:1040500086E98F931F923F921F930F93E7DB619640
:104060009FAD61979F936096AFAD6097AF938EECD5
:1040700091E09F938F931F921F922F921F928FEA2E
:104080008F931F923F921F930F93D0DB4FEF5FEF01
:104090006FEF74E0C8010E943118A196BFADA197DF
:1040A000BF93A0964FACA0974F926F965FAC6F975F
:1040B0005F926E966FAC6E976F9281EE91E09F93D8
:1040C0008F931F921F928EE18F931F9288EC8F9394
:1040D0001F923F921F930F93A9DB0FB6F894DEBF98
:1040E0000FBECDBF4FEF5FEF6FEF74E0C8010E94CE
:1040F00031184AE05FEF6FEF7FEFC8010E9431187F
:1041000040E050E06FEF70E0C8010E94311849E0D4
:104110005FEF6FEF7FEFC8010E94311840E050E081
:104120006FEF70E0C8010E94311840E15FEF6FEF60
:104130007FEFC8010E94311842EC51E064E170E069
:10414000C8010E94311844E150E064EB70E0C801FE
:104150000E943118682D792D8A2D9B2D0E94513097
:10416000F4E6AF2EB12CA501461B570B60E070E0C2
:10417000BA0155274427C8010E94311844E650E08F
:1041800060E070E0C8010E94311840E050E06FEF3D
:1041900074E0C8010E94311886EE91E09F938F93DE
:1041A000B6E06B2E6F921F928FE1782E7F921F9256
:1041B00090EF892E8F92992493949F928CEC8F93F9
:1041C0001F930F93F4DA4FEF5FEF6FEF74E0C801C6
:1041D0000E9431184AE05FEF6FEF7FEFC8010E9445
:1041E000311840E050E06FEF70E0C8010E943118D4
:1041F00049E05FEF6FEF7FEFC8010E94311840E0A8
:1042000050E06FEF70E0C8010E94311840E15FEFAD
:104210006FEF7FEFC8010E94311846E851E064E17A
:1042200070E0C8010E94311844E150E064EB70E096
:10423000C8010E9431186C2D7D2D8E2D9F2D0E945E
:104240005130A501461B570B60E070E0BA015527BD
:104250004427C8010E94311844E650E060E070E055
:10426000C8010E94311840E050E06FEF74E0C801CF
:104270000E94311888EE91E09F938F936F921F9266
:104280007F921F928F929F9280E98F931F930F933B
:104290008EDA40E050E0BA01C8010E94311841E0D6
:1042A0005FEF6FEF7FEFC8010E943118C8010E94D5
:1042B00046150FB6F894DEBF0FBECDBF0ECCF10190
:1042C000E65BFF4F0190F081E02D408051806280DD
:1042D0007380048115812681378165960CAF1DAFEF
:1042E0002EAF3FAF659720E6822E2AEE922EA12CAC
:1042F000B12CC301B201A50194010E94EA2F6A9674
:104300002FAF6A97A22FB0E020EA35E14FEF5FEFC1
:104310000E942E306B017C01C40CD51CE61CF71CDE
:1043200038EE432E33E0532E612C712CC701B601B9
:10433000A30192010E94EA2F022F10E067961FAF9F
:104340000EAF679708EE13E067962EAD3FAD679707
:10435000209FC001219F900D309F900D1124AA270E
:1043600097FDA095BA2FC81AD90AEA0AFB0A6596E2
:104370006CAD7DAD8EAD9FAD6597A50194010E949A
:104380000C306E962FAF6E97A22FBB27A7FDB0956E
:1043900020EA35E14FEF5FEF0E9438304B015C01BE
:1043A00065968CAD9DADAEADBFAD6597880E991E7F
:1043B000AA1EBB1EC501B401A30192010E940C30CC
:1043C000622E772467FC7094609EC001619E900D00
:1043D000709E900D1124AA2797FDA095BA2F881AD8
:1043E000990AAA0ABB0A81010D5E1F4F40E05FEFE8
:1043F0006FEF7FEFC8010E94311847E050E060E0A6
:1044000076E2C8010E9431184FEF5FEF6FEF72E064
:10441000C8010E94311847E050E060E076E2C80130
:104420000E94311840E050E060E074E0C8010E9452
:104430003118FF92EF92DF92CF921F9266969FAD56
:1044400066979F931F926A964FAC6A974F928AEE37
:1044500091E09F938F9346E0D42EDF921F925FE10D
:10446000E52EEF921F9284E48F931F9260EFF62E59
:10447000FF921F930F939BD9BF92AF929F928F92FF
:104480007F926F926E965FAC6E97852D992787FD10
:1044900090959F938F9383E092E09F938F93DF9209
:1044A0001F92EF921F928CEC8F931F92FF921F939B
:1044B0000F937DD90FB6F894DEBF0FBECDBF40E09D
:1044C00050E0BA01C8010E94311841E05FEF6FEF80
:1044D0007FEFC8010E943118C8010E944615FDCA2D
:1044E00080E090E0DC01A5CC80E090E0DC016CCCC9
:1044F00080E090E0DC012ECC80E090E0DC01F5CBA8
:1045000080E090E0DC01C4CB80E090E0DC0192CB65
:10451000412C512C3201CACC813008F4BAC00E941F
:10452000331124EF31E040E050E00E94EA2F77247D
:1045300073946B3F71058105910508F4712C812CF2
:1045400099249A94A92C82E0B82E0DE311E0610120
:1045500023E1C20ED11C40E05FEF6FEF7FEFC60199
:104560000E94311847E050E060E076E2C6010E9408
:1045700031184FEF5FEF6FEF72E0C6010E94311804
:1045800047E050E060E076E2C6010E94311840E06A
:1045900050E060E074E0C6010E9431181F930F9351
:1045A00086E08F931F928FE18F931F9284E48F9305
:1045B0001F9280EF8F93DF92CF92F9D8D701ED91C0
:1045C000FC912281338144815581E6810FB6F894B4
:1045D000DEBF0FBECDBFE33208F065C0F0E0EE0FE6
:1045E000FF1FE65BFD4F808191815F934F933F9367
:1045F0002F939F938F9386E08F931F928DE18F93DC
:104600001F928CEA8F931F9280EF8F93DF92CF924D
:1046100078D80FB6F894DEBF0FBECDBF772041F13A
:10462000B501A401C6010E94311840E15DE261E0DC
:104630007CE1C6010E94311840E050E060E07BE17F
:10464000C6010E94311847E050E060E076E2C60102
:104650000E94311840E05AE263E07BE1C6010E940B
:10466000311847E050E060E076E2C6010E94311860
:1046700040E050E0BA01C6010E94311841E05FEF0E
:104680006FEF7FEFC6010E943118C6010E944615E8
:1046900024CA812C912CA12CA2E0BA2E05E511E0B0
:1046A0007724739454CF84E994E09FCF0E94331110
:1046B00024EF31E040E050E00E94EA2F7724739429
:1046C0006B3F71058105910508F4712C812C912CAB
:1046D000AA24AA9402E0B02E06E411E038CF812C7F
:1046E00099249A94A92C92E0B92E0EE211E0772435
:1046F00073942DCF0E943311A50194010E94EA2FDB
:104700006D3271408105910558F0812C99249A945D
:10471000A12CE2E0BE2E0DE411E07724739417CFB4
:104720000E943311A50194010E94EA2F6739710597
:104730008105910550F0812C912CA12CB2E0BB2E6B
:104740000DE411E07724739402CF812C912CAA24DC
:10475000AA9472E0B72E0DE411E077247394F7CE9B
:104760004F925F926F927F928F929F92AF92BF9281
:10477000CF92DF92EF92FF921F93CF93DF93CDB74B
:10478000DEB72C970FB6F894DEBF0FBECDBF2C015D
:104790008CE0EAE0F1E0DE01119601900D928A953D
:1047A000E1F78CB58C7F8CBD8DB581608DBD28986F
:1047B0001EBC00000DB407FEFDCF8EB51EBC000070
:1047C0000DB407FEFDCF8EB51EBC00000DB407FE74
:1047D000FDCF8EB51EBC00000DB407FEFDCF8EB51B
:1047E0001EBC00000DB407FEFDCF8EB5289A64E113
:1047F00070E080E090E00E943F1164E170E080E0B2
:1048000090E00E943F1110E038E0632E44E2742EE5
:1048100050E1852E6CE6962E75E2A72EE0E9BE2EBD
:1048200028988EBC00000DB407FEFDCF8EB57EBC6F
:1048300000000DB407FEFDCF8EB56EBC00000DB4B8
:1048400007FEFDCF8EB51EBC00000DB407FEFDCFE8
:104850008EB51EBC00000DB407FEFDCF4EB51EBCCC
:1048600000000DB407FEFDCF3EB51EBC00000DB428
:1048700007FEFDCF9EB51EBC00000DB407FEFDCFA8
:104880008EB5289AC42ED32EE92EF82E89E09DE30A
:104890000E946B1128988EBC00000DB407FEFDCF5E
:1048A0008EB57EBC00000DB407FEFDCF8EB56EBC8C
:1048B00000000DB407FEFDCF8EB51EBC00000DB488
:1048C00007FEFDCF8EB51EBC00000DB407FEFDCF68
:1048D000EEB51EBC00000DB407FEFDCF3EB51EBCFC
:1048E00000000DB407FEFDCF9EB51EBC00000DB448
:1048F00007FEFDCF8EB5289A4E2F532F692F782FA4
:104900004C195D096E097F09440F551F661F771FFB
:10491000440F551F661F771F440F551F661F771FD3
:10492000440F551F661F771F440F551F661F771FC3
:10493000440F551F661F771F411586EC58078DECF5
:10494000680782E07807F0F42898BEBC00000DB438
:1049500007FEFDCF8EB5AEBC00000DB407FEFDCF47
:104960008EB59EBC00000DB407FEFDCF8EB51EBDFA
:1049700000000DB407FEFDCF8EB5289A1F5F1F31D2
:1049800009F04ECF289880E98EBD00000DB407FED7
:10499000FDCF8EB584E28EBD00000DB407FEFDCFC5
:1049A0008EB58CE08EBD00000DB407FEFDCF8EB538
:1049B0004EBD00000DB407FEFDCF8EB55EBD0000FC
:1049C0000DB407FEFDCF8EB56EBD00000DB407FE21
:1049D000FDCF8EB57EBD00000DB407FEFDCF8EB5B8
:1049E000289A289880E98EBD00000DB407FEFDCFFF
:1049F0008EB51EBC00000DB407FEFDCF8EB51EBCEB
:104A000000000DB407FEFDCF8EB5FE013196CE013C
:104A10000D9621912EBD00000DB407FEFDCF2EB5E1
:104A2000E817F907B1F7289A289880E98EBD0000A9
:104A30000DB407FEFDCF8EB584E28EBD00000DB42F
:104A400007FEFDCF8EB580E58EBD00000DB407FEDC
:104A5000FDCF8EB582E08EBD00000DB407FEFDCF08
:104A60008EB5289AF201148613868CEF9FE0968704
:104A700085872C960FB6F894DEBF0FBECDBFDF91B1
:104A8000CF911F91FF90EF90DF90CF90BF90AF90AC
:104A90009F908F907F906F905F904F9008958F922E
:104AA0009F92AF92BF92CF92DF92EF92FF920F93BD
:104AB0001F93CF93DF93CDB7DEB767970FB6F89408
:104AC000DEBF0FBECDBF6C014B0140E051EE60E098
:104AD00070E08DEC92E00E947E0D560123E1A20E63
:104AE000B11CF601818D928D019619F08DB1887FF0
:104AF0008DB984B1856084B9289A0E949C118CB5C7
:104B00008C7F8CBD8DB581608DBD8CB58F7D8CBD4E
:104B10008CB5837F8CBDC50123DE289880E98EBDCE
:104B200000000DB407FEFDCF8EB584E28EBD0000FF
:104B30000DB407FEFDCF8EB588E48EBD00000DB428
:104B400007FEFDCF8EB51EBC00000DB407FEFDCFE5
:104B50008EB51EBC00000DB407FEFDCF8EB5289AA1
:104B6000289880E98EBD00000DB407FEFDCF8EB5FC
:104B700084E28EBD00000DB407FEFDCF8EB58CE43F
:104B80008EBD00000DB407FEFDCF8EB58AE08EBD50
:104B900000000DB407FEFDCF8EB51EBC00000DB4A5
:104BA00007FEFDCF8EB5289A289880E98EBD0000BB
:104BB0000DB407FEFDCF8EB584E28EBD00000DB4AE
:104BC00007FEFDCF8EB580E48EBD00000DB407FE5C
:104BD000FDCF8EB58CE08EBD00000DB407FEFDCF7D
:104BE0008EB51EBC00000DB407FEFDCF8EB5289A11
:104BF000289880E98EBD00000DB407FEFDCF8EB56C
:104C000084E28EBD00000DB407FEFDCF8EB58CE3AF
:104C10008EBD00000DB407FEFDCF8EB584E28EBDC3
:104C200000000DB407FEFDCF8EB581E08EBD000003
:104C30000DB407FEFDCF8EB5289A289880E98EBD69
:104C400000000DB407FEFDCF8EB584E28EBD0000DE
:104C50000DB407FEFDCF8EB584E38EBD00000DB40C
:104C600007FEFDCF8EB51EBC00000DB407FEFDCFC4
:104C70008EB51EBC00000DB407FEFDCF8EB5289A80
:104C8000289880E98EBD00000DB407FEFDCF8EB5DB
:104C900084E28EBD00000DB407FEFDCF8EB588E323
:104CA0008EBD00000DB407FEFDCF8EB589E28EBD2E
:104CB00000000DB407FEFDCF8EB51EBC00000DB484
:104CC00007FEFDCF8EB5289A289880E98EBD00009A
:104CD0000DB407FEFDCF8EB584E28EBD00000DB48D
:104CE00007FEFDCF8EB58CE28EBD00000DB407FE31
:104CF000FDCF8EB58BE28EBD00000DB407FEFDCF5B
:104D00008EB51EBC00000DB407FEFDCF8EB5289AEF
:104D1000289880E98EBD00000DB407FEFDCF8EB54A
:104D200084E28EBD00000DB407FEFDCF8EB588E293
:104D30008EBD00000DB407FEFDCF8EB584E28EBDA2
:104D400000000DB407FEFDCF8EB582E08EBD0000E1
:104D50000DB407FEFDCF8EB5289A289880E98EBD48
:104D600000000DB407FEFDCF8EB584E28EBD0000BD
:104D70000DB407FEFDCF8EB580E38EBD00000DB4EF
:104D800007FEFDCF8EB580EE8EBD00000DB407FE90
:104D9000FDCF8EB581E08EBD00000DB407FEFDCFC6
:104DA0008EB5289A289880E98EBD00000DB407FEC4
:104DB000FDCF8EB584E28EBD00000DB407FEFDCFA1
:104DC0008EB584E48EBD00000DB407FEFDCF8EB518
:104DD00080E18EBD00000DB407FEFDCF8EB581E0F1
:104DE0008EBD00000DB407FEFDCF8EB5289A289821
:104DF00080E98EBD00000DB407FEFDCF8EB584E2C4
:104E00008EBD00000DB407FEFDCF8EB588E68EBDC9
:104E100000000DB407FEFDCF8EB581E08EBD000011
:104E20000DB407FEFDCF8EB51EBC00000DB407FE0D
:104E3000FDCF8EB5289A289880E98EBD00000DB46C
:104E400007FEFDCF8EB584E28EBD00000DB407FED7
:104E5000FDCF8EB580E68EBD00000DB407FEFDCF00
:104E60008EB51EBC00000DB407FEFDCF8EB51EBC76
:104E700000000DB407FEFDCF8EB5289A289880E972
:104E80008EBD00000DB407FEFDCF8EB584E28EBD51
:104E900000000DB407FEFDCF8EB58CE68EBD000080
:104EA0000DB407FEFDCF8EB585E08EBD00000DB4BC
:104EB00007FEFDCF8EB51EBC00000DB407FEFDCF72
:104EC0008EB5289A289888E48EBD00000DB407FEA0
:104ED000FDCF8EB51EBC00000DB407FEFDCF8EB514
:104EE0001EBC00000DB407FEFDCF8EB51EBC000039
:104EF0000DB407FEFDCF8EB51EBC00000DB407FE3D
:104F0000FDCF8EB5289A64E170E080E090E00E94C9
:104F10003F11289880E98EBD00000DB407FEFDCF3B
:104F20008EB584E28EBD00000DB407FEFDCF8EB5B8
:104F300084E58EBD00000DB407FEFDCF8EB581E087
:104F40008EBD00000DB407FEFDCF8EB5289A40E05F
:104F50005FEF6FEF7FEFC5010E94311847E050E02F
:104F600060E076E2C5010E9431188EE0E9E3F2E0EC
:104F7000DE01119601900D928A95E1F74FEF5FEFF8
:104F80006FEF74E0C5010E9431189E012F5F3F4F03
:104F9000790100E016E02DE142E250E060EF70E0C0
:104FA000C5010E948B1A40E050E06FEF74E0C5012C
:104FB0000E94311881E292E09F938F9386E08F9355
:104FC0001F928DE18F931F9288E88F931F9280EF3D
:104FD0008F93BF92AF920E94D71B40E050E0BA017E
:104FE000C5010E94311841E05FEF6FEF7FEFC5010F
:104FF0000E943118C5010E94461581E090E0F6013B
:10500000038C02C0880F991F0A94E2F7289820E1C8
:105010002EBD00000FB6F894DEBF0FBECDBF0DB49D
:1050200007FEFDCF2EB524E22EBD00000DB407FE15
:10503000FDCF2EB520E92EBD00000DB407FEFDCF3B
:105040002EB51EBC00000DB407FEFDCF2EB51EBC54
:1050500000000DB407FEFDCF9EB5289A982B80E97D
:1050600028988EBD00000DB407FEFDCF2EB524E2BA
:105070002EBD00000DB407FEFDCF2EB58EBD000085
:105080000DB407FEFDCF8EB59EBD00000DB407FE2A
:10509000FDCF8EB5289A42E25FEF6FEF7FEFC5013B
:1050A0000E94311840E050E0BA01C5010E94311859
:1050B000F6018489882309F418C42FED3AE040E012
:1050C00050E06EE875E0C5010E94AE16C5010E9471
:1050D000461540E05FEF6FEF7FEFC5010E9431188A
:1050E00047E050E060E076E2C5010E94311840E000
:1050F00050E060E075E0C5010E94311840E050E0EA
:1051000060E071E0C5010E94311841E358EE63E0B0
:1051100077E0C5010E94311841E354EF61E178E086
:10512000C5010E94311840E050E0BA01C5010E945B
:10513000311841E05FEF6FEF7FEFC5010E9431183A
:10514000C5010E94461590920F0480920E0481E0E2
:105150008093D8001092DE001092DF0090EA9093C6
:10516000DB001092EC0086E08093E2008CE08093FC
:10517000E30087E38093E4001092E5008091D8007B
:1051800082608093D8001092ED001092EF00109290
:10519000EE0080E18093ED001092EF001092EE009F
:1051A00080E28093ED001092EF001092EE0080E319
:1051B0008093ED001092EF001092EE0080E4809357
:1051C000ED001092EF001092EE0080E58093ED006C
:1051D0001092EF001092EE0080E68093ED001092A6
:1051E000EF001092EE0080E78093ED001092EF0048
:1051F0001092EE0080E88093ED001092EF00109284
:10520000EE0080E98093ED001092EF001092EE0026
:105210009093ED001092EF001092EE0080EB8093DF
:10522000ED001092EF001092EE0080EC8093ED0004
:105230001092EF001092EE0080ED8093ED0010923E
:10524000EF001092EE0080EE8093ED001092EF00E0
:105250001092EE0080EF8093ED001092EF0010921C
:10526000EE00789449E050E065E875E0CE010F96D5
:105270000E94A53249E050E06CE775E0CE0101964E
:105280000E94A5321092ED001092EE008091DE0097
:1052900081608093DE002D898F859889A989BA89DC
:1052A000222309F435C4AC01BD01E5E1769567958B
:1052B00057954795EA95D1F74093F300AC01BD01AE
:1052C000FDE07695679557954795FA95D1F7409308
:1052D000F200AC01BD01A5E076956795579547951D
:1052E000AA95D1F74093F100880F880F880F80931B
:1052F000F0008091F0009C89992309F4F4C294E0B5
:10530000892B8093F0002D8989819A81AB81BC81A2
:10531000222309F4EAC3AC01BD0115E17695679536
:10532000579547951A95D1F74093F700AC01BD0109
:105330000DE076956795579547950A95D1F7409377
:10534000F600AC01BD0195E07695679557954795B8
:105350009A95D1F74093F500880F880F880F8093B6
:10536000F4009091F4008E81882309F4BAC224E0FD
:1053700081E03F81311101C080E0820F892B809351
:10538000F4008D898111AFC390E88B898F70892BD0
:105390008093EF0049E050E063E775E0CE010F969F
:1053A0000E94A53249E050E06AE675E0CE01019620
:1053B0000E94A53280E18093ED001092EE00809172
:1053C000DE0082608093DE002D898F859889A9890F
:1053D000BA89222309F474C3AC01BD01E5E17695D5
:1053E000679557954795EA95D1F74093F300AC013F
:1053F000BD01FDE07695679557954795FA95D1F7EC
:105400004093F200AC01BD01A5E0769567955795F4
:105410004795AA95D1F74093F100880F880F880F20
:105420008093F0008091F0009C89992309F457C281
:1054300094E0892B8093F0002D8989819A81AB813A
:10544000BC81222309F429C3AC01BD0115E1769585
:105450006795579547951A95D1F74093F700AC019A
:10546000BD010DE076956795579547950A95D1F75B
:105470004093F600AC01BD0195E076956795579590
:1054800047959A95D1F74093F500880F880F880FBC
:105490008093F4009091F4008E81882309F41DC25A
:1054A00024E081E03F81311101C080E0820F892B2F
:1054B0008093F4008D898111EEC290E88B898F7002
:1054C000892B8093EF0049E050E061E675E0CE0162
:1054D0000F960E94A53249E050E068E575E0CE01E4
:1054E00001960E94A53280E28093ED001092EE00BA
:1054F0008091DE0084608093DE002D898F859889FD
:10550000A989BA89222309F4B3C2AC01BD01E5E13E
:105510007695679557954795EA95D1F74093F300AF
:10552000AC01BD01FDE07695679557954795FA95D5
:10553000D1F74093F200AC01BD01A5E076956795E7
:1055400057954795AA95D1F74093F100880F880F9A
:10555000880F8093F0008091F0009C89992309F4D2
:10556000BAC194E0892B8093F0002D8989819A81BA
:10557000AB81BC81222309F468C2AC01BD0115E1F5
:1055800076956795579547951A95D1F74093F7000B
:10559000AC01BD010DE076956795579547950A9545
:1055A000D1F74093F600AC01BD0195E07695679583
:1055B000579547959A95D1F74093F500880F880F36
:1055C000880F8093F4009091F4008E81882309F471
:1055D00080C124E081E03F81311101C080E0820F71
:1055E000892B8093F4008D8981112DC290E88B89DD
:1055F0008F70892B8093EF0049E050E06FE475E0F5
:10560000CE010F96A2D749E050E066E475E0CE01E6
:1056100001969BD780E38093ED001092EE0080917D
:10562000DE0088608093DE002D898F859889A989A6
:10563000BA89222309F4F4C1AC01BD01E5E17695F4
:10564000679557954795EA95D1F74093F300AC01DC
:10565000BD01FDE07695679557954795FA95D1F789
:105660004093F200AC01BD01A5E076956795579592
:105670004795AA95D1F74093F100880F880F880FBE
:105680008093F0008091F0009C89992309F41FC158
:1056900094E0892B8093F0002D8989819A81AB81D8
:1056A000BC81222309F4A9C1AC01BD0115E17695A5
:1056B0006795579547951A95D1F74093F700AC0138
:1056C000BD010DE076956795579547950A95D1F7F9
:1056D0004093F600AC01BD0195E07695679557952E
:1056E00047959A95D1F74093F500880F880F880F5A
:1056F0008093F4009091F4008E81882309F4E5C032
:1057000024E081E03F81311101C080E0820F892BCC
:105710008093F4008D8981116EC190E88B898F7020
:10572000892B8093EF0049E050E06DE375E0CE01F6
:105730000F960BD749E050E064E375E0CE01019687
:1057400004D780E48093ED001092EE008091DE009B
:1057500080618093DE002D898F859889A989BA8917
:10576000222309F435C1AC01BD0135E17695679579
:10577000579547953A95D1F74093F300AC01BD0199
:10578000EDE07695679557954795EA95D1F7409363
:10579000F200AC01BD01F5E0769567955795479508
:1057A000FA95D1F74093F100880F880F880F809306
:1057B000F0008091F0009C89992309F484C094E062
:1057C000892B8093F0008D8949815A816B817C817E
:1057D000882309F4EAC0DB01CA01F5E1B695A79573
:1057E00097958795FA95D1F78093F700DB01CA0169
:1057F0001DE0B695A795979587951A95D1F7809353
:10580000F600DB01CA0105E0B695A7959795879547
:105810000A95D1F78093F500440F440F440F40934D
:10582000F4009091F4008E81882309F44AC024E0AA
:1058300081E03F81311101C080E0820F892B80938C
:10584000F4008D898111AFC090E88B898F70892B0E
:105850008093EF00F601128287E08093B00081E030
:10586000809370009CE090932404109222049FEF98
:1058700090932304109213048093180482E0809381
:105880001D0487B1807F87B988B18F6088B984B1E2
:10589000806E84B985B18F7185B910BA67960FB6DD
:1058A000F894DEBF0FBECDBFDF91CF911F910F9156
:1058B000FF90EF90DF90CF90BF90AF909F908F9030
:1058C000089520E0B5CF90E07BCF20E01ACF90E0A4
:1058D000E0CE20E07FCE90E045CE20E0E2CD90E02B
:1058E000A8CD20E045CD90E00BCD868D978DA0E032
:1058F000B0E09058AF4EBF4F28982A2F20682EBD99
:1059000000000DB407FEFDCF2EB59EBD00000DB406
:1059100007FEFDCF2EB58EBD00000DB407FEFDCFF6
:105920008EB581E0F601848B2FED3AE040E050E047
:105930006EE875E0C5010E94AE16289AF601868DC4
:10594000978D289820E92EBD00000DB407FEFDCFED
:105950002EB524E22EBD00000DB407FEFDCF2EB5FE
:1059600028EE2EBD00000DB407FEFDCF2EB58EBD76
:1059700000000DB407FEFDCF2EB59EBD00000DB496
:1059800007FEFDCF8EB51EBC00000DB407FEFDCF97
:105990008EB51EBC00000DB407FEFDCF8EB5289A53
:1059A000F601148A93CB90E950CFCA01969587955A
:1059B00096958795969587958093F7004295440F25
:1059C000407E4093F6001092F5001092F40029CF2B
:1059D0009C013695279536952795369527952093E2
:1059E000F3008295880F807E8093F2001092F10080
:1059F0001092F000DECE90E991CE9C01369527956D
:105A000036952795369527952093F7008295880F30
:105A1000807E8093F6001092F5001092F4006ACE1A
:105A20009C01369527953695279536952795209391
:105A3000F3008295880F807E8093F2001092F1002F
:105A40001092F0001FCE90E9D2CD9C01369527959B
:105A500036952795369527952093F7008295880FE0
:105A6000807E8093F6001092F5001092F400ABCD8A
:105A70009C01369527953695279536952795209341
:105A8000F3008295880F807E8093F2001092F100DF
:105A90001092F00060CD90E911CD9C0136952795CC
:105AA00036952795369527952093F7008295880F90
:105AB000807E8093F6001092F5001092F400EACCFC
:105AC0009C013695279536952795369527952093F1
:105AD000F3008295880F807E8093F2001092F1008F
