:10000000BCC300000C94490C0C947A0C0C94AB0CFF
:100010000C94DC0C0C940D0D0C943E0D0C946F0D97
:100020000C94A00DD9C300000C946610D5C3000039
:10003000D3C30000D1C30000CFC30000CDC3000074
:10004000CBC300000C94D10D0C94D70EC5C3000097
:10005000C3C30000D7C70000BFC30000BDC300007A
:10006000BBC300000C949B0EB7C30000B5C30000D7
:10007000B3C30000B1C30000AFC30000ADC30000B4
:100080000C944208A9C30000A7C30000A5C3000048
:10009000A3C300006E616E00696E6600FF0F000072
:1000A0000801010000F10000000800000000FF0F3F
:1000B00000000801010000F400000008000000003A
:1000C000FF0F00000801010000F30000000800001D
:1000D0000000FF0F00000801010000F2000000080E
:1000E00000000000FF0F00000801010000F0000008
:1000F000000800000000789CCDD4316EDB3014067F
:10010000E047D1288122003974D0647AC8A0D1A3F5
:1001100006C1766F9023F808193508319D0E197BBA
:10012000851E214760D1216B8F40C34357065E581F
:100130008015FB4849899CB8CED2210F02347C122D
:10014000DFFB2942219C2D7D9EDFBF3B18D535C8A2
:1001500060974131D350BF5104DD1E3B0B46B6C002
:100160004C45FC0DBCF235D0A0A507A64BE29B7315
:100170005E83AF3B0F5B5381F49BBD692ED60B1A98
:1001800094F42CA0BB9AC7F91E03B5D1C3C134B9EE
:1001900089CE1D4757839BE8D3CA1EF4621E5DF4C7
:1001A0005EBBE407F3017D917C8DDEE69DEBDEF71F
:1001B00066825E45976B03B42D7B2F6D1EE7DBEBEC
:1001C0000B37B836C07CC906179DE77503CB3FE8EF
:1001D0005C456FA2ABDA3CB974352C7FEFA26BE0C3
:1001E0000E925B930FEB2F71272AB2FBA539E86BB8
:1001F000896ED11FD165E7F36670826E815A896E70
:1002000045EF665D35E887DECDE060A7C9DB55B513
:10021000D10D090F6D74BE6F7B27764AD1F5E8F3D7
:10022000105DF31FE8B1BFFB873FB4C4024F0E2738
:100230009CDDB5C48184934E95635F03F120C9CEE4
:10024000E363F43F9CDF96692FB776C1B49354C142
:1002500051D1CE9DFCF286537B936EA0575759A681
:1002600018E4B99897391B394F0EC927507C12B33F
:1002700062F6ECA677A57F66D92DBA402FA28F5BD8
:1002800032D0EA1E3D83A214629E3C8DDE2708B068
:10029000D2F719DC021497718127EF1304F279F673
:1002A0002DA3D947280A7105634F090274DD262062
:1002B000006620A20FD1E384E1383E441FA2A37F51
:1002C0006F5F387F07FF27BCE064C5A99FDF77AF6A
:1002D0001C236D5EAE3FF6866F4FF737DD59C67D46
:1002E0003B339FC7F6CBE87F019D1F8D0840033C41
:1002F0000333032A0325031D0315030D030503051B
:100300000305030503496E76616C6964004D554C25
:1003100054492D38004D554C54492D37004D554CFE
:1003200054492D3600436F6465005468726F7474CD
:100330006C65004272616B6542616C0050697400CB
:1003400044656661756C7400496E76616C69640021
:10035000524547454E2D3800524547454E2D3700F2
:10036000524547454E2D3600524547454E2D3500E6
:10037000524547454E2D3400524547454E2D3300DA
:10038000524547454E2D3200524547454E2D3100CE
:10039000DA03D403CE03C803C203BC03B603B0031D
:1003A000A803A803A803A803496E76616C696400DA
:1003B0005452512D38005452512D37005452512D62
:1003C00036005452512D35005452512D34005452A0
:1003D000512D33005452512D32005452512D3100C1
:1003E00052454D4F544520454D455247454E435982
:1003F0002053485554444F574E00556E6B6E6F77DF
:100400006E20424D53204572726F720053687574AE
:10041000646F776E204C61746368205472697070E9
:100420006564005265736F6C766572204E6F742040
:10043000436F6E6E6563746564004D43204375724F
:10044000722053656E736F72204661756C7400473D
:10045000617465204452562033204F76657274656E
:100460006D700047617465204452562032204F76EB
:10047000657274656D700047617465204452562042
:1004800031204F76657274656D7000504342204F85
:1004900076657274656D70004D6F64756C65204390
:1004A000204F76657274656D70004D6F64756C6574
:1004B0002042204F76657274656D70004D6F6475D3
:1004C0006C652041204F76657274656D70004D6FCC
:1004D000746F72204F7665722054656D70004D43C5
:1004E00020436F6D6D616E64204D65737361676548
:1004F000204C6F7374004D4320556E646572205616
:100500006F6C74616765004D43204857204F7665D6
:10051000722D43757272656E74004D43204465738D
:100520006174204661756C74004D4320496E766598
:10053000727465722054696D656F7574004D432047
:10054000446972656374696F6E204572726F7200E0
:100550004D4320496E766572746572204F766572E0
:1005600074656D70004D43204F76657220566F6C38
:1005700074616765004D43204F7665722043757244
:1005800072656E74004D43204F766572205370651E
:100590006564004E4F2043454C4C20434F4D4D5316
:1005A00000416E20452D53746F7020697320507286
:1005B00065737365640052656D6F74652052657173
:1005C0007565737400494D44204552524F520042A4
:1005D000535044204552524F5200494E56414C49C7
:1005E00044204D53470048562050524543484152FD
:1005F00047494E473A20252E3066560073625249CD
:100600004F205741524D3A20252E30664300474C2B
:1006100056204C4F5720564F4C544147453A2025C1
:100620002E326656005041434B204C4F5720564FB8
:100630004C544147453A20252E32665600424154DB
:1006400054455259205741524D3A20252E32664387
:10065000004D4F544F52205741524D3A20252E32D3
:10066000664300434F4E54524F4C4C455220574125
:10067000524D3A20252E3266430000407A10F35A3C
:1006800000A0724E18090010A5D4E80000E87648D2
:10069000170000E40B54020000CA9A3B000000E17E
:1006A000F505000080969800000040420F00000011
:1006B000A08601000000102700000000E8030000F1
:1006C00000006400000000000A00000000000100BB
:1006D000000000002C76D888DC674F0823DFC1DFDC
:1006E000AE59E1B1B796E5E3E453C63AE6519976DF
:1006F00096E8E6C28426EB898C9B62ED407C6FFC19
:10070000EFBC9C9F40F2BAA56FA5F490055A2AF75A
:100710005C936B6CF9676DC11BFCE0E40D47FEF563
:1007200020E6B500D0ED902E0300943577050080CB
:10073000841E080000204E0A000000C80C3333332A
:10074000330F986E12831141EF8D2114893BE655CA
:1007500016CFFEE6DB18D1844B381BF77C1D901DAD
:10076000A4BBE424203284725E228100C9F124EC0F
:10077000A1E53D276C094210981011241FBECFEF50
:10078000D0E1DEBFCDBF12E0A0E0B1E0E6EAFDE5DA
:1007900000E00BBF02C007900D92AA3AB107D9F74B
:1007A00024E0AAEAB2E001C01D92A737B207E1F740
:1007B00017E0CAE7D7E000E006C022970109FE0172
:1007C0000BBF0E94932CC437D10780E00807A9F71C
:1007D0000E940E270C94D12E13CC2F923F924F9251
:1007E0005F926F927F928F929F92AF92BF92CF92C1
:1007F000DF92EF92FF920F931F93CF93DF93CDB7CA
:10080000DEB763970FB6F894DEBF0FBECDBF7C0195
:100810001B016A01FC0117821682838181FF66C376
:10082000BE016F5F7F4F4B01F7019381F10193FD93
:10083000859193FF81911F01882309F453C3853269
:1008400039F493FD859193FF81911F01853239F42D
:10085000B70190E00E94082E56016501E5CF10E037
:10086000512C20E02032A0F48B3269F030F4803239
:1008700059F0833269F420612CC08D3239F0803315
:1008800039F4216026C02260246023C0286021C082
:1008900027FD27C030ED380F3A3078F426FF06C028
:1008A000FAE01F9F300D1124132F13C06AE0569EEB
:1008B000300D1124532E20620CC08E3221F426FDFF
:1008C00011C3206406C08C3611F4206802C088363B
:1008D00041F4F10193FD859193FF81911F018111F5
:1008E000C1CF9BEB980F933018F42061805E06C057
:1008F0009BE9980F933008F0AAC12F7E26FF16E0DF
:100900002F73722E853621F4F22FF0647F2E08C0EB
:10091000863621F4622F6068762E02C011111150C4
:1009200077FE07C01C3348F444244394410E27E06B
:100930000BC0183030F4212F06C027E04CE3442EC2
:1009400003C027E017E0412C560174E0A70EB11C4C
:10095000F6016081718182819381042DA4010E943E
:10096000FB2C6C01098100FF02C003FF06C071FC73
:1009700007C072FC08C0612C08C03DE2632E05C0B0
:100980002BE2622E02C090E2692E802F8C7099F1CA
:10099000662011F084E001C083E0851510F0512C31
:1009A0000BC0581A73FC08C0B70180E290E00E94A7
:1009B000082E5A94C9F7F3CF662029F0B701862D87
:1009C00090E00E94082E03FD03C008E910E002C079
:1009D00004E910E0F72DF0717F2EF801849188234F
:1009E00009F476C271108052B70190E00E94082E7F
:1009F0000F5F1F4FF2CF77FE0FC04C0C04FF04C0F7
:100A00008A81813309F44A94141474F5F8E0F415DA
:100A100078F588E0482E2CC076FC2AC0812F90E023
:100A20008C159D059CF06CEFC6166FEFD60674F022
:100A3000772D7068772E0AC0E2E0F0E0EC0FFD1F22
:100A4000E10FF11D8081803319F411501111F4CFA1
:100A500077FE0EC044244394410E812F90E0C816C7
:100A6000D9062CF41C1904C04424439401C010E09E
:100A700077FE07C01C141D043CF496012F5F3F4F06
:100A800005C025E030E002C021E030E0662011F032
:100A90002F5F3F4F112331F0412F50E04F5F5F4FE9
:100AA000240F351F452D50E02417350714F4521A32
:100AB00001C0512C872D897049F4552039F0B701B8
:100AC00080E290E00E94082E5A94F7CF662029F029
:100AD000B701862D90E00E94082E73FC09C05520B6
:100AE00039F0B70180E390E00E94082E5A94F7CFC6
:100AF00077FE5FC09C2D8D2DD7FE02C090E080E078
:100B0000692E782E40E050E0C601841991099D8736
:100B10008C87960126193709280D391D812F90E001
:100B2000EE27FF27E81BF90BFF87EE87FFEF6F1615
:100B30007F0669F4B7018EE290E02B8B3A8B488BED
:100B4000598B0E94082E598948893A892B89C614E5
:100B5000D70454F06C857D85661577052CF4F90172
:100B6000E40FF51F818101C080E371E0671A71080D
:100B70004F5F5F4FEE85FF856E167F066CF0B70105
:100B800090E02B8B3A8B488B598B0E94082E2B8937
:100B90003A8948895989CACF6C147D0439F49A81FD
:100BA000963318F4953311F404FF81E3B70190E014
:100BB0004BC08A81813309F00F7EB70190E00E941B
:100BC000082E111105C074FE18C085E490E017C00E
:100BD000B7018EE290E00E94082E82E066246394C2
:100BE000680EF401E80FF11D8081B70190E00E94CA
:100BF000082E115041F3862DF1CF85E690E0B70124
:100C00000E94082ED7FC05C0C114D10439F404FF9A
:100C100005C0D194C194D1088DE201C08BE2B70127
:100C200090E00E94082E80E36AE0C616D1042CF002
:100C30008F5FFAE0CF1AD108F7CFB70190E00E949A
:100C4000082EB701C601C0960E94082E41C1833606
:100C500031F0833779F0833509F058C021C056014F
:100C600072E0A70EB11CF6018081898301E010E0DB
:100C7000640114C05601F2E0AF0EB11CF601C08051
:100C8000D18026FF03C0612F70E002C06FEF7FEFBD
:100C9000C6012B8B0E94FD2D8C012B892F7715C04F
:100CA0005601F2E0AF0EB11CF601C080D18026FFE4
:100CB00003C0612F70E002C06FEF7FEFC6012B8B86
:100CC0000E94F22D8C012B892068722E23FD1AC000
:100CD000852D90E008171907A8F4B70180E290E08D
:100CE0000E94082E5A94F4CFF60177FC859177FE86
:100CF00081916F01B70190E00E94082E51105A9423
:100D0000015011090115110579F7E2C0843611F07F
:100D1000893651F5560127FF09C0F4E0AF0EB11C2A
:100D2000F60160817181828193810AC0F2E0AF0E89
:100D3000B11CF60160817181882777FD8095982F1D
:100D4000022F0F7697FF08C090958095709561955A
:100D50007F4F8F4F9F4F00682AE030E0A4010E9430
:100D6000732EC82EC8183EC0022F853721F40F7E7F
:100D70002AE030E01DC0097F8F3691F018F48835E5
:100D800059F0B0C0803719F0883711F0ABC000615E
:100D900004FF09C0046007C024FF08C0066006C045
:100DA00028E030E005C020E130E002C020E132E080
:100DB000560107FF09C0F4E0AF0EB11CF6016081D7
:100DC00071818281938108C0F2E0AF0EB11CF601FF
:100DD0006081718180E090E0A4010E94732EC82E92
:100DE000C8180F7706FF0BC0202F2E7FC11650F4B6
:100DF00004FF0AC002FD08C0202F2E7E05C0DC2C97
:100E0000202F03C0DC2C01C0D12E24FF0DC0FE0119
:100E1000EC0DF11D8081803311F4297E09C022FF81
:100E200006C0D394D39404C0822F867809F0D3945B
:100E300023FD13C020FF06C01C2DD51418F4150D7A
:100E40001D19D52CD51468F4B70180E290E02B8BE6
:100E50000E94082ED3942B89F5CFD51410F45D1879
:100E600001C0512C24FF12C0B70180E390E02B8B0E
:100E70000E94082E2B8922FF17C021FF03C088E59E
:100E800090E002C088E790E0B7010CC0822F86781E
:100E900059F021FD02C080E201C08BE227FD8DE206
:100EA000B70190E00E94082EC11638F4B70180E324
:100EB00090E00E94082E1150F7CFCA94F401EC0D77
:100EC000F11D8081B70190E00E94082EC110F5CF7E
:100ED000552009F4C2CCB70180E290E00E94082EB0
:100EE0005A94F6CFF7018681978102C08FEF9FEF6A
:100EF00063960FB6F894DEBF0FBECDBFDF91CF91E2
:100F00001F910F91FF90EF90DF90CF90BF90AF9027
:100F10009F908F907F906F905F904F903F902F9019
:100F2000089580E090E00895FC0124853585F9015D
:100F3000E058FF4F8081918180589F4F32962081E9
:100F40003181821B930B8F77907897FF08950197DB
:100F500080689F6F01960895FC0184859585FC014A
:100F6000EE57FF4F20813181DC01A058BF4F4D91DA
:100F70005C9142175307C1F0DC01A20FB31F8C91A3
:100F80002F5F3F4F2F77307837FD04C031832083A8
:100F900090E008952150310920683F6F2F5F3F4F47
:100FA0003183208390E008958FEF9FEF0895FC0137
:100FB00084859585FC01E058FF4FDC01AE57BF4F9B
:100FC0008D919C91918380830895DC015296ED91DF
:100FD000FC91539741E050E05B960C905B9702C008
:100FE000440F551F0A94E2F7208130E02423352373
:100FF000232BD1F35696ED91FC915797608381E0B6
:1010000090E008951F920F920FB60F9211240BB625
:101010000F922F933F934F935F936F938F939F9371
:10102000EF93FF936091C6002091E8033091E903AC
:10103000C90101968F77907897FD1FC04091EA0310
:101040005091EB038417950741F0F901E859FC4FE3
:1010500060839093E9038093E803FF91EF919F9160
:101060008F916F915F914F913F912F910F900BBE98
:101070000F900FBE0F901F901895019780689F6F7B
:101080000196DCCF1F920F920FB60F9211240BB670
:101090000F922F933F934F935F936F938F939F93F1
:1010A000EF93FF936091CE0020916403309165032C
:1010B000C90101968F77907897FD1FC04091660314
:1010C000509167038417950741F0F901EC51FD4FEA
:1010D00060839093650380936403FF91EF919F91E8
:1010E0008F916F915F914F913F912F910F900BBE18
:1010F0000F900FBE0F901F901895019780689F6FFB
:101100000196DCCF7F928F929F92AF92BF92CF9247
:10111000DF92EF92FF920F931F93CF93DF93EC0137
:101120006A017B01413482E458078FE0680771054A
:1011300008F455C0EA89FB8981E090E00C8C02C07C
:10114000880F991F0A94E2F7808360E079E08DE3CD
:1011500090E0A70196010E94672C215031094109B6
:1011600051095695479537952795C901EE85FF8515
:101170009083E889F9898083EC89FD89408181E049
:1011800090E09C01088C02C0220F331F0A94E2F702
:10119000422B4083EC89FD8940819C01098C02C06F
:1011A000220F331F0A94E2F7422B4083EC89FD891A
:1011B00020810A8C02C0880F991F0A94E2F7282B1D
:1011C0002083DF91CF911F910F91FF90EF90DF90DF
:1011D000CF90BF90AF909F908F907F90089560E8E0
:1011E00074E88EE190E0A70196010E94672C490106
:1011F0005A0181E0881A9108A108B108B694A79411
:1012000097948794A50194012F5F3F4F4F4F5F4FF5
:10121000220F331F441F551F220F331F441F551F1A
:10122000220F331F441F551F220F331F441F551F0A
:1012300060E074E284EF90E00E94672C0FEF10E012
:10124000AFEFB0E00E94892CA70196010E94672CA5
:10125000021B130B10161106CCF5722E709460E071
:1012600079E08DE390E0A70196010E94672C215060
:101270003109410951092E7F2E5F3F4F4F4F5F4F7C
:10128000220F331F441F551F220F331F441F551FAA
:1012900060E074E284EF90E00E94672C0FEF10E0B2
:1012A000AFEFB0E00E94892CA70196010E94672C45
:1012B000021B130B101611066CF42095271508F469
:1012C00039CFEA89FB891082C40150CF7724739407
:1012D000720EC5CF2F5FF2CF1092CA021092C902D0
:1012E00088EE93E0A0E0B0E08093CB029093CC0234
:1012F000A093CD02B093CE022AE131E03093C80230
:101300002093C70248E653E05093D4024093D3029F
:1013100045EC50E05093D6024093D50244EC50E0A7
:101320005093D8024093D70240EC50E05093DA0239
:101330004093D90241EC50E05093DC024093DB0231
:1013400046EC50E05093DE024093DD02E4E0E0938F
:10135000DF0273E07093E00267E06093E10255E022
:101360005093E20241E04093E3021092AD021092EA
:10137000AC028093AE029093AF02A093B002B09300
:10138000B1023093AB022093AA0284EE92E09093D4
:10139000B7028093B6028DEC90E09093B9028093EF
:1013A000B8028CEC90E09093BB028093BA0288EC78
:1013B00090E09093BD028093BC0289EC90E0909302
:1013C000BF028093BE028EEC90E09093C1028093A6
:1013D000C002E093C2027093C3026093C4025093B0
:1013E000C5024093C6020895CF92DF92EF92FF921A
:1013F0000F931F93CF93DF936C0141155105F1F0CB
:101400008B01EA01E12CF12CD8016D918D01D601FF
:10141000ED91FC910190F081E02DC6010995E80E57
:10142000F91E2197209781F7C701DF91CF911F9176
:101430000F91FF90EF90DF90CF900895E12CF12C69
:10144000F3CFDB010D900020E9F7AD0141505109C8
:10145000461B570BDC01ED91FC910280F381E02DDE
:101460000994EF92FF920F931F93CF93DF93EC01B8
:10147000FB0101900020E9F7AF0141505109461BE3
:10148000570BE881F9810280F381E02D09958C01E9
:10149000E881F9810190F081E02D6DE0CE010995A0
:1014A0007C01E881F9810190F081E02D6AE0CE01B4
:1014B00009950E0D1F1D800F911FDF91CF911F9178
:1014C0000F91FF90EF9008952F923F924F925F926D
:1014D0006F927F928F929F92AF92BF92CF92DF9244
:1014E000EF92FF920F931F93CF93DF93CDB7DEB7A9
:1014F000A1970FB6F894DEBF0FBECDBF8C0141158A
:10150000510509F4C7C04A30510509F474C0942E3E
:101510006B01EE24D7FCE094FE2C19A2B1E0B417C5
:1015200008F0C1C0442E512C612C712C5E01E1E207
:10153000AE0EB11C02C069017A01C701B601A30158
:1015400092010E94672C6C2D929E60191124F1E08B
:10155000AF1AB10890E3960F87E3860F6A3008F45C
:10156000892FD5018C93211531054105510519F7B6
:10157000F50101900020E9F7AF01415051094A19E6
:101580005B09D801ED91FC910280F381E02DB5015A
:10159000C80109953C01D801ED91FC910190F081C1
:1015A000E02D6DE0C80109957C01D801ED91FC9119
:1015B0000190F081E02D6AE0C8010995E60CF71C66
:1015C0008E0D9F1DA1960FB6F894DEBF0FBECDBF46
:1015D000DF91CF911F910F91FF90EF90DF90CF900F
:1015E000BF90AF909F908F907F906F905F904F9043
:1015F0003F902F9008954B01AA2497FCA094BA2CF9
:10160000B7FC59C0D82C792DC50119A27E01B1E2D1
:10161000EB0EF11CBAE04B2E512C612C712C0BC03F
:10162000862FD7018C932115310541055105F1F025
:10163000D22E732FCA016D2DA30192010E94672C37
:101640008D2DEAE02E9F80191124F1E0EF1AF108A8
:1016500060E3680F97E3980F8A3010F3892FD70162
:101660008C93211531054105510511F7F7010190C2
:101670000020E9F7AF01415051094E195F09D80127
:10168000ED91FC910280F381E02DB701C80109952D
:101690003C0181CFDC01ED91FC910190F081E02DC6
:1016A00009953C0178CFFAE04F2E512C612C712C1A
:1016B000AAE09A2E3BCFDC01ED91FC910190F081E4
:1016C000E02D6DE209951C01CC24DD247601C818BB
:1016D000D908EA08FB0819A25E01B1E2AB0EB11C01
:1016E0008AE0482E512C612C712C02C069017A01CC
:1016F000C701B601A30192010E94672C6C2DEAE09C
:101700002E9F60191124F1E0AF1AB10890E3960FF3
:1017100087E3860F6A3008F4892FD5018C93211551
:1017200031054105510511F7F50101900020E9F758
:10173000AF01415051094A195B09D801ED91FC9163
:101740000280F381E02DB501C80109953C01620CCE
:10175000731C21CF8F929F92AF92BF92CF92DF9254
:10176000EF92FF920F931F93CF93DF93CDB7DEB726
:10177000A1970FB6F894DEBF0FBECDBF7C01D42E6B
:10178000E52FCB012115310509F470C0C22E19A235
:10179000B1E0B21708F075C0822E912CA12CB12CAB
:1017A0008E010F5D1F4F0BC0862FF801808321151E
:1017B000310541055105E9F0D22EE32FCA016D2D07
:1017C0007E2FA50194010E94672C8D2DC29E801949
:1017D00011240150110960E3680F97E3980F8A30D4
:1017E00018F3892FF8018083211531054105510532
:1017F00019F7D8010D900020E9F7AD0141505109CA
:10180000401B510BD701ED91FC910280F381E02D3B
:10181000B801C70109958C01D701ED91FC910190A8
:10182000F081E02D6DE0C70109955C01D701ED91D4
:10183000FC910190F081E02D6AE0C70109950A0D45
:101840001B1D800F911FA1960FB6F894DEBF0FBE2F
:10185000CDBFDF91CF911F910F91FF90EF90DF905F
:10186000CF90BF90AF909F908F900895D701ED914A
:10187000FC910190F081E02D642FC70109958C0146
:10188000CBCF7AE0872E912CA12CB12CFAE0CF2E71
:1018900087CF1F920F920FB60F9211240BB60F92A3
:1018A0002F933F934F935F936F937F938F939F9368
:1018B000AF93BF93EF93FF938091EC039091ED036F
:1018C000892B29F0E091EC03F091ED030995FF914C
:1018D000EF91BF91AF919F918F917F916F915F91A8
:1018E0004F913F912F910F900BBE0F900FBE0F9015
:1018F0001F9018951F920F920FB60F9211240BB6DE
:101900000F922F933F934F935F936F937F938F9398
:101910009F93AF93BF93EF93FF938091EE039091CA
:10192000EF03892B29F0E091EE03F091EF03099585
:10193000FF91EF91BF91AF919F918F917F916F91A7
:101940005F914F913F912F910F900BBE0F900FBE63
:101950000F901F9018951F920F920FB60F9211249F
:101960000BB60F922F933F934F935F936F937F9399
:101970008F939F93AF93BF93EF93FF938091F00367
:101980009091F103892B29F0E091F003F091F1039C
:101990000995FF91EF91BF91AF919F918F917F91A9
:1019A0006F915F914F913F912F910F900BBE0F90D0
:1019B0000FBE0F901F9018951F920F920FB60F92A7
:1019C00011240BB60F922F933F934F935F936F9316
:1019D0007F938F939F93AF93BF93EF93FF938091E8
:1019E000F2039091F303892B29F0E091F203F09137
:1019F000F3030995FF91EF91BF91AF919F918F9163
:101A00007F916F915F914F913F912F910F900BBEFE
:101A10000F900FBE0F901F9018951F920F920FB648
:101A20000F9211240BB60F922F933F934F935F9316
:101A30006F937F938F939F93AF93BF93EF93FF9396
:101A40008091F4039091F503892B29F0E091F40340
:101A5000F091F5030995FF91EF91BF91AF919F919F
:101A60008F917F916F915F914F913F912F910F9047
:101A70000BBE0F900FBE0F901F9018951F920F92E4
:101A80000FB60F9211240BB60F922F933F934F93E3
:101A90005F936F937F938F939F93AF93BF93EF93D6
:101AA000FF938091F6039091F703892B29F0E09141
:101AB000F603F091F7030995FF91EF91BF91AF9174
:101AC0009F918F917F916F915F914F913F912F9156
:101AD0000F900BBE0F900FBE0F901F9018951F9286
:101AE0000F920FB60F9211240BB60F922F933F93C4
:101AF0004F935F936F937F938F939F93AF93BF9316
:101B0000EF93FF938091F8039091F903892B29F0CB
:101B1000E091F803F091F9030995FF91EF91BF91DE
:101B2000AF919F918F917F916F915F914F913F9175
:101B30002F910F900BBE0F900FBE0F901F90189516
:101B40001F920F920FB60F9211240BB60F922F9384
:101B50003F934F935F936F937F938F939F93AF9335
:101B6000BF93EF93FF938091FA039091FB03892B2E
:101B700029F0E091FA03F091FB030995FF91EF91B1
:101B8000BF91AF919F918F917F916F915F914F9195
:101B90003F912F910F900BBE0F900FBE0F901F9093
:101BA00018951F920F920FB60F9211242F933F9307
:101BB0008F939F93AF93BF938091FD039091FE030A
:101BC000A091FF03B09100043091FC0323E0230FA8
:101BD0002D3768F126E8230F0296A11DB11D209331
:101BE000FC038093FD039093FE03A093FF03B09347
:101BF00000048091010490910204A0910304B0912B
:101C000004040196A11DB11D809301049093020468
:101C1000A0930304B0930404BF91AF919F918F915F
:101C20003F912F910F900FBE0F901F901895019626
:101C3000A11DB11DD4CF2FB7F8946091FD03709111
:101C4000FE038091FF03909100042FBF0895CF926F
:101C5000DF92EF92FF920F931F932FB7F894C090EB
:101C6000FD03D090FE03E090FF03F09000042FBF2F
:101C7000EFB7F8940091FD031091FE032091FF034C
:101C800030910004EFBF0C191D092E093F096017A0
:101C900071078207930760F71F910F91FF90EF90F4
:101CA000DF90CF9008950197009751F0880F991F0A
:101CB000880F991F02972FB7F8940197F1F72FBF5C
:101CC0000895789484B5886084BD84B5806484BDAB
:101CD00084B5826084BD84B5816084BDEEE6F0E0A9
:101CE000808181608083EAE7F0E080818460808386
:101CF0008081826080838081816080838081806830
:101D000080831092C10008959FB7F89480910504D4
:101D100081110CC0289A209A8CB580618CBD8CB53D
:101D200080648CBD219A229A809105048F5F8093F4
:101D300005049FBF08951F920F920FB60F921124B2
:101D40000BB60F922F933F934F935F936F937F93B5
:101D50008F939F93AF93BF93EF93FF93E09106040C
:101D6000F0910704309781F08091780020917900FC
:101D70006381748190E00180F281E02D922B0995BE
:101D80001092070410920604FF91EF91BF91AF915A
:101D90009F918F917F916F915F914F913F912F9183
:101DA0000F900BBE0F900FBE0F901F9018951F92B3
:101DB0000F920FB60F9211240BB60F927F928F9253
:101DC0009F92AF92BF92CF92DF92EF92FF920F93CA
:101DD0001F932F933F934F935F936F937F938F93B3
:101DE0009F93AF93BF93EF93FF93CF93DF93CDB7C1
:101DF000DEB76197DEBFCDBFF090ED00B0EE7B2E79
:101E000010EDC12E00ECD02E80EBE82E00EA10E998
:101E1000F0E8E0E770E660E550E440E330E220E11E
:101E200006C01092ED008091EE0085FD15C09091E6
:101E3000E0008091E100892B09F49FC08091E000CF
:101E400080FDEFCF8091E00081FF82C02093ED0004
:101E50008091EE0085FFEBCF1092EE008AE090E0DB
:101E60008C0F9D1F998788878091FA008A878091BF
:101E7000FA008B878091FA008C878091FA008D8719
:101E80008091FA008E878091FA008F878091FA0006
:101E9000888B8091FA00898B8091EF008F708D8301
:101EA0008091EF00829581708F839091F00092FB7A
:101EB000992790F99E83882309F49DC04091F300EF
:101EC0008091F2008090F1002091F00090E0982F36
:101ED00088279295990F907EAA2797FDA095BA2FF3
:101EE00030E2839E40011124AA2497FCA094BA2CCE
:101EF000880D991DAA1DBB1D50E060E070E0E5E172
:101F0000440F551F661F771FEA95D1F7840F951F61
:101F1000A61FB71F422F50E05595479555954795F9
:101F200055954795662757FD6095762F840F951F29
:101F3000A61FB71F89839A83AB83BC836091ED0092
:101F4000E0910804F0910904CE010196099560CF53
:101F50008091E00082FF03C03093ED0064CF809158
:101F6000E00083FF03C04093ED005DCF8091E0006F
:101F700084FF2BC05093ED0056CFF092ED00619698
:101F80000FB6F894DEBF0FBECDBFDF91CF91FF91AA
:101F9000EF91BF91AF919F918F917F916F915F91E1
:101FA0004F913F912F911F910F91FF90EF90DF90F4
:101FB000CF90BF90AF909F908F907F900F900BBE6F
:101FC0000F900FBE0F901F9018958091E00085FF35
:101FD00003C06093ED0027CF8091E00086FD22C012
:101FE0008091E00087FD2FC08091E10080FF1DC03F
:101FF000F093ED0018CF2091F3008091F20090E073
:1020000095958795959587959595879595958795B8
:102010009595879538E0239F800D911D11249A8313
:1020200089838CCF7093ED00FECE8091E10081FD1D
:1020300007C08091E10082FF09C00093ED00F3CE5C
:102040001093ED00F0CEE093ED00EDCE8091E10035
:1020500083FF03C0E092ED00E6CE8091E10084FFB3
:1020600003C0D092ED00DFCE8091E10085FF03C078
:10207000C092ED00D8CE8091E10086FFD4CE709260
:10208000ED00D1CE88E080930D0410920F041092E1
:102090000E041092110410921004809312041092F6
:1020A00014041092130410921604109215048093D5
:1020B0001704109219041092180410921B04109225
:1020C0001A04109207041092060408951F920F92AA
:1020D0000FB60F9211248F93809121048F5F80930C
:1020E0002104809120048F5F8093200480911F043D
:1020F0008F5F80931F04809121048D3328F010920C
:10210000210482E080932204809120048C3010F01E
:102110001092200480911F048C3320F010921F0431
:10212000109266048F910F900FBE0F901F9018951C
:102130001092680410926A0410926B0410926C045E
:1021400010926D048FEF9FEF90936F0480936E0455
:1021500010927404109273048CEF9FE090937604B5
:102160008093750487E08093700481E0809371040C
:10217000109269040895CF92DF92EF92FF92CF936D
:10218000DF93CDB7DEB7A9970FB6F894DEBF0FBEC9
:10219000CDBF10922104DC012D913C91223F3105ED
:1021A00009F47FC208F051C0203F310509F4CEC1C7
:1021B000213F3105E9F5DC011796ED91FC91189767
:1021C000208181819281A381B481358130935D0426
:1021D000209362048A879B87AC87BD878D8589831E
:1021E0008C858A838B858B838A858C8389819A8170
:1021F000AB81BC8180935E0490935F04A0936004E4
:10220000B093610449E050E065EA70E0CE010196C8
:102210000E94D32D80E48093ED001092EE008F8118
:102220008111C1C090E88D818F70892B8093EF0060
:10223000A9960FB6F894DEBF0FBECDBFDF91CF9148
:10224000FF90EF90DF90CF900895233F310509F480
:10225000ACC0243F310561F7DC011796ED91FC918C
:1022600018974281538124813581808191819B8B94
:102270008A8B8B8989838A898A8369817A816B01B8
:10228000CC24B0E8DB22E12CF12C7601DD24CC2437
:10229000CB0188279C77892B09F4D7C2CB019F7784
:1022A000A0E0B0E06DE0880F991FAA1FBB1F6A95E0
:1022B000D1F7B85C8C299D29AE29BF2980934304AE
:1022C00090934404A0934504B0934604598B488BE3
:1022D0008989898388898A83E981FA81AF014427C2
:1022E000507860E070E0BA0155274427CF01882775
:1022F0009C77892B09F4A5C2CF019F77A0E0B0E0BD
:10230000EDE0880F991FAA1FBB1FEA95D1F7B85CB3
:10231000842B952BA62BB72B8093470490934804CE
:10232000A0934904B0934A043F872E878F85898301
:102330008E858A8329813A81A9014427507860E0FB
:1023400070E0BA0155274427C90188279C77892B5B
:1023500009F49FC2C9019F77A0E0B0E0EDE0880FCB
:10236000991FAA1FBB1FEA95D1F7B85C842B952B48
:10237000A62BB72B8093530490935404A093550439
:10238000B093560449E050E067EB70E0CE0101964F
:102390000E94D32D80E38093ED001092EE008F8198
:1023A000882309F43FCF90E93ECFDC011796ED91E9
:1023B000FC91189762817381448155812681378110
:1023C000808191819B8F8A8F8B8D89838A8D8A836F
:1023D000E981FA816F01CC24B0E8DB22E12CF12CF9
:1023E0007601DD24CC24CF0188279C77892B09F442
:1023F0004CC2CF019F77A0E0B0E0FDE0880F991FAD
:10240000AA1FBB1FFA95D1F7B85C8C299D29AE296C
:10241000BF298093570490935804A0935904B09314
:102420005A04798F688F898D8983888D8A83698121
:102430007A816B01CC24E0E8DE22E12CF12C7601DC
:10244000DD24CC24CB0188279C77892B09F419C281
:10245000CB019F77A0E0B0E06DE0880F991FAA1F25
:10246000BB1F6A95D1F7B85C8C299D29AE29BF297D
:1024700080933F0490934004A0934104B09342049E
:102480005F8B4E8B8F8989838E898A83E981FA815C
:10249000AF014427507860E070E0BA015527442727
:1024A000CF0188279C77892B09F4E7C1CF019F775B
:1024B000A0E0B0E0EDE0880F991FAA1FBB1FEA95CE
:1024C000D1F7B85C842B952BA62BB72B80934B04AC
:1024D00090934C04A0934D04B0934E043D8B2C8BF1
:1024E0008D8989838C898A8329813A81A90144272E
:1024F000507860E070E0BA0155274427C901882769
:102500009C77892B09F4B5C1C9019F77A0E0B0E0A1
:10251000FDE0880F991FAA1FBB1FFA95D1F7B85C81
:10252000842B952BA62BB72B80934F0490935004AC
:10253000A0935104B093520449E050E069EC70E07C
:10254000CE0101960E94D32D80E265CEDC01179664
:10255000ED91FC9118976081818192814381548132
:10256000258136816093220499A788A789A589834C
:1025700088A58A8369817A816B01CC24B0E8DB224B
:10258000E12CF12C7601DD24CC24CB0188279C772B
:10259000892B09F48AC1CB019F77A0E0B0E06DE000
:1025A000880F991FAA1FBB1F6A95D1F7B85C8C29A9
:1025B0009D29AE29BF298093330490933404A093BE
:1025C0003504B09336045FA34EA38FA189838EA1F7
:1025D0008A83E981FA81AF014427507860E070E096
:1025E000BA0155274427CF0188279C77892B09F406
:1025F00058C1CF019F77A0E0B0E0FDE0880F991FA0
:10260000AA1FBB1FFA95D1F7B85C842B952BA62B7C
:10261000B72B80932B0490932C04A0932D04B0939C
:102620002E043DA32CA38DA189838CA18A832981AB
:102630003A81A9014427507860E070E0BA0155273B
:102640004427C90188279C77892B09F426C1C90131
:102650009F77A0E0B0E02DE0880F991FAA1FBB1F55
:102660002A95D1F7B85C842B952BA62BB72B80939A
:102670002F0490933004A0933104B093320449E0C6
:1026800050E06DEE70E0CE0101960E94D32D1092C5
:10269000ED001092EE008F81882309F4C3CD90E9FC
:1026A000C2CDDC011796ED91FC9118976281738180
:1026B0004481558126813781808191819BA38AA3A2
:1026C0008BA189838AA18A83E981FA816F01CC2455
:1026D000B0E8DB22E12CF12C7601DD24CC24CF0103
:1026E00088279C77892B09F4C0C0CF019F77A0E091
:1026F000B0E0FDE0880F991FAA1FBB1FFA95D1F724
:10270000B85C8C299D29AE29BF298093230490931E
:102710002404A0932504B093260479A368A389A177
:10272000898388A18A8369817A816B01CC24E0E85E
:10273000DE22E12CF12C7601DD24CC24CB0188278C
:102740009C77892B09F48DC0CB019F77A0E0B0E086
:102750006DE0880F991FAA1FBB1F6A95D1F7B85C5F
:102760008C299D29AE29BF298093270490932804A2
:10277000A0932904B0932A045F8F4E8F8F8D898395
:102780008E8D8A83E981FA81AF014427507860E019
:1027900070E0BA0155274427CF0188279C77892B01
:1027A00009F45BC0CF019F77A0E0B0E0FDE0880FA7
:1027B000991FAA1FBB1FFA95D1F7B85C842B952BE4
:1027C000A62BB72B8093370490933804A093390439
:1027D000B0933A043D8F2C8F8D8D89838C8D8A83A5
:1027E00029813A81A9014427507860E070E0BA015C
:1027F00055274427C90188279C77892B51F1C901A6
:102800009F77A0E0B0E02DE0880F991FAA1FBB1FA3
:102810002A95D1F7B85C842B952BA62BB72B8093E8
:102820003B0490933C04A0933D04B0933E0449E0E4
:1028300050E06BED70E0CE0101960E94D32D80E157
:10284000EACC80E090E0DC0163CD80E090E0DC0148
:1028500031CD80E090E0DC01DECF80E090E0DC0173
:10286000ADCF80E090E0DC017BCF80E090E0DC0148
:1028700048CF80E090E0DC0153CE80E090E0DC01C6
:1028800021CE80E090E0DC01EFCD80E090E0DC0143
:10289000BCCD80E090E0DC0169CD80E090E0DC011F
:1028A000E2CE80E090E0DC01B0CE80E090E0DC01A0
:1028B0007ECEFC01818181115CC09385848528983E
:1028C00020E92EBD00000DB407FEFDCF2EB524E299
:1028D0002EBD00000DB407FEFDCF2EB528EE2EBD97
:1028E00000000DB407FEFDCF2EB59EBD00000DB457
:1028F00007FEFDCF9EB58EBD00000DB407FEFDCFD7
:102900008EB5289AA4EE74E260E128986EBD0000AE
:102910000DB407FEFDCF8EB57EBD00000DB407FEE1
:10292000FDCF8EB5AEBD00000DB407FEFDCF8EB558
:102930001EBC00000DB407FEFDCF8EB51EBC00000E
:102940000DB407FEFDCF9EB51EBC00000DB407FE02
:10295000FDCF8EB5289A292F382F438554854217ED
:10296000530729F02F3F3F4081F682E3089580E02E
:102970000895289A43855485289880E98EBD0000E3
:102980000DB407FEFDCF8EB584E28EBD00000DB400
:1029900007FEFDCF8EB588EE8EBD00000DB407FE9C
:1029A000FDCF8EB54EBD00000DB407FEFDCF8EB538
:1029B0005EBD00000DB407FEFDCF8EB51EBC00004D
:1029C0000DB407FEFDCF8EB51EBC00000DB407FE92
:1029D000FDCF8EB5289A118270CFCF93FC01CB0129
:1029E000258536852617370708F071C0218121110A
:1029F00074C033852485289840E94EBD00000DB48D
:102A000007FEFDCF4EB544E24EBD00000DB407FEFB
:102A1000FDCF4EB548EE4EBD00000DB407FEFDCF14
:102A20004EB53EBD00000DB407FEFDCF3EB52EBD38
:102A300000000DB407FEFDCF2EB5289A25853685FA
:102A40002817390708F040C0C4EEB4E2A0E16CEFEB
:102A50007FE02898AEBD00000DB407FEFDCF2EB577
:102A6000BEBD00000DB407FEFDCF2EB5CEBD0000EB
:102A70000DB407FEFDCF2EB51EBC00000DB407FE41
:102A8000FDCF2EB51EBC00000DB407FEFDCF3EB538
:102A90001EBC00000DB407FEFDCF2EB5289A432FB3
:102AA000522F4F3F2FE05207A9F023853485241B76
:102AB000350B2C7F3F70AB01421B530B568745876C
:102AC0004817590708F4C5CF818181113BC080E0C8
:102AD000CF91089582E3CF910895289A4385548534
:102AE000289820E92EBD00000DB407FEFDCF2EB5BD
:102AF00024E22EBD00000DB407FEFDCF2EB528EE5A
:102B00002EBD00000DB407FEFDCF2EB54EBD00005A
:102B10000DB407FEFDCF2EB55EBD00000DB407FE5F
:102B2000FDCF2EB51EBC00000DB407FEFDCF2EB5A7
:102B30001EBC00000DB407FEFDCF2EB5289A21E083
:102B4000218357CF4385548560E070E050586F4E25
:102B50007F4F2898862F80688EBD00000DB407FE39
:102B6000FDCF8EB55EBD00000DB407FEFDCF8EB566
:102B70004EBD00000DB407FEFDCF8EB581E0818310
:102B8000A6CF6F927F928F929F92AF92BF92CF9279
:102B9000DF92EF92FF920F931F93CF93DF9300D0BA
:102BA00000D0CDB7DEB78C013B012D5F3F4F4F4FBB
:102BB0005F4F2C7F211531054105510509F440C0B7
:102BC000F8EEDF2EA4E2EA2EB0E9FB2ECC24C3946B
:102BD000D8011D968D919C911E97A0E0B0E08217C0
:102BE0009307A407B50708F43FC080E090E0DC013C
:102BF000F301E80FF91FE491EEBD00000DB407FEEC
:102C0000FDCF6EB50196A11DB11D82179307A407D4
:102C1000B50770F3D8011B968D919C911C97820F7C
:102C2000931F9F701C969C938E931B971D968D915E
:102C30009C911E97821B930B1E969C938E931D97BF
:102C400080E00F900F900F900F90DF91CF911F9128
:102C50000F91FF90EF90DF90CF90BF90AF909F903B
:102C60008F907F906F900895F801818181118FC0BE
:102C7000F801938584852898FEBC00000DB407FEFA
:102C8000FDCF6EB5EEBC00000DB407FEFDCF6EB5F6
:102C9000DEBC00000DB407FEFDCF6EB59EBD00008A
:102CA0000DB407FEFDCF9EB58EBD00000DB407FE2E
:102CB000FDCF8EB5289AD8011D96ED91FC911E97F7
:102CC0004F01A12CB12CDA01C90182169306A4068A
:102CD000B50610F4D501C4010097A105B10509F4AA
:102CE000CFC0812C912C5401F301E80DF91DE49122
:102CF000EEBD00000DB407FEFDCF6EB5EFEF8E1AEE
:102D00009E0AAE0ABE0A88169906AA06BB0661F795
:102D10004C015D01F1E08F1A9108A108B108B401DE
:102D20006F5F7F4F660E771EF801A584B684F801A9
:102D300063857485680F791F7F7074876387A81A0D
:102D4000B90AB686A586281B390B4A0B5B0B922F56
:102D5000832F2130F8E03F074105510510F090E046
:102D600088E0692F782FC80129833A834B835C83DD
:102D700034DE29813A814B815C81823309F482C03F
:102D8000211531054105510509F022CF59CF289A67
:102D9000838594852898FEBC00000DB407FEFDCF06
:102DA0006EB5EEBC00000DB407FEFDCF6EB5DEBC07
:102DB00000000DB407FEFDCF6EB58EBD00000DB452
:102DC00007FEFDCF6EB59EBD00000DB407FEFDCF22
:102DD0008EB51EBC00000DB407FEFDCF8EB51EBC27
:102DE00000000DB407FEFDCF8EB5289AD8011196CC
:102DF0001C9211971B969C911B971C968C9128985E
:102E0000FEBC00000DB407FEFDCF6EB5EEBC0000A9
:102E10000DB407FEFDCF6EB5DEBC00000DB407FE9D
:102E2000FDCF6EB59EBD00000DB407FEFDCF9EB573
:102E30008EBD00000DB407FEFDCF8EB5289AF801B7
:102E400083859485A0E0B0E09058AF4EBF4F28989E
:102E50006A2F60686EBD00000DB407FEFDCF6EB531
:102E60009EBD00000DB407FEFDCF6EB58EBD000007
:102E70000DB407FEFDCF8EB5D8011196CC921BCFB5
:102E80005F0155CF82E3DDCECF92DF92EF92FF92CA
:102E90000F931F93CF93DF9300D0CDB7DEB76C01B4
:102EA0007B01FC018181882309F441C0F6018585FD
:102EB0009685049780F14EBD00000DB407FEFDCF4E
:102EC0008EB55EBD00000DB407FEFDCF8EB5EEBC25
:102ED00000000DB407FEFDCF8EB5FEBC00000DB4A2
:102EE00007FEFDCF8EB5F6018385948504969F700D
:102EF000948783878585968504979687858780E064
:102F00000F900F90DF91CF911F910F91FF90EF9055
:102F1000DF90CF90089564E070E0C60149835A8342
:102F20005CDD49815A81823331F682E3E9CF038542
:102F3000148520E030E010582F4E3F4F2898822F04
:102F400080688EBD00000DB407FEFDCF8EB51EBD9E
:102F500000000DB407FEFDCF8EB50EBD00000DB410
:102F600007FEFDCF8EB581E0F601818385859685CC
:102F7000049760F464E070E0C60149835A832DDD54
:102F800049815A81823311F482E325C04EBD00008D
:102F90000DB407FEFDCF8EB55EBD00000DB407FE7B
:102FA000FDCF8EB5EEBC00000DB407FEFDCF8EB593
:102FB000FEBC00000DB407FEFDCF8EB5F601838583
:102FC000948504969F70948783878585968504975A
:102FD0009687858780E0289AF6014385548528984E
:102FE00090E99EBD00000DB407FEFDCF9EB594E2B2
:102FF0009EBD00000DB407FEFDCF9EB598EE9EBDB0
:1030000000000DB407FEFDCF9EB54EBD00000DB40F
:1030100007FEFDCF9EB55EBD00000DB407FEFDCFDF
:103020009EB51EBC00000DB407FEFDCF9EB51EBCB4
:1030300000000DB407FEFDCF9EB5289AF60111825F
:103040005FCF0F931F93CF93DF938B01D82FC92F9F
:1030500020916904222309F442C020917504309123
:1030600076042430310570F10EBD00000DB407FE6A
:10307000FDCF8EB51EBD00000DB407FEFDCF8EB591
:10308000DEBD00000DB407FEFDCF8EB5CEBD000045
:103090000DB407FEFDCF8EB580917304909174043A
:1030A00004969F70909374048093730424503109A4
:1030B000309376042093750480E0DF91CF911F91C7
:1030C0000F91089564E070E088E694E086DC823336
:1030D00009F49BC02091750430917604C5CFE0912E
:1030E0007304F0917404AF0160E070E050586F4ECB
:1030F0007F4F2898862F80688EBD00000DB407FE94
:10310000FDCF8EB55EBD00000DB407FEFDCF8EB5C0
:103110004EBD00000DB407FEFDCF8EB581E080935B
:10312000690420917504309176042430310580F4CF
:1031300064E070E088E694E050DC823309F46BC010
:10314000E0917304F0917404209175043091760439
:103150000EBD00000DB407FEFDCF8EB51EBD0000F4
:103160000DB407FEFDCF8EB5DEBD00000DB407FE29
:10317000FDCF8EB5CEBD00000DB407FEFDCF8EB5E0
:103180003496FF70F0937404E09373042450310973
:10319000309376042093750480E0289AAF01289834
:1031A00090E99EBD00000DB407FEFDCF9EB594E2F0
:1031B0009EBD00000DB407FEFDCF9EB598EE9EBDEE
:1031C00000000DB407FEFDCF9EB54EBD00000DB44E
:1031D00007FEFDCF9EB55EBD00000DB407FEFDCF1E
:1031E0009EB51EBC00000DB407FEFDCF9EB51EBCF3
:1031F00000000DB407FEFDCF9EB5289A1092690419
:10320000DF91CF911F910F91089582E3DF91CF91CC
:103210001F910F91089582E3E0917304F09174047B
:10322000BCCF6F927F928F929F92AF92BF92CF92BC
:10323000DF92EF92FF920F931F93CF93DF9300D013
:1032400000D0CDB7DEB73C018B012D5F3F4F4F4F14
:103250005F4F2C7F2115310541055105E9F188EEBD
:10326000D82E94E2E92E60E9F62ECC24C394D30143
:103270001D968D919C911E97A0E0B0E08217930758
:10328000A407B507E8F1F80180E090E0DC01619166
:103290006EBD00000DB407FEFDCF6EB50196A11DF9
:1032A000B11D82179307A407B50788F3D3011B96B6
:1032B0008D919C911C97820F931F9F701C969C93DD
:1032C0008E931B971D968D919C911E97821B930B3D
:1032D0001E969C938E931D9780E00F900F900F90F9
:1032E0000F90DF91CF911F910F91FF90EF90DF90A2
:1032F000CF90BF90AF909F908F907F906F900895E8
:10330000F301818181118DC0F30193858485289813
:10331000FEBC00000DB407FEFDCF6EB5EEBC000094
:103320000DB407FEFDCF6EB5DEBC00000DB407FE88
:10333000FDCF6EB59EBD00000DB407FEFDCF9EB55E
:103340008EBD00000DB407FEFDCF8EB5289AD301C7
:103350001D96ED91FC911E974F01A12CB12CDA0125
:10336000C90182169306A406B50610F4D501C4015E
:103370000097A105B10509F4CDC0F801812C912C6D
:10338000540161916EBD00000DB407FEFDCF6EB516
:103390006FEF861A960AA60AB60A88169906AA0632
:1033A000BB0679F74C015D01E1E08E1A9108A10896
:1033B000B108B4016F5F7F4F060F171FF301A5849B
:1033C000B684F30163857485680F791F7F707487F5
:1033D0006387A81AB90AB686A586281B390B4A0B3B
:1033E0005B0B922F832F2130F8E03F0741055105F9
:1033F00010F090E088E0692F782FC30129833A8389
:103400004B835C83EADA29813A814B815C81823388
:1034100009F482C0211531054105510509F027CF76
:103420005BCF289A838594852898FEBC00000DB454
:1034300007FEFDCF6EB5EEBC00000DB407FEFDCF5C
:103440006EB5DEBC00000DB407FEFDCF6EB58EBDBF
:1034500000000DB407FEFDCF6EB59EBD00000DB49B
:1034600007FEFDCF8EB51EBC00000DB407FEFDCFDC
:103470008EB51EBC00000DB407FEFDCF8EB5289A98
:10348000D30111961C9211971B969C911B971C9629
:103490008C912898FEBC00000DB407FEFDCF6EB5E0
:1034A000EEBC00000DB407FEFDCF6EB5DEBC000023
:1034B0000DB407FEFDCF6EB59EBD00000DB407FE36
:1034C000FDCF9EB58EBD00000DB407FEFDCF8EB5BD
:1034D000289AF30183859485A0E0B0E09058AF4E20
:1034E000BF4F28986A2F60686EBD00000DB407FEBC
:1034F000FDCF6EB59EBD00000DB407FEFDCF6EB5CD
:103500008EBD00000DB407FEFDCF8EB5D301119620
:10351000CC921DCF5F0155CF82E3DFCE8F929F9279
:10352000AF92BF92CF92DF92EF92FF920F931F93D1
:10353000CF93DF931F92CDB7DEB74C016B015A01D9
:103540004CE05FEF6FEF7FEF29839EDCA5016627DC
:1035500057FD6095762FBA0155274427C601A0E094
:10356000B0E0482B592B6A2B7B2BC4018DDCA801C2
:1035700060E070E0BA01552744272981422BC4013D
:1035800083DCF70101900020E9F7EE19FF099F01A4
:1035900040E050E0F4018181882381F0B701C4014B
:1035A0000F90DF91CF911F910F91FF90EF90DF90DF
:1035B000CF90BF90AF909F908F9033CE83859485AE
:1035C000A0E0B0E09058AF4EBF4F28986A2F6068D7
:1035D0006EBD00000DB407FEFDCF6EB59EBD0000B0
:1035E0000DB407FEFDCF6EB58EBD00000DB407FE15
:1035F000FDCF8EB581E0F4018183B701C40111DEF6
:10360000289AF40143855485289890E99EBD0000CE
:103610000DB407FEFDCF9EB594E29EBD00000DB433
:1036200007FEFDCF9EB598EE9EBD00000DB407FECF
:10363000FDCF9EB54EBD00000DB407FEFDCF9EB57B
:103640005EBD00000DB407FEFDCF9EB51EBC0000A0
:103650000DB407FEFDCF9EB51EBC00000DB407FEE5
:10366000FDCF9EB5289AF40111820F90DF91CF9182
:103670001F910F91FF90EF90DF90CF90BF90AF9090
:103680009F908F9008950F931F93CF93DF93CDB7A3
:10369000DEB7C054D1090FB6F894DEBF0FBECDBF60
:1036A0009E012E5A3F4F62964EAD5FAD629760E429
:1036B00070E08E010F5F1F4FC8010E943A2E4CE050
:1036C0005FEF6FEF7FEF88E694E0DEDB2B964EAD89
:1036D0005FAD2B9760E070E02D968EAD9FAD2D977E
:1036E000AA2797FDA095BA2FDC0199278827482B98
:1036F000592B6A2B7B2B88E694E0C6DB60964EAD97
:103700005FAD609760E070E0BA01552744272E96C0
:103710008FAD2E97482B88E694E0B6DBF801019038
:103720000020E9F7E01BF10B9F0140E050E08091A1
:103730006904882381F0B80188E694E072DDC05CFA
:10374000DF4F0FB6F894DEBF0FBECDBFDF91CF9134
:103750001F910F9108958091730490917404A0E0DB
:10376000B0E09058AF4EBF4F28986A2F60686EBD8A
:1037700000000DB407FEFDCF6EB59EBD00000DB478
:1037800007FEFDCF6EB58EBD00000DB407FEFDCF68
:103790008EB581E080936904B80188E694E041DD4C
:1037A000289A4091730450917404289890E99EBD22
:1037B00000000DB407FEFDCF9EB594E29EBD000053
:1037C0000DB407FEFDCF9EB598EE9EBD00000DB472
:1037D00007FEFDCF9EB54EBD00000DB407FEFDCF28
:1037E0009EB55EBD00000DB407FEFDCF9EB51EBCAC
:1037F00000000DB407FEFDCF9EB51EBC00000DB449
:1038000007FEFDCF9EB5289A1092690498CFEF92DB
:10381000FF920F931F93CF93DF93CDB7DEB7C058BE
:10382000D1090FB6F894DEBF0FBECDBFC757DF4F2B
:1038300008811981C958D040CE56DF4F68817981FF
:10384000C259D040CE0101960E94DC2D7E0181E458
:10385000E80EF11C9E012C563F4FAE014F5F5F4FAB
:1038600060E470E0C7010E943A2E4CE05FEF6FEF1A
:103870007FEFC80109DBC557DF4F48815981CB581D
:10388000D04060E070E0C357DF4F88819981CD5808
:10389000D040AA2797FDA095BA2FDC019927882749
:1038A000482B592B6A2B7B2BC801EEDAC057DF4F10
:1038B00048815981C059D04060E070E0BA01552775
:1038C0004427C157DF4F8881CF58D040482BC801CB
:1038D000DBDAF70101900020E9F7EE19FF099F01FB
:1038E00040E050E0F8018181882389F0B701C801E8
:1038F00098DCC058DF4F0FB6F894DEBF0FBECDBFC7
:10390000DF91CF911F910F91FF90EF9008958385E4
:103910009485A0E0B0E09058AF4EBF4F28986A2F32
:1039200060686EBD00000DB407FEFDCF6EB59EBD94
:1039300000000DB407FEFDCF6EB58EBD00000DB4C6
:1039400007FEFDCF8EB581E0F8018183B701C80184
:1039500068DC289AF80143855485289890E99EBD33
:1039600000000DB407FEFDCF9EB594E29EBD0000A1
:103970000DB407FEFDCF9EB598EE9EBD00000DB4C0
:1039800007FEFDCF9EB54EBD00000DB407FEFDCF76
:103990009EB55EBD00000DB407FEFDCF9EB51EBCFA
:1039A00000000DB407FEFDCF9EB51EBC00000DB497
:1039B00007FEFDCF9EB5289AF80111829ACF4F924B
:1039C0005F926F927F928F929F92AF92BF92CF92AF
:1039D000DF92EF92FF921F93CF93DF93CDB7DEB7C5
:1039E0002C970FB6F894DEBF0FBECDBF2C018CE034
:1039F000EAE0F1E0DE01119601900D928A95E1F77F
:103A00008CB58C7F8CBD8DB581608DBD28981EBC1A
:103A100000000DB407FEFDCF8EB51EBC00000DB436
:103A200007FEFDCF8EB51EBC00000DB407FEFDCF16
:103A30008EB51EBC00000DB407FEFDCF8EB51EBCBA
:103A400000000DB407FEFDCF8EB5289A64E170E04A
:103A500080E090E00E94270E64E170E080E090E05A
:103A60000E94270E10E098E0692E24E2722E30E1C9
:103A7000832E4CE6942E55E2A52E60E9B62E2898AA
:103A80008EBC00000DB407FEFDCF8EB57EBC0000DD
:103A90000DB407FEFDCF8EB56EBC00000DB407FE61
:103AA000FDCF8EB51EBC00000DB407FEFDCF8EB558
:103AB0001EBC00000DB407FEFDCF4EB51EBC0000BD
:103AC0000DB407FEFDCF3EB51EBC00000DB407FED1
:103AD000FDCF9EB51EBC00000DB407FEFDCF8EB518
:103AE000289AC42ED32EE92EF82E89E09DE30E9459
:103AF000530E28988EBC00000DB407FEFDCF8EB586
:103B00007EBC00000DB407FEFDCF8EB56EBC00007C
:103B10000DB407FEFDCF8EB51EBC00000DB407FE30
:103B2000FDCF8EB51EBC00000DB407FEFDCFEEB577
:103B30001EBC00000DB407FEFDCF3EB51EBC00004C
:103B40000DB407FEFDCF9EB51EBC00000DB407FEF0
:103B5000FDCF8EB5289A4E2F532F692F782F4C19F1
:103B60005D096E097F09440F551F661F771F440FBB
:103B7000551F661F771F440F551F661F771F440F81
:103B8000551F661F771F440F551F661F771F440F71
:103B9000551F661F771F411586EC58078DEC680787
:103BA00082E07807F0F42898BEBC00000DB407FE50
:103BB000FDCF8EB5AEBC00000DB407FEFDCF8EB5B7
:103BC0009EBC00000DB407FEFDCF8EB51EBD0000EB
:103BD0000DB407FEFDCF8EB5289A1F5F1F3109F087
:103BE0004ECF289880E98EBD00000DB407FEFDCFB2
:103BF0008EB584E28EBD00000DB407FEFDCF8EB5FC
:103C00008CE08EBD00000DB407FEFDCF8EB54EBD1D
:103C100000000DB407FEFDCF8EB55EBD00000DB4F3
:103C200007FEFDCF8EB56EBD00000DB407FEFDCFC3
:103C30008EB57EBD00000DB407FEFDCF8EB5289A6F
:103C4000289880E98EBD00000DB407FEFDCF8EB52B
:103C50001EBC00000DB407FEFDCF8EB51EBC0000DB
:103C60000DB407FEFDCF8EB5FE013196CE010D9647
:103C700021912EBD00000DB407FEFDCF2EB5E81733
:103C8000F907B1F7289A289880E98EBD00000DB495
:103C900007FEFDCF8EB584E28EBD00000DB407FE99
:103CA000FDCF8EB580E58EBD00000DB407FEFDCFC3
:103CB0008EB582E08EBD00000DB407FEFDCF8EB53F
:103CC000289AF201148613868CEF9FE096878587E9
:103CD0002C960FB6F894DEBF0FBECDBFDF91CF910B
:103CE0001F91FF90EF90DF90CF90BF90AF909F908B
:103CF0008F907F906F905F904F900895CF92DF925A
:103D0000EF92FF920F931F93CF93DF93CDB7DEB760
:103D10006F970FB6F894DEBF0FBECDBF40E051EEF7
:103D200060E070E087EC92E00E94820880916E046F
:103D300090916F04019619F08DB1887F8DB984B18F
:103D4000856084B9289A0E94840E8CB58C7F8CBDC6
:103D50008DB581608DBD8CB58F7D8CBD8CB5837F1D
:103D60008CBD88E694E02BDE289880E98EBD0000AB
:103D70000DB407FEFDCF8EB584E28EBD00000DB4FC
:103D800007FEFDCF8EB588E48EBD00000DB407FEA2
:103D9000FDCF8EB51EBC00000DB407FEFDCF8EB565
:103DA0001EBC00000DB407FEFDCF8EB5289A2898E2
:103DB00080E98EBD00000DB407FEFDCF8EB584E214
:103DC0008EBD00000DB407FEFDCF8EB58CE48EBD18
:103DD00000000DB407FEFDCF8EB58AE08EBD000059
:103DE0000DB407FEFDCF8EB51EBC00000DB407FE5E
:103DF000FDCF8EB5289A289880E98EBD00000DB4BD
:103E000007FEFDCF8EB584E28EBD00000DB407FE27
:103E1000FDCF8EB580E48EBD00000DB407FEFDCF52
:103E20008EB58CE08EBD00000DB407FEFDCF8EB5C3
:103E30001EBC00000DB407FEFDCF8EB5289A289851
:103E400080E98EBD00000DB407FEFDCF8EB584E283
:103E50008EBD00000DB407FEFDCF8EB58CE38EBD88
:103E600000000DB407FEFDCF8EB584E28EBD0000CC
:103E70000DB407FEFDCF8EB581E08EBD00000DB400
:103E800007FEFDCF8EB5289A289880E98EBD0000E8
:103E90000DB407FEFDCF8EB584E28EBD00000DB4DB
:103EA00007FEFDCF8EB584E38EBD00000DB407FE86
:103EB000FDCF8EB51EBC00000DB407FEFDCF8EB544
:103EC0001EBC00000DB407FEFDCF8EB5289A2898C1
:103ED00080E98EBD00000DB407FEFDCF8EB584E2F3
:103EE0008EBD00000DB407FEFDCF8EB588E38EBDFC
:103EF00000000DB407FEFDCF8EB589E28EBD000037
:103F00000DB407FEFDCF8EB51EBC00000DB407FE3C
:103F1000FDCF8EB5289A289880E98EBD00000DB49B
:103F200007FEFDCF8EB584E28EBD00000DB407FE06
:103F3000FDCF8EB58CE28EBD00000DB407FEFDCF27
:103F40008EB58BE28EBD00000DB407FEFDCF8EB5A1
:103F50001EBC00000DB407FEFDCF8EB5289A289830
:103F600080E98EBD00000DB407FEFDCF8EB584E262
:103F70008EBD00000DB407FEFDCF8EB588E28EBD6C
:103F800000000DB407FEFDCF8EB584E28EBD0000AB
:103F90000DB407FEFDCF8EB582E08EBD00000DB4DE
:103FA00007FEFDCF8EB5289A289880E98EBD0000C7
:103FB0000DB407FEFDCF8EB584E28EBD00000DB4BA
:103FC00007FEFDCF8EB580E38EBD00000DB407FE69
:103FD000FDCF8EB580EE8EBD00000DB407FEFDCF87
:103FE0008EB581E08EBD00000DB407FEFDCF8EB50D
:103FF000289A289880E98EBD00000DB407FEFDCFF9
:104000008EB584E28EBD00000DB407FEFDCF8EB5E7
:1040100084E48EBD00000DB407FEFDCF8EB580E1B7
:104020008EBD00000DB407FEFDCF8EB581E08EBDC4
:1040300000000DB407FEFDCF8EB5289A289880E9C0
:104040008EBD00000DB407FEFDCF8EB584E28EBD9F
:1040500000000DB407FEFDCF8EB588E68EBD0000D2
:104060000DB407FEFDCF8EB581E08EBD00000DB40E
:1040700007FEFDCF8EB51EBC00000DB407FEFDCFC0
:104080008EB5289A289880E98EBD00000DB407FEF1
:10409000FDCF8EB584E28EBD00000DB407FEFDCFCE
:1040A0008EB580E68EBD00000DB407FEFDCF8EB547
:1040B0001EBC00000DB407FEFDCF8EB51EBC000077
:1040C0000DB407FEFDCF8EB5289A289880E98EBDE5
:1040D00000000DB407FEFDCF8EB584E28EBD00005A
:1040E0000DB407FEFDCF8EB58CE68EBD00000DB47D
:1040F00007FEFDCF8EB585E08EBD00000DB407FE36
:10410000FDCF8EB51EBC00000DB407FEFDCF8EB5F1
:10411000289A289888E48EBD00000DB407FEFDCFD4
:104120008EB51EBC00000DB407FEFDCF8EB51EBCC3
:1041300000000DB407FEFDCF8EB51EBC00000DB40F
:1041400007FEFDCF8EB51EBC00000DB407FEFDCFEF
:104150008EB5289A64E170E080E090E00E94270E1E
:10416000289880E98EBD00000DB407FEFDCF8EB506
:1041700084E28EBD00000DB407FEFDCF8EB584E550
:104180008EBD00000DB407FEFDCF8EB51EBC000035
:104190000DB407FEFDCF8EB5289A40E150E060E0F7
:1041A00070E087EC92E00E94640A28988CE08EBD53
:1041B00000000DB407FEFDCF8EB51EBC00000DB48F
:1041C00007FEFDCF8EB51EBC00000DB407FEFDCF6F
:1041D0008EB51EBC00000DB407FEFDCF8EB51EBC13
:1041E00000000DB407FEFDCF3EB51EBC00000DB4AF
:1041F00007FEFDCF2EB51EBC00000DB407FEFDCF9F
:104200009EB51EBC00000DB407FEFDCF8EB5289AEA
:10421000C32ED22EE92EF82E38E0C31631E0D30695
:10422000E306F104A1F066E271E087EC92E00E94FF
:10423000210A20E130E0B701A60187EC92E00E945C
:10424000AA0B6DE371E087EC92E00E94310A60E016
:104250007FEF8FEF9FEF0E94211867E070E080E012
:1042600096E20E94211886E1E1E6F1E0DE01119676
:1042700001900D928A95E1F76FEF7FEF8FEF94E059
:104280000E942118CE0101967C0100E016E02DE18C
:1042900042E250E060EF70E088E694E03FD960E0F1
:1042A00070E08FEF94E00E94211889E491E09F93E1
:1042B0008F9386E08F931F928DE18F931F9288E8F2
:1042C0008F931F9280EF8F9388E694E09F938F9354
:1042D000DAD960E070E0CB010E94211861E07FEF45
:1042E0008FEF9FEF0E94211888E694E00E945914F6
:1042F00081E090E00090700402C0880F991F0A943A
:10430000E2F7289820E12EBD00000FB6F894DEBF3A
:104310000FBECDBF0DB407FEFDCF2EB524E22EBDDE
:1043200000000DB407FEFDCF2EB520E92EBD000024
:104330000DB407FEFDCF2EB51EBC00000DB407FE68
:10434000FDCF2EB51EBC00000DB407FEFDCF9EB5FF
:10435000289A982B80E928988EBD00000DB407FE9E
:10436000FDCF2EB524E22EBD00000DB407FEFDCF1B
:104370002EB58EBD00000DB407FEFDCF8EB59EBDDF
:1043800000000DB407FEFDCF8EB5289A42E25FEF24
:104390006FEF7FEF88E694E00E94441740E050E022
:1043A000BA0188E694E00E9444178091690488234A
:1043B00009F40AC427EF31E040E050E066EF70E016
:1043C00088E694E00E94C11588E694E00E945914A2
:1043D00060E07FEF8FEF9FEF0E94211867E070E0B1
:1043E00080E096E20E94211860E070E080E095E0B5
:1043F0000E94211860E070E080E091E00E942118A6
:1044000041E350E468E077E088E694E00E944417D6
:1044100041E354EF61E178E088E694E00E944417BC
:1044200060E070E0CB010E94211861E07FEF8FEF28
:104430009FEF0E94211888E694E00E9459148BEBAC
:1044400090E1909309048093080481E08093D80060
:104450001092DE001092DF0090EA9093DB00109241
:10446000EC001092E2008CE08093E30086E38093FE
:10447000E4001092E5008091D80082608093D8001B
:104480001092ED001092EF001092EE0080E1809308
:10449000ED001092EF001092EE0080E28093ED00AC
:1044A0001092EF001092EE0080E38093ED001092E6
:1044B000EF001092EE0080E48093ED001092EF0088
:1044C0001092EE0080E58093ED001092EF001092C4
:1044D000EE0080E68093ED001092EF001092EE0067
:1044E00080E78093ED001092EF001092EE0080E8DC
:1044F0008093ED001092EF001092EE0080E980931F
:10450000ED001092EF001092EE009093ED001092EB
:10451000EF001092EE0080EB8093ED001092EF0020
:104520001092EE0080EC8093ED001092EF0010925C
:10453000EE0080ED8093ED001092EF001092EE00FF
:1045400080EE8093ED001092EF001092EE0080EF6D
:104550008093ED001092EF001092EE00789449E005
:1045600050E06DEE70E0CE0147960E94D32D49E0F9
:1045700050E064EE70E0CE0101960E94D32D1092BF
:10458000ED001092EE008091DE0081608093DE00ED
:104590002D8D8F89988DA98DBA8D222309F42BC476
:1045A000AC01BD0115E176956795579547951A952C
:1045B000D1F74093F300AC01BD010DE0769567950E
:1045C000579547950A95D1F74093F200AC01BD018C
:1045D00095E076956795579547959A95D1F74093CD
:1045E000F100880F880F880F8093F0008091F00011
:1045F0009C8D992309F4E6C294E0892B8093F00006
:104600002D8D89819A81AB81BC81222309F4E0C37D
:10461000AC01BD01E5E17695679557954795EA951B
:10462000D1F74093F700AC01BD01FDE076956795A9
:1046300057954795FA95D1F74093F600AC01BD0127
:10464000A5E07695679557954795AA95D1F740933C
:10465000F500880F880F880F8093F4009091F40084
:104660008E81882309F4ACC224E081E03F813111BE
:1046700001C080E0820F892B8093F4008D8D811121
:10468000A5C390E88B8D8F70892B8093EF0049E054
:1046900050E06BED70E0CE0147960E94D32D49E0CB
:1046A00050E062ED70E0CE0101960E94D32D80E1D2
:1046B0008093ED001092EE008091DE008260809386
:1046C000DE002D8D8F89988DA98DBA8D222309F456
:1046D0006AC3AC01BD0115E176956795579547957D
:1046E0001A95D1F74093F300AC01BD010DE076952A
:1046F0006795579547950A95D1F74093F200AC011D
:10470000BD0195E076956795579547959A95D1F7B0
:104710004093F100880F880F880F8093F0008091FC
:10472000F0009C8D992309F449C294E0892B809371
:10473000F0002D8D89819A81AB81BC81222309F4FF
:104740001FC3AC01BD01E5E1769567955795479587
:10475000EA95D1F74093F700AC01BD01FDE07695F5
:10476000679557954795FA95D1F74093F600AC01B8
:10477000BD01A5E07695679557954795AA95D1F720
:104780004093F500880F880F880F8093F400909174
:10479000F4008E81882309F40FC224E081E03F8178
:1047A000311101C080E0820F892B8093F4008D8D40
:1047B0008111E4C290E88B8D8F70892B8093EF007C
:1047C00049E050E069EC70E0CE0147960E94D32D9D
:1047D00049E050E060EC70E0CE0101960E94D32DDC
:1047E00080E28093ED001092EE008091DE00846004
:1047F0008093DE002D8D8F89988DA98DBA8D22230F
:1048000009F4A9C2AC01BD0115E1769567955795EC
:1048100047951A95D1F74093F300AC01BD010DE027
:1048200076956795579547950A95D1F74093F2008D
:10483000AC01BD0195E076956795579547959A959A
:10484000D1F74093F100880F880F880F8093F00014
:104850008091F0009C8D992309F4ACC194E0892BE0
:104860008093F0002D8D89819A81AB81BC812223B8
:1048700009F45EC2AC01BD01E5E1769567955795F7
:104880004795EA95D1F74093F700AC01BD01FDE0F3
:104890007695679557954795FA95D1F74093F60029
:1048A000AC01BD01A5E07695679557954795AA950A
:1048B000D1F74093F500880F880F880F8093F4009C
:1048C0009091F4008E81882309F472C124E081E084
:1048D0003F81311101C080E0820F892B8093F40069
:1048E0008D8D811123C290E88B8D8F70892B8093E1
:1048F000EF0049E050E067EB70E0CE0147960E9480
:10490000D32D49E050E06EEA70E0CE0101960E949E
:10491000D32D80E38093ED001092EE008091DE00B5
:1049200088608093DE002D8D8F89988DA98DBA8D3A
:10493000222309F4E8C1AC01BD0115E17695679524
:10494000579547951A95D1F74093F300AC01BD01F7
:104950000DE076956795579547950A95D1F7409361
:10496000F200AC01BD0195E07695679557954795A6
:104970009A95D1F74093F100880F880F880F8093A4
:10498000F0008091F0009C8D992309F40FC194E010
:10499000892B8093F0002D8D89819A81AB81BC8118
:1049A000222309F49DC1AC01BD01E5E1769567952F
:1049B00057954795EA95D1F74093F700AC01BD01B3
:1049C000FDE07695679557954795FA95D1F7409311
:1049D000F600AC01BD01A5E0769567955795479522
:1049E000AA95D1F74093F500880F880F880F809320
:1049F000F4009091F4008E81882309F4D5C024E05E
:104A000081E03F81311101C080E0820F892B8093CA
:104A1000F4008D8D811162C190E88B8D8F70892B90
:104A20008093EF0049E050E065EA70E0CE014796E0
:104A30000E94D32D49E050E06CE970E0CE01019670
:104A40000E94D32D80E48093ED001092EE008091BF
:104A5000DE0080618093DE002D8D8F89988DA98D79
:104A6000BA8D222309F427C1AC01BD0115E1769569
:104A70006795579547951A95D1F74093F300AC0188
:104A8000BD010DE076956795579547950A95D1F745
:104A90004093F200AC01BD0195E07695679557957E
:104AA00047959A95D1F74093F100880F880F880FAA
:104AB0008093F0008091F0009C8D992309F472C0DE
:104AC00094E0892B8093F0002D8D89819A81AB81B0
:104AD000BC81222309F4DCC0AC01BD01E5E176957F
:104AE000679557954795EA95D1F74093F700AC0144
:104AF000BD01FDE07695679557954795FA95D1F7F5
:104B00004093F600AC01BD01A5E0769567955795F9
:104B10004795AA95D1F74093F500880F880F880F25
:104B20008093F4009091F4008E818823C9F124E0F1
:104B300081E03F81311101C080E0820F892B809399
:104B4000F4008D8D8111A2C090E88B8D8F70892B20
:104B50008093EF0082E08093220487E08093B0008E
:104B600081E0809370008CE080931E0410921C04FE
:104B70008FEF80931D0487B1807F87B988B18F60E4
:104B800088B96F960FB6F894DEBF0FBECDBFDF9128
:104B9000CF911F910F91FF90EF90DF90CF900895EC
:104BA00020E0C6CF90E08DCF20E02ACF90E0F0CE7D
:104BB00020E08DCE90E053CE20E0F0CD90E0B6CD59
:104BC00020E053CD90E019CD80917304909174044E
:104BD000A0E0B0E09058AF4EBF4F28982A2F206831
:104BE0002EBD00000DB407FEFDCF2EB59EBD00000A
:104BF0000DB407FEFDCF2EB58EBD00000DB407FE2F
:104C0000FDCF8EB581E08093690427EF31E040E06D
:104C100050E066EF70E088E694E00E94C115289AA3
:104C20008091730490917404289820E92EBD0000AF
:104C30000DB407FEFDCF2EB524E22EBD00000DB44D
:104C400007FEFDCF2EB528EE2EBD00000DB407FEE9
:104C5000FDCF2EB58EBD00000DB407FEFDCF2EB5E5
:104C60009EBD00000DB407FEFDCF8EB51EBC00003A
:104C70000DB407FEFDCF8EB51EBC00000DB407FEBF
:104C8000FDCF8EB5289A109269049ECB90E95DCF36
:104C90009C0136952795369527953695279520932F
:104CA000F7008295880F807E8093F6001092F500C1
:104CB0001092F40037CF9C013695279536952795AD
:104CC000369527952093F3008295880F807E8093F8
:104CD000F2001092F1001092F000ECCE90E99DCE1F
:104CE0009C013695279536952795369527952093DF
:104CF000F7008295880F807E8093F6001092F50071
:104D00001092F40076CE9C0136952795369527951E
:104D1000369527952093F3008295880F807E8093A7
:104D2000F2001092F1001092F0002BCE90E9DCCD51
:104D30009C0136952795369527953695279520938E
:104D4000F7008295880F807E8093F6001092F50020
:104D50001092F400B5CD9C01369527953695279590
:104D6000369527952093F3008295880F807E809357
:104D7000F2001092F1001092F0006ACD90E91BCD84
:104D80009C0136952795369527953695279520933E
:104D9000F7008295880F807E8093F6001092F500D0
:104DA0001092F400F4CC9C01369527953695279502
:104DB000369527952093F3008295880F807E809307
:104DC000F2001092F1001092F000A9CC90E95ACCB8
:104DD0009C013695279536952795369527952093EE
:104DE000F7008295880F807E8093F6001092F50080
:104DF0001092F40033CC9C01369527953695279573
:104E0000369527952093F3008295880F807E8093B6
:104E1000F2001092F1001092F000E8CBCF93DF93F4
:104E2000CDB7DEB7A0970FB6F894DEBF0FBECDBFEB
:104E30000E94610E0E947E1E9E012F5F3F4F59010E
:104E40008091660481112CC080912204813009F484
:104E500040C408F4B6C1823009F443C1833009F07C
:104E60009DC060E07FEF8FEF9FEF0E94211867E009
:104E700070E080E096E20E94211860E070E0CB01D3
:104E80000E94211861E07FEF8FEF9FEF0E942118B1
:104E900088E694E00E945914809166048823A1F268
:104EA000E0916704F0E0E65FFB4F008180916704CA
:104EB00010E0813009F4BAC408F4A0C4823059F477
:104EC000F801EE0FFF1FE351FD4F6591749140E231
:104ED00050E0C50178D6CC24CA94DC2CEC2C54E0EC
:104EE000F52E412C512C612C62E0762E60E07FEF94
:104EF0008FEF9FEF0E94211867E070E080E096E25C
:104F00000E942118C301B2010E94211867E070E0DD
:104F100080E096E20E942118C701B6010E94211884
:104F20001F930F938FEA91E09F938F9386E08F9367
:104F30001F92AFE1FA2EFF921F9288E88F931F9283
:104F400080EF8F9308E614E01F930F930E94431B9A
:104F5000BF92AF9282EB91E09F938F931F921F922B
:104F6000FF921F9289E18F931F928F931F930F934C
:104F70000E94431B60E070E0CB010E94211861E0B9
:104F80007FEF8FEF9FEF0E942118C8010E945914F4
:104F90000FB6F894DEBF0FBECDBF52CF8091620432
:104FA000833009F4EDC308F4CBC3843009F408C49A
:104FB000853009F0F6C30E941B0E28E532E040E080
:104FC00050E085D4633C71408105910508F446C4E6
:104FD000412C55245A94652CA2E07A2EC12CDD2454
:104FE000DA94ED2CB4E0FB2E06E911E099249394B9
:104FF00060E07FEF8FEF9FEF0E94211867E070E085
:1050000080E096E20E942118C701B6010E94211893
:105010001F930F9386E08F931F928FE18F931F92C0
:1050200084E48F931F9280EF8F9388E694E09F93A0
:105030008F930E94431B80915E0490915F04A09126
:105040006004B0916104E0915D040FB6F894DEBF96
:105050000FBECDBFE33208F041C0F0E0EE0FFF1FFE
:10506000E55BFD4F20813181BF93AF939F938F9379
:105070003F932F9386E08F931F928DE18F931F9222
:105080008CEA8F931F9280EF8F9388E694E09F9332
:105090008F930E94071C0FB6F894DEBF0FBECDBFE2
:1050A000992009F4EACEC301B2010E94211860E1FF
:1050B0007DE281E09CE10E94211860E070E080E0E8
:1050C0009BE10E94211867E070E080E096E20E9478
:1050D000211860E07AE283E09BE1C7CE2AED35E05B
:1050E000C3CF60E07FEF8FEF9FEF0E94211867E052
:1050F00070E080E096E20E94211886E1E1E6F1E0AE
:10510000D50101900D928A95E1F76FEF7FEF8FEF58
:1051100094E00E942118750100E016E02DE142E2C2
:1051200050E060EF70E088E694E00E948E1A60E044
:1051300070E08FEF94E00E94211889E491E09F9342
:105140008F9386E08F931F928DE18F931F9288E853
:105150008F931F9280EF8F9388E694E09F938F93B5
:105160000E94431B6FEF7FEF8FEF94E00E942118A6
:1051700061E070E080E09FE10E94211840E050EF84
:105180006DE07FE888E694E00E94441760E070E0FC
:1051900080E091E20E94211860E070E0CB010E9463
:1051A000211861E07FEF8FEF9FEF0E94211888E6C2
:1051B00094E00E9459140FB6F894DEBF0FBECDBF25
:1051C0003FCE60E07FEF8FEF9FEF0E94211867E0F6
:1051D00070E080E096E20E94211860E070E08FEFBE
:1051E00094E00E94211885EB91E09F938F931F928A
:1051F0001F92EDE1DE2EDF921F921F921F92F5E0CB
:10520000FF2EFF9208E614E01F930F930E94431BAA
:105210006FEF7FEF8FEF94E00E94211880913F04A1
:1052200090914004A0914104B0914204BF93AF9388
:105230009F938F9383EC91E09F938F931F921F9284
:10524000ACE1EA2EEF921F928EE18F931F92FF92B4
:105250001F930F930E94431B809143049091440439
:10526000A0914504B0914604BF93AF939F938F9351
:1052700082ED91E09F938F931F921F92EF921F9266
:1052800087E38F931F92FF921F930F930E94431BFC
:105290008091470490914804A0914904B0914A0438
:1052A0000FB6F894DEBF0FBECDBFBF93AF939F93F1
:1052B0008F9381EE91E09F938F931F921F92EF92B5
:1052C0001F9280E58F931F92FF921F930F930E946E
:1052D000431B8091570490915804A0915904B091B8
:1052E0005A04BF93AF939F938F9381EF91E09F9365
:1052F0008F931F921F92EF921F9289E68F931F92B6
:10530000FF921F930F930E94431B60E070E08FEFAA
:1053100094E00E94211880E092E09F938F931F9267
:105320001F92DF921F9287E88F931F92FF921F9325
:105330000F930E94431B0FB6F894DEBF0FBECDBF84
:105340006FEF7FEF8FEF94E00E942118809123048C
:1053500090912404A0912504B0912604BF93AF93AB
:105360009F938F938BE092E09F938F931F921F9256
:10537000EF921F9285EA8F931F92FF921F930F93D4
:105380000E94431B8091270490912804A091290436
:10539000B0912A04BF93AF939F938F9388E192E0DB
:1053A0009F938F931F921F92EF921F928EEB8F937A
:1053B0001F92FF921F930F930E94431B809137040B
:1053C00090913804A0913904B0913A04BF93AF93FF
:1053D0009F938F9385E292E09F938F931F921F92EA
:1053E000EF921F9287ED8F931F92FF921F930F935F
:1053F0000E94431B80913B0490913C04A0913D048A
:10540000B0913E040FB6F894DEBF0FBECDBFBF9380
:10541000AF939F938F9384E392E09F938F931F9218
:105420001F92EF921F92B0EFDB2EDF921F92FF923E
:105430001F930F930E94431B6FEF7FEF8FEF94E05A
:105440000E9421184AE05FEF6FEF7FEFC8010E94D2
:1054500044174FEF50E060E070E0C8010E9444172D
:1054600049E05FEF6FEF7FEFC8010E9444174FEFF5
:1054700050E060E070E0C8010E944417409033049F
:1054800050903404609035047090360440E15FEF32
:105490006FEF7FEFC8010E9444174AE451E064E1D6
:1054A00070E0C8010E94441744E150E064EB70E0F2
:1054B000C8010E944417C301B20148D26C567E4E07
:1054C000AB0160E070E0BA0155274427C8010E9493
:1054D000441744E951E160E070E0C8010E944417BC
:1054E00060E070E08FEF94E00E94211884E492E085
:1054F0009F938F9396E0892E8F921F922FE1922E89
:105500009F921F92DF92CC24C394CF928AE48F9310
:105510001F930F930E94431B6FEF7FEF8FEF94E079
:105520000E9421184AE05FEF6FEF7FEFC8010E94F1
:10553000441740E050E06FEF70E0C8010E9444174C
:1055400049E05FEF6FEF7FEFC8010E94441740E032
:1055500050E06FEF70E0C8010E94441740902304B0
:1055600050902404609025047090260440E15FEF81
:105570006FEF7FEFC8010E94441742EC51E064E1F5
:1055800070E0C8010E94441744E150E064EB70E011
:10559000C8010E944417C301B201D8D134E6E32EFA
:1055A000F12CA701461B570B60E070E0BA015527AC
:1055B0004427C8010E94441744E650E060E070E0D0
:1055C000C8010E94441760E070E08FEF94E00E94F1
:1055D000211887E492E09F938F938F921F929F925E
:1055E0001F92DF92CF928CEC8F931F930F930E94A8
:1055F000431B0FB6F894DEBF0FBECDBF6FEF7FEF3A
:105600008FEF94E00E9421184AE05FEF6FEF7FEF89
:10561000C8010E94441740E050E06FEF70E0C801FD
:105620000E94441749E05FEF6FEF7FEFC8010E94CF
:10563000441740E050E06FEF70E0C8010E9444174B
:1056400040902704509028046090290470902A0408
:1056500040E15FEF6FEF7FEFC8010E94441746E81B
:1056600051E064E170E0C8010E94441744E150E059
:1056700064EB70E0C8010E944417C301B20166D117
:10568000A701461B570B60E070E0BA01552744277D
:10569000C8010E94441744E650E060E070E0C80191
:1056A0000E9444176FEF70E080E094E00E942118A0
:1056B00089E492E09F938F938F921F929F921F9203
:1056C000DF92CF9280E98F931F930F930E94431B29
:1056D00051CC80916204833009F452C088F1843047
:1056E00009F46EC0853009F05CC00E941B0E28E5ED
:1056F00032E040E050E0EBD0633C71408105910521
:1057000008F066CC0E941B0E28E532E040E050E035
:10571000DED06D3271408105910508F4ACC0412C9A
:1057200055245A94612CE2E07E2EC12CDD24DA94BB
:10573000E12CF4E0FF2E06E911E09924939458CC73
:10574000813078F10E941B0E24EF31E040E050E000
:10575000BED0992493946B3F71058105910508F49F
:10576000912C412C55245A94652C42E0742EC12C66
:10577000DD24DA94ED2C54E0F52E06E811E038CC67
:10578000412C55245A94652C62E0762EC12CDD24E0
:10579000DA94ED2C74E0F72E07E711E09924939446
:1057A00027CC412C512C612C12E0712EC12CD12C14
:1057B000E12C04E0F02E0EE911E09924939418CC2A
:1057C0000E941B0E24EF31E040E050E080D099248D
:1057D00093946B3F71058105910508F4912C412C40
:1057E000512C66246A9422E0722EC12CD12CEE2416
:1057F000EA9434E0F32E0FE811E0FACBF801EE0F53
:10580000FF1FE057FC4F6591749140E250E0C501E5
:10581000DAD1CC24CA94DC2CE12C84E0F82E412C83
:10582000512C66246A9492E0792E60CBF801EE0F39
:10583000FF1FEF56FD4F6591749140E250E0C501A6
:10584000C2D1CC24CA94D12CE12C34E0F32E412CCB
:1058500055245A94652C42E0742E48CB0E941B0EAE
:1058600028E532E040E050E032D06D3271408105F1
:10587000910508F054CF0E941B0E28E532E040E06D
:1058800050E025D0673971058105910578F0412CEC
:10589000512C612C82E0782EC12CD12CE12C94E08B
:1058A000F92E06E911E099249394A2CB412C512CB6
:1058B00066246A9462E0762EC12CD12CEE24EA9400
:1058C00074E0F72E06E911E09924939491CBA1E2BC
:1058D0001A2EAA1BBB1BFD010DC0AA1FBB1FEE1F6A
:1058E000FF1FA217B307E407F50720F0A21BB30BB5
:1058F000E40BF50B661F771F881F991F1A9469F731
:1059000060957095809590959B01AC01BD01CF018C
:1059100008950DD0A59F900DB49F900DA49F800D6C
:10592000911D112408950790F691E02D0994A29FEE
:10593000B001B39FC001A39F700D811D1124911D63
:10594000B29F700D811D1124911D089533D088F0F0
:105950009F5790F0B92F9927B751A0F0D1F0660F5B
:10596000771F881F991F1AF0BA95C9F712C0B13076
:1059700081F03AD0B1E0089537C0672F782F88279B
:10598000B85F39F0B93FCCF3869577956795B395B5
:10599000D9F73EF490958095709561957F4F8F4F24
:1059A0009F4F089557FD9058440F551F59F05F3F82
:1059B00071F04795880F97FB991F61F09F3F79F031
:1059C00087950895121613061406551FF2CF4695B3
:1059D000F1DF08C0161617061806991FF1CF869535
:1059E0007105610508940895E894BB276627772719
:1059F000CB0197F90895283008F027E03327DA0122
:105A0000990F311D87FD916000966105710539F48C
:105A100032602E5F3D9330E32A95E1F708959F3F72
:105A200030F080387105610509F03C5F3C5F3D93C3
:105A3000913008F08068911DDF93CF931F930F93EF
:105A4000FF92EF92192F987F9695E92F969596954C
:105A5000E90FFF27EC52F94F99273327EE24FF2453
:105A6000A701E70105900894079428F4360FE71E74
:105A7000F81E491F511D660F771F881F991F069436
:105A8000A1F70590079428F4E70EF81E491F561F4A
:105A9000C11D770F881F991F661F0694A1F70590F7
:105AA000079428F4F80E491F561FC71FD11D880FF1
:105AB000991F661F771F0694A1F70590079420F49D
:105AC000490F561FC71FD81F990F661F771F881FC2
:105AD0000694A9F784911095177041F0D695C79553
