:10000000ABC300000C94380C0C94690C0C949A0C43
:100010000C94CB0C0C94FC0C0C942D0D0C945E0DDC
:100020000C948F0DC8C300000C947410C4C300005E
:10003000C2C30000C0C30000BEC300000C948E10F9
:10004000BAC300000C94C00D0C94C60EB4C30000DB
:10005000B2C30000C6C70000AEC30000ACC30000BE
:10006000AAC300000C948A0EA6C30000A4C300001B
:10007000A2C30000A0C300009EC300009CC30000F8
:10008000F0C7000098C3000096C3000094C30000AE
:1000900092C300006E616E00696E6600FF0F000083
:1000A0000801010000F10000000800000000FF0F3F
:1000B00000000801010000F400000008000000003A
:1000C000FF0F00000801010000F30000000800001D
:1000D0000000FF0F00000801010000F2000000080E
:1000E00000000000FF0F00000801010000F0000008
:1000F000000800000000789CCDD4316EDB3014067F
:10010000E047D1288122003974D0647AC8A0D1A3F5
:1001100006C1766F9023F808193508319D0E197BBA
:10012000851E214760D1216B8F40C34357065E581F
:100130008015FB4849899CB8CED2210F02347C122D
:10014000DFFB2942219C2D7D9EDFBF3B18D535C8A2
:1001500060974131D350BF5104DD1E3B0B46B6C002
:100160004C45FC0DBCF235D0A0A507A64BE29B7315
:100170005E83AF3B0F5B5381F49BBD692ED60B1A98
:1001800094F42CA0BB9AC7F91E03B5D1C3C134B9EE
:1001900089CE1D4757839BE8D3CA1EF4621E5DF4C7
:1001A0005EBBE407F3017D917C8DDEE69DEBDEF71F
:1001B00066825E45976B03B42D7B2F6D1EE7DBEBEC
:1001C0000B37B836C07CC906179DE77503CB3FE8EF
:1001D0005C456FA2ABDA3CB974352C7FEFA26BE0C3
:1001E0000E925B930FEB2F71272AB2FBA539E86BB8
:1001F000896ED11FD165E7F36670826E815A896E70
:1002000045EF665D35E887DECDE060A7C9DB55B513
:10021000D10D090F6D74BE6F7B27764AD1F5E8F3D7
:10022000105DF31FE8B1BFFB873FB4C4024F0E2738
:100230009CDDB5C48184934E95635F03F120C9CEE4
:10024000E363F43F9CDF96692FB776C1B49354C142
:1002500051D1CE9DFCF286537B936EA0575759A681
:1002600018E4B99897391B394F0EC927507C12B33F
:1002700062F6ECA677A57F66D92DBA402FA28F5BD8
:1002800032D0EA1E3D83A214629E3C8DDE2708B068
:10029000D2F719DC021497718127EF1304F279F673
:1002A0002DA3D947280A7105634F090274DD262062
:1002B000006620A20FD1E384E1383E441FA2A37F51
:1002C0006F5F387F07FF27BCE064C5A99FDF77AF6A
:1002D0001C236D5EAE3FF6866F4FF737DD59C67D46
:1002E0003B339FC7F6CBE87F019D1F8D0835032D5B
:1002F0000325031D0315030D030503FD024D554C96
:1003000054492D38004D554C54492D37004D554C0E
:1003100054492D36004D554C54492D35004D554C02
:1003200054492D34004D554C54492D33004D554CF6
:1003300054492D32004D554C54492D3100524547FA
:10034000454E2D3800524547454E2D370052454702
:10035000454E2D3600524547454E2D3500524547F6
:10036000454E2D3400524547454E2D3300524547EA
:10037000454E2D3200524547454E2D3100B703B151
:1003800003AB03A5039F03990393038D03545251B9
:100390002D38005452512D37005452512D360054EF
:1003A00052512D35005452512D34005452512D3399
:1003B000005452512D32005452512D310052454DAE
:1003C0004F544520454D455247454E4359205348CB
:1003D0005554444F574E00556E6B6E6F776E2042EA
:1003E0004D53204572726F720053687574646F7755
:1003F0006E204C617463682054726970706564008B
:100400005265736F6C766572204E6F7420436F6E09
:100410006E6563746564004D4320437572722053AA
:10042000656E736F72204661756C74004761746508
:10043000204452562033204F76657274656D7000EB
:1004400047617465204452562032204F766572749D
:10045000656D700047617465204452562031204F0D
:1004600076657274656D7000504342204F766572F8
:1004700074656D70004D6F64756C652043204F7618
:10048000657274656D70004D6F64756C65204220F7
:100490004F76657274656D70004D6F64756C652084
:1004A00041204F76657274656D70004D6F746F7288
:1004B000204F7665722054656D70004D4320436F68
:1004C0006D6D616E64204D657373616765204C6F5F
:1004D0007374004D4320556E64657220566F6C74C2
:1004E000616765004D43204857204F7665722D4364
:1004F000757272656E74004D43204465736174209B
:100500004661756C74004D4320496E766572746562
:10051000722054696D656F7574004D432044697293
:10052000656374696F6E204572726F72004D43206F
:10053000496E766572746572204F76657274656D6A
:1005400070004D43204F76657220566F6C74616762
:1005500065004D43204F7665722043757272656E5B
:1005600074004D43204F76657220537065656400BA
:100570004E4F2043454C4C20434F4D4D5300416E50
:1005800020452D53746F702069732050726573730A
:1005900065640052656D6F74652052657175657391
:1005A0007400494D44204552524F5200425350442A
:1005B000204552524F5200494E56414C4944204D1D
:1005C0005347004856205052454348415247494EF0
:1005D000473A20252E30665600736252494F205705
:1005E00041524D3A20252E30664300474C56204C50
:1005F0004F5720564F4C544147453A20252E3266DE
:1006000056005041434B204C4F5720564F4C5441BD
:1006100047453A20252E32665600424154544552F1
:1006200059205741524D3A20252E326643004D4FF6
:10063000544F52205741524D3A20252E32664300E6
:10064000434F4E54524F4C4C4552205741524D3A15
:1006500020252E3266430000407A10F35A00A07223
:100660004E18090010A5D4E80000E87648170000ED
:10067000E40B54020000CA9A3B000000E1F50500BB
:100680000080969800000040420F000000A0860104
:10069000000000102700000000E8030000000064D4
:1006A00000000000000A000000000001000000003F
:1006B000002C76D888DC674F0823DFC1DFAE59E114
:1006C000B1B796E5E3E453C63AE651997696E8E683
:1006D000C28426EB898C9B62ED407C6FFCEFBC9C56
:1006E0009F40F2BAA56FA5F490055A2AF75C936B68
:1006F0006CF9676DC11BFCE0E40D47FEF520E6B523
:1007000000D0ED902E0300943577050080841E08FC
:100710000000204E0A000000C80C333333330F981A
:100720006E12831141EF8D2114893BE65516CFFEE1
:10073000E6DB18D1844B381BF77C1D901DA4BBE46D
:1007400024203284725E228100C9F124ECA1E53DAF
:1007500027005B0950103B1111241FBECFEFD0E1E1
:10076000DEBFCDBF12E0A0E0B1E0E8EDFFE500E0C4
:100770000BBF02C007900D92AE39B107D9F724E044
:10078000AEE9B2E001C01D92AB36B207E1F717E067
:10079000C8E5D7E000E006C022970109FE010BBFC3
:1007A0000E94AC2DC235D10780E00807A9F70E944E
:1007B0009E270C94EA2F24CC2F923F924F925F9267
:1007C0006F927F928F929F92AF92BF92CF92DF9261
:1007D000EF92FF920F931F93CF93DF93CDB7DEB7C6
:1007E00063970FB6F894DEBF0FBECDBF7C011B012F
:1007F0006A01FC0117821682838181FF66C3BE01F4
:100800006F5F7F4F4B01F7019381F10193FD85915C
:1008100093FF81911F01882309F453C3853239F472
:1008200093FD859193FF81911F01853239F4B701C2
:1008300090E00E94212F56016501E5CF10E0512C78
:1008400020E02032A0F48B3269F030F4803259F08D
:10085000833269F420612CC08D3239F0803339F451
:10086000216026C02260246023C0286021C027FDAB
:1008700027C030ED380F3A3078F426FF06C0FAE092
:100880001F9F300D1124132F13C06AE0569E300DA8
:100890001124532E20620CC08E3221F426FD11C388
:1008A000206406C08C3611F4206802C0883641F4FA
:1008B000F10193FD859193FF81911F018111C1CFBA
:1008C0009BEB980F933018F42061805E06C09BE983
:1008D000980F933008F0AAC12F7E26FF16E02F73E1
:1008E000722E853621F4F22FF0647F2E08C08636F2
:1008F00021F4622F6068762E02C01111115077FE2C
:1009000007C01C3348F444244394410E27E00BC035
:10091000183030F4212F06C027E04CE3442E03C0EA
:1009200027E017E0412C560174E0A70EB11CF60138
:100930006081718182819381042DA4010E94142E13
:100940006C01098100FF02C003FF06C071FC07C0F3
:1009500072FC08C0612C08C03DE2632E05C02BE28A
:10096000622E02C090E2692E802F8C7099F1662071
:1009700011F084E001C083E0851510F0512C0BC00C
:10098000581A73FC08C0B70180E290E00E94212F42
:100990005A94C9F7F3CF662029F0B701862D90E06D
:1009A0000E94212F03FD03C008E910E002C004E902
:1009B00010E0F72DF0717F2EF8018491882309F45F
:1009C00076C271108052B70190E00E94212F0F5F14
:1009D0001F4FF2CF77FE0FC04C0C04FF04C08A817A
:1009E000813309F44A94141474F5F8E0F41578F599
:1009F00088E0482E2CC076FC2AC0812F90E08C1510
:100A00009D059CF06CEFC6166FEFD60674F0772D3F
:100A10007068772E0AC0E2E0F0E0EC0FFD1FE10FF6
:100A2000F11D8081803319F411501111F4CF77FE3C
:100A30000EC044244394410E812F90E0C816D9067D
:100A40002CF41C1904C04424439401C010E077FE28
:100A500007C01C141D043CF496012F5F3F4F05C0D6
:100A600025E030E002C021E030E0662011F02F5F89
:100A70003F4F112331F0412F50E04F5F5F4F240F64
:100A8000351F452D50E02417350714F4521A01C0C4
:100A9000512C872D897049F4552039F0B70180E237
:100AA00090E00E94212F5A94F7CF662029F0B701D9
:100AB000862D90E00E94212F73FC09C0552039F04B
:100AC000B70180E390E00E94212F5A94F7CF77FE80
:100AD0005FC09C2D8D2DD7FE02C090E080E0692E76
:100AE000782E40E050E0C601841991099D878C87DB
:100AF000960126193709280D391D812F90E0EE2720
:100B0000FF27E81BF90BFF87EE87FFEF6F167F06C5
:100B100069F4B7018EE290E02B8B3A8B488B598BAE
:100B20000E94212F598948893A892B89C614D704F4
:100B300054F06C857D85661577052CF4F901E40F7A
:100B4000F51F818101C080E371E0671A71084F5F72
:100B50005F4FEE85FF856E167F066CF0B70190E063
:100B60002B8B3A8B488B598B0E94212F2B893A89EA
:100B700048895989CACF6C147D0439F49A81963317
:100B800018F4953311F404FF81E3B70190E04BC0F2
:100B90008A81813309F00F7EB70190E00E94212FF6
:100BA000111105C074FE18C085E490E017C0B701AC
:100BB0008EE290E00E94212F82E066246394680E0A
:100BC000F401E80FF11D8081B70190E00E94212F10
:100BD000115041F3862DF1CF85E690E0B7010E94D8
:100BE000212FD7FC05C0C114D10439F404FF05C07E
:100BF000D194C194D1088DE201C08BE2B70190E09D
:100C00000E94212F80E36AE0C616D1042CF08F5F8A
:100C1000FAE0CF1AD108F7CFB70190E00E94212F58
:100C2000B701C601C0960E94212F41C1833631F021
:100C3000833779F0833509F058C021C0560172E03E
:100C4000A70EB11CF6018081898301E010E06401E8
:100C500014C05601F2E0AF0EB11CF601C080D18085
:100C600026FF03C0612F70E002C06FEF7FEFC60167
:100C70002B8B0E94162F8C012B892F7715C05601C4
:100C8000F2E0AF0EB11CF601C080D18026FF03C098
:100C9000612F70E002C06FEF7FEFC6012B8B0E94C7
:100CA0000B2F8C012B892068722E23FD1AC0852DF5
:100CB00090E008171907A8F4B70180E290E00E94BD
:100CC000212F5A94F4CFF60177FC859177FE81911C
:100CD0006F01B70190E00E94212F51105A940150EA
:100CE00011090115110579F7E2C0843611F0893632
:100CF00051F5560127FF09C0F4E0AF0EB11CF60113
:100D000060817181828193810AC0F2E0AF0EB11CD3
:100D1000F60160817181882777FD8095982F022FD9
:100D20000F7697FF08C090958095709561957F4FDD
:100D30008F4F9F4F00682AE030E0A4010E948C2F63
:100D4000C82EC8183EC0022F853721F40F7E2AE036
:100D500030E01DC0097F8F3691F018F4883559F0C6
:100D6000B0C0803719F0883711F0ABC0006104FFC4
:100D700009C0046007C024FF08C0066006C028E060
:100D800030E005C020E130E002C020E132E0560151
:100D900007FF09C0F4E0AF0EB11CF601608171815C
:100DA0008281938108C0F2E0AF0EB11CF601608130
:100DB000718180E090E0A4010E948C2FC82EC81899
:100DC0000F7706FF0BC0202F2E7FC11650F404FFB3
:100DD0000AC002FD08C0202F2E7E05C0DC2C202F6B
:100DE00003C0DC2C01C0D12E24FF0DC0FE01EC0D90
:100DF000F11D8081803311F4297E09C022FF06C0D5
:100E0000D394D39404C0822F867809F0D39423FD21
:100E100013C020FF06C01C2DD51418F4150D1D1984
:100E2000D52CD51468F4B70180E290E02B8B0E949A
:100E3000212FD3942B89F5CFD51410F45D1801C060
:100E4000512C24FF12C0B70180E390E02B8B0E944D
:100E5000212F2B8922FF17C021FF03C088E590E0D6
:100E600002C088E790E0B7010CC0822F867859F065
:100E700021FD02C080E201C08BE227FD8DE2B701B7
:100E800090E00E94212FC11638F4B70180E390E072
:100E90000E94212F1150F7CFCA94F401EC0DF11DDF
:100EA0008081B70190E00E94212FC110F5CF55201D
:100EB00009F4C2CCB70180E290E00E94212F5A943D
:100EC000F6CFF7018681978102C08FEF9FEF63967F
:100ED0000FB6F894DEBF0FBECDBFDF91CF911F914B
:100EE0000F91FF90EF90DF90CF90BF90AF909F90C9
:100EF0008F907F906F905F904F903F902F900895CC
:100F000080E090E00895FC0124853585F901E058E2
:100F1000FF4F8081918180589F4F3296208131818F
:100F2000821B930B8F77907897FF089501978068C5
:100F30009F6F01960895FC0184859585FC01EE570D
:100F4000FF4F20813181DC01A058BF4F4D915C9152
:100F500042175307C1F0DC01A20FB31F8C912F5F22
:100F60003F4F2F77307837FD04C03183208390E0E6
:100F700008952150310920683F6F2F5F3F4F318323
:100F8000208390E008958FEF9FEF0895FC01848502
:100F90009585FC01E058FF4FDC01AE57BF4F8D91A6
:100FA0009C91918380830895DC015296ED91FC9190
:100FB000539741E050E05B960C905B9702C0440F62
:100FC000551F0A94E2F7208130E024233523232B98
:100FD000D1F35696ED91FC915797608381E090E0B4
:100FE00008951F920F920FB60F9211240BB60F9215
:100FF0002F933F934F935F936F938F939F93EF93B1
:10100000FF936091C6002091DC033091DD03C9019C
:1010100001968F77907897FD1FC04091DE03509125
:10102000DF038417950741F0F901E45AFC4F608310
:101030009093DD038093DC03FF91EF919F918F915B
:101040006F915F914F913F912F910F900BBE0F9039
:101050000FBE0F901F901895019780689F6F0196A3
:10106000DCCF1F920F920FB60F9211240BB60F9286
:101070002F933F934F935F936F938F939F93EF9330
:10108000FF936091CE002091580330915903C9011C
:1010900001968F77907897FD1FC040915A03509129
:1010A0005B038417950741F0F901E852FD4F608317
:1010B0009093590380935803FF91EF919F918F91E3
:1010C0006F915F914F913F912F910F900BBE0F90B9
:1010D0000FBE0F901F901895019780689F6F019623
:1010E000DCCF7F928F929F92AF92BF92CF92DF928E
:1010F000EF92FF920F931F93CF93DF93EC016A015E
:101100007B01413482E458078FE06807710508F4D9
:1011100055C0EA89FB8981E090E00C8C02C0880F01
:10112000991F0A94E2F7808360E079E08DE390E014
:10113000A70196010E94802D2150310941095109D2
:101140005695479537952795C901EE85FF8590837C
:10115000E889F9898083EC89FD89408181E090E00C
:101160009C01088C02C0220F331F0A94E2F7422B25
:101170004083EC89FD8940819C01098C02C0220FCB
:10118000331F0A94E2F7422B4083EC89FD892081CA
:101190000A8C02C0880F991F0A94E2F7282B20833B
:1011A000DF91CF911F910F91FF90EF90DF90CF9043
:1011B000BF90AF909F908F907F90089560E874E803
:1011C0008EE190E0A70196010E94802D49015A010D
:1011D00081E0881A9108A108B108B694A794979461
:1011E0008794A50194012F5F3F4F4F4F5F4F220F10
:1011F000331F441F551F220F331F441F551F220F3B
:10120000331F441F551F220F331F441F551F60E01B
:1012100074E284EF90E00E94802D0FEF10E0AFEFBA
:10122000B0E00E94A22DA70196010E94802D021B12
:10123000130B10161106CCF5722E709460E079E055
:101240008DE390E0A70196010E94802D2150310985
:10125000410951092E7F2E5F3F4F4F4F5F4F220FA5
:10126000331F441F551F220F331F441F551F60E0BB
:1012700074E284EF90E00E94802D0FEF10E0AFEF5A
:10128000B0E00E94A22DA70196010E94802D021BB2
:10129000130B101611066CF42095271508F439CF9E
:1012A000EA89FB891082C40150CF77247394720EAF
:1012B000C5CF2F5FF2CF1092BE021092BD0288EE12
:1012C00093E0A0E0B0E08093BF029093C002A093AF
:1012D000C102B093C2022AE131E03093BC022093F4
:1012E000BB024CE553E05093C8024093C70245EC63
:1012F00050E05093CA024093C90244EC50E050932E
:10130000CC024093CB0240EC50E05093CE0240938D
:10131000CD0241EC50E05093D0024093CF0246EC16
:1013200050E05093D2024093D102E4E0E093D30224
:1013300073E07093D40267E06093D50255E0509358
:10134000D60241E04093D7021092A1021092A0026F
:101350008093A2029093A302A093A402B093A5024B
:1013600030939F0220939E0288ED92E09093AB020F
:101370008093AA028DEC90E09093AD028093AC0232
:101380008CEC90E09093AF028093AE0288EC90E0FA
:101390009093B1028093B00289EC90E09093B302F5
:1013A0008093B2028EEC90E09093B5028093B402E9
:1013B000E093B6027093B7026093B8025093B902FB
:1013C0004093BA020895CF92DF92EF92FF920F936B
:1013D0001F93CF93DF936C0141155105F1F08B0101
:1013E000EA01E12CF12CD8016D918D01D601ED912E
:1013F000FC910190F081E02DC6010995E80EF91EDF
:101400002197209781F7C701DF91CF911F910F910D
:10141000FF90EF90DF90CF900895E12CF12CF3CF67
:10142000DB010D900020E9F7AD0141505109461B49
:10143000570BDC01ED91FC910280F381E02D0994C2
:10144000EF92FF920F931F93CF93DF93EC01FB0179
:1014500001900020E9F7AF0141505109461B570B9D
:10146000E881F9810280F381E02D09958C01E88102
:10147000F9810190F081E02D6DE0CE0109957C01AC
:10148000E881F9810190F081E02D6AE0CE010995B3
:101490000E0D1F1D800F911FDF91CF911F910F9196
:1014A000FF90EF9008952F923F924F925F926F922C
:1014B0007F928F929F92AF92BF92CF92DF92EF92E4
:1014C000FF920F931F93CF93DF93CDB7DEB7A19712
:1014D0000FB6F894DEBF0FBECDBF8C01411551058C
:1014E00009F4C7C04A30510509F474C0942E6B0149
:1014F000EE24D7FCE094FE2C19A2B1E0B41708F05A
:10150000C1C0442E512C612C712C5E01E1E2AE0E63
:10151000B11C02C069017A01C701B601A3019201A1
:101520000E94802D6C2D929E60191124F1E0AF1A5B
:10153000B10890E3960F87E3860F6A3008F4892F8D
:10154000D5018C93211531054105510519F7F50198
:1015500001900020E9F7AF01415051094A195B0998
:10156000D801ED91FC910280F381E02DB501C80115
:1015700009953C01D801ED91FC910190F081E02D9D
:101580006DE0C80109957C01D801ED91FC910190B5
:10159000F081E02D6AE0C8010995E60CF71C8E0D7C
:1015A0009F1DA1960FB6F894DEBF0FBECDBFDF9191
:1015B000CF911F910F91FF90EF90DF90CF90BF9050
:1015C000AF909F908F907F906F905F904F903F90E3
:1015D0002F9008954B01AA2497FCA094BA2CB7FC35
:1015E00059C0D82C792DC50119A27E01B1E2EB0EAC
:1015F000F11CBAE04B2E512C612C712C0BC0862FA4
:10160000D7018C932115310541055105F1F0D22EFA
:10161000732FCA016D2DA30192010E94802D8D2D83
:10162000EAE02E9F80191124F1E0EF1AF10860E33F
:10163000680F97E3980F8A3010F3892FD7018C93A6
:10164000211531054105510511F7F70101900020E1
:10165000E9F7AF01415051094E195F09D801ED91E9
:10166000FC910280F381E02DB701C80109953C018E
:1016700081CFDC01ED91FC910190F081E02D099585
:101680003C0178CFFAE04F2E512C612C712CAAE04E
:101690009A2E3BCFDC01ED91FC910190F081E02D81
:1016A0006DE209951C01CC24DD247601C818D90807
:1016B000EA08FB0819A25E01B1E2AB0EB11C8AE098
:1016C000482E512C612C712C02C069017A01C7018E
:1016D000B601A30192010E94802D6C2DEAE02E9F9D
:1016E00060191124F1E0AF1AB10890E3960F87E377
:1016F000860F6A3008F4892FD5018C9321153105A6
:101700004105510511F7F50101900020E9F7AF01FE
:10171000415051094A195B09D801ED91FC910280B1
:10172000F381E02DB501C80109953C01620C731CE1
:1017300021CF8F929F92AF92BF92CF92DF92EF9282
:10174000FF920F931F93CF93DF93CDB7DEB7A1978F
:101750000FB6F894DEBF0FBECDBF7C01D42EE52FAF
:10176000CB012115310509F470C0C22E19A2B1E0D8
:10177000B21708F075C0822E912CA12CB12C8E01CD
:101780000F5D1F4F0BC0862FF80180832115310597
:1017900041055105E9F0D22EE32FCA016D2D7E2FB0
:1017A000A50194010E94802D8D2DC29E80191124C7
:1017B0000150110960E3680F97E3980F8A3018F31E
:1017C000892FF8018083211531054105510519F74D
:1017D000D8010D900020E9F7AD0141505109401B9F
:1017E000510BD701ED91FC910280F381E02DB801FE
:1017F000C70109958C01D701ED91FC910190F08111
:10180000E02D6DE0C70109955C01D701ED91FC91D8
:101810000190F081E02D6AE0C70109950A0D1B1DBA
:10182000800F911FA1960FB6F894DEBF0FBECDBFFB
:10183000DF91CF911F910F91FF90EF90DF90CF90AC
:10184000BF90AF909F908F900895D701ED91FC913C
:101850000190F081E02D642FC70109958C01CBCF59
:101860007AE0872E912CA12CB12CFAE0CF2E87CFD5
:101870001F920F920FB60F9211240BB60F922F9357
:101880003F934F935F936F937F938F939F93AF9308
:10189000BF93EF93FF938091E0039091E103892B35
:1018A00029F0E091E003F091E1030995FF91EF91B8
:1018B000BF91AF919F918F917F916F915F914F9168
:1018C0003F912F910F900BBE0F900FBE0F901F9066
:1018D00018951F920F920FB60F9211240BB60F920C
:1018E0002F933F934F935F936F937F938F939F9328
:1018F000AF93BF93EF93FF938091E2039091E30343
:10190000892B29F0E091E203F091E3030995FF911F
:10191000EF91BF91AF919F918F917F916F915F9167
:101920004F913F912F910F900BBE0F900FBE0F90D4
:101930001F9018951F920F920FB60F9211240BB69D
:101940000F922F933F934F935F936F937F938F9358
:101950009F93AF93BF93EF93FF938091E403909194
:10196000E503892B29F0E091E403F091E503099563
:10197000FF91EF91BF91AF919F918F917F916F9167
:101980005F914F913F912F910F900BBE0F900FBE23
:101990000F901F9018951F920F920FB60F9211245F
:1019A0000BB60F922F933F934F935F936F937F9359
:1019B0008F939F93AF93BF93EF93FF938091E60331
:1019C0009091E703892B29F0E091E603F091E7037A
:1019D0000995FF91EF91BF91AF919F918F917F9169
:1019E0006F915F914F913F912F910F900BBE0F9090
:1019F0000FBE0F901F9018951F920F920FB60F9267
:101A000011240BB60F922F933F934F935F936F93D5
:101A10007F938F939F93AF93BF93EF93FF938091A7
:101A2000E8039091E903892B29F0E091E803F09114
:101A3000E9030995FF91EF91BF91AF919F918F912C
:101A40007F916F915F914F913F912F910F900BBEBE
:101A50000F900FBE0F901F9018951F920F920FB608
:101A60000F9211240BB60F922F933F934F935F93D6
:101A70006F937F938F939F93AF93BF93EF93FF9356
:101A80008091EA039091EB03892B29F0E091EA031E
:101A9000F091EB030995FF91EF91BF91AF919F9169
:101AA0008F917F916F915F914F913F912F910F9007
:101AB0000BBE0F900FBE0F901F9018951F920F92A4
:101AC0000FB60F9211240BB60F922F933F934F93A3
:101AD0005F936F937F938F939F93AF93BF93EF9396
:101AE000FF938091EC039091ED03892B29F0E09115
:101AF000EC03F091ED030995FF91EF91BF91AF9148
:101B00009F918F917F916F915F914F913F912F9115
:101B10000F900BBE0F900FBE0F901F9018951F9245
:101B20000F920FB60F9211240BB60F922F933F9383
:101B30004F935F936F937F938F939F93AF93BF93D5
:101B4000EF93FF938091EE039091EF03892B29F09F
:101B5000E091EE03F091EF030995FF91EF91BF91B2
:101B6000AF919F918F917F916F915F914F913F9135
:101B70002F910F900BBE0F900FBE0F901F901895D6
:101B80001F920F920FB60F9211242F933F938F93B2
:101B90009F93AF93BF938091F1039091F203A09133
:101BA000F303B091F4033091F00323E0230F2D37BA
:101BB00068F126E8230F0296A11DB11D2093F003C2
:101BC0008093F1039093F203A093F303B093F40393
:101BD0008091F5039091F603A091F703B091F8037B
:101BE0000196A11DB11D8093F5039093F603A09378
:101BF000F703B093F803BF91AF919F918F913F91FD
:101C00002F910F900FBE0F901F9018950196A11D58
:101C1000B11DD4CF2FB7F8946091F1037091F20306
:101C20008091F3039091F4032FBF0895CF92DF9238
:101C3000EF92FF920F931F932FB7F894C090F10388
:101C4000D090F203E090F303F090F4032FBFEFB7CE
:101C5000F8940091F1031091F2032091F303309175
:101C6000F403EFBF0C191D092E093F096017710716
:101C70008207930760F71F910F91FF90EF90DF901D
:101C8000CF9008950197009751F0880F991F880F02
:101C9000991F02972FB7F8940197F1F72FBF089576
:101CA000789484B5886084BD84B5806484BD84B52F
:101CB000826084BD84B5816084BDEEE6F0E0808101
:101CC00081608083EAE7F0E08081846080838081A6
:101CD000826080838081816080838081806880834E
:101CE0001092C10008959FB7F8948091F903811173
:101CF0000CC0289A209A8CB580618CBD8CB580640C
:101D00008CBD219A229A8091F9038F5F8093F90309
:101D10009FBF08951F920F920FB60F9211240BB61A
:101D20000F922F933F934F935F936F937F938F9374
:101D30009F93AF93BF93EF93FF93E091FA03F091DA
:101D4000FB03309781F080917800209179006381C6
:101D5000748190E00180F281E02D922B0995109220
:101D6000FB031092FA03FF91EF91BF91AF919F9106
:101D70008F917F916F915F914F913F912F910F9034
:101D80000BBE0F900FBE0F901F9018951F920F92D1
:101D90000FB60F9211240BB60F927F928F929F92E3
:101DA000AF92BF92CF92DF92EF92FF920F931F9369
:101DB0002F933F934F935F936F937F938F939F9353
:101DC000AF93BF93EF93FF93CF93DF93CDB7DEB77E
:101DD0006197DEBFCDBFF090ED00B0EE7B2E10ED31
:101DE000C12E00ECD02E80EBE82E00EA10E9F0E8DE
:101DF000E0E770E660E550E440E330E220E106C051
:101E00001092ED008091EE0085FD15C09091E000EC
:101E10008091E100892B09F49FC08091E00080FD52
:101E2000EFCF8091E00081FF82C02093ED00809190
:101E3000EE0085FFEBCF1092EE008AE090E08C0F71
:101E40009D1F998788878091FA008A878091FA0080
:101E50008B878091FA008C878091FA008D87809122
:101E6000FA008E878091FA008F878091FA00888B24
:101E70008091FA00898B8091EF008F708D83809123
:101E8000EF00829581708F839091F00092FB9927EB
:101E900090F99E83882309F49DC04091F3008091BE
:101EA000F2008090F1002091F00090E0982F8827B8
:101EB0009295990F907EAA2797FDA095BA2F30E2B0
:101EC000839E40011124AA2497FCA094BA2C880D6B
:101ED000991DAA1DBB1D50E060E070E0E5E1440FD4
:101EE000551F661F771FEA95D1F7840F951FA61F10
:101EF000B71F422F50E055954795559547955595F5
:101F00004795662757FD6095762F840F951FA61F6E
:101F1000B71F89839A83AB83BC836091ED00E09106
:101F2000FC03F091FD03CE010196099560CF8091ED
:101F3000E00082FF03C03093ED0064CF8091E000A9
:101F400083FF03C04093ED005DCF8091E00084FFEC
:101F50002BC05093ED0056CFF092ED0061960FB676
:101F6000F894DEBF0FBECDBFDF91CF91FF91EF910F
:101F7000BF91AF919F918F917F916F915F914F91A1
:101F80003F912F911F910F91FF90EF90DF90CF9095
:101F9000BF90AF909F908F907F900F900BBE0F904F
:101FA0000FBE0F901F9018958091E00085FF03C031
:101FB0006093ED0027CF8091E00086FD22C08091E4
:101FC000E00087FD2FC08091E10080FF1DC0F093ED
:101FD000ED0018CF2091F3008091F20090E09595EC
:101FE00087959595879595958795959587959595D9
:101FF000879538E0239F800D911D11249A83898352
:102000008CCF7093ED00FECE8091E10081FD07C082
:102010008091E10082FF09C00093ED00F3CE1093A0
:10202000ED00F0CEE093ED00EDCE8091E10083FF76
:1020300003C0E092ED00E6CE8091E10084FF03C092
:10204000D092ED00DFCE8091E10085FF03C0C09209
:10205000ED00D8CE8091E10086FFD4CE7092ED00E5
:10206000D1CE9C014091110414169CF4E42FFF275B
:10207000E7FDF095E250FC4F6091120470E080E0C3
:1020800094E00E946D2DC9010E94592D608341305A
:1020900009F0089582E0809311044093100408959C
:1020A00088E08093010410920304109202041092BD
:1020B0000504109204048093060410920804109200
:1020C000070410920A041092090480930B041092E2
:1020D0000D0410920C0410920F0410920E04109232
:1020E000FB031092FA0308951F920F920FB60F92FE
:1020F00011248F93809115048F5F80931504809134
:1021000015048D3328F01092150482E08093160494
:102110008F910F900FBE0F901F9018951F920F92E6
:102120000FB60F9211242F933F938F939F93CF93CA
:10213000DF93CDB7DEB72897DEBFCDBF8091140403
:102140008F5F80931404809113048F5F8093130436
:10215000809114048330C8F4809113048E3120F0F0
:102160001092130410925A0428960FB6F894DEBF0A
:102170000FBECDBFDF91CF919F918F913F912F9156
:102180000F900FBE0F901F9018951092140486B1F7
:102190008983809100048C839091FF039B8320911D
:1021A000FE032A8330915904831709F44BC031E0B0
:1021B00030935A0432E030935B041092130420935E
:1021C0005704909358048093590480E58093ED0060
:1021D0008EE18093F30080EA8093F2001092F10088
:1021E0001092F00088E08093EF008091F0008093DF
:1021F000F0001092EE0089818093FA008A8180932A
:10220000FA008B818093FA008C818093FA008D8193
:102210008093FA008E818093FA008F818093FA0078
:1022200088858093FA008091EF0080648093EF00AE
:102230008091110487FF90CF1092110481E0809368
:1022400010048ACF30915804931741F031E0309355
:102250005A0430935B0410921304B1CF30915704A9
:10226000231709F4ACCF31E030935A0410925B0489
:1022700010921304A4CF10925C0410925E0410928A
:102280005F0410926004109261048FEF9FEF9093AF
:1022900063048093620410926804109267048CEFC8
:1022A0009FE090936A048093690487E080936404BC
:1022B00081E08093650410925D040895CF92DF92CF
:1022C000EF92FF92CF93DF93CDB7DEB7A9970FB60A
:1022D000F894DEBF0FBECDBF10921504DC012D9126
:1022E0003C91223F310509F47FC208F051C0203FE4
:1022F000310509F4CEC1213F3105E9F5DC0117961E
:10230000ED91FC911897208181819281A381B48104
:10231000358130935104209356048A879B87AC877C
:10232000BD878D8589838C858A838B858B838A8500
:102330008C8389819A81AB81BC8180935204909374
:102340005304A0935404B093550449E050E065EA67
:1023500070E0CE0101960E94EC2E80E48093ED00A7
:102360001092EE008F818111C1C090E88D818F7035
:10237000892B8093EF00A9960FB6F894DEBF0FBEAD
:10238000CDBFDF91CF91FF90EF90DF90CF90089578
:10239000233F310509F4ACC0243F310561F7DC016E
:1023A0001796ED91FC9118974281538124813581D4
:1023B000808191819B8B8A8B8B8989838A898A838F
:1023C00069817A816B01CC24B0E8DB22E12CF12C0D
:1023D0007601DD24CC24CB0188279C77892B09F456
:1023E000D7C2CB019F77A0E0B0E06DE0880F991FC6
:1023F000AA1FBB1F6A95D1F7B85C8C299D29AE290D
:10240000BF298093370490933804A0933904B09384
:102410003A04598B488B8989898388898A83E98121
:10242000FA81AF014427507860E070E0BA01552787
:102430004427CF0188279C77892B09F4A5C2CF01B7
:102440009F77A0E0B0E0EDE0880F991FAA1FBB1FA7
:10245000EA95D1F7B85C842B952BA62BB72B8093EC
:102460003B0490933C04A0933D04B0933E043F870B
:102470002E878F8589838E858A8329813A81A90158
:102480004427507860E070E0BA0155274427C9011D
:1024900088279C77892B09F49FC2C9019F77A0E008
:1024A000B0E0EDE0880F991FAA1FBB1FEA95D1F796
:1024B000B85C842B952BA62BB72B80934704909365
:1024C0004804A0934904B0934A0449E050E067EB04
:1024D00070E0CE0101960E94EC2E80E38093ED0027
:1024E0001092EE008F81882309F43FCF90E93ECF10
:1024F000DC011796ED91FC911897628173814481FC
:10250000558126813781808191819B8F8A8F8B8D28
:1025100089838A8D8A83E981FA816F01CC24B0E8AE
:10252000DB22E12CF12C7601DD24CC24CF0188279D
:102530009C77892B09F44CC2CF019F77A0E0B0E0D3
:10254000FDE0880F991FAA1FBB1FFA95D1F7B85C51
:102550008C299D29AE29BF2980934B0490934C046C
:10256000A0934D04B0934E04798F688F898D898331
:10257000888D8A8369817A816B01CC24E0E8DE2230
:10258000E12CF12C7601DD24CC24CB0188279C772B
:10259000892B09F419C2CB019F77A0E0B0E06DE070
:1025A000880F991FAA1FBB1F6A95D1F7B85C8C29A9
:1025B0009D29AE29BF298093330490933404A093BE
:1025C0003504B09336045F8B4E8B8F8989838E8957
:1025D0008A83E981FA81AF014427507860E070E096
:1025E000BA0155274427CF0188279C77892B09F406
:1025F000E7C1CF019F77A0E0B0E0EDE0880F991F21
:10260000AA1FBB1FEA95D1F7B85C842B952BA62B8C
:10261000B72B80933F0490934004A0934104B09360
:1026200042043D8B2C8B8D8989838C898A832981F7
:102630003A81A9014427507860E070E0BA0155273B
:102640004427C90188279C77892B09F4B5C1C901A2
:102650009F77A0E0B0E0FDE0880F991FAA1FBB1F85
:10266000FA95D1F7B85C842B952BA62BB72B8093CA
:10267000430490934404A0934504B093460449E076
:1026800050E069EC70E0CE0101960E94EC2E80E2F1
:1026900065CEDC011796ED91FC91189760818181E0
:1026A000928143815481258136816093160499A7D4
:1026B00088A789A5898388A58A8369817A816B0126
:1026C000CC24B0E8DB22E12CF12C7601DD24CC24F3
:1026D000CB0188279C77892B09F48AC1CB019F778E
:1026E000A0E0B0E06DE0880F991FAA1FBB1F6A959C
:1026F000D1F7B85C8C299D29AE29BF298093270486
:1027000090932804A0932904B0932A045FA34EA3B6
:102710008FA189838EA18A83E981FA81AF01442741
:10272000507860E070E0BA0155274427CF01882730
:102730009C77892B09F458C1CF019F77A0E0B0E0C6
:10274000FDE0880F991FAA1FBB1FFA95D1F7B85C4F
:10275000842B952BA62BB72B80931F0490932004DA
:10276000A0932104B09322043DA32CA38DA18983BF
:102770008CA18A8329813A81A9014427507860E09D
:1027800070E0BA0155274427C90188279C77892B17
:1027900009F426C1C9019F77A0E0B0E02DE0880FC1
:1027A000991FAA1FBB1F2A95D1F7B85C842B952BC4
:1027B000A62BB72B8093230490932404A093250485
:1027C000B093260449E050E06DEE70E0CE01019632
:1027D0000E94EC2E1092ED001092EE008F81882363
:1027E00009F4C3CD90E9C2CDDC011796ED91FC91BF
:1027F0001897628173814481558126813781808158
:1028000091819BA38AA38BA189838AA18A83E98171
:10281000FA816F01CC24B0E8DB22E12CF12C7601A7
:10282000DD24CC24CF0188279C77892B09F4C0C0F4
:10283000CF019F77A0E0B0E0FDE0880F991FAA1FAD
:10284000BB1FFA95D1F7B85C8C299D29AE29BF2909
:102850008093170490931804A0931904B0931A045A
:1028600079A368A389A1898388A18A8369817A81F0
:102870006B01CC24E0E8DE22E12CF12C7601DD2492
:10288000CC24CB0188279C77892B09F48DC0CB0100
:102890009F77A0E0B0E06DE0880F991FAA1FBB1FD3
:1028A0006A95D1F7B85C8C299D29AE29BF29809300
:1028B0001B0490931C04A0931D04B0931E045F8F0F
:1028C0004E8F8F8D89838E8D8A83E981FA81AF0146
:1028D0004427507860E070E0BA0155274427CF01C3
:1028E00088279C77892B09F45BC0CF019F77A0E0F4
:1028F000B0E0FDE0880F991FAA1FBB1FFA95D1F722
:10290000B85C842B952BA62BB72B80932B0490932C
:102910002C04A0932D04B0932E043D8F2C8F8D8D0D
:1029200089838C8D8A8329813A81A9014427507833
:1029300060E070E0BA0155274427C90188279C77D9
:10294000892B51F1C9019F77A0E0B0E02DE0880FFD
:10295000991FAA1FBB1F2A95D1F7B85C842B952B12
:10296000A62BB72B80932F0490933004A0933104AF
:10297000B093320449E050E06BED70E0CE01019677
:102980000E94EC2E80E1EACC80E090E0DC0163CD97
:1029900080E090E0DC0131CD80E090E0DC01DECF32
:1029A00080E090E0DC01ADCF80E090E0DC017BCF07
:1029B00080E090E0DC0148CF80E090E0DC0153CE85
:1029C00080E090E0DC0121CE80E090E0DC01EFCD02
:1029D00080E090E0DC01BCCD80E090E0DC0169CDDE
:1029E00080E090E0DC01E2CE80E090E0DC01B0CE5F
:1029F00080E090E0DC017ECEFC01818181115CC031
:102A000093858485289820E92EBD00000DB407FE2B
:102A1000FDCF2EB524E22EBD00000DB407FEFDCF84
:102A20002EB528EE2EBD00000DB407FEFDCF2EB54D
:102A30009EBD00000DB407FEFDCF9EB58EBD00000B
:102A40000DB407FEFDCF8EB5289AA4EE74E260E1C6
:102A500028986EBD00000DB407FEFDCF8EB57EBD7B
:102A600000000DB407FEFDCF8EB5AEBD00000DB465
:102A700007FEFDCF8EB51EBC00000DB407FEFDCFD6
:102A80008EB51EBC00000DB407FEFDCF9EB51EBC6A
:102A900000000DB407FEFDCF8EB5289A292F382FE0
:102AA000438554854217530729F02F3F3F4081F655
:102AB00082E3089580E00895289A438554852898F4
:102AC00080E98EBD00000DB407FEFDCF8EB584E217
:102AD0008EBD00000DB407FEFDCF8EB588EE8EBD15
:102AE00000000DB407FEFDCF8EB54EBD00000DB445
:102AF00007FEFDCF8EB55EBD00000DB407FEFDCF15
:102B00008EB51EBC00000DB407FEFDCF8EB51EBCF9
:102B100000000DB407FEFDCF8EB5289A118270CF4C
:102B2000CF93FC01CB01258536852617370708F0A2
:102B300071C02181211174C033852485289840E912
:102B40004EBD00000DB407FEFDCF4EB544E24EBDB4
:102B500000000DB407FEFDCF4EB548EE4EBD00009F
:102B60000DB407FEFDCF4EB53EBD00000DB407FE0F
:102B7000FDCF3EB52EBD00000DB407FEFDCF2EB536
:102B8000289A258536852817390708F040C0C4EEF5
:102B9000B4E2A0E16CEF7FE02898AEBD00000DB478
:102BA00007FEFDCF2EB5BEBD00000DB407FEFDCF64
:102BB0002EB5CEBD00000DB407FEFDCF2EB51EBC58
:102BC00000000DB407FEFDCF2EB51EBC00000DB4F5
:102BD00007FEFDCF3EB51EBC00000DB407FEFDCFC5
:102BE0002EB5289A432F522F4F3F2FE05207A9F0BE
:102BF00023853485241B350B2C7F3F70AB01421B92
:102C0000530B568745874817590708F4C5CF81816C
:102C100081113BC080E0CF91089582E3CF91089568
:102C2000289A43855485289820E92EBD00000DB4CC
:102C300007FEFDCF2EB524E22EBD00000DB407FE29
:102C4000FDCF2EB528EE2EBD00000DB407FEFDCF42
:102C50002EB54EBD00000DB407FEFDCF2EB55EBDF6
:102C600000000DB407FEFDCF2EB51EBC00000DB454
:102C700007FEFDCF2EB51EBC00000DB407FEFDCF34
:102C80002EB5289A21E0218357CF4385548560E0F3
:102C900070E050586F4E7F4F2898862F80688EBD09
:102CA00000000DB407FEFDCF8EB55EBD00000DB473
:102CB00007FEFDCF8EB54EBD00000DB407FEFDCF63
:102CC0008EB581E08183A6CF6F927F928F929F9283
:102CD000AF92BF92CF92DF92EF92FF920F931F932A
:102CE000CF93DF9300D000D0CDB7DEB78C013B018E
:102CF0002D5F3F4F4F4F5F4F2C7F21153105410511
:102D0000510509F440C0F8EEDF2EA4E2EA2EB0E946
:102D1000FB2ECC24C394D8011D968D919C911E97B7
:102D2000A0E0B0E082179307A407B50708F43FC0FE
:102D300080E090E0DC01F301E80FF91FE491EEBDC3
:102D400000000DB407FEFDCF6EB50196A11DB11DAB
:102D500082179307A407B50770F3D8011B968D91CE
:102D60009C911C97820F931F9F701C969C938E932F
:102D70001B971D968D919C911E97821B930B1E96FF
:102D80009C938E931D9780E00F900F900F900F9063
:102D9000DF91CF911F910F91FF90EF90DF90CF9037
:102DA000BF90AF909F908F907F906F900895F801A3
:102DB000818181118FC0F801938584852898FEBC9C
:102DC00000000DB407FEFDCF6EB5EEBC00000DB4E3
:102DD00007FEFDCF6EB5DEBC00000DB407FEFDCFD3
:102DE0006EB59EBD00000DB407FEFDCF9EB58EBD35
:102DF00000000DB407FEFDCF8EB5289AD8011D96B0
:102E0000ED91FC911E974F01A12CB12CDA01C90163
:102E100082169306A406B50610F4D501C4010097E6
:102E2000A105B10509F4CFC0812C912C5401F30107
:102E3000E80DF91DE491EEBD00000DB407FEFDCFD5
:102E40006EB5EFEF8E1A9E0AAE0ABE0A8816990674
:102E5000AA06BB0661F74C015D01F1E08F1A9108EB
:102E6000A108B108B4016F5F7F4F660E771EF801AD
:102E7000A584B684F80163857485680F791F7F7017
:102E800074876387A81AB90AB686A586281B390BEA
:102E90004A0B5B0B922F832F2130F8E03F0741054F
:102EA000510510F090E088E0692F782FC801298340
:102EB0003A834B835C8334DE29813A814B815C8188
:102EC000823309F482C0211531054105510509F00D
:102ED00022CF59CF289A838594852898FEBC00007C
:102EE0000DB407FEFDCF6EB5EEBC00000DB407FEBD
:102EF000FDCF6EB5DEBC00000DB407FEFDCF6EB594
:102F00008EBD00000DB407FEFDCF6EB59EBD000066
:102F10000DB407FEFDCF8EB51EBC00000DB407FE3C
:102F2000FDCF8EB51EBC00000DB407FEFDCF8EB5E3
:102F3000289AD80111961C9211971B969C911B9769
:102F40001C968C912898FEBC00000DB407FEFDCFA6
:102F50006EB5EEBC00000DB407FEFDCF6EB5DEBC55
:102F600000000DB407FEFDCF6EB59EBD00000DB490
:102F700007FEFDCF9EB58EBD00000DB407FEFDCF50
:102F80008EB5289AF80183859485A0E0B0E090582A
:102F9000AF4EBF4F28986A2F60686EBD00000DB419
:102FA00007FEFDCF6EB59EBD00000DB407FEFDCF40
:102FB0006EB58EBD00000DB407FEFDCF8EB5D801F5
:102FC0001196CC921BCF5F0155CF82E3DDCE0F93DC
:102FD0001F93CF93DF938B01D82FC92F20915D04CE
:102FE000222309F442C02091690430916A042430FC
:102FF000310570F10EBD00000DB407FEFDCF8EB59A
:103000001EBD00000DB407FEFDCF8EB5DEBD000075
:103010000DB407FEFDCF8EB5CEBD00000DB407FE8A
:10302000FDCF8EB5809167049091680404969F70DF
:1030300090936804809367042450310930936A04A4
:103040002093690480E0DF91CF911F910F91089543
:1030500064E070E08CE594E063DD823309F49BC0AA
:103060002091690430916A04C5CFE0916704F09122
:103070006804AF0160E070E050586F4E7F4F2898B1
:10308000862F80688EBD00000DB407FEFDCF8EB583
:103090005EBD00000DB407FEFDCF8EB54EBD000035
:1030A0000DB407FEFDCF8EB581E080935D042091C5
:1030B000690430916A042430310580F464E070E0E2
:1030C0008CE594E02DDD823309F46BC0E091670458
:1030D000F09168042091690430916A040EBD0000EB
:1030E0000DB407FEFDCF8EB51EBD00000DB407FE6A
:1030F000FDCF8EB5DEBD00000DB407FEFDCF8EB551
:10310000CEBD00000DB407FEFDCF8EB53496FF7026
:10311000F0936804E09367042450310930936A0403
:103120002093690480E0289AAF01289890E99EBD19
:1031300000000DB407FEFDCF9EB594E29EBD0000D9
:103140000DB407FEFDCF9EB598EE9EBD00000DB4F8
:1031500007FEFDCF9EB54EBD00000DB407FEFDCFAE
:103160009EB55EBD00000DB407FEFDCF9EB51EBC32
:1031700000000DB407FEFDCF9EB51EBC00000DB4CF
:1031800007FEFDCF9EB5289A10925D04DF91CF9186
:103190001F910F91089582E3DF91CF911F910F91BD
:1031A000089582E3E0916704F0916804BCCFCF9268
:1031B000DF92EF92FF920F931F93CF93DF9300D094
:1031C000CDB7DEB76C017B01FC018181882309F456
:1031D00041C0F60185859685049780F14EBD0000BB
:1031E0000DB407FEFDCF8EB55EBD00000DB407FE29
:1031F000FDCF8EB5EEBC00000DB407FEFDCF8EB541
:10320000FEBC00000DB407FEFDCF8EB5F601838530
:10321000948504969F709487838785859685049707
:103220009687858780E00F900F90DF91CF911F9157
:103230000F91FF90EF90DF90CF90089564E070E0E1
:10324000C60149835A836CDC49815A81823331F645
:1032500082E3E9CF0385148520E030E010582F4E3B
:103260003F4F2898822F80688EBD00000DB407FE66
:10327000FDCF8EB51EBD00000DB407FEFDCF8EB58F
:103280000EBD00000DB407FEFDCF8EB581E0F60146
:10329000818385859685049760F464E070E0C601BB
:1032A00049835A833DDC49815A81823311F482E398
:1032B00025C04EBD00000DB407FEFDCF8EB55EBD2E
:1032C00000000DB407FEFDCF8EB5EEBC00000DB4BE
:1032D00007FEFDCF8EB5FEBC00000DB407FEFDCF8E
:1032E0008EB5F6018385948504969F7094878387B5
:1032F0008585968504979687858780E0289AF601CC
:1033000043855485289890E99EBD00000DB407FEC2
:10331000FDCF9EB594E29EBD00000DB407FEFDCF2B
:103320009EB598EE9EBD00000DB407FEFDCF9EB584
:103330004EBD00000DB407FEFDCF9EB55EBD000082
:103340000DB407FEFDCF9EB51EBC00000DB407FEF8
:10335000FDCF9EB51EBC00000DB407FEFDCF9EB58F
:10336000289AF60111825FCF6F927F928F929F927F
:10337000AF92BF92CF92DF92EF92FF920F931F9383
:10338000CF93DF9300D000D0CDB7DEB73C018B01E7
:103390002D5F3F4F4F4F5F4F2C7F2115310541056A
:1033A0005105E9F188EED82E94E2E92E60E9F62E77
:1033B000CC24C394D3011D968D919C911E97A0E0BF
:1033C000B0E082179307A407B507E8F1F80180E0A1
:1033D00090E0DC0161916EBD00000DB407FEFDCFF1
:1033E0006EB50196A11DB11D82179307A407B507FD
:1033F00088F3D3011B968D919C911C97820F931F8C
:103400009F701C969C938E931B971D968D919C91FB
:103410001E97821B930B1E969C938E931D9780E0A4
:103420000F900F900F900F90DF91CF911F910F9100
:10343000FF90EF90DF90CF90BF90AF909F908F90D4
:103440007F906F900895F301818181118DC0F30108
:10345000938584852898FEBC00000DB407FEFDCF3F
:103460006EB5EEBC00000DB407FEFDCF6EB5DEBC40
:1034700000000DB407FEFDCF6EB59EBD00000DB47B
:1034800007FEFDCF9EB58EBD00000DB407FEFDCF3B
:103490008EB5289AD3011D96ED91FC911E974F0190
:1034A000A12CB12CDA01C90182169306A406B50637
:1034B00010F4D501C4010097A105B10509F4CDC0F0
:1034C000F801812C912C540161916EBD00000DB466
:1034D00007FEFDCF6EB56FEF861A960AA60AB60AEA
:1034E00088169906AA06BB0679F74C015D01E1E052
:1034F0008E1A9108A108B108B4016F5F7F4F060FC3
:10350000171FF301A584B684F30163857485680FE2
:10351000791F7F7074876387A81AB90AB686A58653
:10352000281B390B4A0B5B0B922F832F2130F8E0BD
:103530003F074105510510F090E088E0692F782F92
:10354000C30129833A834B835C83EADA29813A8178
:103550004B815C81823309F482C02115310541051C
:10356000510509F027CF5BCF289A83859485289849
:10357000FEBC00000DB407FEFDCF6EB5EEBC000032
:103580000DB407FEFDCF6EB5DEBC00000DB407FE26
:10359000FDCF6EB58EBD00000DB407FEFDCF6EB53C
:1035A0009EBD00000DB407FEFDCF8EB51EBC000011
:1035B0000DB407FEFDCF8EB51EBC00000DB407FE96
:1035C000FDCF8EB5289AD30111961C9211971B96A8
:1035D0009C911B971C968C912898FEBC00000DB402
:1035E00007FEFDCF6EB5EEBC00000DB407FEFDCFAB
:1035F0006EB5DEBC00000DB407FEFDCF6EB59EBDFE
:1036000000000DB407FEFDCF9EB58EBD00000DB4C9
:1036100007FEFDCF8EB5289AF30183859485A0E03F
:10362000B0E09058AF4EBF4F28986A2F60686EBDCB
:1036300000000DB407FEFDCF6EB59EBD00000DB4B9
:1036400007FEFDCF6EB58EBD00000DB407FEFDCFA9
:103650008EB5D3011196CC921DCF5F0155CF82E379
:10366000DFCE8F929F92AF92BF92CF92DF92EF9276
:10367000FF920F931F93CF93DF931F92CDB7DEB7C7
:103680004C016B015A014CE05FEF6FEF7FEF298334
:103690008EDDA501662757FD6095762FBA01552767
:1036A0004427C601A0E0B0E0482B592B6A2B7B2BA6
:1036B000C4017DDDA80160E070E0BA015527442710
:1036C0002981422BC40173DDF70101900020E9F745
:1036D000EE19FF099F0140E050E0F4018181882349
:1036E00081F0B701C4010F90DF91CF911F910F912D
:1036F000FF90EF90DF90CF90BF90AF909F908F9012
:1037000033CE83859485A0E0B0E09058AF4EBF4F94
:1037100028986A2F60686EBD00000DB407FEFDCFCB
:103720006EB59EBD00000DB407FEFDCF6EB58EBD1B
:1037300000000DB407FEFDCF8EB581E0F40181835A
:10374000B701C40111DE289AF401438554852898F5
:1037500090E99EBD00000DB407FEFDCF9EB594E23A
:103760009EBD00000DB407FEFDCF9EB598EE9EBD38
:1037700000000DB407FEFDCF9EB54EBD00000DB498
:1037800007FEFDCF9EB55EBD00000DB407FEFDCF68
:103790009EB51EBC00000DB407FEFDCF9EB51EBC3D
:1037A00000000DB407FEFDCF9EB5289AF4011182EA
:1037B0000F90DF91CF911F910F91FF90EF90DF90CD
:1037C000CF90BF90AF909F908F9008950F931F93CD
:1037D000CF93DF93CDB7DEB7C054D1090FB6F894BD
:1037E000DEBF0FBECDBF9E012E5A3F4F62964EAD3B
:1037F0005FAD629760E470E08E010F5F1F4FC801FC
:103800000E94532F4CE05FEF6FEF7FEF8CE594E069
:10381000CEDC2B964EAD5FAD2B9760E070E02D9621
:103820008EAD9FAD2D97AA2797FDA095BA2FDC01ED
:1038300099278827482B592B6A2B7B2B8CE594E002
:10384000B6DC60964EAD5FAD609760E070E0BA01A7
:10385000552744272E968FAD2E97482B8CE594E064
:10386000A6DCF80101900020E9F7E01BF10B9F01B5
:1038700040E050E080915D04882381F0B8018CE540
:1038800094E072DDC05CDF4F0FB6F894DEBF0FBE70
:10389000CDBFDF91CF911F910F9108958091670463
:1038A00090916804A0E0B0E09058AF4EBF4F2898C8
:1038B0006A2F60686EBD00000DB407FEFDCF6EB5C7
:1038C0009EBD00000DB407FEFDCF6EB58EBD00009D
:1038D0000DB407FEFDCF8EB581E080935D04B80185
:1038E0008CE594E041DD289A40916704509168048A
:1038F000289890E99EBD00000DB407FEFDCF9EB54F
:1039000094E29EBD00000DB407FEFDCF9EB598EE7B
:103910009EBD00000DB407FEFDCF9EB54EBD00005C
:103920000DB407FEFDCF9EB55EBD00000DB407FED1
:10393000FDCF9EB51EBC00000DB407FEFDCF9EB5A9
:103940001EBC00000DB407FEFDCF9EB5289A109254
:103950005D0498CFEF92FF920F931F93CF93DF9365
:10396000CDB7DEB7C058D1090FB6F894DEBF0FBE91
:10397000CDBFC757DF4F08811981C958D040CE56F7
:10398000DF4F68817981C259D040CE0101960E94F3
:10399000F52E7E0181E4E80EF11C9E012C563F4F6E
:1039A000AE014F5F5F4F60E470E0C7010E94532F8C
:1039B0004CE05FEF6FEF7FEFC801F9DBC557DF4FDA
:1039C00048815981CB58D04060E070E0C357DF4F49
:1039D00088819981CD58D040AA2797FDA095BA2F0C
:1039E000DC0199278827482B592B6A2B7B2BC80190
:1039F000DEDBC057DF4F48815981C059D04060E0BD
:103A000070E0BA0155274427C157DF4F8881CF584E
:103A1000D040482BC801CBDBF70101900020E9F72B
:103A2000EE19FF099F0140E050E0F80181818823F1
:103A300089F0B701C80198DCC058DF4F0FB6F89481
:103A4000DEBF0FBECDBFDF91CF911F910F91FF90D1
:103A5000EF90089583859485A0E0B0E09058AF4E34
:103A6000BF4F28986A2F60686EBD00000DB407FE36
:103A7000FDCF6EB59EBD00000DB407FEFDCF6EB547
:103A80008EBD00000DB407FEFDCF8EB581E0F801BC
:103A90008183B701C80168DC289AF8014385548501
:103AA000289890E99EBD00000DB407FEFDCF9EB59D
:103AB00094E29EBD00000DB407FEFDCF9EB598EECA
:103AC0009EBD00000DB407FEFDCF9EB54EBD0000AB
:103AD0000DB407FEFDCF9EB55EBD00000DB407FE20
:103AE000FDCF9EB51EBC00000DB407FEFDCF9EB5F8
:103AF0001EBC00000DB407FEFDCF9EB5289AF8014C
:103B000011829ACF4F925F926F927F928F929F9283
:103B1000AF92BF92CF92DF92EF92FF921F93CF931B
:103B2000DF93CDB7DEB72C970FB6F894DEBF0FBE8C
:103B3000CDBF2C018CE0EAE0F1E0DE0111960190AE
:103B40000D928A95E1F78CB58C7F8CBD8DB5816027
:103B50008DBD28981EBC00000DB407FEFDCF8EB5AC
:103B60001EBC00000DB407FEFDCF8EB51EBC0000CC
:103B70000DB407FEFDCF8EB51EBC00000DB407FED0
:103B8000FDCF8EB51EBC00000DB407FEFDCF8EB577
:103B9000289A64E170E080E090E00E94160E64E1F3
:103BA00070E080E090E00E94160E10E098E0692E30
:103BB00024E2722E30E1832E4CE6942E55E2A52E9F
:103BC00060E9B62E28988EBC00000DB407FEFDCF2C
:103BD0008EB57EBC00000DB407FEFDCF8EB56EBC69
:103BE00000000DB407FEFDCF8EB51EBC00000DB465
:103BF00007FEFDCF8EB51EBC00000DB407FEFDCF45
:103C00004EB51EBC00000DB407FEFDCF3EB51EBC78
:103C100000000DB407FEFDCF9EB51EBC00000DB424
:103C200007FEFDCF8EB5289AC42ED32EE92EF82E8E
:103C300089E09DE30E94420E28988EBC00000DB4DE
:103C400007FEFDCF8EB57EBC00000DB407FEFDCF94
:103C50008EB56EBC00000DB407FEFDCF8EB51EBC48
:103C600000000DB407FEFDCF8EB51EBC00000DB4E4
:103C700007FEFDCFEEB51EBC00000DB407FEFDCF64
:103C80003EB51EBC00000DB407FEFDCF9EB51EBCA8
:103C900000000DB407FEFDCF8EB5289A4E2F532F8E
:103CA000692F782F4C195D096E097F09440F551F44
:103CB000661F771F440F551F661F771F440F551F40
:103CC000661F771F440F551F661F771F440F551F30
:103CD000661F771F440F551F661F771F411586EC1F
:103CE00058078DEC680782E07807F0F42898BEBC8E
:103CF00000000DB407FEFDCF8EB5AEBC00000DB4C4
:103D000007FEFDCF8EB59EBC00000DB407FEFDCFB3
:103D10008EB51EBD00000DB407FEFDCF8EB5289AEE
:103D20001F5F1F3109F04ECF289880E98EBD00003B
:103D30000DB407FEFDCF8EB584E28EBD00000DB43C
:103D400007FEFDCF8EB58CE08EBD00000DB407FEE2
:103D5000FDCF8EB54EBD00000DB407FEFDCF8EB574
:103D60005EBD00000DB407FEFDCF8EB56EBD000038
:103D70000DB407FEFDCF8EB57EBD00000DB407FE6D
:103D8000FDCF8EB5289A289880E98EBD00000DB42D
:103D900007FEFDCF8EB51EBC00000DB407FEFDCFA3
:103DA0008EB51EBC00000DB407FEFDCF8EB5FE0122
:103DB0003196CE010D9621912EBD00000DB407FE67
:103DC000FDCF2EB5E817F907B1F7289A289880E9B2
:103DD0008EBD00000DB407FEFDCF8EB584E28EBD12
:103DE00000000DB407FEFDCF8EB580E58EBD00004E
:103DF0000DB407FEFDCF8EB582E08EBD00000DB480
:103E000007FEFDCF8EB5289AF201148613868CEF3B
:103E10009FE0968785872C960FB6F894DEBF0FBE7D
:103E2000CDBFDF91CF911F91FF90EF90DF90CF90AA
:103E3000BF90AF909F908F907F906F905F904F90CA
:103E40000895CF92DF92EF92FF920F931F93CF933B
:103E5000DF93CDB7DEB76F970FB6F894DEBF0FBE16
:103E6000CDBF40E051EE60E070E08BEB92E00E944D
:103E700071088091620490916304019619F08DB1EC
:103E8000887F8DB984B1856084B9289A0E94730EA9
:103E90008CB58C7F8CBD8DB581608DBD8CB58F7DD3
:103EA0008CBD8CB5837F8CBD8CE594E02BDE28988F
:103EB00080E98EBD00000DB407FEFDCF8EB584E213
:103EC0008EBD00000DB407FEFDCF8EB588E48EBD1B
:103ED00000000DB407FEFDCF8EB51EBC00000DB472
:103EE00007FEFDCF8EB51EBC00000DB407FEFDCF52
:103EF0008EB5289A289880E98EBD00000DB407FE83
:103F0000FDCF8EB584E28EBD00000DB407FEFDCF5F
:103F10008EB58CE48EBD00000DB407FEFDCF8EB5CE
:103F20008AE08EBD00000DB407FEFDCF8EB51EBC2D
:103F300000000DB407FEFDCF8EB5289A289880E9C1
:103F40008EBD00000DB407FEFDCF8EB584E28EBDA0
:103F500000000DB407FEFDCF8EB580E48EBD0000DD
:103F60000DB407FEFDCF8EB58CE08EBD00000DB404
:103F700007FEFDCF8EB51EBC00000DB407FEFDCFC1
:103F80008EB5289A289880E98EBD00000DB407FEF2
:103F9000FDCF8EB584E28EBD00000DB407FEFDCFCF
:103FA0008EB58CE38EBD00000DB407FEFDCF8EB53F
:103FB00084E28EBD00000DB407FEFDCF8EB581E01A
:103FC0008EBD00000DB407FEFDCF8EB5289A28984F
:103FD00080E98EBD00000DB407FEFDCF8EB584E2F2
:103FE0008EBD00000DB407FEFDCF8EB584E38EBDFF
:103FF00000000DB407FEFDCF8EB51EBC00000DB451
:1040000007FEFDCF8EB51EBC00000DB407FEFDCF30
:104010008EB5289A289880E98EBD00000DB407FE61
:10402000FDCF8EB584E28EBD00000DB407FEFDCF3E
:104030008EB588E38EBD00000DB407FEFDCF8EB5B2
:1040400089E28EBD00000DB407FEFDCF8EB51EBC0B
:1040500000000DB407FEFDCF8EB5289A289880E9A0
:104060008EBD00000DB407FEFDCF8EB584E28EBD7F
:1040700000000DB407FEFDCF8EB58CE28EBD0000B2
:104080000DB407FEFDCF8EB58BE28EBD00000DB4E2
:1040900007FEFDCF8EB51EBC00000DB407FEFDCFA0
:1040A0008EB5289A289880E98EBD00000DB407FED1
:1040B000FDCF8EB584E28EBD00000DB407FEFDCFAE
:1040C0008EB588E28EBD00000DB407FEFDCF8EB523
:1040D00084E28EBD00000DB407FEFDCF8EB582E0F8
:1040E0008EBD00000DB407FEFDCF8EB5289A28982E
:1040F00080E98EBD00000DB407FEFDCF8EB584E2D1
:104100008EBD00000DB407FEFDCF8EB580E38EBDE1
:1041100000000DB407FEFDCF8EB580EE8EBD000011
:104120000DB407FEFDCF8EB581E08EBD00000DB44D
:1041300007FEFDCF8EB5289A289880E98EBD000035
:104140000DB407FEFDCF8EB584E28EBD00000DB428
:1041500007FEFDCF8EB584E48EBD00000DB407FED2
:10416000FDCF8EB580E18EBD00000DB407FEFDCF02
:104170008EB581E08EBD00000DB407FEFDCF8EB57B
:10418000289A289880E98EBD00000DB407FEFDCF67
:104190008EB584E28EBD00000DB407FEFDCF8EB556
:1041A00088E68EBD00000DB407FEFDCF8EB581E020
:1041B0008EBD00000DB407FEFDCF8EB51EBC000005
:1041C0000DB407FEFDCF8EB5289A289880E98EBDE4
:1041D00000000DB407FEFDCF8EB584E28EBD000059
:1041E0000DB407FEFDCF8EB580E68EBD00000DB488
:1041F00007FEFDCF8EB51EBC00000DB407FEFDCF3F
:104200008EB51EBC00000DB407FEFDCF8EB5289AFA
:10421000289880E98EBD00000DB407FEFDCF8EB555
:1042200084E28EBD00000DB407FEFDCF8EB58CE696
:104230008EBD00000DB407FEFDCF8EB585E08EBDAE
:1042400000000DB407FEFDCF8EB51EBC00000DB4FE
:1042500007FEFDCF8EB5289A289888E48EBD000011
:104260000DB407FEFDCF8EB51EBC00000DB407FED9
:10427000FDCF8EB51EBC00000DB407FEFDCF8EB580
:104280001EBC00000DB407FEFDCF8EB51EBC0000A5
:104290000DB407FEFDCF8EB5289A64E170E080E092
:1042A00090E00E94160E40E150E060E070E08BEB81
:1042B00092E00E94530A28988CE08EBD00000DB455
:1042C00007FEFDCF8EB51EBC00000DB407FEFDCF6E
:1042D0008EB51EBC00000DB407FEFDCF8EB51EBC12
:1042E00000000DB407FEFDCF8EB51EBC00000DB45E
:1042F00007FEFDCF3EB51EBC00000DB407FEFDCF8E
:104300002EB51EBC00000DB407FEFDCF9EB51EBC31
:1043100000000DB407FEFDCF8EB5289AC32ED22E15
:10432000E92EF82E38E0C31631E0D306E306F10497
:10433000A1F066E271E08BEB92E00E94100A20E1AE
:1043400030E0B701A6018BEB92E00E94990B6DE380
:1043500071E08BEB92E00E94200A60E07FEF8FEF2C
:104360009FEF0E94E71767E070E080E096E20E940E
:10437000E71786E1E1E6F1E0DE01119601900D928A
:104380008A95E1F76FEF7FEF8FEF94E00E94E717D8
:10439000CE0101967C0100E016E02DE142E250E002
:1043A00060EF70E08CE594E05CD960E070E08FEF46
:1043B00094E00E94E71789E491E09F938F9386E051
:1043C0008F931F928DE18F931F9288E88F931F9296
:1043D00080EF8F938CE594E09F938F93F7D960E003
:1043E00070E0CB010E94E71761E07FEF8FEF9FEF56
:1043F0000E94E7178CE594E00E94FC1481E090E0B5
:104400000090640402C0880F991F0A94E2F728986C
:1044100020E12EBD00000FB6F894DEBF0FBECDBF69
:104420000DB407FEFDCF2EB524E22EBD00000DB465
:1044300007FEFDCF2EB520E92EBD00000DB407FE0E
:10444000FDCF2EB51EBC00000DB407FEFDCF2EB56E
:104450001EBC00000DB407FEFDCF9EB5289A982B18
:1044600080E928988EBD00000DB407FEFDCF2EB563
:1044700024E22EBD00000DB407FEFDCF2EB58EBD8B
:1044800000000DB407FEFDCF8EB59EBD00000DB43B
:1044900007FEFDCF8EB5289A42E25FEF6FEF7FEF08
:1044A0008CE594E00E94D71840E050E0BA018CE51A
:1044B00094E00E94D71880915D04882309F414C405
:1044C00027EF31E040E050E066EF70E08CE594E0EB
:1044D0000E9464168CE594E00E94FC1460E07FEF7B
:1044E0008FEF9FEF0E94E71767E070E080E096E2B1
:1044F0000E94E71760E070E080E095E00E94E71717
:1045000060E070E080E091E00E94E71741E350E452
:1045100068E077E08CE594E00E94D71841E354EF1F
:1045200061E178E08CE594E00E94D71860E070E0EB
:10453000CB010E94E71761E07FEF8FEF9FEF0E94B2
:10454000E7178CE594E00E94FC148EE591E19093CE
:10455000FD038093FC0381E08093D8001092DE007D
:104560001092DF0090EA9093DB001092EC00109222
:10457000E2008CE08093E30086E38093E4001092F5
:10458000E5008091D80082608093D8001092ED0001
:104590001092EF001092EE0080E18093ED001092F7
:1045A000EF001092EE0080E28093ED001092EF0099
:1045B0001092EE0080E38093ED001092EF001092D5
:1045C000EE0080E48093ED001092EF001092EE0078
:1045D00080E58093ED001092EF001092EE0080E6EF
:1045E0008093ED001092EF001092EE0080E7809330
:1045F000ED001092EF001092EE0080E88093ED0045
:104600001092EF001092EE0080E98093ED0010927E
:10461000EF001092EE009093ED001092EF001092D8
:10462000EE0080EB8093ED001092EF001092EE0010
:1046300080EC8093ED001092EF001092EE0080ED80
:104640008093ED001092EF001092EE0080EE8093C8
:10465000ED001092EF001092EE0080EF8093ED00DD
:104660001092EF001092EE00789449E050E06DEE69
:1046700070E0CE0147960E94EC2E49E050E064EED7
:1046800070E0CE0101960E94EC2E1092ED00109287
:10469000EE008091DE0081608093DE002D8D8F8999
:1046A000988DA98DBA8D222309F435C4AC01BD01C2
:1046B00015E176956795579547951A95D1F74093EB
:1046C000F300AC01BD010DE07695679557954795D0
:1046D0000A95D1F74093F200AC01BD0195E07695C3
:1046E0006795579547959A95D1F74093F100880FB4
:1046F000880F880F8093F0008091F0009C8D9923A3
:1047000009F4F0C294E0892B8093F0002D8D89810B
:104710009A81AB81BC81222309F4EAC3AC01BD01BB
:10472000E5E17695679557954795EA95D1F74093DA
:10473000F700AC01BD01FDE076956795579547956B
:10474000FA95D1F74093F600AC01BD01A5E076954E
:10475000679557954795AA95D1F74093F500880F2F
:10476000880F880F8093F4009091F4008E81882345
:1047700009F4B6C224E081E03F81311101C080E03C
:10478000820F892B8093F4008D8D8111AFC390E847
:104790008B8D8F70892B8093EF0049E050E06BED9B
:1047A00070E0CE0147960E94EC2E49E050E062EDA9
:1047B00070E0CE0101960E94EC2E80E18093ED0026
:1047C0001092EE008091DE0082608093DE002D8DDD
:1047D0008F89988DA98DBA8D222309F474C3AC01F9
:1047E000BD0115E176956795579547951A95D1F7CF
:1047F0004093F300AC01BD010DE0769567955795A8
:1048000047950A95D1F74093F200AC01BD0195E0C0
:1048100076956795579547959A95D1F74093F1000E
:10482000880F880F880F8093F0008091F0009C8D96
:10483000992309F453C294E0892B8093F0002D8DC5
:1048400089819A81AB81BC81222309F429C3AC01FF
:10485000BD01E5E17695679557954795EA95D1F7BE
:104860004093F700AC01BD01FDE076956795579543
:104870004795FA95D1F74093F600AC01BD01A5E04C
:104880007695679557954795AA95D1F74093F5008A
:10489000880F880F880F8093F4009091F4008E8128
:1048A000882309F419C224E081E03F81311101C05D
:1048B00080E0820F892B8093F4008D8D8111EEC2F0
:1048C00090E88B8D8F70892B8093EF0049E050E04A
:1048D00069EC70E0CE0147960E94EC2E49E050E072
:1048E00060EC70E0CE0101960E94EC2E80E2809395
:1048F000ED001092EE008091DE0084608093DE0077
:104900002D8D8F89988DA98DBA8D222309F4B3C27C
:10491000AC01BD0115E176956795579547951A95B8
:10492000D1F74093F300AC01BD010DE0769567959A
:10493000579547950A95D1F74093F200AC01BD0118
:1049400095E076956795579547959A95D1F7409359
:10495000F100880F880F880F8093F0008091F0009D
:104960009C8D992309F4B6C194E0892B8093F000C3
:104970002D8D89819A81AB81BC81222309F468C283
:10498000AC01BD01E5E17695679557954795EA95A8
:10499000D1F74093F700AC01BD01FDE07695679536
:1049A00057954795FA95D1F74093F600AC01BD01B4
:1049B000A5E07695679557954795AA95D1F74093C9
:1049C000F500880F880F880F8093F4009091F40011
:1049D0008E81882309F47CC124E081E03F8131117C
:1049E00001C080E0820F892B8093F4008D8D8111AE
:1049F0002DC290E88B8D8F70892B8093EF0049E05A
:104A000050E067EB70E0CE0147960E94EC2E49E043
:104A100050E06EEA70E0CE0101960E94EC2E80E339
:104A20008093ED001092EE008091DE00886080930C
:104A3000DE002D8D8F89988DA98DBA8D222309F4E2
:104A4000F2C1AC01BD0115E1769567955795479583
:104A50001A95D1F74093F300AC01BD010DE07695B6
:104A60006795579547950A95D1F74093F200AC01A9
:104A7000BD0195E076956795579547959A95D1F73D
:104A80004093F100880F880F880F8093F000809189
:104A9000F0009C8D992309F419C194E0892B80932F
:104AA000F0002D8D89819A81AB81BC81222309F48C
:104AB000A7C1AC01BD01E5E176956795579547958E
:104AC000EA95D1F74093F700AC01BD01FDE0769582
:104AD000679557954795FA95D1F74093F600AC0145
:104AE000BD01A5E07695679557954795AA95D1F7AD
:104AF0004093F500880F880F880F8093F400909101
:104B0000F4008E81882309F4DFC024E081E03F8136
:104B1000311101C080E0820F892B8093F4008D8DCC
:104B200081116CC190E88B8D8F70892B8093EF0081
:104B300049E050E065EA70E0CE0147960E94EC2E15
:104B400049E050E06CE970E0CE0101960E94EC2E45
:104B500080E48093ED001092EE008091DE00806191
:104B60008093DE002D8D8F89988DA98DBA8D22239B
:104B700009F431C1AC01BD0115E1769567955795F2
:104B800047951A95D1F74093F300AC01BD010DE0B4
:104B900076956795579547950A95D1F74093F2001A
:104BA000AC01BD0195E076956795579547959A9527
:104BB000D1F74093F100880F880F880F8093F000A1
:104BC0008091F0009C8D992309F47CC094E0892B9E
:104BD0008093F0002D8D89819A81AB81BC81222345
:104BE00009F4E6C0AC01BD01E5E1769567955795FE
:104BF0004795EA95D1F74093F700AC01BD01FDE080
:104C00007695679557954795FA95D1F74093F600B5
:104C1000AC01BD01A5E07695679557954795AA9596
:104C2000D1F74093F500880F880F880F8093F40028
:104C30009091F4008E81882309F442C024E081E041
:104C40003F81311101C080E0820F892B8093F400F5
:104C50008D8D8111ABC090E88B8D8F70892B8093E7
:104C6000EF0082E08093160497E09093B00091E00B
:104C700090937000109280008093810080916F006B
:104C8000816080936F008CE0809312041092100476
:104C90008FEF8093110487B1807F87B988B18F60CF
:104CA00088B96F960FB6F894DEBF0FBECDBFDF9107
:104CB000CF911F910F91FF90EF90DF90CF900895CB
:104CC00020E0BDCF90E083CF20E020CF90E0E6CE83
:104CD00020E083CE90E049CE20E0E6CD90E0ACCD60
:104CE00020E049CD90E00FCD809167049091680459
:104CF000A0E0B0E09058AF4EBF4F28982A2F206810
:104D00002EBD00000DB407FEFDCF2EB59EBD0000E8
:104D10000DB407FEFDCF2EB58EBD00000DB407FE0D
:104D2000FDCF8EB581E080935D0427EF31E040E058
:104D300050E066EF70E08CE594E00E946416289ADB
:104D40008091670490916804289820E92EBD0000A6
:104D50000DB407FEFDCF2EB524E22EBD00000DB42C
:104D600007FEFDCF2EB528EE2EBD00000DB407FEC8
:104D7000FDCF2EB58EBD00000DB407FEFDCF2EB5C4
:104D80009EBD00000DB407FEFDCF8EB51EBC000019
:104D90000DB407FEFDCF8EB51EBC00000DB407FE9E
:104DA000FDCF8EB5289A10925D0494CB90E954CF34
:104DB0009C0136952795369527953695279520930E
:104DC000F7008295880F807E8093F6001092F500A0
:104DD0001092F4002DCF9C01369527953695279596
:104DE000369527952093F3008295880F807E8093D7
:104DF000F2001092F1001092F000E2CE90E993CE12
:104E00009C013695279536952795369527952093BD
:104E1000F7008295880F807E8093F6001092F5004F
:104E20001092F4006CCE9C01369527953695279507
:104E3000369527952093F3008295880F807E809386
:104E4000F2001092F1001092F00021CE90E9D2CD44
:104E50009C0136952795369527953695279520936D
:104E6000F7008295880F807E8093F6001092F500FF
:104E70001092F400ABCD9C01369527953695279579
:104E8000369527952093F3008295880F807E809336
:104E9000F2001092F1001092F00060CD90E911CD77
:104EA0009C0136952795369527953695279520931D
:104EB000F7008295880F807E8093F6001092F500AF
:104EC0001092F400EACC9C013695279536952795EB
:104ED000369527952093F3008295880F807E8093E6
:104EE000F2001092F1001092F0009FCC90E950CCAB
:104EF0009C013695279536952795369527952093CD
:104F0000F7008295880F807E8093F6001092F5005E
:104F10001092F40029CC9C0136952795369527955B
:104F2000369527952093F3008295880F807E809395
:104F3000F2001092F1001092F000DECBCF93DF93DD
:104F4000CDB7DEB7A4970FB6F894DEBF0FBECDBFC6
:104F50000E94500E0E94211F11E3412E10E1512E9C
:104F60009E012F5F3F4F390180911004882379F112
:104F70008091FA039091FB03892B09F0FFCF809178
:104F80001104992787FD9095FC01EE0FFF1FEE0F8E
:104F9000FF1FE80FF91FEF5FFB4F5282418214821F
:104FA0001382F093FB03E093FA0380917A00876009
:104FB00080937A0080818F70806480937C0088E881
:104FC00080937A0080917A00806480937A00809147
:104FD0005A04811129C080911604813009F46BC4F0
:104FE00008F4B3C1823009F440C1833009F09AC09B
:104FF00060E07FEF8FEF9FEF0E94E71767E070E0C0
:1050000080E096E20E94E71760E070E0CB010E942A
:10501000E71761E07FEF8FEF9FEF0E94E7178CE5C6
:1050200094E00E94FC14A0CFE0915B04F0E0E25019
:10503000FC4F008180915B0410E0813009F4E8C4EA
:1050400008F4CEC4823059F4F801EE0FFF1FE3518B
:10505000FD4F6591749140E250E0C301CDD6CC2460
:10506000CA94DC2CEC2C64E0F62E812C912CA12C23
:1050700072E0B72E60E07FEF8FEF9FEF0E94E7179F
:1050800067E070E080E096E20E94E717C501B40196
:105090000E94E71767E070E080E096E20E94E71761
:1050A000C701B6010E94E7171F930F938FEA91E0A3
:1050B0009F938F9386E08F931F921FE1F12EFF92B3
:1050C0001F9288E88F931F9280EF8F930CE514E076
:1050D0001F930F930E94E61B7F926F9282EB91E0E9
:1050E0009F938F931F921F92FF921F9289E18F933C
:1050F0001F928F931F930F930E94E61B60E070E056
:10510000CB010E94E71761E07FEF8FEF9FEF0E94D6
:10511000E717C8010E94FC140FB6F894DEBF0FBE5B
:10512000CDBF22CF80915604833009F41BC408F40C
:10513000F9C3843009F436C4853009F024C40E94D0
:105140000A0E28E532E040E050E0DAD4633C7140DA
:105150008105910508F474C4C12CDD24DA94ED2C8A
:10516000A2E0FA2E812C99249A94A92CB4E0BB2EAB
:1051700006E911E03324339460E07FEF8FEF9FEF77
:105180000E94E71767E070E080E096E20E94E71770
:10519000C501B4010E94E7171F930F9386E08F9318
:1051A0001F928FE18F931F9284E48F931F9280EF61
:1051B0008F938CE594E09F938F930E94E61B8091E0
:1051C000520490915304A0915404B0915504E0917D
:1051D00051040FB6F894DEBF0FBECDBFE33208F026
:1051E00041C0F0E0EE0FFF1FE85BFD4F20813181F1
:1051F000BF93AF939F938F933F932F9386E08F93AB
:105200001F928DE18F931F928CEA8F931F9280EFF4
:105210008F938CE594E09F938F930E94AA1C0FB606
:10522000F894DEBF0FBECDBF332009F4EDCEC70129
:10523000B6010E94E71760E17DE281E09CE10E94F7
:10524000E71760E070E080E09BE10E94E71767E00D
:1052500070E080E096E20E94E71760E07AE283E087
:105260009BE1CACE27EB35E0C3CF60E07FEF8FEF45
:105270009FEF0E94E71767E070E080E096E20E94EF
:10528000E71786E1E1E6F1E0D30101900D928A95FE
:10529000E1F76FEF7FEF8FEF94E00E94E717730164
:1052A00000E016E02DE142E250E060EF70E08CE5B6
:1052B00094E00E94311B60E070E08FEF94E00E9468
:1052C000E71789E491E09F938F9386E08F931F9275
:1052D0008DE18F931F9288E88F931F9280EF8F93B9
:1052E0008CE594E09F938F930E94E61B6FEF7FEF16
:1052F0008FEF94E00E94E71761E070E080E09FE1AB
:105300000E94E71740E050EF6DE07FE88CE594E005
:105310000E94D71860E070E080E091E20E94E717F9
:1053200060E070E0CB010E94E71761E07FEF8FEF54
:105330009FEF0E94E7178CE594E00E94FC140FB6E3
:10534000F894DEBF0FBECDBF0FCE60E07FEF8FEFD2
:105350009FEF0E94E71767E070E080E096E20E940E
:10536000E71760E070E08FEF94E00E94E717E5EB4D
:105370008E2EE1E09E2E9F928F921F921F927DE1D2
:105380007F931F921F921F92F5E0EF2EEF920CE594
:1053900014E01F930F930E94E61B6FEF7FEF8FEFD8
:1053A00094E00E94E7178091330490913404A09117
:1053B0003504B0913604BF93AF939F938F93A3ECC2
:1053C000AA2EA1E0BA2EBF92AF921F921F92BCE10B
:1053D000FB2EFF921F928EE18F931F92EF921F93ED
:1053E0000F930E94E61B8091370490913804A0919E
:1053F0003904B0913A04BF93AF939F938F9382ED9A
:10540000C82E81E0D82EDF92CF921F921F92FF927A
:105410001F9237E33F931F92EF921F930F9339A38D
:105420000E94E61B80913B0490913C04A0913D04B6
:10543000B0913E040FB6F894DEBF0FBECDBFBF9350
:10544000AF939F938F9341EE51E05F934F931F92E1
:105450001F92FF921F9260E56F931F92EF921F932E
:105460000F934AA35BA30E94E61B80914B0490918B
:105470004C04A0914D04B0914E04BF93AF939F9301
:105480008F9391EF292E91E0392E3F922F921F9208
:105490001F92FF921F9229E62F931F92EF921F9364
:1054A0000F932CA30E94E61B60E070E08FEF94E066
:1054B0000E94E71780E092E09F938F931F921F92C4
:1054C0007DE17F931F9287E88F931F92EF921F9346
:1054D0000F930E94E61B0FB6F894DEBF0FBECDBF40
:1054E0006FEF7FEF8FEF94E00E94E7178091170432
:1054F00090911804A0911904B0911A04BF93AF932E
:105500009F938F938BE092E09F938F931F921F92B4
:10551000FF921F9285EA8F931F92EF921F930F9332
:105520000E94E61B80911B0490911C04A0911D0415
:10553000B0911E04BF93AF939F938F9388E192E045
:105540009F938F931F921F92FF921F928EEB8F93C8
:105550001F92EF921F930F930E94E61B80912B04E2
:1055600090912C04A0912D04B0912E04BF93AF9381
:105570009F938F9385E292E09F938F931F921F9248
:10558000FF921F9287ED8F931F92EF921F930F93BD
:105590000E94E61B80912F0490913004A091310469
:1055A000B09132040FB6F894DEBF0FBECDBFBF93EB
:1055B000AF939F938F9384E392E09F938F931F9277
:1055C0001F92FF921F9270EF7F931F92EF921F9393
:1055D0000F930E94E61B60E070E08FEF94E00E9462
:1055E000E7179F928F921F921F928DE18F931F92C8
:1055F0001F921F9229EB922E9F921F930F930E944E
:10560000E61B6FEF7FEF8FEF94E00E94E71780912A
:10561000330490913404A0913504B0913604BF93C3
:10562000AF939F938F93BF92AF921F921F92FF925F
:105630001F929EE19F931F929F921F930F930E9430
:10564000E61B8091370490913804A0913904B09101
:105650003A040FB6F894DEBF0FBECDBFBF93AF9331
:105660009F938F93DF92CF921F921F92FF921F9270
:1056700039A13F931F929F921F930F930E94E61BA5
:1056800080913B0490913C04A0913D04B0913E0474
:10569000BF93AF939F938F934AA15BA15F934F9367
:1056A0001F921F92FF921F9270E57F931F929F920D
:1056B0001F930F930E94E61B80914B0490914C0422
:1056C000A0914D04B0914E04BF93AF939F938F93DD
:1056D0003F922F921F921F92FF921F922CA12F9305
:1056E0001F929F921F930F930E94E61B0FB6F89490
:1056F000DEBF0FBECDBF6FEF7FEF8FEF94E00E9454
:10570000E7174AE05FEF6FEF7FEFC8010E94D718FD
:1057100040E050E06FEF70E0C8010E94D71849E008
:105720005FEF6FEF7FEFC8010E94D71840E050E0B5
:105730006FEF70E0C8010E94D718C0901704D09096
:105740001804E0901904F0901A0440E15FEF6FEF45
:105750007FEFC8010E94D71842EC51E064E170E08D
:10576000C8010E94D71844E150E064EB70E0C80122
:105770000E94D718C701B60102D234E6E32EF12CFD
:10578000A701461B570B60E070E0BA01552744277C
:10579000C8010E94D71844E650E060E070E0C801FC
:1057A0000E94D71860E070E08FEF94E00E94E71746
:1057B00084E492E09F938F93F6E03F2E3F921F92F6
:1057C000AFE1CA2ECF921F9290EF9F93DD24D39426
:1057D000DF928CEC8F931F930F930E94E61B6FEF69
:1057E0007FEF8FEF94E00E94E7174AE05FEF6FEFE3
:1057F0007FEFC8010E94D71840E050E06FEF70E0E3
:10580000C8010E94D71849E05FEF6FEF7FEFC80132
:105810000E94D71840E050E06FEF70E0C8010E948E
:10582000D71880901B0490901C04A0901D04B09089
:105830001E0440E15FEF6FEF7FEFC8010E94D718B1
:1058400046E851E064E170E0C8010E94D71844E1E5
:1058500050E064EB70E0C8010E94D718C501B401A4
:105860008ED1A701461B570B60E070E0BA015527A7
:105870004427C8010E94D71844E650E060E070E079
:10588000C8010E94D71860E070E08FEF94E00E949A
:10589000E71786E492E09F938F933F921F92CF92F7
:1058A0001F9220EF2F93DF9280E98F931F930F9326
:1058B0000E94E61B23CC80915604833009F452C029
:1058C00088F1843009F46EC0853009F05CC00E9414
:1058D0000A0E28E532E040E050E012D1633C71400E
:1058E0008105910508F038CC0E940A0E28E532E0C7
:1058F00040E050E005D16D3271408105910508F41A
:10590000ACC0C12CDD24DA94E12CE2E0FE2E812C27
:1059100099249A94A12CF4E0BF2E06E911E03324D7
:1059200033942ACC813078F10E940A0E24EF31E0C2
:1059300040E050E0E5D0332433946B3F710581059E
:10594000910508F4312CC12CDD24DA94ED2C42E0D1
:10595000F42E812C99249A94A92C54E0B52E06E8B3
:1059600011E00ACCC12CDD24DA94ED2C62E0F62E95
:10597000812C99249A94A92C74E0B72E07E711E0A2
:1059800033243394F9CBC12CD12CE12C12E0F12E2D
:10599000812C912CA12C04E0B02E0EE911E03324CF
:1059A0003394EACB0E940A0E24EF31E040E050E04D
:1059B000A7D0332433946B3F71058105910508F41A
:1059C000312CC12CD12CEE24EA9422E0F22E812C31
:1059D000912CAA24AA9434E0B32E0FE811E0CCCB8A
:1059E000F801EE0FFF1FE358FC4F6591749140E200
:1059F00050E0C30101D2CC24CA94DC2CE12C94E009
:105A0000F92E812C912CAA24AA9422E0B22E32CB1A
:105A1000F801EE0FFF1FE257FD4F6591749140E2D0
:105A200050E0C301E9D1CC24CA94D12CE12C44E04C
:105A3000F42E812C99249A94A92C52E0B52E1ACBDD
:105A40000E940A0E28E532E040E050E059D06D3265
:105A500071408105910508F054CF0E940A0E28E597
:105A600032E040E050E04CD0673971058105910586
:105A700078F0C12CD12CE12C82E0F82E812C912CD5
:105A8000A12C94E0B92E06E911E03324339474CBB1
:105A9000C12CD12CEE24EA9462E0F62E812C912CBC
:105AA000AA24AA9474E0B72E06E911E033243394B3
:105AB00063CBAA1BBB1B51E107C0AA1FBB1FA617C4
:105AC000B70710F0A61BB70B881F991F5A95A9F7A7
:105AD00080959095BC01CD01089597FB072E16F493
