:100000000C94AD080C947C110C94AD110C94DE1181
:100010000C940F120C9440120C9471120C94A212B6
:100020000C94D3120C94DC080C9412160C94DC087B
:100030000C94DC080C94DC080C94DC080C94DC08B0
:100040000C94DC080C9404130C940A140C94DC0833
:100050000C94DC080C94F30C0C94DC080C94DC0875
:100060000C94DC080C94CE130C94DC080C94DC0883
:100070000C94DC080C94DC080C94DC080C94DC0870
:100080000C94330D0C94DC080C94DC080C94DC0804
:100090000C94DC086E616E00696E6600FF0F000054
:1000A0000801010000100000000800000000FF0F20
:1000B000000008010100001400000008000000001A
:1000C000FF0F0000080101000013000000080000FD
:1000D0000000FF0F000008010100001200000008EE
:1000E00000000000FF0F00000801010000110000E7
:1000F000000800000000789CED5B2D74EA4A10AE09
:10010000AC44622B91482C125989AD445662AE40E2
:100110002010880804A6220281A84054C420222A64
:100120001008042206118188A88840F49D3973E6DE
:100130007C339B4D805EDE7BB7B7D9116D379BDD7D
:10014000CDFC7CF3B3DBBB5F7735D554534D35D550
:1001500054534D35D554534D35FDA13458CE3FFE43
:100160000E7A18DDFD1A4D376F5534791D4DABB839
:10017000D15BE8D15563EF5FCAD6C05B7637F72F06
:10018000BE5EDE959D9B7B754F773C79ADFAAEEAFE
:10019000AF72A9B1FEFC2B5A94B324CE8FEB2DCABB
:1001A00078319ADAB196EF9A9E37E52BC433E88519
:1001B0006F36DF1EBB633D3BF7E1EF7816E5D55F99
:1001C00065DF3F47ABDD392E7D8FD649D942CE8FD3
:1001D0001C66974A324FFCE3AA57291B2732F7BD0A
:1001E000AD2D3D9ED95D76C7E724AED7BC843AE9F4
:1001F000792E7D87B6DA15F9D949F384C98EF5735E
:10020000C2677FBE71AE0C640DA132990BB673AF9D
:100210009D8377AFF78179EC2CC3CC5D2F4F9E3750
:10022000D7C99CD76E1E5C8F3079C53ACD83F466F2
:10023000918F238FEF5572B0F430E299E71FC2031C
:10024000CD4D9E69B02C4A013C0803F42E5777BF70
:10025000962BFAAD1DD3338B5A58C16AB69F13AE95
:1002600066D819FC9CA9C27F7746C17CDEA38B2986
:1002700040679631E438CC30AA1CA32EA78711CD55
:1002800014E5B262773C9A326939C243A573F4CE61
:100290003FA477B72F720B7220A219F155C48B744B
:1002A000AE9F51FC051D946796BBD8854896F460B7
:1002B000344D4EF43B49DFE53256D4BDEC05FC929B
:1002C000CC13AB1D3E89FAADF7BCCC6DAF8B2A4089
:1002D000779E1F2BEB5165DEE61A629B797C1789AE
:1002E00033FF6CB3C88111E05DFF587C0B72107B4B
:1002F000D53A82DF9903FDA3FCDD3C7C7E3E4DF8C0
:10030000771B5F0235D8E345398D1319B5427AA2C0
:100310006D025CEE8ECFF1AD3BE637291A3F37D642
:10032000620934B1487A1CC798D8A33B0FB8C9FDFD
:10033000A203FCADD260455FA756A865A3AD585A8D
:10034000727A9A10E6425E4519F8340572101B82E3
:100350005CFBC7DDDEF2C5EA8FFCEEE25F18E85D0C
:10036000900780AFE1677E2E5A9BF2F18D254D12EA
:1003700076EDAF38D66FBDE7640EEDA1BF48032C14
:100380008A7D7E8A77151CF0EDBDCA935C4AEC0B22
:1003900045368365516E5944F6062D851D08EFAC30
:1003A00015E92636C092819C9393E8D0D384476A9E
:1003B000FD81CF723D6CB09527E99CDED03640BD03
:1003C00036D78A728971ACF517F9265119EFD746DD
:1003D00057C5CC4E3F075F8A64A5255FC87B240DB7
:1003E00070F926FBD27B713D496FE1AF405C23F38E
:1003F000764C3389FDD8088D1A553A9E2664C7B2CB
:1004000007F059D0C1A28F6EE24FD95E497B4447B5
:100410006497822C5A7F60115656D404F5291279BC
:1004200018E139FB8AF3D939F3CDE502EF4F7C9817
:10043000C5DC222AE8A755FEB52A3BE7F72C8E0932
:100440002EF15F328B1B3DF8F3C46B64CEDF2711B6
:1004500054B1D240F8C9BDD025D1734187DEC2CF97
:10046000DBE404F974C788A7084D84EF822C323B83
:10047000E90FACB938277C8CCD1638B370D1D2D700
:100480008A119CE8AC60AB9DC51D6F35DC9799F86F
:10049000A5255FC8B3F35F2EE768078C03C00FABD9
:1004A00081DDB14FE6556853248A80F0868BA5FC28
:1004B000BD4F131B75CB2E041DCA2A14F0DF2C73FD
:1004C000A2A7C960493AE32297E80071A1B1E6DF2B
:1004D00005F7754B4EB20F6B45AC277627CF9BCDFA
:1004E0009BFDA23CD9BC152B563C6698094E9667DD
:1004F00051C575AB50B52A3BB738AE6773B3733788
:100500007A90EAB0FDAE6B644E6B42935D2C453E33
:10051000A5896300A0435976EEC6693E3ECABB5A20
:10052000072462F545946598C47A62FB88CBD6921D
:100530007C5659865268D617F8ADD747FE5A01EF58
:10054000D1FE258D24C138809D6AAD288B4AABD061
:10055000C625CECE756CE5CEA4A33AD100177DCAD0
:10056000B273374ED3CD7D577B7EE1872FA22CC34C
:1005700024D6936244EDC649452B2FC60C6EB31E9C
:10058000FD56D9B95FE32842A39FE7B2F3AF47F323
:100590009C9D43E683A5E0DB6E9F9CA85232FFC082
:1005A000CC1283DDFDA25EE81CCEA228B72EEEC4DD
:1005B00067AF62ADE99CDE8325D1CCE257E399CCED
:1005C0000B24D198F4F8DE58CB8ACC435F76EED377
:1005D0000D578288F07D71BEF5E8452C29238BDB11
:1005E00056C7CA46896711DED94C049592CBD1C64D
:1005F00025CECE2903779FB46342CB32AF116CB5C1
:10060000A6802C9AB9719A6E12F35BE21A4CB11F54
:1006100033687FB1790BB6B222EB896FB7F61B2C2A
:100620000A4A8EE646F26E26A2D1E116D9B97ECFED
:1006300045F7CBB2F3CBD1C625F1CCF38FC6DAE6C2
:100640007B9D348B366F16EB93933C254E370FC54D
:100650002CD1DAC7E33B46171B455896F86BB10A15
:100660000833C8AA9455EEF6E86709FAB8ECE66FC5
:100670005A7E9CA9FA22206B7D1A1DACCCE9545CF1
:10068000134E2DACDEC81ABC47BDA28BEE363BB76D
:10069000BBEFA4BC4A6F61F757550B7489BFF9FBD8
:1006A000375F76EEF7885A7E829B3E8E593DD5D5D0
:1006B000E7AA9373BDEAF9ECDCAF5FDCE45979BDDE
:1006C000CB37FA12FA5BCECE393BB71603EEDBAF6F
:1006D00004BAB3C5FACF21DDF34B3C29AF405183B7
:1006E00097F07B5CDEA3F5BF3E2DBA54C7DCD1E7A3
:1006F000298B82EDDF401C1DB8554A3FF705DDD937
:10070000E270A268C9BD31A34F9A7B8BF23B07F020
:10071000AC9764E75A0F74D338D01DB7E3EA3B13A4
:10072000B7386BABE9675018F41642E87D9AA0170A
:10073000F6D01DA357D7BFD18BF32FCA0DA457FBFB
:100740004D8A439874CC19CF7CBBD07BC339BBDEB8
:100750001BEF229EFD4CBAEEFE2388B2AFA277D0EB
:10076000672E90A3CEBDA4E66EFD1CB08BAB3EDC25
:10077000B4E744DE8F3B383A26D615645DE783E65E
:1007800049CE418DAA45FAF6CCCF6AD7DE8C12420B
:100790003505B7196CFC000BD39E0A9AA0BD12ACAC
:1007A000544B02351D1D4BE34445D754741D04754D
:1007B0003E9CDAD89C83EC9C6B0D6874266B7B9A0C
:1007C00007ED17931379E5FED177F6DF3F5A0FCA8D
:1007D00023D117E576EEF25A5E94EBF99353F3606A
:1007E000EF970C335DF57267EA1F9B07375FB6E33F
:1007F000A969BE5E43BF6F775A1380E25A1272CB6B
:10080000CD464872A2623541D74EC0259CDAD868E1
:10081000DCB57B1A399A8681D659D2228D66AB1DFA
:1008200061501814794811978DD2A87A7CFF026E16
:100830003CBE6B044CE7E9DC7F8A1B6CE96C0A72F6
:10084000CC133A6DD23B9DBC624F511E06547BC403
:10085000D33008037DE3926E2D76C7EE4918F87AFF
:100860001DE97D7ECDEE2E436026CD21E4CBBA2E50
:10087000AF6BDCD0745DFB83543893B2B5862C6AC1
:10088000AC8799965C632D372CB1C230D3BE076D0F
:1008900034B5764E3B1B4DC10D7DF6D63F129669A1
:1008A0006D420B83286F85E0D7F366B0ECA4DA0BBA
:1008B000B64220EC6A47678EFAF482B273AD7F834A
:1008C000659ED097D955FC2761E7E816767719021F
:1008D00033E9136AC470BA2E8FDAACAE4AE8D37328
:1008E00048857315370B8F671615D3F960A977B351
:1008F0005C8DA6CF1B3727E366356198D1CE745F38
:100900006F81AFA56CAF2C77A3BDC7333CCD223A26
:10091000D1B0511270A6933E4D34EA504DDCEA5FDF
:100920003C1B661A19B8152BE7E5D4584B7EDB8EB5
:1009300051E76CC7D2ABABA3181B6CD1ABF3FBE593
:10094000CAD7EB1F4B755D21F4EAFAEFE3BBF44A1B
:1009500005D7EE4DCFCC5AE3F27DF2AAFD0ADD9722
:10096000B488DC0AB388B286A2A4A2DC6A429E5094
:10097000AD53A3503AD75E79B7B7B2C23C84001AE0
:100980009B07CBFB9730D0DA69B5AB1D6B0C208B86
:100990007A18E93DBB3E86DB35D67D196632F9E330
:1009A0007A8D32C818FEEBB8DEB57BE617ED0892FB
:1009B00009B6748BDBFACA4EFA30F29DFF50555BD4
:1009C000FF4DBADF49350AF16D31E1129D10146F08
:1009D00095D13CAD3039E92F2479B563A09CD52E53
:1009E000DA6D2B8446ECF6ADD0469DAE8FE1F52F47
:1009F00097F8A598C904AF735E13FC19DEBF17D72B
:100A0000BBBA438D221D8D8A83E56E1F6CB54FA145
:100A1000EF1F4D7DB222BFF0F88EB59E37AD9050DE
:100A2000CCBE8B99DB716FE1AB90360FF1ACB1D6D8
:100A3000FA435A379A826B56BB0801E219384D08BF
:100A4000A7E723AC09B6EE6D846BAA70B7B0BBAF55
:100A50006678B78DEB5DDDA1166CB5CFA55928374B
:100A6000D33A4AD27EDED8137FF942F218C088E426
:100A7000B45C65112C3BCA755C30CC064B9FE6F02C
:100A80001A93578DFAEECDABFE51EFA879E82D748D
:100A900094B9DBBBBBA318D0FD5F026DAFE7E816CE
:100AA0007677FBCA0AD37571BDAB3B3FAB5D735F15
:100AB000E2B67677ABCA0AD335717D51777E562B75
:100AC000FFCFEA22E12EAA3D59FA5A2F305CCF7CA3
:100AD0004DEFD777C14FE4FFEC7E1A696ED65453C1
:100AE0004D3501276BFAB3E8AB7EF212E237F9BF5E
:100AF00054E81C964E0AEE5FF8BC7BF24AC4F5B38C
:100B0000C6BAB17E7C27A2FAD76AB7DBEFF679D2F4
:100B10003CD01951FF482743F30F3A3F2AFBEFD44B
:100B2000BA5DD3284767F9C433D46782AD543AD24B
:100B300039F222AA1DFFDFD801048126C53368D20D
:100B4000606935A91D976952FFF8133509924585EB
:100B500095FE8757248B1399E4D48EAFA9B37F4FAA
:100B60008226D189A35F93E85C406B52B0852675DD
:100B7000D23F599348B22243BF64710B2FCAE98C0C
:100B8000F0FF96C7F725F68A5693F8DE965F939E98
:100B900037659A34FFF8AA2669C9D259AB48368B13
:100BA00044B29357A979CC3F366F7576F62792AB4E
:100BB000491C294193F80C923489CE1245B24F93C7
:100BC000764CF556224816D5D661B65CFD9EBCFF24
:100BD00001E1EA97A82F0C240C120CFF0BF60BEC8A
:100BE0000BE30B54534D53204F6666005072656300
:100BF0006861726765004149522773204F6E00415A
:100C000049522773202620436F6F6C616E74204F0A
:100C10006E0053432E5368616C6C6F774869737430
:100C20006F72790053432E486973746F7279005361
:100C3000432E496E697469616C009A0C8F0C7D0CAF
:100C4000710C670C5B0C530C4A0C44697361626C49
:100C5000656400456E61626C65640043757272651F
:100C60006E7444726F70005472616E734469616790
:100C70000053432E5465726D696E616C0053432EB0
:100C80005368616C6C6F77486973746F7279005345
:100C9000432E486973746F72790053432E496E690D
:100CA0007469616C00F80CF40CEB0CE20CDD0CD5F3
:100CB0000CCD0CC50CBD0CBD0CBD0CBD0C496E762D
:100CC000616C6964004D554C54492D38004D554CAC
:100CD00054492D37004D554C54492D3600436F640F
:100CE00065005468726F74746C65004272616B6564
:100CF00042616C005069740044656661756C7400F3
:100D00005E0D540D4A0D400D380D300D280D200D8F
:100D1000180D180D180D180D496E76616C69640078
:100D2000496E76616C696400496E76616C69640035
:100D3000496E76616C696400496E76616C69640025
:100D4000434C4B20444956203000434C4B204449EF
:100D500056203200434C4B20444956203400434C2B
:100D60004B20444956203800B80DB20DAC0DA60DED
:100D7000A00D980D900D880D800D800D800D800DBB
:100D8000496E76616C696400496E76616C696400D5
:100D9000496E76616C696400496E76616C696400C5
:100DA0003132304E6D003132304E6D003132304EC6
:100DB0006D003132304E6D004D43204F666600525B
:100DC000454D4F544520454D455247454E435920CA
:100DD00053485554444F574E00556E6B6E6F776EA7
:100DE00020424D53204572726F72005368757464CF
:100DF0006F776E204C6174636820547269707065FF
:100E000064005265736F6C766572204E6F74204378
:100E10006F6E6E6563746564004D43204375727236
:100E20002053656E736F72204661756C7400476164
:100E30007465204452562033204F76657274656D78
:100E4000700047617465204452562032204F766509
:100E50007274656D7000476174652044525620318C
:100E6000204F76657274656D7000504342204F7656
:100E7000657274656D70004D6F64756C65204320FC
:100E80004F76657274656D70004D6F64756C65208A
:100E900042204F76657274656D70004D6F64756C9D
:100EA000652041204F76657274656D70004D6F74DA
:100EB0006F72204F7665722054656D70004D43202F
:100EC000436F6D6D616E64204D657373616765205E
:100ED0004C6F7374004D4320556E64657220566FDD
:100EE0006C74616765004D43204857204F766572EA
:100EF0002D43757272656E74004D432044657361B5
:100F000074204661756C74004D4320496E7665729D
:100F10007465722054696D656F7574004D4320448B
:100F20006972656374696F6E204572726F72004DED
:100F30004320496E766572746572204F76657274CF
:100F4000656D70004D43204F76657220566F6C744E
:100F5000616765004D43204F76657220437572725C
:100F6000656E74004D43204F766572205370656541
:100F700064004E4F2043454C4C20434F4D4D530091
:100F8000416E20452D53746F702069732050726537
:100F9000737365640052656D6F7465205265717579
:100FA00065737400494D44204552524F52004253DC
:100FB0005044204552524F5200494E56414C4944EC
:100FC000204D534700485620505245434841524710
:100FD000494E473A20252E30665600736252494FDB
:100FE000205741524D3A20252E30664300474C563B
:100FF000204C4F5720564F4C544147453A20252E00
:10100000326656005041434B204C4F5720564F4CB0
:10101000544147453A20252E3266560042415454E9
:10102000455259205741524D3A20252E32664300F1
:101030004D4F544F52205741524D3A20252E326683
:101040004300434F4E54524F4C4C4552205741524F
:101050004D3A20252E3266430000407A10F35A00A4
:10106000A0724E18090010A5D4E80000E8764817D1
:101070000000E40B54020000CA9A3B000000E1F5B6
:1010800005000080969800000040420F000000A07C
:101090008601000000102700000000E803000000A7
:1010A000006400000000000A0000000000010000D1
:1010B0000000002C76D888DC674F0823DFC1DFAE44
:1010C00059E1B1B796E5E3E453C63AE6519976960D
:1010D000E8E6C28426EB898C9B62ED407C6FFCEFD6
:1010E000BC9C9F40F2BAA56FA5F490055A2AF75C04
:1010F000936B6CF9676DC11BFCE0E40D47FEF520B6
:10110000E6B500D0ED902E0300943577050080847D
:101110001E080000204E0A000000C80C3333333391
:101120000F986E12831141EF8D2114893BE65516FD
:10113000CFFEE6DB18D1844B381BF77C1D901DA435
:10114000BBE424203284725E228100C9F124ECA128
:10115000E53D27005D0ED215711611241FBECFEF9D
:10116000D0E1DEBFCDBF12E0A0E0B1E0EAE1FAE6F7
:1011700000E00BBF02C007900D92AC3BB107D9F75E
:1011800024E0ACEBB2E001C01D92AB37B207E1F74F
:1011900011E1CAE5D1E100E006C022970109FE0194
:1011A0000BBF0E94CD32C435D10780E00807A9F7F4
:1011B0000E94072A0C940B350C9400002F923F924A
:1011C0004F925F926F927F928F929F92AF92BF9257
:1011D000CF92DF92EF92FF920F931F93CF93DF9303
:1011E000CDB7DEB763970FB6F894DEBF0FBECDBFA5
:1011F0007C011B016A01FC0117821682838181FF39
:1012000066C3BE016F5F7F4F4B01F7019381F10110
:1012100093FD859193FF81911F01882309F453C3A6
:10122000853239F493FD859193FF81911F018532B9
:1012300039F4B70190E00E94423456016501E5CFD0
:1012400010E0512C20E02032A0F48B3269F030F411
:10125000803259F0833269F420612CC08D3239F02C
:10126000803339F4216026C02260246023C02860C6
:1012700021C027FD27C030ED380F3A3078F426FF23
:1012800006C0FAE01F9F300D1124132F13C06AE02F
:10129000569E300D1124532E20620CC08E3221F444
:1012A00026FD11C3206406C08C3611F4206802C0EC
:1012B000883641F4F10193FD859193FF81911F01DF
:1012C0008111C1CF9BEB980F933018F42061805EA1
:1012D00006C09BE9980F933008F0AAC12F7E26FF25
:1012E00016E02F73722E853621F4F22FF0647F2ED4
:1012F00008C0863621F4622F6068762E02C0111174
:10130000115077FE07C01C3348F444244394410E27
:1013100027E00BC0183030F4212F06C027E04CE343
:10132000442E03C027E017E0412C560174E0A70EBD
:10133000B11CF6016081718182819381042DA40129
:101340000E9435336C01098100FF02C003FF06C013
:1013500071FC07C072FC08C0612C08C03DE2632E1E
:1013600005C02BE2622E02C090E2692E802F8C70A5
:1013700099F1662011F084E001C083E0851510F03A
:10138000512C0BC0581A73FC08C0B70180E290E0E2
:101390000E9442345A94C9F7F3CF662029F0B7016E
:1013A000862D90E00E94423403FD03C008E910E05E
:1013B00002C004E910E0F72DF0717F2EF80184914E
:1013C000882309F476C271108052B70190E00E9420
:1013D00042340F5F1F4FF2CF77FE0FC04C0C04FF5B
:1013E00004C08A81813309F44A94141474F5F8E036
:1013F000F41578F588E0482E2CC076FC2AC0812FA1
:1014000090E08C159D059CF06CEFC6166FEFD6062C
:1014100074F0772D7068772E0AC0E2E0F0E0EC0FF0
:10142000FD1FE10FF11D8081803319F4115011115E
:10143000F4CF77FE0EC044244394410E812F90E0F8
:10144000C816D9062CF41C1904C04424439401C0C6
:1014500010E077FE07C01C141D043CF496012F5FBA
:101460003F4F05C025E030E002C021E030E06620BB
:1014700011F02F5F3F4F112331F0412F50E04F5FAC
:101480005F4F240F351F452D50E02417350714F406
:10149000521A01C0512C872D897049F4552039F01A
:1014A000B70180E290E00E9442345A94F7CF662060
:1014B00029F0B701862D90E00E94423473FC09C0E8
:1014C000552039F0B70180E390E00E9442345A94ED
:1014D000F7CF77FE5FC09C2D8D2DD7FE02C090E028
:1014E00080E0692E782E40E050E0C6018419910911
:1014F0009D878C87960126193709280D391D812F64
:1015000090E0EE27FF27E81BF90BFF87EE87FFEF40
:101510006F167F0669F4B7018EE290E02B8B3A8B51
:10152000488B598B0E944234598948893A892B89C2
:10153000C614D70454F06C857D85661577052CF4A8
:10154000F901E40FF51F818101C080E371E0671AA2
:1015500071084F5F5F4FEE85FF856E167F066CF05A
:10156000B70190E02B8B3A8B488B598B0E94423409
:101570002B893A8948895989CACF6C147D0439F47A
:101580009A81963318F4953311F404FF81E3B7017F
:1015900090E04BC08A81813309F00F7EB70190E063
:1015A0000E944234111105C074FE18C085E490E019
:1015B00017C0B7018EE290E00E94423482E06624B8
:1015C0006394680EF401E80FF11D8081B70190E08B
:1015D0000E944234115041F3862DF1CF85E690E010
:1015E000B7010E944234D7FC05C0C114D10439F4BC
:1015F00004FF05C0D194C194D1088DE201C08BE2F3
:10160000B70190E00E94423480E36AE0C616D1043C
:101610002CF08F5FFAE0CF1AD108F7CFB70190E036
:101620000E944234B701C601C0960E94423441C1B3
:10163000833631F0833779F0833509F058C021C003
:10164000560172E0A70EB11CF6018081898301E08A
:1016500010E0640114C05601F2E0AF0EB11CF601B7
:10166000C080D18026FF03C0612F70E002C06FEF01
:101670007FEFC6012B8B0E9437348C012B892F778B
:1016800015C05601F2E0AF0EB11CF601C080D1804A
:1016900026FF03C0612F70E002C06FEF7FEFC6012D
:1016A0002B8B0E942C348C012B892068722E23FDF9
:1016B0001AC0852D90E008171907A8F4B70180E239
:1016C00090E00E9442345A94F4CFF60177FC859161
:1016D00077FE81916F01B70190E00E944234511072
:1016E0005A94015011090115110579F7E2C08436A9
:1016F00011F0893651F5560127FF09C0F4E0AF0E0D
:10170000B11CF60160817181828193810AC0F2E08F
:10171000AF0EB11CF60160817181882777FD80953D
:10172000982F022F0F7697FF08C09095809570959F
:1017300061957F4F8F4F9F4F00682AE030E0A401F2
:101740000E94AD34C82EC8183EC0022F853721F440
:101750000F7E2AE030E01DC0097F8F3691F018F42B
:10176000883559F0B0C0803719F0883711F0ABC018
:10177000006104FF09C0046007C024FF08C00660C0
:1017800006C028E030E005C020E130E002C020E1E2
:1017900032E0560107FF09C0F4E0AF0EB11CF601BC
:1017A000608171818281938108C0F2E0AF0EB11C2B
:1017B000F6016081718180E090E0A4010E94AD3467
:1017C000C82EC8180F7706FF0BC0202F2E7FC1161A
:1017D00050F404FF0AC002FD08C0202F2E7E05C071
:1017E000DC2C202F03C0DC2C01C0D12E24FF0DC027
:1017F000FE01EC0DF11D8081803311F4297E09C0BA
:1018000022FF06C0D394D39404C0822F867809F0B7
:10181000D39423FD13C020FF06C01C2DD51418F44B
:10182000150D1D19D52CD51468F4B70180E290E090
:101830002B8B0E944234D3942B89F5CFD51410F40E
:101840005D1801C0512C24FF12C0B70180E390E065
:101850002B8B0E9442342B8922FF17C021FF03C02B
:1018600088E590E002C088E790E0B7010CC0822FC5
:10187000867859F021FD02C080E201C08BE227FD8D
:101880008DE2B70190E00E944234C11638F4B701EE
:1018900080E390E00E9442341150F7CFCA94F401E3
:1018A000EC0DF11D8081B70190E00E944234C1101F
:1018B000F5CF552009F4C2CCB70180E290E00E9438
:1018C00042345A94F6CFF7018681978102C08FEF98
:1018D0009FEF63960FB6F894DEBF0FBECDBFDF91CA
:1018E000CF911F910F91FF90EF90DF90CF90BF901D
:1018F000AF909F908F907F906F905F904F903F90B0
:101900002F90089580E090E00895FC0124853585AE
:10191000F901E058FF4F8081918180589F4F3296A6
:1019200020813181821B930B8F77907897FF0895E8
:10193000019780689F6F01960895FC0184859585C5
:10194000FC01EE57FF4F20813181DC01A058BF4FD1
:101950004D915C9142175307C1F0DC01A20FB31FF8
:101960008C912F5F3F4F2F77307837FD04C0318344
:10197000208390E008952150310920683F6F2F5F48
:101980003F4F3183208390E008958FEF9FEF0895BC
:10199000FC0184859585FC01E058FF4FDC01AE57C2
:1019A000BF4F8D919C91918380830895DC01529665
:1019B000ED91FC91539741E050E05B960C905B9762
:1019C00002C0440F551F0A94E2F7208130E024231F
:1019D0003523232BD1F35696ED91FC9157976083D5
:1019E00081E090E008951F920F920FB60F9211249C
:1019F0000BB60F922F933F934F935F936F938F93F9
:101A00009F93EF93FF936091C6002091FA0330916A
:101A1000FB03C90101968F77907897FD1FC0409115
:101A2000FC035091FD038417950741F0F901E65836
:101A3000FC4F60839093FB038093FA03FF91EF9137
:101A40009F918F916F915F914F913F912F910F9047
:101A50000BBE0F900FBE0F901F90189501978068D6
:101A60009F6F0196DCCF1F920F920FB60F92112439
:101A70000BB60F922F933F934F935F936F938F9378
:101A80009F93EF93FF936091CE0020917603309166
:101A90007703C90101968F77907897FD1FC0409119
:101AA0007803509179038417950741F0F901EA50C2
:101AB000FD4F60839093770380937603FF91EF91BE
:101AC0009F918F916F915F914F913F912F910F90C7
:101AD0000BBE0F900FBE0F901F9018950197806856
:101AE0009F6F0196DCCF7F928F929F92AF92BF92B1
:101AF000CF92DF92EF92FF920F931F93CF93DF93DA
:101B0000EC016A017B01413482E458078FE06807E9
:101B1000710508F455C0EA89FB8981E090E00C8CDE
:101B200002C0880F991F0A94E2F7808360E079E091
:101B30008DE390E0A70196010E947F322150310988
:101B4000410951095695479537952795C901EE8565
:101B5000FF859083E889F9898083EC89FD8940813C
:101B600081E090E09C01088C02C0220F331F0A9490
:101B7000E2F7422B4083EC89FD8940819C01098C6E
:101B800002C0220F331F0A94E2F7422B4083EC89F4
:101B9000FD8920810A8C02C0880F991F0A94E2F700
:101BA000282B2083DF91CF911F910F91FF90EF9011
:101BB000DF90CF90BF90AF909F908F907F900895CF
:101BC00060E874E88EE190E0A70196010E947F3200
:101BD00049015A0181E0881A9108A108B108B69418
:101BE000A79497948794A50194012F5F3F4F4F4F7F
:101BF0005F4F220F331F441F551F220F331F441FF7
:101C0000551F220F331F441F551F220F331F441F20
:101C1000551F60E074E284EF90E00E947F320FEF86
:101C200010E0AFEFB0E00E94BD32A70196010E9424
:101C30007F32021B130B10161106CCF5722E709416
:101C400060E079E08DE390E0A70196010E947F3289
:101C500021503109410951092E7F2E5F3F4F4F4FCF
:101C60005F4F220F331F441F551F220F331F441F86
:101C7000551F60E074E284EF90E00E947F320FEF26
:101C800010E0AFEFB0E00E94BD32A70196010E94C4
:101C90007F32021B130B101611066CF420952715CA
:101CA00008F439CFEA89FB891082C40150CF772428
:101CB0007394720EC5CF2F5FF2CF1092DC02109298
:101CC000DB0288EE93E0A0E0B0E08093DD02909329
:101CD000DE02A093DF02B093E0022AE131E030930C
:101CE000DA022093D9024AE753E05093E602409388
:101CF000E50245EC50E05093E8024093E70244ECE3
:101D000050E05093EA024093E90240EC50E05093D7
:101D1000EC024093EB0241EC50E05093EE02409312
:101D2000ED0246EC50E05093F0024093EF02E4E005
:101D3000E093F10273E07093F20267E06093F302C4
:101D400055E05093F40241E04093F5021092BF0237
:101D50001092BE028093C0029093C102A093C2026F
:101D6000B093C3023093BD022093BC0286EF92E091
:101D70009093C9028093C8028DEC90E09093CB02BF
:101D80008093CA028CEC90E09093CD028093CC02B9
:101D900088EC90E09093CF028093CE0289EC90E0A3
:101DA0009093D1028093D0028EEC90E09093D30276
:101DB0008093D202E093D4027093D5026093D6024E
:101DC0005093D7024093D8020895CF92DF92EF92BA
:101DD000FF920F931F93CF93DF936C014115510531
:101DE000F1F08B01EA01E12CF12CD8016D918D010C
:101DF000D601ED91FC910190F081E02DC60109958D
:101E0000E80EF91E2197209781F7C701DF91CF9146
:101E10001F910F91FF90EF90DF90CF900895E12CEC
:101E2000F12CF3CFDB010D900020E9F7AD0141501B
:101E30005109461B570BDC01ED91FC910280F381A7
:101E4000E02D0994EF92FF920F931F93CF93DF93AE
:101E5000EC01FB0101900020E9F7AF01415051096D
:101E6000461B570BE881F9810280F381E02D09952B
:101E70008C01E881F9810190F081E02D6DE0CE01C7
:101E800009957C01E881F9810190F081E02D6AE0FB
:101E9000CE0109950E0D1F1D800F911FDF91CF916F
:101EA0001F910F91FF90EF9008952F923F924F92C4
:101EB0005F926F927F928F929F92AF92BF92CF92DA
:101EC000DF92EF92FF920F931F93CF93DF93CDB7E3
:101ED000DEB7A1970FB6F894DEBF0FBECDBF8C0161
:101EE0004115510509F4C7C04A30510509F474C0C1
:101EF000942E6B01EE24D7FCE094FE2C19A2B1E0E5
:101F0000B41708F0C1C0442E512C612C712C5E0115
:101F1000E1E2AE0EB11C02C069017A01C701B6014F
:101F2000A30192010E947F326C2D929E60191124B0
:101F3000F1E0AF1AB10890E3960F87E3860F6A309D
:101F400008F4892FD5018C932115310541055105E0
:101F500019F7F50101900020E9F7AF01415051094F
:101F60004A195B09D801ED91FC910280F381E02DC3
:101F7000B501C80109953C01D801ED91FC91019092
:101F8000F081E02D6DE0C80109957C01D801ED914B
:101F9000FC910190F081E02D6AE0C8010995E60C02
:101FA000F71C8E0D9F1DA1960FB6F894DEBF0FBED5
:101FB000CDBFDF91CF911F910F91FF90EF90DF90F8
:101FC000CF90BF90AF909F908F907F906F905F90D9
:101FD0004F903F902F9008954B01AA2497FCA09416
:101FE000BA2CB7FC59C0D82C792DC50119A27E0195
:101FF000B1E2EB0EF11CBAE04B2E512C612C712C8E
:102000000BC0862FD7018C93211531054105510551
:10201000F1F0D22E732FCA016D2DA30192010E94FF
:102020007F328D2DEAE02E9F80191124F1E0EF1A06
:10203000F10860E3680F97E3980F8A3010F3892F57
:10204000D7018C93211531054105510511F7F70191
:1020500001900020E9F7AF01415051094E195F0985
:10206000D801ED91FC910280F381E02DB701C80108
:1020700009953C0181CFDC01ED91FC910190F0814B
:10208000E02D09953C0178CFFAE04F2E512C612CC0
:10209000712CAAE09A2E3BCFDC01ED91FC910190CE
:1020A000F081E02D6DE209951C01CC24DD24760140
:1020B000C818D908EA08FB0819A25E01B1E2AB0E04
:1020C000B11C8AE0482E512C612C712C02C0690190
:1020D0007A01C701B601A30192010E947F326C2DE3
:1020E000EAE02E9F60191124F1E0AF1AB10890E3E5
:1020F000960F87E3860F6A3008F4892FD5018C93F9
:10210000211531054105510511F7F5010190002018
:10211000E9F7AF01415051094A195B09D801ED9126
:10212000FC910280F381E02DB501C80109953C01C5
:10213000620C731C21CF8F929F92AF92BF92CF926D
:10214000DF92EF92FF920F931F93CF93DF93CDB760
:10215000DEB7A1970FB6F894DEBF0FBECDBF7C01EE
:10216000D42EE52FCB012115310509F470C0C22E04
:1021700019A2B1E0B21708F075C0822E912CA12CE3
:10218000B12C8E010F5D1F4F0BC0862FF80180838D
:102190002115310541055105E9F0D22EE32FCA0181
:1021A0006D2D7E2FA50194010E947F328D2DC29E40
:1021B000801911240150110960E3680F97E3980F0B
:1021C0008A3018F3892FF8018083211531054105E4
:1021D000510519F7D8010D900020E9F7AD014150E4
:1021E0005109401B510BD701ED91FC910280F38105
:1021F000E02DB801C70109958C01D701ED91FC9143
:102200000190F081E02D6DE0C70109955C01D701D7
:10221000ED91FC910190F081E02D6AE0C7010995F4
:102220000A0D1B1D800F911FA1960FB6F894DEBFFB
:102230000FBECDBFDF91CF911F910F91FF90EF9017
:10224000DF90CF90BF90AF909F908F900895D7016F
:10225000ED91FC910190F081E02D642FC70109956B
:102260008C01CBCF7AE0872E912CA12CB12CFAE0F7
:10227000CF2E87CFEF92FF920F931F93CF93DF93D1
:10228000CDB7DEB7C054D1090FB6F894DEBF0FBE8C
:10229000CDBF2B96EEACFFAC2B979E01235B3F4F3F
:1022A0002D964EAD5FAD2D9760E470E08E010F5F0F
:1022B0001F4FC8010E947434D8010D900020E9F727
:1022C000AD0141505109401B510BD701ED91FC91DB
:1022D0000280F381E02DB801C7010995C05CDF4F92
:1022E0000FB6F894DEBF0FBECDBFDF91CF911F9127
:1022F0000F91FF90EF9008951F920F920FB60F92DB
:1023000011240BB60F922F933F934F935F936F93CC
:102310007F938F939F93AF93BF93EF93FF9380919E
:10232000FE039091FF03892B29F0E091FE03F091C9
:10233000FF030995FF91EF91BF91AF919F918F910D
:102340007F916F915F914F913F912F910F900BBEB5
:102350000F900FBE0F901F9018951F920F920FB6FF
:102360000F9211240BB60F922F933F934F935F93CD
:102370006F937F938F939F93AF93BF93EF93FF934D
:102380008091000490910104892B29F0E0910004D0
:10239000F09101040995FF91EF91BF91AF919F9149
:1023A0008F917F916F915F914F913F912F910F90FE
:1023B0000BBE0F900FBE0F901F9018951F920F929B
:1023C0000FB60F9211240BB60F922F933F934F939A
:1023D0005F936F937F938F939F93AF93BF93EF938D
:1023E000FF938091020490910304892B29F0E091DE
:1023F0000204F09103040995FF91EF91BF91AF9111
:102400009F918F917F916F915F914F913F912F910C
:102410000F900BBE0F900FBE0F901F9018951F923C
:102420000F920FB60F9211240BB60F922F933F937A
:102430004F935F936F937F938F939F93AF93BF93CC
:10244000EF93FF938091040490910504892B29F068
:10245000E0910404F09105040995FF91EF91BF917B
:10246000AF919F918F917F916F915F914F913F912C
:102470002F910F900BBE0F900FBE0F901F901895CD
:102480001F920F920FB60F9211240BB60F922F933B
:102490003F934F935F936F937F938F939F93AF93EC
:1024A000BF93EF93FF938091060490910704892BCB
:1024B00029F0E0910604F09107040995FF91EF914E
:1024C000BF91AF919F918F917F916F915F914F914C
:1024D0003F912F910F900BBE0F900FBE0F901F904A
:1024E00018951F920F920FB60F9211240BB60F92F0
:1024F0002F933F934F935F936F937F938F939F930C
:10250000AF93BF93EF93FF938091080490910904D8
:10251000892B29F0E0910804F09109040995FF91B5
:10252000EF91BF91AF919F918F917F916F915F914B
:102530004F913F912F910F900BBE0F900FBE0F90B8
:102540001F9018951F920F920FB60F9211240BB681
:102550000F922F933F934F935F936F937F938F933C
:102560009F93AF93BF93EF93FF9380910A04909151
:102570000B04892B29F0E0910A04F0910B040995D2
:10258000FF91EF91BF91AF919F918F917F916F914B
:102590005F914F913F912F910F900BBE0F900FBE07
:1025A0000F901F9018951F920F920FB60F92112443
:1025B0000BB60F922F933F934F935F936F937F933D
:1025C0008F939F93AF93BF93EF93FF9380910C04EE
:1025D00090910D04892B29F0E0910C04F0910D04E9
:1025E0000995FF91EF91BF91AF919F918F917F914D
:1025F0006F915F914F913F912F910F900BBE0F9074
:102600000FBE0F901F9018951F920F920FB60F924A
:1026100011242F933F938F939F93AF93BF938091F8
:102620000F0490911004A0911104B0911204309104
:102630000E0423E0230F2D3768F126E8230F0296BE
:10264000A11DB11D20930E0480930F0490931004DC
:10265000A0931104B0931204809113049091140478
:10266000A0911504B09116040196A11DB11D80938F
:10267000130490931404A0931504B0931604BF910F
:10268000AF919F918F913F912F910F900FBE0F901F
:102690001F9018950196A11DB11DD4CF2FB7F894A6
:1026A00060910F04709110048091110490911204B4
:1026B0002FBF0895CF92DF92EF92FF920F931F9357
:1026C0002FB7F894C0900F04D0901004E09011043C
:1026D000F09012042FBFEFB7F89400910F041091FF
:1026E00010042091110430911204EFBF0C191D0940
:1026F0002E093F09601771078207930760F71F9142
:102700000F91FF90EF90DF90CF9008950197009781
:1027100051F0880F991F880F991F02972FB7F894CF
:102720000197F1F72FBF0895789484B5886084BD30
:1027300084B5806484BD84B5826084BD84B58160C5
:1027400084BDEEE6F0E0808181608083EAE7F0E01E
:1027500080818460808380818260808380818160C9
:1027600080838081806880831092C10008959FB724
:10277000F8948091170481110CC0289A209A8CB586
:1027800080618CBD8CB580648CBD219A229A809129
:1027900017048F5F809317049FBF08951F920F92B5
:1027A0000FB60F9211240BB60F922F933F934F93B6
:1027B0005F936F937F938F939F93AF93BF93EF93A9
:1027C000FF93E0911804F0911904309781F0809103
:1027D0007800209179006381748190E00180F2811A
:1027E000E02D922B09951092190410921804FF9174
:1027F000EF91BF91AF919F918F917F916F915F9179
:102800004F913F912F910F900BBE0F900FBE0F90E5
:102810001F9018951F920F920FB60F9211240BB6AE
:102820000F927F928F929F92AF92BF92CF92DF9240
:10283000EF92FF920F931F932F933F934F935F93CA
:102840006F937F938F939F93AF93BF93EF93FF9378
:10285000CF93DF93CDB7DEB76197DEBFCDBFF090EA
:10286000ED00B0EE7B2E10EDC12E00ECD02E80EBF3
:10287000E82E00EA10E9F0E8E0E770E660E550E4F1
:1028800040E330E220E106C01092ED008091EE00BE
:1028900085FD15C09091E0008091E100892B09F43D
:1028A0009FC08091E00080FDEFCF8091E00081FF2C
:1028B00082C02093ED008091EE0085FFEBCF109257
:1028C000EE008AE090E08C0F9D1F998788878091A9
:1028D000FA008A878091FA008B878091FA008C87B2
:1028E0008091FA008D878091FA008E878091FA009E
:1028F0008F878091FA00888B8091FA00898B809174
:10290000EF008F708D838091EF00829581708F83AF
:102910009091F00092FB992790F99E83882309F407
:102920009DC04091F3008091F2008090F1002091D1
:10293000F00090E0982F88279295990F907EAA2713
:1029400097FDA095BA2F30E2839E40011124AA245E
:1029500097FCA094BA2C880D991DAA1DBB1D50E0B0
:1029600060E070E0E5E1440F551F661F771FEA95B0
:10297000D1F7840F951FA61FB71F422F50E0559522
:1029800047955595479555954795662757FD609509
:10299000762F840F951FA61FB71F89839A83AB8359
:1029A000BC836091ED00E0911A04F0911B04CE010C
:1029B0000196099560CF8091E00082FF03C03093BB
:1029C000ED0064CF8091E00083FF03C04093ED00F1
:1029D0005DCF8091E00084FF2BC05093ED0056CF77
:1029E000F092ED0061960FB6F894DEBF0FBECDBF3A
:1029F000DF91CF91FF91EF91BF91AF919F918F9117
:102A00007F916F915F914F913F912F911F910F9106
:102A1000FF90EF90DF90CF90BF90AF909F908F90FE
:102A20007F900F900BBE0F900FBE0F901F901895C8
:102A30008091E00085FF03C06093ED0027CF809177
:102A4000E00086FD22C08091E00087FD2FC08091CC
:102A5000E10080FF1DC0F093ED0018CF2091F3003E
:102A60008091F20090E0959587959595879595953D
:102A70008795959587959595879538E0239F800D47
:102A8000911D11249A8389838CCF7093ED00FECE23
:102A90008091E10081FD07C08091E10082FF09C0C3
:102AA0000093ED00F3CE1093ED00F0CEE093ED0037
:102AB000EDCE8091E10083FF03C0E092ED00E6CE11
:102AC0008091E10084FF03C0D092ED00DFCE8091C1
:102AD000E10085FF03C0C092ED00D8CE8091E100F7
:102AE00086FFD4CE7092ED00D1CE0F931F93CF937B
:102AF000DF938C0140912F04242F332727FD30953D
:102B00003F934F931F938F9326E231E03F932F9390
:102B1000C9EDD2E0DF93CF93ADDBE0912F048DB709
:102B20009EB708960FB6F8949EBF0FBE8DBFE7FD07
:102B300029C06091300470E080E094E00E946C3223
:102B4000C8010E945832FF27E7FDF095E45EFB4F75
:102B5000608377277F936F938AE291E09F938F93AF
:102B6000DF93CF9387DB80912F040F900F900F900E
:102B70000F900F900F90823054F010922F0481E04C
:102B800080932E04DF91CF911F910F9108958F5F55
:102B900080932F0481E080932E04DF91CF911F91C9
:102BA0000F91089510921F04109221041092200496
:102BB0001092230410922204109219041092180407
:102BC000EAE7F0E097E09083ACE7B0E080E48C9334
:102BD00020812868208310922404109226041092E9
:102BE00025041092280410922704109219041092C0
:102BF000180490838C9320812868208310922904E4
:102C000010922B0410922A0410922D0410922C047E
:102C1000109219041092180490838C938081886814
:102C2000808308951F920F920FB60F9211248F93F5
:102C300080915C048F5F80935C0480915B048F5F64
:102C400080935B0480915A048F5F80935A04809133
:102C500059048F5F8093590480915C048F3F49F140
:102C600080915A048C3320F010925A0410926A0416
:102C700080915904853170F0109259048091640458
:102C8000813009F1809165048130C9F0809166043A
:102C9000813031F08F910F900FBE0F901F901895DB
:102CA0002D9919C02D9A8F910F900FBE0F901F90E4
:102CB000189510925C0489E080933804D1CF2E9B44
:102CC0000CC02E98E3CF2F990AC02F9A80916504EB
:102CD0008130E1F6F4CF2D98DDCF2E9AD7CF2F9803
:102CE000D1CF10926C0410926E0410926F04109267
:102CF0007004109271048FEF9FEF90937304809390
:102D0000720410927804109277048CEF9FE09093F5
:102D10007A048093790487E08093740481E080933F
:102D2000750410926D040895CF93DF93CDB7DEB78D
:102D300029970FB6F894DEBF0FBECDBF10925C048A
:102D4000DC012D913C912231310509F482C088F5D6
:102D50002031310509F467C02131310509F5DC0165
:102D60001796ED91FC91189788E0A1E5B4E00190E9
:102D70000D928A95E1F749E050E06DEE70E0CE01EA
:102D800001960E940D341092ED001092EE008F819A
:102D9000811131C090E88D818F70892B8093EF0075
:102DA00029960FB6F894DEBF0FBECDBFDF91CF914D
:102DB00008952331310509F12431310589F7DC010A
:102DC0001796ED91FC91189788E0A9E3B4E0019083
:102DD0000D928A95E1F749E050E067EB70E0CE0193
:102DE00001960E940D3480E38093ED001092EE0076
:102DF0008F81882379F290E9CECFDC011796ED918F
:102E0000FC91189788E0A1E4B4E001900D928A95B6
:102E1000E1F749E050E069EC70E0CE0101960E94D4
:102E20000D3480E2E1CFDC011796ED91FC9118970B
:102E300088E0A1E3B4E001900D928A95E1F749E0C2
:102E400050E065EA70E0CE0101960E940D3480E406
:102E5000CBCFDC011796ED91FC91189788E0A9E49F
:102E6000B4E001900D928A95E1F749E050E06BEDF6
:102E700070E0CE0101960E940D3480E1B5CFFC01D7
:102E8000818181115CC093858485289820E92EBDBD
:102E900000000DB407FEFDCF2EB524E22EBD0000CC
:102EA0000DB407FEFDCF2EB528EE2EBD00000DB4EB
:102EB00007FEFDCF2EB59EBD00000DB407FEFDCF71
:102EC0009EB58EBD00000DB407FEFDCF8EB5289ACD
:102ED000A4EE74E260E128986EBD00000DB407FE18
:102EE000FDCF8EB57EBD00000DB407FEFDCF8EB5C3
:102EF000AEBD00000DB407FEFDCF8EB51EBC0000B8
:102F00000DB407FEFDCF8EB51EBC00000DB407FE4C
:102F1000FDCF9EB51EBC00000DB407FEFDCF8EB5E3
:102F2000289A292F382F438554854217530729F0B3
:102F30002F3F3F4081F682E3089580E00895289A6C
:102F400043855485289880E98EBD00000DB407FEA6
:102F5000FDCF8EB584E28EBD00000DB407FEFDCF1F
:102F60008EB588EE8EBD00000DB407FEFDCF8EB588
:102F70004EBD00000DB407FEFDCF8EB55EBD000056
:102F80000DB407FEFDCF8EB51EBC00000DB407FECC
:102F9000FDCF8EB51EBC00000DB407FEFDCF8EB573
:102FA000289A118270CFCF93FC01CB0125853685FD
:102FB0002617370708F071C02181211174C03385AD
:102FC0002485289840E94EBD00000DB407FEFDCFD2
:102FD0004EB544E24EBD00000DB407FEFDCF4EB528
:102FE00048EE4EBD00000DB407FEFDCF4EB53EBD10
:102FF00000000DB407FEFDCF3EB52EBD00000DB4A0
:1030000007FEFDCF2EB5289A258536852817390766
:1030100008F040C0C4EEB4E2A0E16CEF7FE0289875
:10302000AEBD00000DB407FEFDCF2EB5BEBD000045
:103030000DB407FEFDCF2EB5CEBD00000DB407FECA
:10304000FDCF2EB51EBC00000DB407FEFDCF2EB582
:103050001EBC00000DB407FEFDCF3EB51EBC000037
:103060000DB407FEFDCF2EB5289A432F522F4F3FA8
:103070002FE05207A9F023853485241B350B2C7FC4
:103080003F70AB01421B530B5687458748175907C2
:1030900008F4C5CF818181113BC080E0CF910895B4
:1030A00082E3CF910895289A43855485289820E992
:1030B0002EBD00000DB407FEFDCF2EB524E22EBDBF
:1030C00000000DB407FEFDCF2EB528EE2EBD00008A
:1030D0000DB407FEFDCF2EB54EBD00000DB407FEAA
:1030E000FDCF2EB55EBD00000DB407FEFDCF2EB5A1
:1030F0001EBC00000DB407FEFDCF2EB51EBC0000A7
:103100000DB407FEFDCF2EB5289A21E0218357CFBD
:103110004385548560E070E050586F4E7F4F28988B
:10312000862F80688EBD00000DB407FEFDCF8EB5E2
:103130005EBD00000DB407FEFDCF8EB54EBD000094
:103140000DB407FEFDCF8EB581E08183A6CF6F92CF
:103150007F928F929F92AF92BF92CF92DF92EF9227
:10316000FF920F931F93CF93DF9300D000D0CDB782
:10317000DEB78C013B012D5F3F4F4F4F5F4F2C7FE0
:10318000211531054105510509F440C068EED62EE0
:1031900074E2E72EE0E9FE2ECC24C394D8011D96FC
:1031A0008D919C911E97A0E0B0E082179307A40731
:1031B000B50708F43FC080E090E0DC01F301E80FC0
:1031C000F91FE491EEBD00000DB407FEFDCF6EB512
:1031D0000196A11DB11D82179307A407B50770F3CF
:1031E000D8011B968D919C911C97820F931F9F7005
:1031F0001C969C938E931B971D968D919C911E9768
:10320000821B930B1E969C938E931D9780E00F90CC
:103210000F900F900F90DF91CF911F910F91FF9022
:10322000EF90DF90CF90BF90AF909F908F907F9066
:103230006F900895F801818181118FC0F801938505
:1032400084852898FEBC00000DB407FEFDCF6EB546
:10325000EEBC00000DB407FEFDCF6EB5DEBC000075
:103260000DB407FEFDCF6EB59EBD00000DB407FE88
:10327000FDCF9EB58EBD00000DB407FEFDCF8EB50F
:10328000289AD8011D96ED91FC911E974F01A12C13
:10329000B12CDA01C90182169306A406B50610F412
:1032A000D501C4010097A105B10509F4CFC0812C57
:1032B000912C5401F301E80DF91DE491EEBD0000DD
:1032C0000DB407FEFDCF6EB5EFEF8E1A9E0AAE0A63
:1032D000BE0A88169906AA06BB0661F74C015D0175
:1032E000F1E08F1A9108A108B108B4016F5F7F4F18
:1032F000660E771EF801A584B684F801638574858F
:10330000680F791F7F7074876387A81AB90AB68619
:10331000A586281B390B4A0B5B0B922F832F21307C
:10332000F8E03F074105510510F090E088E0692F73
:10333000782FC80129833A834B835C8334DE29814B
:103340003A814B815C81823309F482C021153105B9
:103350004105510509F022CF59CF289A83859485DC
:103360002898FEBC00000DB407FEFDCF6EB5EEBC84
:1033700000000DB407FEFDCF6EB5DEBC00000DB43D
:1033800007FEFDCF6EB58EBD00000DB407FEFDCF6C
:103390006EB59EBD00000DB407FEFDCF8EB51EBC00
:1033A00000000DB407FEFDCF8EB51EBC00000DB4AD
:1033B00007FEFDCF8EB5289AD80111961C92119761
:1033C0001B969C911B971C968C912898FEBC000024
:1033D0000DB407FEFDCF6EB5EEBC00000DB407FEC8
:1033E000FDCF6EB5DEBC00000DB407FEFDCF6EB59F
:1033F0009EBD00000DB407FEFDCF9EB58EBD000042
:103400000DB407FEFDCF8EB5289AF801838594850B
:10341000A0E0B0E09058AF4EBF4F28986A2F606888
:103420006EBD00000DB407FEFDCF6EB59EBD000061
:103430000DB407FEFDCF6EB58EBD00000DB407FEC6
:10344000FDCF8EB5D8011196CC921BCF5F0155CF21
:1034500082E3DDCECF92DF92EF92FF920F931F9324
:10346000CF93DF9300D0CDB7DEB76C017B01FC01B9
:103470008181882309F441C0F601858596850497EA
:1034800080F14EBD00000DB407FEFDCF8EB55EBDD0
:1034900000000DB407FEFDCF8EB5EEBC00000DB4EC
:1034A00007FEFDCF8EB5FEBC00000DB407FEFDCFBC
:1034B0008EB5F6018385948504969F7094878387E3
:1034C0008585968504979687858780E00F900F9075
:1034D000DF91CF911F910F91FF90EF90DF90CF90F0
:1034E000089564E070E0C60149835A835CDD498138
:1034F0005A81823331F682E3E9CF0385148520E0D7
:1035000030E010582F4E3F4F2898822F80688EBD94
:1035100000000DB407FEFDCF8EB51EBD00000DB43A
:1035200007FEFDCF8EB50EBD00000DB407FEFDCF2A
:103530008EB581E0F601818385859685049760F4D8
:1035400064E070E0C60149835A832DDD49815A81C8
:10355000823311F482E325C04EBD00000DB407FE96
:10356000FDCF8EB55EBD00000DB407FEFDCF8EB55C
:10357000EEBC00000DB407FEFDCF8EB5FEBC000012
:103580000DB407FEFDCF8EB5F601838594850496B4
:103590009F7094878387858596850497968785870E
:1035A00080E0289AF60143855485289890E99EBDCD
:1035B00000000DB407FEFDCF9EB594E29EBD000055
:1035C0000DB407FEFDCF9EB598EE9EBD00000DB474
:1035D00007FEFDCF9EB54EBD00000DB407FEFDCF2A
:1035E0009EB55EBD00000DB407FEFDCF9EB51EBCAE
:1035F00000000DB407FEFDCF9EB51EBC00000DB44B
:1036000007FEFDCF9EB5289AF60111825FCF0F937A
:103610001F93CF93DF938B01D82FC92F20916D0477
:10362000222309F442C02091790430917A04243095
:10363000310570F10EBD00000DB407FEFDCF8EB553
:103640001EBD00000DB407FEFDCF8EB5DEBD00002F
:103650000DB407FEFDCF8EB5CEBD00000DB407FE44
:10366000FDCF8EB5809177049091780404969F7079
:1036700090937804809377042450310930937A042E
:103680002093790480E0DF91CF911F910F910895ED
:1036900064E070E08CE694E086DC823309F49BC041
:1036A0002091790430917A04C5CFE0917704F091AC
:1036B0007804AF0160E070E050586F4E7F4F28985B
:1036C000862F80688EBD00000DB407FEFDCF8EB53D
:1036D0005EBD00000DB407FEFDCF8EB54EBD0000EF
:1036E0000DB407FEFDCF8EB581E080936D0420916F
:1036F000790430917A042430310580F464E070E07C
:103700008CE694E050DC823309F46BC0E0917704DE
:10371000F09178042091790430917A040EBD000074
:103720000DB407FEFDCF8EB51EBD00000DB407FE23
:10373000FDCF8EB5DEBD00000DB407FEFDCF8EB50A
:10374000CEBD00000DB407FEFDCF8EB53496FF70E0
:10375000F0937804E09377042450310930937A048D
:103760002093790480E0289AAF01289890E99EBDC3
:1037700000000DB407FEFDCF9EB594E29EBD000093
:103780000DB407FEFDCF9EB598EE9EBD00000DB4B2
:1037900007FEFDCF9EB54EBD00000DB407FEFDCF68
:1037A0009EB55EBD00000DB407FEFDCF9EB51EBCEC
:1037B00000000DB407FEFDCF9EB51EBC00000DB489
:1037C00007FEFDCF9EB5289A10926D04DF91CF9130
:1037D0001F910F91089582E3DF91CF911F910F9177
:1037E000089582E3E0917704F0917804BCCF6F9262
:1037F0007F928F929F92AF92BF92CF92DF92EF9281
:10380000FF920F931F93CF93DF9300D000D0CDB7DB
:10381000DEB73C018B012D5F3F4F4F4F5F4F2C7F39
:103820002115310541055105E9F1F8EEDF2EA4E23D
:10383000EA2EB0E9FB2ECC24C394D3011D968D91C2
:103840009C911E97A0E0B0E082179307A407B507EC
:10385000E8F1F80180E090E0DC0161916EBD0000CC
:103860000DB407FEFDCF6EB50196A11DB11D8217E7
:103870009307A407B50788F3D3011B968D919C91FC
:103880001C97820F931F9F701C969C938E931B977F
:103890001D968D919C911E97821B930B1E969C9357
:1038A0008E931D9780E00F900F900F900F90DF91F7
:1038B000CF911F910F91FF90EF90DF90CF90BF902D
:1038C000AF909F908F907F906F900895F3018181CA
:1038D00081118DC0F301938584852898FEBC00007A
:1038E0000DB407FEFDCF6EB5EEBC00000DB407FEB3
:1038F000FDCF6EB5DEBC00000DB407FEFDCF6EB58A
:103900009EBD00000DB407FEFDCF9EB58EBD00002C
:103910000DB407FEFDCF8EB5289AD3011D96ED910B
:10392000FC911E974F01A12CB12CDA01C90182161E
:103930009306A406B50610F4D501C4010097A105AD
:10394000B10509F4CDC0F801812C912C540161918D
:103950006EBD00000DB407FEFDCF6EB56FEF861A89
:10396000960AA60AB60A88169906AA06BB0679F729
:103970004C015D01E1E08E1A9108A108B108B40183
:103980006F5F7F4F060F171FF301A584B684F30105
:1039900063857485680F791F7F7074876387A81AA1
:1039A000B90AB686A586281B390B4A0B5B0B922FEA
:1039B000832F2130F8E03F074105510510F090E0DA
:1039C00088E0692F782FC30129833A834B835C8376
:1039D000EADA29813A814B815C81823309F482C021
:1039E000211531054105510509F027CF5BCF289AF4
:1039F000838594852898FEBC00000DB407FEFDCF9A
:103A00006EB5EEBC00000DB407FEFDCF6EB5DEBC9A
:103A100000000DB407FEFDCF6EB58EBD00000DB4E5
:103A200007FEFDCF6EB59EBD00000DB407FEFDCFB5
:103A30008EB51EBC00000DB407FEFDCF8EB51EBCBA
:103A400000000DB407FEFDCF8EB5289AD301119664
:103A50001C9211971B969C911B971C968C912898F1
:103A6000FEBC00000DB407FEFDCF6EB5EEBC00003D
:103A70000DB407FEFDCF6EB5DEBC00000DB407FE31
:103A8000FDCF6EB59EBD00000DB407FEFDCF9EB507
:103A90008EBD00000DB407FEFDCF8EB5289AF30150
:103AA00083859485A0E0B0E09058AF4EBF4F289832
:103AB0006A2F60686EBD00000DB407FEFDCF6EB5C5
:103AC0009EBD00000DB407FEFDCF6EB58EBD00009B
:103AD0000DB407FEFDCF8EB5D3011196CC921DCF4C
:103AE0005F0155CF82E3DFCE8F929F92AF92BF925C
:103AF000CF92DF92EF92FF920F931F93CF93DF93BA
:103B00001F92CDB7DEB74C016B015A014CE05FEF5D
:103B10006FEF7FEF29839EDCA501662757FD609537
:103B2000762FBA0155274427C601A0E0B0E0482B04
:103B3000592B6A2B7B2BC4018DDCA80160E070E05F
:103B4000BA01552744272981422BC40183DCF701A0
:103B500001900020E9F7EE19FF099F0140E050E0D5
:103B6000F4018181882381F0B701C4010F90DF91B6
:103B7000CF911F910F91FF90EF90DF90CF90BF906A
:103B8000AF909F908F9033CE83859485A0E0B0E076
:103B90009058AF4EBF4F28986A2F60686EBD0000E6
:103BA0000DB407FEFDCF6EB59EBD00000DB407FE3F
:103BB000FDCF6EB58EBD00000DB407FEFDCF8EB5F6
:103BC00081E0F4018183B701C40111DE289AF40178
:103BD00043855485289890E99EBD00000DB407FEEA
:103BE000FDCF9EB594E29EBD00000DB407FEFDCF53
:103BF0009EB598EE9EBD00000DB407FEFDCF9EB5AC
:103C00004EBD00000DB407FEFDCF9EB55EBD0000A9
:103C10000DB407FEFDCF9EB51EBC00000DB407FE1F
:103C2000FDCF9EB51EBC00000DB407FEFDCF9EB5B6
:103C3000289AF40111820F90DF91CF911F910F917B
:103C4000FF90EF90DF90CF90BF90AF909F908F90BC
:103C500008950F931F93CF93DF93CDB7DEB7C05472
:103C6000D1090FB6F894DEBF0FBECDBF9E012E5A0C
:103C70003F4F62964EAD5FAD629760E470E08E019B
:103C80000F5F1F4FC8010E9474344CE05FEF6FEF6D
:103C90007FEF8CE694E0DEDB2B964EAD5FAD2B978D
:103CA00060E070E02D968EAD9FAD2D97AA2797FD11
:103CB000A095BA2FDC0199278827482B592B6A2B0E
:103CC0007B2B8CE694E0C6DB60964EAD5FAD6097D3
:103CD00060E070E0BA01552744272E968FAD2E97ED
:103CE000482B8CE694E0B6DBF80101900020E9F760
:103CF000E01BF10B9F0140E050E080916D048823B0
:103D000081F0B8018CE694E072DDC05CDF4F0FB645
:103D1000F894DEBF0FBECDBFDF91CF911F910F9101
:103D200008958091770490917804A0E0B0E09058D5
:103D3000AF4EBF4F28986A2F60686EBD00000DB46B
:103D400007FEFDCF6EB59EBD00000DB407FEFDCF92
:103D50006EB58EBD00000DB407FEFDCF8EB581E0BF
:103D600080936D04B8018CE694E041DD289A40917F
:103D7000770450917804289890E99EBD00000DB416
:103D800007FEFDCF9EB594E29EBD00000DB407FE78
:103D9000FDCF9EB598EE9EBD00000DB407FEFDCF91
:103DA0009EB54EBD00000DB407FEFDCF9EB55EBDB5
:103DB00000000DB407FEFDCF9EB51EBC00000DB483
:103DC00007FEFDCF9EB51EBC00000DB407FEFDCF63
:103DD0009EB5289A10926D0498CFEF92FF920F93A0
:103DE0001F93CF93DF93CDB7DEB7C058D1090FB67D
:103DF000F894DEBF0FBECDBFC757DF4F08811981D2
:103E0000C958D040CE56DF4F68817981C259D04021
:103E1000CE0101960E9416347E0181E4E80EF11C69
:103E20009E012C563F4FAE014F5F5F4F60E470E044
:103E3000C7010E9474344CE05FEF6FEF7FEFC80161
:103E400009DBC557DF4F48815981CB58D04060E02E
:103E500070E0C357DF4F88819981CD58D040AA27A1
:103E600097FDA095BA2FDC0199278827482B592B5D
:103E70006A2B7B2BC801EEDAC057DF4F488159818E
:103E8000C059D04060E070E0BA0155274427C157BF
:103E9000DF4F8881CF58D040482BC801DBDAF701CB
:103EA00001900020E9F7EE19FF099F0140E050E082
:103EB000F8018181882389F0B701C80198DCC058D6
:103EC000DF4F0FB6F894DEBF0FBECDBFDF91CF91AD
:103ED0001F910F91FF90EF90089583859485A0E046
:103EE000B0E09058AF4EBF4F28986A2F60686EBD03
:103EF00000000DB407FEFDCF6EB59EBD00000DB4F1
:103F000007FEFDCF6EB58EBD00000DB407FEFDCFE0
:103F10008EB581E0F8018183B701C80168DC289A79
:103F2000F80143855485289890E99EBD00000DB4A2
:103F300007FEFDCF9EB594E29EBD00000DB407FEC6
:103F4000FDCF9EB598EE9EBD00000DB407FEFDCFDF
:103F50009EB54EBD00000DB407FEFDCF9EB55EBD03
:103F600000000DB407FEFDCF9EB51EBC00000DB4D1
:103F700007FEFDCF9EB51EBC00000DB407FEFDCFB1
:103F80009EB5289AF80111829ACF4F925F926F9254
:103F90007F928F929F92AF92BF92CF92DF92EF92D9
:103FA000FF921F93CF93DF93CDB7DEB72C970FB659
:103FB000F894DEBF0FBECDBF2C018CE0EAE0F1E04B
:103FC000DE01119601900D928A95E1F78CB58C7FF8
:103FD0008CBD8DB581608DBD28981EBC00000DB4D0
:103FE00007FEFDCF8EB51EBC00000DB407FEFDCF51
:103FF0008EB51EBC00000DB407FEFDCF8EB51EBCF5
:1040000000000DB407FEFDCF8EB51EBC00000DB440
:1040100007FEFDCF8EB5289A64E170E080E090E065
:104020000E945A1364E170E080E090E00E945A130D
:1040300010E098E0692E24E2722E30E1832E4CE6E7
:10404000942E55E2A52E60E9B62E28988EBC00006D
:104050000DB407FEFDCF8EB57EBC00000DB407FE8B
:10406000FDCF8EB56EBC00000DB407FEFDCF8EB542
:104070001EBC00000DB407FEFDCF8EB51EBC0000B7
:104080000DB407FEFDCF4EB51EBC00000DB407FEFB
:10409000FDCF3EB51EBC00000DB407FEFDCF9EB5A2
:1040A0001EBC00000DB407FEFDCF8EB5289AC42EAD
:1040B000D32EE92EF82E89E09DE30E9486132898DE
:1040C0008EBC00000DB407FEFDCF8EB57EBC000097
:1040D0000DB407FEFDCF8EB56EBC00000DB407FE1B
:1040E000FDCF8EB51EBC00000DB407FEFDCF8EB512
:1040F0001EBC00000DB407FEFDCFEEB51EBC0000D7
:104100000DB407FEFDCF3EB51EBC00000DB407FE8A
:10411000FDCF9EB51EBC00000DB407FEFDCF8EB5D1
:10412000289A4E2F532F692F782F4C195D096E094D
:104130007F09440F551F661F771F440F551F661FC9
:10414000771F440F551F661F771F440F551F661FAB
:10415000771F440F551F661F771F440F551F661F9B
:10416000771F411586EC58078DEC680782E07807C9
:10417000F0F42898BEBC00000DB407FEFDCF8EB54C
:10418000AEBC00000DB407FEFDCF8EB59EBC000096
:104190000DB407FEFDCF8EB51EBD00000DB407FEA9
:1041A000FDCF8EB5289A1F5F1F3109F04ECF28989A
:1041B00080E98EBD00000DB407FEFDCF8EB584E210
:1041C0008EBD00000DB407FEFDCF8EB58CE08EBD18
:1041D00000000DB407FEFDCF8EB54EBD00000DB43E
:1041E00007FEFDCF8EB55EBD00000DB407FEFDCF0E
:1041F0008EB56EBD00000DB407FEFDCF8EB57EBD41
:1042000000000DB407FEFDCF8EB5289A289880E9EE
:104210008EBD00000DB407FEFDCF8EB51EBC0000A4
:104220000DB407FEFDCF8EB51EBC00000DB407FE19
:10423000FDCF8EB5FE013196CE010D9621912EBD9A
:1042400000000DB407FEFDCF2EB5E817F907B1F752
:10425000289A289880E98EBD00000DB407FEFDCF96
:104260008EB584E28EBD00000DB407FEFDCF8EB585
:1042700080E58EBD00000DB407FEFDCF8EB582E057
:104280008EBD00000DB407FEFDCF8EB5289AF20159
:10429000148613868CEF9FE0968785872C960FB641
:1042A000F894DEBF0FBECDBFDF91CF911F91FF907D
:1042B000EF90DF90CF90BF90AF909F908F907F90C6
:1042C0006F905F904F900895CF92DF92EF92FF92A0
:1042D0000F931F93CF93DF93CDB7DEB76F970FB6D2
:1042E000F894DEBF0FBECDBF40E051EE60E070E05D
:1042F00089ED92E00E94730D809172049091730495
:10430000019619F08DB1887F8DB984B1856084B92B
:10431000289A0E94B7138CB58C7F8CBD8DB58160B7
:104320008DBD8CB58F7D8CBD8CB5837F8CBD8CE6AF
:1043300094E02BDE289880E98EBD00000DB407FEC6
:10434000FDCF8EB584E28EBD00000DB407FEFDCF1B
:104350008EB588E48EBD00000DB407FEFDCF8EB58E
:104360001EBC00000DB407FEFDCF8EB51EBC0000C4
:104370000DB407FEFDCF8EB5289A289880E98EBD32
:1043800000000DB407FEFDCF8EB584E28EBD0000A7
:104390000DB407FEFDCF8EB58CE48EBD00000DB4CC
:1043A00007FEFDCF8EB58AE08EBD00000DB407FE7E
:1043B000FDCF8EB51EBC00000DB407FEFDCF8EB53F
:1043C000289A289880E98EBD00000DB407FEFDCF25
:1043D0008EB584E28EBD00000DB407FEFDCF8EB514
:1043E00080E48EBD00000DB407FEFDCF8EB58CE0DD
:1043F0008EBD00000DB407FEFDCF8EB51EBC0000C3
:104400000DB407FEFDCF8EB5289A289880E98EBDA1
:1044100000000DB407FEFDCF8EB584E28EBD000016
:104420000DB407FEFDCF8EB58CE38EBD00000DB43C
:1044300007FEFDCF8EB584E28EBD00000DB407FEF1
:10444000FDCF8EB581E08EBD00000DB407FEFDCF1F
:104450008EB5289A289880E98EBD00000DB407FE1D
:10446000FDCF8EB584E28EBD00000DB407FEFDCFFA
:104470008EB584E38EBD00000DB407FEFDCF8EB572
:104480001EBC00000DB407FEFDCF8EB51EBC0000A3
:104490000DB407FEFDCF8EB5289A289880E98EBD11
:1044A00000000DB407FEFDCF8EB584E28EBD000086
:1044B0000DB407FEFDCF8EB588E38EBD00000DB4B0
:1044C00007FEFDCF8EB589E28EBD00000DB407FE5C
:1044D000FDCF8EB51EBC00000DB407FEFDCF8EB51E
:1044E000289A289880E98EBD00000DB407FEFDCF04
:1044F0008EB584E28EBD00000DB407FEFDCF8EB5F3
:104500008CE28EBD00000DB407FEFDCF8EB58BE2B0
:104510008EBD00000DB407FEFDCF8EB51EBC0000A1
:104520000DB407FEFDCF8EB5289A289880E98EBD80
:1045300000000DB407FEFDCF8EB584E28EBD0000F5
:104540000DB407FEFDCF8EB588E28EBD00000DB420
:1045500007FEFDCF8EB584E28EBD00000DB407FED0
:10456000FDCF8EB582E08EBD00000DB407FEFDCFFD
:104570008EB5289A289880E98EBD00000DB407FEFC
:10458000FDCF8EB584E28EBD00000DB407FEFDCFD9
:104590008EB580E38EBD00000DB407FEFDCF8EB555
:1045A00080EE8EBD00000DB407FEFDCF8EB581E01C
:1045B0008EBD00000DB407FEFDCF8EB5289A289859
:1045C00080E98EBD00000DB407FEFDCF8EB584E2FC
:1045D0008EBD00000DB407FEFDCF8EB584E48EBD08
:1045E00000000DB407FEFDCF8EB580E18EBD00004A
:1045F0000DB407FEFDCF8EB581E08EBD00000DB479
:1046000007FEFDCF8EB5289A289880E98EBD000060
:104610000DB407FEFDCF8EB584E28EBD00000DB453
:1046200007FEFDCF8EB588E68EBD00000DB407FEF7
:10463000FDCF8EB581E08EBD00000DB407FEFDCF2D
:104640008EB51EBC00000DB407FEFDCF8EB5289AB6
:10465000289880E98EBD00000DB407FEFDCF8EB511
:1046600084E28EBD00000DB407FEFDCF8EB580E65E
:104670008EBD00000DB407FEFDCF8EB51EBC000040
:104680000DB407FEFDCF8EB51EBC00000DB407FEB5
:10469000FDCF8EB5289A289880E98EBD00000DB414
:1046A00007FEFDCF8EB584E28EBD00000DB407FE7F
:1046B000FDCF8EB58CE68EBD00000DB407FEFDCF9C
:1046C0008EB585E08EBD00000DB407FEFDCF8EB522
:1046D0001EBC00000DB407FEFDCF8EB5289A2898A9
:1046E00088E48EBD00000DB407FEFDCF8EB51EBC64
:1046F00000000DB407FEFDCF8EB51EBC00000DB44A
:1047000007FEFDCF8EB51EBC00000DB407FEFDCF29
:104710008EB51EBC00000DB407FEFDCF8EB5289AE5
:1047200064E170E080E090E00E945A13289880E9EC
:104730008EBD00000DB407FEFDCF8EB584E28EBDA8
:1047400000000DB407FEFDCF8EB584E58EBD0000E0
:104750000DB407FEFDCF8EB581E08EBD00000DB417
:1047600007FEFDCF8EB5289A40E150E060E070E092
:1047700089ED92E00E94550F28988CE08EBD0000D4
:104780000DB407FEFDCF8EB51EBC00000DB407FEB4
:10479000FDCF8EB51EBC00000DB407FEFDCF8EB55B
:1047A0001EBC00000DB407FEFDCF8EB51EBC000080
:1047B0000DB407FEFDCF3EB51EBC00000DB407FED4
:1047C000FDCF2EB51EBC00000DB407FEFDCF9EB57B
:1047D0001EBC00000DB407FEFDCF8EB5289AC32E77
:1047E000D22EE92EF82E38E0C31631E0D306E306C8
:1047F000F104A1F06EE271E089ED92E00E94120FE7
:1048000020E130E0B701A60189ED92E00E949B1003
:1048100065E471E089ED92E00E94220F60E07FEF95
:104820008FEF9FEF0E94071B67E070E080E096E249
:104830000E94071B86E1E9E6F1E0DE011196019096
:104840000D928A95E1F76FEF7FEF8FEF94E00E9472
:10485000071BCE0101967C0100E016E02DE142E24B
:1048600050E060EF70E08CE694E03ED960E070E0EC
:104870008FEF94E00E94071B81E591E09F938F9357
:1048800086E08F931F928DE18F931F9288E88F931C
:104890001F9280EF8F938CE694E09F938F93D9D9EA
:1048A00060E070E0CB010E94071B61E07FEF8FEFBB
:1048B0009FEF0E94071B8CE694E00E943F1781E067
:1048C00090E00090740402C0880F991F0A94E2F7E8
:1048D000289820E12EBD00000FB6F894DEBF0FBE71
:1048E000CDBF0DB407FEFDCF2EB524E22EBD0000D6
:1048F0000DB407FEFDCF2EB520E92EBD00000DB48E
:1049000007FEFDCF2EB51EBC00000DB407FEFDCF87
:104910002EB51EBC00000DB407FEFDCF9EB5289A33
:10492000982B80E928988EBD00000DB407FEFDCFBE
:104930002EB524E22EBD00000DB407FEFDCF2EB52E
:104940008EBD00000DB407FEFDCF8EB59EBD0000EC
:104950000DB407FEFDCF8EB5289A42E25FEF6FEFF0
:104960007FEF8CE694E00E942A1A40E050E0BA0102
:104970008CE694E00E942A1A80916D04882309F441
:104980001CC42FED3AE040E050E066EF70E08CE6AA
:1049900094E00E94A7188CE694E00E943F1760E024
:1049A0007FEF8FEF9FEF0E94071B67E070E080E0D2
:1049B00096E20E94071B60E070E080E095E00E94B4
:1049C000071B60E070E080E091E00E94071B41E37C
:1049D00058EE63E077E08CE694E00E942A1A41E307
:1049E00054EF61E178E08CE694E00E942A1A60E0DE
:1049F00070E0CB010E94071B61E07FEF8FEF9FEF1C
:104A00000E94071B8CE694E00E943F1784E996E120
:104A100090931B0480931A0481E08093D800109235
:104A2000DE001092DF0090EA9093DB001092EC0021
:104A300086E08093E2008CE08093E30087E380933C
:104A4000E4001092E5008091D80082608093D80045
:104A50001092ED001092EF001092EE0080E1809332
:104A6000ED001092EF001092EE0080E28093ED00D6
:104A70001092EF001092EE0080E38093ED00109210
:104A8000EF001092EE0080E48093ED001092EF00B2
:104A90001092EE0080E58093ED001092EF001092EE
:104AA000EE0080E68093ED001092EF001092EE0091
:104AB00080E78093ED001092EF001092EE0080E806
:104AC0008093ED001092EF001092EE0080E9809349
:104AD000ED001092EF001092EE009093ED00109216
:104AE000EF001092EE0080EB8093ED001092EF004B
:104AF0001092EE0080EC8093ED001092EF00109287
:104B0000EE0080ED8093ED001092EF001092EE0029
:104B100080EE8093ED001092EF001092EE0080EF97
:104B20008093ED001092EF001092EE00789449E02F
:104B300050E06DEE70E0CE0147960E940D3449E0E2
:104B400050E064EE70E0CE0101960E940D341092A8
:104B5000ED001092EE008091DE0081608093DE0017
:104B60002D8D8F89988DA98DBA8D222309F43CC48F
:104B7000AC01BD0115E176956795579547951A9556
:104B8000D1F74093F300AC01BD010DE07695679538
:104B9000579547950A95D1F74093F200AC01BD01B6
:104BA00095E076956795579547959A95D1F74093F7
:104BB000F100880F880F880F8093F0008091F0003B
:104BC0009C8D992309F4F7C294E0892B8093F0001F
:104BD0002D8D89819A81AB81BC81222309F4F1C397
:104BE000AC01BD01E5E17695679557954795EA9546
:104BF000D1F74093F700AC01BD01FDE076956795D4
:104C000057954795FA95D1F74093F600AC01BD0151
:104C1000A5E07695679557954795AA95D1F7409366
:104C2000F500880F880F880F8093F4009091F400AE
:104C30008E81882309F4BDC224E081E03F813111D7
:104C400001C080E0820F892B8093F4008D8D81114B
:104C5000B6C390E88B8D8F70892B8093EF0049E06D
:104C600050E06BED70E0CE0147960E940D3449E0B4
:104C700050E062ED70E0CE0101960E940D3480E1BB
:104C80008093ED001092EE008091DE0082608093B0
:104C9000DE002D8D8F89988DA98DBA8D222309F480
:104CA0007BC3AC01BD0115E1769567955795479596
:104CB0001A95D1F74093F300AC01BD010DE0769554
:104CC0006795579547950A95D1F74093F200AC0147
:104CD000BD0195E076956795579547959A95D1F7DB
:104CE0004093F100880F880F880F8093F000809127
:104CF000F0009C8D992309F45AC294E0892B80938B
:104D0000F0002D8D89819A81AB81BC81222309F429
:104D100030C3AC01BD01E5E17695679557954795A0
:104D2000EA95D1F74093F700AC01BD01FDE076951F
:104D3000679557954795FA95D1F74093F600AC01E2
:104D4000BD01A5E07695679557954795AA95D1F74A
:104D50004093F500880F880F880F8093F40090919E
:104D6000F4008E81882309F420C224E081E03F8191
:104D7000311101C080E0820F892B8093F4008D8D6A
:104D80008111F5C290E88B8D8F70892B8093EF0095
:104D900049E050E069EC70E0CE0147960E940D3486
:104DA00049E050E060EC70E0CE0101960E940D34C5
:104DB00080E28093ED001092EE008091DE0084602E
:104DC0008093DE002D8D8F89988DA98DBA8D222339
:104DD00009F4BAC2AC01BD0115E176956795579506
:104DE00047951A95D1F74093F300AC01BD010DE052
:104DF00076956795579547950A95D1F74093F200B8
:104E0000AC01BD0195E076956795579547959A95C4
:104E1000D1F74093F100880F880F880F8093F0003E
:104E20008091F0009C8D992309F4BDC194E0892BF9
:104E30008093F0002D8D89819A81AB81BC812223E2
:104E400009F46FC2AC01BD01E5E176956795579510
:104E50004795EA95D1F74093F700AC01BD01FDE01D
:104E60007695679557954795FA95D1F74093F60053
:104E7000AC01BD01A5E07695679557954795AA9534
:104E8000D1F74093F500880F880F880F8093F400C6
:104E90009091F4008E81882309F483C124E081E09D
:104EA0003F81311101C080E0820F892B8093F40093
:104EB0008D8D811134C290E88B8D8F70892B8093FA
:104EC000EF0049E050E067EB70E0CE0147960E94AA
:104ED0000D3449E050E06EEA70E0CE0101960E9488
:104EE0000D3480E38093ED001092EE008091DE009F
:104EF00088608093DE002D8D8F89988DA98DBA8D65
:104F0000222309F4F9C1AC01BD0115E1769567953D
:104F1000579547951A95D1F74093F300AC01BD0121
:104F20000DE076956795579547950A95D1F740938B
:104F3000F200AC01BD0195E07695679557954795D0
:104F40009A95D1F74093F100880F880F880F8093CE
:104F5000F0008091F0009C8D992309F420C194E029
:104F6000892B8093F0002D8D89819A81AB81BC8142
:104F7000222309F4AEC1AC01BD01E5E17695679548
:104F800057954795EA95D1F74093F700AC01BD01DD
:104F9000FDE07695679557954795FA95D1F740933B
:104FA000F600AC01BD01A5E076956795579547954C
:104FB000AA95D1F74093F500880F880F880F80934A
:104FC000F4009091F4008E81882309F4E6C024E077
:104FD00081E03F81311101C080E0820F892B8093F5
:104FE000F4008D8D811173C190E88B8D8F70892BAA
:104FF0008093EF0049E050E065EA70E0CE0147960B
:105000000E940D3449E050E06CE970E0CE01019659
:105010000E940D3480E48093ED001092EE008091A8
:10502000DE0080618093DE002D8D8F89988DA98DA3
:10503000BA8D222309F438C1AC01BD0115E1769582
:105040006795579547951A95D1F74093F300AC01B2
:10505000BD010DE076956795579547950A95D1F76F
:105060004093F200AC01BD0195E0769567955795A8
:1050700047959A95D1F74093F100880F880F880FD4
:105080008093F0008091F0009C8D992309F483C0F7
:1050900094E0892B8093F0002D8D89819A81AB81DA
:1050A000BC81222309F4EDC0AC01BD01E5E1769598
:1050B000679557954795EA95D1F74093F700AC016E
:1050C000BD01FDE07695679557954795FA95D1F71F
:1050D0004093F600AC01BD01A5E076956795579524
:1050E0004795AA95D1F74093F500880F880F880F50
:1050F0008093F4009091F4008E81882309F449C0D4
:1051000024E081E03F81311101C080E0820F892BD2
:105110008093F4008D8D8111B2C090E88B8D8F70DB
:10512000892B8093EF0089E08093380480935D049D
:1051300087E08093B00081E0809370009CE09093C2
:10514000300410922E049FEF90932F0410921F04AE
:105150008093240482E08093290487B1807F87B9FB
:1051600088B18F6088B984B1806E84B985B18F7140
:1051700085B910BA6F960FB6F894DEBF0FBECDBFDB
:10518000DF91CF911F910F91FF90EF90DF90CF9023
:10519000089520E0B6CF90E07CCF20E019CF90E0DA
:1051A000DFCE20E07CCE90E042CE20E0DFCD90E06C
:1051B000A5CD20E042CD90E008CD8091770490917C
:1051C0007804A0E0B0E09058AF4EBF4F28982A2F47
:1051D00020682EBD00000DB407FEFDCF2EB59EBD8C
:1051E00000000DB407FEFDCF2EB58EBD00000DB43E
:1051F00007FEFDCF8EB581E080936D042FED3AE080
:1052000040E050E066EF70E08CE694E00E94A71862
:10521000289A8091770490917804289820E92EBDEF
:1052200000000DB407FEFDCF2EB524E22EBD000018
:105230000DB407FEFDCF2EB528EE2EBD00000DB437
:1052400007FEFDCF2EB58EBD00000DB407FEFDCFCD
:105250002EB59EBD00000DB407FEFDCF8EB51EBC61
:1052600000000DB407FEFDCF8EB51EBC00000DB4CE
:1052700007FEFDCF8EB5289A10926D048CCB90E975
:105280004DCF9C01369527953695279536952795D0
:105290002093F7008295880F807E8093F60010920D
:1052A000F5001092F40026CF9C013695279536958F
:1052B0002795369527952093F3008295880F807E59
:1052C0008093F2001092F1001092F000DBCE90E992
:1052D0008CCE9C0136952795369527953695279542
:1052E0002093F7008295880F807E8093F6001092BD
:1052F000F5001092F40065CE9C0136952795369501
:105300002795369527952093F3008295880F807E08
:105310008093F2001092F1001092F0001ACE90E902
:10532000CBCD9C01369527953695279536952795B3
:105330002093F7008295880F807E8093F60010926C
:10534000F5001092F400A4CD9C0136952795369572
:105350002795369527952093F3008295880F807EB8
:105360008093F2001092F1001092F00059CD90E974
:105370000ACD9C0136952795369527953695279524
:105380002093F7008295880F807E8093F60010921C
:10539000F5001092F400E3CC9C01369527953695E4
:1053A0002795369527952093F3008295880F807E68
:1053B0008093F2001092F1001092F00098CC90E9E6
:1053C00049CC9C0136952795369527953695279596
:1053D0002093F7008295880F807E8093F6001092CC
:1053E000F5001092F40022CC9C0136952795369555
:1053F0002795369527952093F3008295880F807E18
:105400008093F2001092F1001092F000D7CBCF936E
:10541000DF93CDB7DEB7CC56D1090FB6F894DEBF17
:105420000FBECDBF0E9494130E946421E5E74E2E6B
:10543000E5E15E2E8E010F5F1F4F38019E012F5D4B
:105440003F4F65963FAF2EAF6597FCE62F2EF4E0F9
:105450003F2E80912E04882339F180911804909179
:105460001904892B09F0FFCF80912F04992787FD1C
:105470009095FC01EE0FFF1FEE0FFF1FE80FF91FC5
:10548000E15EFB4F5282418214821382F093190431
:10549000E093180480818F70806480937C008091F9
:1054A0007A00806480937A0080915B048C3008F0ED
:1054B000CEC08091380480935D048091360480933F
:1054C0005E04809131048093630480913204909152
:1054D0003304A0913404B091350423968CAF9DAF72
:1054E000AEAFBFAF239723968FAD239789832296C4
:1054F0008FAD22978A8321968FAD21978B838FADB5
:105500008C8389819A81AB81BC8180935F04909365
:105510006004A0936104B0936204809164048230BB
:1055200009F4F2C080916404811101C02F98809128
:105530006504823009F4EEC080916504811101C0D8
:105540002E9880916604823009F4EAC08091660446
:10555000811101C02D9880916A048111E7C080916A
:105560005D04813009F44BC108F4FAC2823009F4B9
:105570004BC260E07FEF8FEF9FEF0E94071B67E059
:1055800070E080E096E20E94071B86E1E9E6F1E028
:10559000D30101900D928A95E1F76FEF7FEF8FEFC6
:1055A00094E00E94071B730100E016E02DE142E247
:1055B00050E060EF70E08CE694E00E94741D60E0C3
:1055C00070E08FEF94E00E94071B81E591E09F93CC
:1055D0008F9386E08F931F928DE18F931F9288E8BF
:1055E0008F931F9280EF8F933F922F920E94291EDC
:1055F0006FEF7FEF8FEF94E00E94071B61E070E098
:1056000080E09FE10E94071B40E050E76DE07FE8EB
:105610008CE694E00E942A1A60E070E080E091E25B
:105620000E94071B60E070E0CB010E94071B61E055
:105630007FEF8FEF9FEF0E94071B8CE694E00E94A4
:105640003F170FB6F894DEBF0FBECDBF02CF10924A
:105650005B0486B18095898320911E042C83809100
:105660001C048B8390911D049A83309167048317E7
:1056700009F443C631E030936A0410926B0410922F
:105680005A0480936704909368042093690480E52A
:105690008093ED0082E08093F30080EA8093F20033
:1056A0001092F1001092F00088E08093EF0080915A
:1056B000F0008093F0001092EE0089818093FA0050
:1056C0008A818093FA008B818093FA008C81809389
:1056D000FA008D818093FA008E818093FA008F8189
:1056E0008093FA0088858093FA008091EF008064AF
:1056F0008093EF0080912F0487FFDBCE10922F0460
:1057000081E080932E04D5CE2F9A8091650482305B
:1057100009F012CF2E9A80916604823009F016CFDC
:105720002D9A80916A04882309F419CFE0916B04C3
:10573000F0E0E45EFB4F008180916B0410E081306B
:1057400009F41FC608F405C6823061F4F801EE0FB3
:10575000FF1FEB55F34F6591749140E250E0C30198
:105760000E941D34CC24CA94DC2CEC2C44E0F42E92
:10577000812C912CA12C52E0B52E60E07FEF8FEFB1
:105780009FEF0E94071B67E070E080E096E20E94B6
:10579000071BC501B4010E94071B67E070E080E0B1
:1057A00096E20E94071BC701B6010E94071B1F93C8
:1057B0000F9387EB91E09F938F9386E08F931F92D7
:1057C0001FE11F931F9288E88F931F9280EF8F93A2
:1057D0003F922F920E94291E7F926F928FE192E05A
:1057E0009F938F931F921F921F931F9289E18F9314
:1057F0001F928F933F922F920E94291E13CF0091E8
:10580000510410915204209153043091540469962C
:105810000CAF1DAF2EAF3FAF6997809055049090AD
:105820005604A0905704B0905804C901B80120E66E
:105830003AEE40E050E063D6022FA22FB0E020EA1B
:1058400035E14FEF5FEF99D66B017C0169962CAD86
:105850003DAD4EAD5FAD6997C20ED31EE41EF51E81
:10586000C701B60128EE33E040E050E048D6422FB1
:1058700050E06B965FAF4EAF6B97A8EEB3E04A9FD8
:10588000C0014B9F900D5A9F900D1124AA2797FDA0
:10589000A095BA2FA7019601281B390B4A0B5B0B69
:1058A00069962CAF3DAF4EAF5FAF6997C501B401AC
:1058B00020E63AEE40E050E044D6122FA22FBB275C
:1058C000A7FDB09520EA35E14FEF5FEF60D66B01A1
:1058D0007C01C80CD91CEA1CFB1CC701B60128EED0
:1058E00033E040E050E02DD6A22EBB24A7FCB094BC
:1058F00048EE53E0A49EC001A59E900DB49E900D6D
:105900001124AA2797FDA095BA2FC81AD90AEA0A26
:10591000FB0A60E07FEF8FEF9FEF0E94071B67E0BD
:1059200070E080E096E20E94071B6FEF7FEF8FEF41
:1059300092E00E94071B67E070E080E096E20E9420
:10594000071B60E070E080E094E00E94071B69960E
:105950005FAD69975F9368968FAD68978F936796F1
:105960009FAD67979F936696AFAD6697AF931F9273
:105970006A96BFAD6A97BF931F920F93AEE3B2E0F2
:10598000BF93AF9386E0882E8F921F929FE1992E4E
:105990009F921F9284E48F931F9200EF0F933F9288
:1059A0002F920E94291EFF92EF92DF92CF92BF9218
:1059B000AF92812F992787FD90959F938F9387E5CD
:1059C00092E09F938F938F921F929F921F928CECE5
:1059D0008F931F920F933F922F920E94291E0FB612
:1059E000F894DEBF0FBECDBF60E070E0CB010E9437
:1059F000071B61E07FEF8FEF9FEF0E94071B8CE694
:105A000094E00E943F1725CD80916304833009F410
:105A1000EAC408F4CEC4843009F4FAC4853009F02D
:105A2000EDC40E944E1328E532E040E050E067D517
:105A3000633C71408105910508F402C5C12CDD2449
:105A4000DA94ED2CE2E0FE2E0EE911E0BB24B394D3
:105A500060E07FEF8FEF9FEF0E94071B67E070E031
:105A600080E096E20E94071B6FEF7FEF8FEF92E0DE
:105A70000E94071B67E070E080E096E20E94071B2F
:105A800060E070E080E094E00E94071B1F930F939A
:105A900086E08F931F928FE18F931F9284E48F9300
:105AA0001F9280EF8F933F922F920E94291E809128
:105AB0005F0490916004A0916104B0916204E09150
:105AC0005E040FB6F894DEBF0FBECDBFE33208F020
:105AD00039C4F0E0EE0FFF1FEB58FD4F20813181FC
