:1000000021C200000C94AE0A0C94DF0A0C94100B71
:100010000C94410B0C94720B0C94A30B0C94D40B0A
:100020000C94050C3EC200003CC200003AC2000025
:1000300038C2000036C2000034C2000032C20000E4
:1000400030C200000C94360C2CC200002AC2000002
:1000500028C200003CC6000024C2000022C20000EA
:1000600020C200001EC200001CC200001AC2000014
:1000700018C2000016C2000014C2000012C2000024
:1000800066C600000EC200000CC200000AC20000DA
:1000900008C200006E616E00696E6600789CCDD467
:1000A000316EDB301406E047D1288122003974D04C
:1000B000647AC8A0D1A306C1766F9023F8081935D9
:1000C00008319D0E197B851E214760D1216B8F4021
:1000D000C34357065E588015FB4849899CB8CED269
:1000E000210F02347C12DFFB2942219C2D7D9EDFF3
:1000F000BF3B18D535C860974131D350BF5104DD9F
:100100001E3B0B46B6C04C45FC0DBCF235D0A0A53D
:1001100007A64BE29B735E83AF3B0F5B5381F49B5F
:10012000BD692ED60B1A94F42CA0BB9AC7F91E03F6
:10013000B5D1C3C134B989CE1D4757839BE8D3CA13
:100140001EF4621E5DF45EBBE407F3017D917C8DBD
:10015000DEE69DEBDEF766825E45976B03B42D7B92
:100160002F6D1EE7DBEB0B37B836C07CC906179D39
:10017000E77503CB3FE85C456FA2ABDA3CB9743559
:100180002C7FEFA26BE00E925B930FEB2F71272A6F
:10019000B2FBA539E86B896ED11FD165E7F36670B4
:1001A000826E815A896E45EF665D35E887DECDE067
:1001B00060A7C9DB55B5D10D090F6D74BE6F7B27E4
:1001C000764AD1F5E8F3105DF31FE8B1BFFB873F36
:1001D000B4C4024F0E279CDDB5C48184934E956351
:1001E0005F03F120C9CEE363F43F9CDF96692FB72C
:1001F00076C1B49354C151D1CE9DFCF286537B930A
:100200006EA0575759A618E4B99897391B394F0E65
:10021000C927507C12B362F6ECA677A57F66D92D6C
:10022000BA402FA28F5B32D0EA1E3D83A214629E99
:100230003C8DDE2708B0D2F719DC021497718127B4
:10024000EF1304F279F62DA3D947280A7105634FFD
:10025000090274DD2620006620A20FD1E384E13874
:100260003E441FA2A37F6F5F387F07FF27BCE06477
:10027000C5A99FDF77AF1C236D5EAE3FF6866F4F3B
:10028000F737DD59C67D3B339FC7F6CBE87F019D2D
:100290001F8D08494E56414C4944205741524E4902
:1002A0004E470048562053595354454D205052450F
:1002B0004348415247494E473A20252E3066560062
:1002C000736252494F205741524D3A20252E3066D5
:1002D0004300474C56204C4F5720564F4C544147F3
:1002E000453A20252E326656004241545445525913
:1002F000205041434B204C4F5720564F4C544147C0
:10030000453A20252E3266560042415454455259F2
:10031000205741524D3A20252E326643004D4F540E
:100320004F52205741524D3A20252E32664300430A
:100330004F4E54524F4C4C4552205741524D3A204B
:10034000252E3266430000407A10F35A00A0724E08
:1003500018090010A5D4E80000E87648170000E46A
:100360000B54020000CA9A3B000000E1F5050000B2
:1003700080969800000040420F000000A086010017
:100380000000102700000000E803000000006400E7
:10039000000000000A000000000001000000000052
:1003A0002C76D888DC674F0823DFC1DFAE59E1B176
:1003B000B796E5E3E453C63AE651997696E8E6C285
:1003C0008426EB898C9B62ED407C6FFCEFBC9C9F8C
:1003D00040F2BAA56FA5F490055A2AF75C936B6CAE
:1003E000F9676DC11BFCE0E40D47FEF520E6B500A2
:1003F000D0ED902E0300943577050080841E080010
:1004000000204E0A000000C80C333333330F986EBF
:1004100012831141EF8D2114893BE65516CFFEE67C
:10042000DB18D1844B381BF77C1D901DA4BBE42442
:10043000203284725E228100C9F124ECA1E53D27BF
:10044000D1073D2111241FBECFEFD0E1DEBFCDBFCC
:1004500012E0A0E0B1E0E8E6F7E400E00BBF02C084
:1004600007900D92AA31B107D9F723E0AAE1B2E0D3
:1004700001C01D92A63AB207E1F714E0C4E4D4E04B
:1004800000E006C022970109FE010BBF0E948C21EB
:10049000C034D10780E00807A9F70E941D1B0C9407
:1004A000B223AECD2F923F924F925F926F927F9286
:1004B0008F929F92AF92BF92CF92DF92EF92FF9274
:1004C0000F931F93CF93DF93CDB7DEB763970FB62C
:1004D000F894DEBF0FBECDBF7C011B016A01FC0199
:1004E00017821682838181FF66C3BE016F5F7F4FD3
:1004F0004B01F7019381F10193FD859193FF819168
:100500001F01882309F453C3853239F493FD859183
:1005100093FF81911F01853239F4B70190E00E9469
:10052000E92256016501E5CF10E0512C20E0203290
:10053000A0F48B3269F030F4803259F0833269F4E0
:1005400020612CC08D3239F0803339F4216026C00F
:100550002260246023C0286021C027FD27C030ED21
:10056000380F3A3078F426FF06C0FAE01F9F300DAE
:100570001124132F13C06AE0569E300D1124532E00
:1005800020620CC08E3221F426FD11C3206406C007
:100590008C3611F4206802C0883641F4F10193FDD5
:1005A000859193FF81911F018111C1CF9BEB980F22
:1005B000933018F42061805E06C09BE9980F933059
:1005C00008F0AAC12F7E26FF16E02F73722E853603
:1005D00021F4F22FF0647F2E08C0863621F4622FBA
:1005E0006068762E02C01111115077FE07C01C33CF
:1005F00048F444244394410E27E00BC0183030F4F3
:10060000212F06C027E04CE3442E03C027E017E06B
:10061000412C560174E0A70EB11CF6016081718176
:1006200082819381042DA4010E94F4216C0109812F
:1006300000FF02C003FF06C071FC07C072FC08C0C7
:10064000612C08C03DE2632E05C02BE2622E02C081
:1006500090E2692E802F8C7099F1662011F084E071
:1006600001C083E0851510F0512C0BC0581A73FCA3
:1006700008C0B70180E290E00E94E9225A94C9F7CD
:10068000F3CF662029F0B701862D90E00E94E92281
:1006900003FD03C008E910E002C004E910E0F72DF3
:1006A000F0717F2EF8018491882309F476C27110CD
:1006B0008052B70190E00E94E9220F5F1F4FF2CFF6
:1006C00077FE0FC04C0C04FF04C08A81813309F40B
:1006D0004A94141474F5F8E0F41578F588E0482E7F
:1006E0002CC076FC2AC0812F90E08C159D059CF0D3
:1006F0006CEFC6166FEFD60674F0772D7068772E04
:100700000AC0E2E0F0E0EC0FFD1FE10FF11D808177
:10071000803319F411501111F4CF77FE0EC0442428
:100720004394410E812F90E0C816D9062CF41C1971
:1007300004C04424439401C010E077FE07C01C1499
:100740001D043CF496012F5F3F4F05C025E030E0CB
:1007500002C021E030E0662011F02F5F3F4F1123EF
:1007600031F0412F50E04F5F5F4F240F351F452D73
:1007700050E02417350714F4521A01C0512C872D6C
:10078000897049F4552039F0B70180E290E00E9469
:10079000E9225A94F7CF662029F0B701862D90E020
:1007A0000E94E92273FC09C0552039F0B70180E3AB
:1007B00090E00E94E9225A94F7CF77FE5FC09C2D0B
:1007C0008D2DD7FE02C090E080E0692E782E40E0AB
:1007D00050E0C601841991099D878C8796012619DE
:1007E0003709280D391D812F90E0EE27FF27E81BE0
:1007F000F90BFF87EE87FFEF6F167F0669F4B701ED
:100800008EE290E02B8B3A8B488B598B0E94E92229
:10081000598948893A892B89C614D70454F06C85C4
:100820007D85661577052CF4F901E40FF51F8181AC
:1008300001C080E371E0671A71084F5F5F4FEE857A
:10084000FF856E167F066CF0B70190E02B8B3A8B1C
:10085000488B598B0E94E9222B893A89488959890A
:10086000CACF6C147D0439F49A81963318F4953309
:1008700011F404FF81E3B70190E04BC08A8181331A
:1008800009F00F7EB70190E00E94E922111105C026
:1008900074FE18C085E490E017C0B7018EE290E0C6
:1008A0000E94E92282E066246394680EF401E80F56
:1008B000F11D8081B70190E00E94E922115041F3BF
:1008C000862DF1CF85E690E0B7010E94E922D7FCA2
:1008D00005C0C114D10439F404FF05C0D194C194FA
:1008E000D1088DE201C08BE2B70190E00E94E922BD
:1008F00080E36AE0C616D1042CF08F5FFAE0CF1ACD
:10090000D108F7CFB70190E00E94E922B701C601F4
:10091000C0960E94E92241C1833631F0833779F0D5
:10092000833509F058C021C0560172E0A70EB11CF2
:10093000F6018081898301E010E0640114C0560152
:10094000F2E0AF0EB11CF601C080D18026FF03C0DB
:10095000612F70E002C06FEF7FEFC6012B8B0E940A
:10096000DE228C012B892F7715C05601F2E0AF0EE5
:10097000B11CF601C080D18026FF03C0612F70E05A
:1009800002C06FEF7FEFC6012B8B0E94D3228C0138
:100990002B892068722E23FD1AC0852D90E0081740
:1009A0001907A8F4B70180E290E00E94E9225A9466
:1009B000F4CFF60177FC859177FE81916F01B70145
:1009C00090E00E94E92251105A940150110901153A
:1009D000110579F7E2C0843611F0893651F55601D8
:1009E00027FF09C0F4E0AF0EB11CF60160817181F0
:1009F000828193810AC0F2E0AF0EB11CF6016081E2
:100A00007181882777FD8095982F022F0F7697FFA9
:100A100008C090958095709561957F4F8F4F9F4F3F
:100A200000682AE030E0A4010E945423C82EC818B0
:100A30003EC0022F853721F40F7E2AE030E01DC032
:100A4000097F8F3691F018F4883559F0B0C080379F
:100A500019F0883711F0ABC0006104FF09C00460D1
:100A600007C024FF08C0066006C028E030E005C0CB
:100A700020E130E002C020E132E0560107FF09C06A
:100A8000F4E0AF0EB11CF601608171818281938127
:100A900008C0F2E0AF0EB11CF6016081718180E008
:100AA00090E0A4010E945423C82EC8180F7706FFB7
:100AB0000BC0202F2E7FC11650F404FF0AC002FD88
:100AC00008C0202F2E7E05C0DC2C202F03C0DC2C7C
:100AD00001C0D12E24FF0DC0FE01EC0DF11D80815F
:100AE000803311F4297E09C022FF06C0D394D39429
:100AF00004C0822F867809F0D39423FD13C020FF11
:100B000006C01C2DD51418F4150D1D19D52CD5149F
:100B100068F4B70180E290E02B8B0E94E922D39425
:100B20002B89F5CFD51410F45D1801C0512C24FF8A
:100B300012C0B70180E390E02B8B0E94E9222B8941
:100B400022FF17C021FF03C088E590E002C088E7BC
:100B500090E0B7010CC0822F867859F021FD02C0C9
:100B600080E201C08BE227FD8DE2B70190E00E9498
:100B7000E922C11638F4B70180E390E00E94E9222F
:100B80001150F7CFCA94F401EC0DF11D8081B7012B
:100B900090E00E94E922C110F5CF552009F4C2CCA3
:100BA000B70180E290E00E94E9225A94F6CFF70163
:100BB0008681978102C08FEF9FEF63960FB6F894FE
:100BC000DEBF0FBECDBFDF91CF911F910F91FF9080
:100BD000EF90DF90CF90BF90AF909F908F907F90DD
:100BE0006F905F904F903F902F90089580E090E03D
:100BF0000895FC0124853585F901E058FF4F808177
:100C0000918180589F4F329620813181821B930BB6
:100C10008F77907897FF0895019780689F6F01966E
:100C20000895FC0184859585FC01EE57FF4F2081D6
:100C30003181DC01A058BF4F4D915C9142175307A1
:100C4000C1F0DC01A20FB31F8C912F5F3F4F2F77B4
:100C5000307837FD04C03183208390E0089521501F
:100C6000310920683F6F2F5F3F4F3183208390E031
:100C700008958FEF9FEF0895FC0184859585FC0111
:100C8000E058FF4FDC01AE57BF4F8D919C9191838F
:100C900080830895DC015296ED91FC91539741E0D9
:100CA00050E05B960C905B9702C0440F551F0A946E
:100CB000E2F7208130E024233523232BD1F356960D
:100CC000ED91FC915797608381E090E008951F9229
:100CD0000F920FB60F9211240BB60F922F933F93E2
:100CE0004F935F936F938F939F93EF93FF936091D5
:100CF000C6002091580330915903C90101968F779E
:100D0000907897FD1FC040915A0350915B03841760
:100D1000950741F0F901E852FD4F60839093590324
:100D200080935803FF91EF919F918F916F915F9105
:100D30004F913F912F910F900BBE0F900FBE0F90D0
:100D40001F901895019780689F6F0196DCCF1F92C6
:100D50000F920FB60F9211240BB60F922F933F9361
:100D60004F935F936F938F939F93EF93FF93609154
:100D7000CE002091D4023091D502C90101968F771F
:100D8000907897FD1FC04091D6025091D7028417EA
:100D9000950741F0F901EC5AFD4F60839093D5021D
:100DA0008093D402FF91EF919F918F916F915F910A
:100DB0004F913F912F910F900BBE0F900FBE0F9050
:100DC0001F901895019780689F6F0196DCCF7F92E6
:100DD0008F929F92AF92BF92CF92DF92EF92FF924B
:100DE0000F931F93CF93DF93EC016A017B01413492
:100DF00082E458078FE06807710508F455C0EA8956
:100E0000FB8981E090E00C8C02C0880F991F0A9446
:100E1000E2F7808360E079E08DE390E0A70196013E
:100E20000E94602121503109410951095695479589
:100E300037952795C901EE85FF859083E889F98963
:100E40008083EC89FD89408181E090E09C01088CE1
:100E500002C0220F331F0A94E2F7422B4083EC8931
:100E6000FD8940819C01098C02C0220F331F0A9426
:100E7000E2F7422B4083EC89FD8920810A8C02C075
:100E8000880F991F0A94E2F7282B2083DF91CF91D6
:100E90001F910F91FF90EF90DF90CF90BF90AF9098
:100EA0009F908F907F90089560E874E88EE190E0C5
:100EB000A70196010E94602149015A0181E0881A28
:100EC0009108A108B108B694A79497948794A501B6
:100ED00094012F5F3F4F4F4F5F4F220F331F441F2F
:100EE000551F220F331F441F551F220F331F441F4E
:100EF000551F220F331F441F551F60E074E284EF1B
:100F000090E00E9460210FEF10E0AFEFB0E00E9490
:100F10008221A70196010E946021021B130B10166B
:100F20001106CCF5722E709460E079E08DE390E0CC
:100F3000A70196010E946021215031094109510900
:100F40002E7F2E5F3F4F4F4F5F4F220F331F441FA7
:100F5000551F220F331F441F551F60E074E284EFBA
:100F600090E00E9460210FEF10E0AFEFB0E00E9430
:100F70008221A70196010E946021021B130B10160B
:100F800011066CF42095271508F439CFEA89FB89FE
:100F90001082C40150CF77247394720EC5CF2F5F97
:100FA000F2CF10923A021092390288EE93E0A0E05C
:100FB000B0E080933B0290933C02A0933D02B0933B
:100FC0003E022AE131E0309338022093370248EDA7
:100FD00052E0509344024093430245EC50E050935A
:100FE00046024093450244EC50E05093480240933F
:100FF000470240EC50E050934A024093490241ECD2
:1010000050E050934C0240934B0246EC50E050931A
:101010004E0240934D02E4E0E0934F0273E0709380
:10102000500267E06093510255E05093520241E054
:101030004093530210921D0210921C0280931E02D4
:1010400090931F02A0932002B093210230931B02C1
:1010500020931A0284E592E090932702809326025F
:101060008DEC90E090932902809328028CEC90E024
:1010700090932B0280932A0288EC90E090932D02AB
:1010800080932C0289EC90E090932F0280932E02A3
:101090008EEC90E09093310280933002E093320224
:1010A00070933302609334025093350240933602BA
:1010B0000895CF92DF92EF92FF920F931F93CF93F9
:1010C000DF936C0141155105F1F08B01EA01E12C30
:1010D000F12CD8016D918D01D601ED91FC9101901B
:1010E000F081E02DC6010995E80EF91E21972097A1
:1010F00081F7C701DF91CF911F910F91FF90EF9082
:10110000DF90CF900895E12CF12CF3CFDB010D900F
:101110000020E9F7AD0141505109461B570BDC0196
:10112000ED91FC910280F381E02D0994EF92FF9202
:101130000F931F93CF93DF93EC01FB0101900020ED
:10114000E9F7AF0141505109461B570BE881F9817E
:101150000280F381E02D09958C01E881F9810190ED
:10116000F081E02D6DE0CE0109957C01E881F981E7
:101170000190F081E02D6AE0CE0109950E0D1F1D52
:10118000800F911FDF91CF911F910F91FF90EF90F2
:1011900008952F923F924F925F926F927F928F921B
:1011A0009F92AF92BF92CF92DF92EF92FF920F93F6
:1011B0001F93CF93DF93CDB7DEB7A1970FB6F89407
:1011C000DEBF0FBECDBF8C014115510509F4C7C06C
:1011D0004A30510509F474C0942E6B01EE24D7FCFB
:1011E000E094FE2C19A2B1E0B41708F0C1C0442E5F
:1011F000512C612C712C5E01E1E2AE0EB11C02C0DB
:1012000069017A01C701B601A30192010E94602120
:101210006C2D929E60191124F1E0AF1AB10890E391
:10122000960F87E3860F6A3008F4892FD5018C93D7
:10123000211531054105510519F7F50101900020EF
:10124000E9F7AF01415051094A195B09D801ED9105
:10125000FC910280F381E02DB501C80109953C01A4
:10126000D801ED91FC910190F081E02D6DE0C80175
:1012700009957C01D801ED91FC910190F081E02D60
:101280006AE0C8010995E60CF71C8E0D9F1DA1961A
:101290000FB6F894DEBF0FBECDBFDF91CF911F9187
:1012A0000F91FF90EF90DF90CF90BF90AF909F9005
:1012B0008F907F906F905F904F903F902F90089508
:1012C0004B01AA2497FCA094BA2CB7FC59C0D82C87
:1012D000792DC50119A27E01B1E2EB0EF11CBAE035
:1012E0004B2E512C612C712C0BC0862FD7018C9367
:1012F0002115310541055105F1F0D22E732FCA0198
:101300006D2DA30192010E9460218D2DEAE02E9F98
:1013100080191124F1E0EF1AF10860E3680F97E3F8
:10132000980F8A3010F3892FD7018C93211531053E
:101330004105510511F7F70101900020E9F7AF01D0
:10134000415051094E195F09D801ED91FC9102807D
:10135000F381E02DB701C80109953C0181CFDC0183
:10136000ED91FC910190F081E02D09953C0178CF41
:10137000FAE04F2E512C612C712CAAE09A2E3BCF13
:10138000DC01ED91FC910190F081E02D6DE2099579
:101390001C01CC24DD247601C818D908EA08FB0812
:1013A00019A25E01B1E2AB0EB11C8AE0482E512CAD
:1013B000612C712C02C069017A01C701B601A30139
:1013C00092010E9460216C2DEAE02E9F6019112489
:1013D000F1E0AF1AB10890E3960F87E3860F6A3009
:1013E00008F4892FD5018C9321153105410551054C
:1013F00011F7F50101900020E9F7AF0141505109C3
:101400004A195B09D801ED91FC910280F381E02D2E
:10141000B501C80109953C01620C731C21CF8F9264
:101420009F92AF92BF92CF92DF92EF92FF920F9373
:101430001F93CF93DF93CDB7DEB7A1970FB6F89484
:10144000DEBF0FBECDBF7C01D42EE52FCB01211511
:10145000310509F470C0C22E19A2B1E0B21708F02C
:1014600075C0822E912CA12CB12C8E010F5D1F4FC7
:101470000BC0862FF80180832115310541055105E8
:10148000E9F0D22EE32FCA016D2D7E2FA501940124
:101490000E9460218D2DC29E8019112401501109D6
:1014A00060E3680F97E3980F8A3018F3892FF801EB
:1014B0008083211531054105510519F7D8010D909B
:1014C0000020E9F7AD0141505109401B510BD701F4
:1014D000ED91FC910280F381E02DB801C7010995DF
:1014E0008C01D701ED91FC910190F081E02D6DE030
:1014F000C70109955C01D701ED91FC910190F08144
:10150000E02D6AE0C70109950A0D1B1D800F911F90
:10151000A1960FB6F894DEBF0FBECDBFDF91CF917D
:101520001F910F91FF90EF90DF90CF90BF90AF9001
:101530009F908F900895D701ED91FC910190F081DB
:10154000E02D642FC70109958C01CBCF7AE0872E5F
:10155000912CA12CB12CFAE0CF2E87CF1F920F92A5
:101560000FB60F9211240BB60F922F933F934F9308
:101570005F936F937F938F939F93AF93BF93EF93FB
:10158000FF9380915C0390915D03892B29F0E0919A
:101590005C03F0915D030995FF91EF91BF91AF91CD
:1015A0009F918F917F916F915F914F913F912F917B
:1015B0000F900BBE0F900FBE0F901F9018951F92AB
:1015C0000F920FB60F9211240BB60F922F933F93E9
:1015D0004F935F936F937F938F939F93AF93BF933B
:1015E000EF93FF9380915E0390915F03892B29F025
:1015F000E0915E03F0915F030995FF91EF91BF9138
:10160000AF919F918F917F916F915F914F913F919A
:101610002F910F900BBE0F900FBE0F901F9018953B
:101620001F920F920FB60F9211240BB60F922F93A9
:101630003F934F935F936F937F938F939F93AF935A
:10164000BF93EF93FF938091600390916103892B87
:1016500029F0E0916003F09161030995FF91EF910A
:10166000BF91AF919F918F917F916F915F914F91BA
:101670003F912F910F900BBE0F900FBE0F901F90B8
:1016800018951F920F920FB60F9211240BB60F925E
:101690002F933F934F935F936F937F938F939F937A
:1016A000AF93BF93EF93FF93809162039091630395
:1016B000892B29F0E0916203F09163030995FF9172
:1016C000EF91BF91AF919F918F917F916F915F91BA
:1016D0004F913F912F910F900BBE0F900FBE0F9027
:1016E0001F9018951F920F920FB60F9211240BB6F0
:1016F0000F922F933F934F935F936F937F938F93AB
:101700009F93AF93BF93EF93FF9380916403909166
:101710006503892B29F0E0916403F0916503099535
:10172000FF91EF91BF91AF919F918F917F916F91B9
:101730005F914F913F912F910F900BBE0F900FBE75
:101740000F901F9018951F920F920FB60F921124B1
:101750000BB60F922F933F934F935F936F937F93AB
:101760008F939F93AF93BF93EF93FF938091660303
:1017700090916703892B29F0E0916603F09167034C
:101780000995FF91EF91BF91AF919F918F917F91BB
:101790006F915F914F913F912F910F900BBE0F90E2
:1017A0000FBE0F901F9018951F920F920FB60F92B9
:1017B00011240BB60F922F933F934F935F936F9328
:1017C0007F938F939F93AF93BF93EF93FF938091FA
:1017D000680390916903892B29F0E0916803F091E7
:1017E00069030995FF91EF91BF91AF919F918F91FF
:1017F0007F916F915F914F913F912F910F900BBE11
:101800000F900FBE0F901F9018951F920F920FB65A
:101810000F9211240BB60F922F933F934F935F9328
:101820006F937F938F939F93AF93BF93EF93FF93A8
:1018300080916A0390916B03892B29F0E0916A03F0
:10184000F0916B030995FF91EF91BF91AF919F913B
:101850008F917F916F915F914F913F912F910F9059
:101860000BBE0F900FBE0F901F9018951F920F92F6
:101870000FB60F9211242F933F938F939F93AF93A3
:10188000BF9380916D0390916E03A0916F03B0910F
:10189000700330916C0323E0230F2D3768F126E8A5
:1018A000230F0296A11DB11D20936C0380936D033D
:1018B00090936E03A0936F03B093700380917103B4
:1018C00090917203A0917303B09174030196A11DCE
:1018D000B11D8093710390937203A0937303B0932F
:1018E0007403BF91AF919F918F913F912F910F9072
:1018F0000FBE0F901F9018950196A11DB11DD4CF5A
:101900002FB7F89460916D0370916E0380916F030F
:10191000909170032FBF0895CF92DF92EF92FF92C4
:101920000F931F932FB7F894C0906D03D0906E0360
:10193000E0906F03F09070032FBFEFB7F894009121
:101940006D0310916E0320916F0330917003EFBF10
:101950000C191D092E093F096017710782079307AB
:1019600060F71F910F91FF90EF90DF90CF90089557
:101970000197009751F0880F991F880F991F0297C0
:101980002FB7F8940197F1F72FBF0895789484B595
:10199000886084BD84B5806484BD84B5826084BD64
:1019A00084B5816084BDEEE6F0E080818160808353
:1019B000EAE7F0E0808184608083808182608083B8
:1019C0008081816080838081806880831092C100E3
:1019D00008959FB7F8948091750381110CC0289ADF
:1019E000209A8CB580618CBD8CB580648CBD219AA9
:1019F000229A809175038F5F809375039FBF08952E
:101A0000FC01818181115CC093858485289820E93F
:101A10002EBD00000DB407FEFDCF2EB524E22EBD75
:101A200000000DB407FEFDCF2EB528EE2EBD000040
:101A30000DB407FEFDCF2EB59EBD00000DB407FE10
:101A4000FDCF9EB58EBD00000DB407FEFDCF8EB557
:101A5000289AA4EE74E260E128986EBD00000DB4EF
:101A600007FEFDCF8EB57EBD00000DB407FEFDCF95
:101A70008EB5AEBD00000DB407FEFDCF8EB51EBC09
:101A800000000DB407FEFDCF8EB51EBC00000DB4E6
:101A900007FEFDCF9EB51EBC00000DB407FEFDCFB6
:101AA0008EB5289A292F382F43855485421753071E
:101AB00029F02F3F3F4081F682E3089580E00895AA
:101AC000289A43855485289880E98EBD00000DB47E
:101AD00007FEFDCF8EB584E28EBD00000DB407FE7B
:101AE000FDCF8EB588EE8EBD00000DB407FEFDCF94
:101AF0008EB54EBD00000DB407FEFDCF8EB55EBDA8
:101B000000000DB407FEFDCF8EB51EBC00000DB465
:101B100007FEFDCF8EB51EBC00000DB407FEFDCF45
:101B20008EB5289A118270CFCF93FC01CB01258509
:101B300036852617370708F071C02181211174C03E
:101B400033852485289840E94EBD00000DB407FE7A
:101B5000FDCF4EB544E24EBD00000DB407FEFDCFF3
:101B60004EB548EE4EBD00000DB407FEFDCF4EB59C
:101B70003EBD00000DB407FEFDCF3EB52EBD0000FA
:101B80000DB407FEFDCF2EB5289A2585368528177A
:101B9000390708F040C0C4EEB4E2A0E16CEF7FE08A
:101BA0002898AEBD00000DB407FEFDCF2EB5BEBD1A
:101BB00000000DB407FEFDCF2EB5CEBD00000DB464
:101BC00007FEFDCF2EB51EBC00000DB407FEFDCFF5
:101BD0002EB51EBC00000DB407FEFDCF3EB51EBCE9
:101BE00000000DB407FEFDCF2EB5289A432F522FCB
:101BF0004F3F2FE05207A9F023853485241B350B76
:101C00002C7F3F70AB01421B530B5687458748170B
:101C1000590708F4C5CF818181113BC080E0CF9185
:101C2000089582E3CF910895289A43855485289892
:101C300020E92EBD00000DB407FEFDCF2EB524E235
:101C40002EBD00000DB407FEFDCF2EB528EE2EBD33
:101C500000000DB407FEFDCF2EB54EBD00000DB443
:101C600007FEFDCF2EB55EBD00000DB407FEFDCF13
:101C70002EB51EBC00000DB407FEFDCF2EB51EBC58
:101C800000000DB407FEFDCF2EB5289A21E0218378
:101C900057CF4385548560E070E050586F4E7F4FBA
:101CA0002898862F80688EBD00000DB407FEFDCFFA
:101CB0008EB55EBD00000DB407FEFDCF8EB54EBDE6
:101CC00000000DB407FEFDCF8EB581E08183A6CF65
:101CD0006F927F928F929F92AF92BF92CF92DF923C
:101CE000EF92FF920F931F93CF93DF9300D000D01A
:101CF000CDB7DEB78C013B012D5F3F4F4F4F5F4F9C
:101D00002C7F211531054105510509F440C088EEAD
:101D1000D82E94E2E92E60E9F62ECC24C394D801A3
:101D20001D968D919C911E97A0E0B0E082179307BD
:101D3000A407B50708F43FC080E090E0DC01F301A0
:101D4000E80FF91FE491EEBD00000DB407FEFDCFD2
:101D50006EB50196A11DB11D82179307A407B507A3
:101D600070F3D8011B968D919C911C97820F931F45
:101D70009F701C969C938E931B971D968D919C91A2
:101D80001E97821B930B1E969C938E931D9780E04B
:101D90000F900F900F900F90DF91CF911F910F91A7
:101DA000FF90EF90DF90CF90BF90AF909F908F907B
:101DB0007F906F900895F801818181118FC0F801A3
:101DC000938584852898FEBC00000DB407FEFDCFE6
:101DD0006EB5EEBC00000DB407FEFDCF6EB5DEBCE7
:101DE00000000DB407FEFDCF6EB59EBD00000DB422
:101DF00007FEFDCF9EB58EBD00000DB407FEFDCFE2
:101E00008EB5289AD8011D96ED91FC911E974F0131
:101E1000A12CB12CDA01C90182169306A406B506DD
:101E200010F4D501C4010097A105B10509F4CFC094
:101E3000812C912C5401F301E80DF91DE491EEBDC4
:101E400000000DB407FEFDCF6EB5EFEF8E1A9E0AAF
:101E5000AE0ABE0A88169906AA06BB0661F74C01AF
:101E60005D01F1E08F1A9108A108B108B4016F5F1C
:101E70007F4F660E771EF801A584B684F80163854E
:101E80007485680F791F7F7074876387A81AB90AF1
:101E9000B686A586281B390B4A0B5B0B922F832F26
:101EA0002130F8E03F074105510510F090E088E04F
:101EB000692F782FC80129833A834B835C8334DEF2
:101EC00029813A814B815C81823309F482C02115DA
:101ED00031054105510509F022CF59CF289A838554
:101EE00094852898FEBC00000DB407FEFDCF6EB5AA
:101EF000EEBC00000DB407FEFDCF6EB5DEBC0000E9
:101F00000DB407FEFDCF6EB58EBD00000DB407FE0B
:101F1000FDCF6EB59EBD00000DB407FEFDCF8EB5A2
:101F20001EBC00000DB407FEFDCF8EB51EBC000028
:101F30000DB407FEFDCF8EB5289AD80111961C92DC
:101F400011971B969C911B971C968C912898FEBC10
:101F500000000DB407FEFDCF6EB5EEBC00000DB461
:101F600007FEFDCF6EB5DEBC00000DB407FEFDCF51
:101F70006EB59EBD00000DB407FEFDCF9EB58EBDB3
:101F800000000DB407FEFDCF8EB5289AF8018385B9
:101F90009485A0E0B0E09058AF4EBF4F28986A2FCC
:101FA00060686EBD00000DB407FEFDCF6EB59EBD2E
:101FB00000000DB407FEFDCF6EB58EBD00000DB460
:101FC00007FEFDCF8EB5D8011196CC921BCF5F01D5
:101FD00055CF82E3DDCECF92DF92EF92FF920F9347
:101FE0001F93CF93DF9300D0CDB7DEB76C017B0199
:101FF000FC018181882309F441C0F601858596851D
:10200000049780F14EBD00000DB407FEFDCF8EB5E4
:102010005EBD00000DB407FEFDCF8EB5EEBC000026
:102020000DB407FEFDCF8EB5FEBC00000DB407FE5B
:10203000FDCF8EB5F6018385948504969F709487B5
:1020400083878585968504979687858780E00F909E
:102050000F90DF91CF911F910F91FF90EF90DF9044
:10206000CF90089564E070E0C60149835A835CDD37
:1020700049815A81823331F682E3E9CF03851485A1
:1020800020E030E010582F4E3F4F2898822F806874
:102090008EBD00000DB407FEFDCF8EB51EBD000045
:1020A0000DB407FEFDCF8EB50EBD00000DB407FECA
:1020B000FDCF8EB581E0F6018183858596850497F5
:1020C00060F464E070E0C60149835A832DDD4981E4
:1020D0005A81823311F482E325C04EBD00000DB455
:1020E00007FEFDCF8EB55EBD00000DB407FEFDCF2F
:1020F0008EB5EEBC00000DB407FEFDCF8EB5FEBC64
:1021000000000DB407FEFDCF8EB5F60183859485E2
:1021100004969F7094878387858596850497968714
:10212000858780E0289AF60143855485289890E9B0
:102130009EBD00000DB407FEFDCF9EB594E29EBD8E
:1021400000000DB407FEFDCF9EB598EE9EBD0000C9
:102150000DB407FEFDCF9EB54EBD00000DB407FEC9
:10216000FDCF9EB55EBD00000DB407FEFDCF9EB550
:102170001EBC00000DB407FEFDCF9EB51EBC0000C6
:102180000DB407FEFDCF9EB5289AF60111825FCFF0
:102190006F927F928F929F92AF92BF92CF92DF9277
:1021A000EF92FF920F931F93CF93DF9300D000D055
:1021B000CDB7DEB73C018B012D5F3F4F4F4F5F4FD7
:1021C0002C7F2115310541055105E9F178EED72E17
:1021D000E4E2EE2EF0E9FF2ECC24C394D3011D9649
:1021E0008D919C911E97A0E0B0E082179307A40701
:1021F000B507E8F1F80180E090E0DC0161916EBD87
:1022000000000DB407FEFDCF6EB50196A11DB11DF6
:1022100082179307A407B50788F3D3011B968D9106
:102220009C911C97820F931F9F701C969C938E937A
:102230001B971D968D919C911E97821B930B1E964A
:102240009C938E931D9780E00F900F900F900F90AE
:10225000DF91CF911F910F91FF90EF90DF90CF9082
:10226000BF90AF909F908F907F906F900895F301F3
:10227000818181118DC0F301938584852898FEBCEE
:1022800000000DB407FEFDCF6EB5EEBC00000DB42E
:1022900007FEFDCF6EB5DEBC00000DB407FEFDCF1E
:1022A0006EB59EBD00000DB407FEFDCF9EB58EBD80
:1022B00000000DB407FEFDCF8EB5289AD3011D9600
:1022C000ED91FC911E974F01A12CB12CDA01C901AF
:1022D00082169306A406B50610F4D501C401009732
:1022E000A105B10509F4CDC0F801812C912C540150
:1022F00061916EBD00000DB407FEFDCF6EB56FEFAE
:10230000861A960AA60AB60A88169906AA06BB066F
:1023100079F74C015D01E1E08E1A9108A108B1083E
:10232000B4016F5F7F4F060F171FF301A584B684BA
:10233000F30163857485680F791F7F7074876387E5
:10234000A81AB90AB686A586281B390B4A0B5B0B5F
:10235000922F832F2130F8E03F074105510510F0FF
:1023600090E088E0692F782FC30129833A834B835B
:102370005C83DADB29813A814B815C81823309F409
:1023800082C0211531054105510509F027CF5BCFEA
:10239000289A838594852898FEBC00000DB407FE1A
:1023A000FDCF6EB5EEBC00000DB407FEFDCF6EB5DF
:1023B000DEBC00000DB407FEFDCF6EB58EBD000083
:1023C0000DB407FEFDCF6EB59EBD00000DB407FE37
:1023D000FDCF8EB51EBC00000DB407FEFDCF8EB53F
:1023E0001EBC00000DB407FEFDCF8EB5289AD301A8
:1023F00011961C9211971B969C911B971C968C9181
:102400002898FEBC00000DB407FEFDCF6EB5EEBCF3
:1024100000000DB407FEFDCF6EB5DEBC00000DB4AC
:1024200007FEFDCF6EB59EBD00000DB407FEFDCFCB
:102430009EB58EBD00000DB407FEFDCF8EB5289A67
:10244000F30183859485A0E0B0E09058AF4EBF4F74
:1024500028986A2F60686EBD00000DB407FEFDCF9E
:102460006EB59EBD00000DB407FEFDCF6EB58EBDEE
:1024700000000DB407FEFDCF8EB5D3011196CC92AE
:102480001DCF5F0155CF82E3DFCE8F929F92AF9237
:10249000BF92CF92DF92EF92FF920F931F93CF9351
:1024A000DF931F92CDB7DEB74C016B015A014CE0B0
:1024B0005FEF6FEF7FEF29838EDDA501662757FD64
:1024C0006095762FBA0155274427C601A0E0B0E0F9
:1024D000482B592B6A2B7B2BC4017DDDA80160E0C2
:1024E00070E0BA01552744272981422BC40173DDCE
:1024F000F70101900020E9F7EE19FF099F0140E084
:1025000050E0F4018181882381F0B701C4010F906C
:10251000DF91CF911F910F91FF90EF90DF90CF90BF
:10252000BF90AF909F908F9033CE83859485A0E02D
:10253000B0E09058AF4EBF4F28986A2F60686EBDCC
:1025400000000DB407FEFDCF6EB59EBD00000DB4BA
:1025500007FEFDCF6EB58EBD00000DB407FEFDCFAA
:102560008EB581E0F4018183B701C40111DE289AA0
:10257000F40143855485289890E99EBD00000DB470
:1025800007FEFDCF9EB594E29EBD00000DB407FE90
:10259000FDCF9EB598EE9EBD00000DB407FEFDCFA9
:1025A0009EB54EBD00000DB407FEFDCF9EB55EBDCD
:1025B00000000DB407FEFDCF9EB51EBC00000DB49B
:1025C00007FEFDCF9EB51EBC00000DB407FEFDCF7B
:1025D0009EB5289AF40111820F90DF91CF911F913F
:1025E0000F91FF90EF90DF90CF90BF90AF909F90B2
:1025F0008F900895EF92FF920F931F93CF93DF93E5
:10260000CDB7DEB7C054D1090FB6F894DEBF0FBE08
:10261000CDBF2B960EAD1FAD2B979E012C5A3F4F71
:1026200064964EAD5FAD649760E470E0CE010196B4
:102630007C010E941B234CE05FEF6FEF7FEFC8012E
:10264000CADC2F964EAD5FAD2F97662757FD60957C
:10265000762FBA01552744274560C801BCDC609637
:102660004FAD609750E060E070E0C801B4DCF70166
:1026700001900020E9F7EE19FF099F0140E050E0CA
:10268000F8018181882389F0B701C80181DDC05C30
:10269000DF4F0FB6F894DEBF0FBECDBFDF91CF91F5
:1026A0001F910F91FF90EF90089583859485A0E08E
:1026B000B0E09058AF4EBF4F28986A2F60686EBD4B
:1026C00000000DB407FEFDCF6EB59EBD00000DB439
:1026D00007FEFDCF6EB58EBD00000DB407FEFDCF29
:1026E0008EB581E0F8018183B701C80151DD289AD8
:1026F000F80143855485289890E99EBD00000DB4EB
:1027000007FEFDCF9EB594E29EBD00000DB407FE0E
:10271000FDCF9EB598EE9EBD00000DB407FEFDCF27
:102720009EB54EBD00000DB407FEFDCF9EB55EBD4B
:1027300000000DB407FEFDCF9EB51EBC00000DB419
:1027400007FEFDCF9EB51EBC00000DB407FEFDCFF9
:102750009EB5289AF80111829ACFEF92FF920F93BB
:102760001F93CF93DF93CDB7DEB7C054D1090FB617
:10277000F894DEBF0FBECDBF2B960EAD1FAD2B97CD
:102780009E012C5A3F4F64964EAD5FAD649760E456
:1027900070E0CE0101967C010E941B234CE05FEFAC
:1027A0006FEF7FEFC80117DC2D964EAD5FAD2D9713
:1027B00060E070E02F968EAD9FAD2F97AA2797FD12
:1027C000A095BA2FDC0199278827482B592B6A2B13
:1027D0007B2BC80100DC62964EAD5FAD629760E076
:1027E00070E0BA015527442760968FAD6097482B5B
:1027F000C801F1DBF70101900020E9F7EE19FF09AC
:102800009F0140E050E0F8018181882389F0B70101
:10281000C801BEDCC05CDF4F0FB6F894DEBF0FBE50
:10282000CDBFDF91CF911F910F91FF90EF90089551
:1028300083859485A0E0B0E09058AF4EBF4F2898B4
:102840006A2F60686EBD00000DB407FEFDCF6EB547
:102850009EBD00000DB407FEFDCF6EB58EBD00001D
:102860000DB407FEFDCF8EB581E0F8018183B7017D
:10287000C8018EDC289AF80143855485289890E990
:102880009EBD00000DB407FEFDCF9EB594E29EBD37
:1028900000000DB407FEFDCF9EB598EE9EBD000072
:1028A0000DB407FEFDCF9EB54EBD00000DB407FE72
:1028B000FDCF9EB55EBD00000DB407FEFDCF9EB5F9
:1028C0001EBC00000DB407FEFDCF9EB51EBC00006F
:1028D0000DB407FEFDCF9EB5289AF80111829ACF5C
:1028E000EF92FF920F931F93CF93DF93CDB7DEB795
:1028F000C058D1090FB6F894DEBF0FBECDBFC75781
:10290000DF4F08811981C958D040CE56DF4F68810A
:102910007981C259D040CE0101960E94CC227E011D
:1029200081E4E80EF11C9E012C563F4FAE014F5F33
:102930005F4F60E470E0C7010E941B234CE05FEF33
:102940006FEF7FEFC80147DBC557DF4F48815981E3
:10295000CB58D04060E070E0C357DF4F8881998149
:10296000CD58D040AA2797FDA095BA2FDC01992712
:102970008827482B592B6A2B7B2BC8012CDBC0578F
:10298000DF4F48815981C059D04060E070E0BA0102
:1029900055274427C157DF4F8881CF58D040482B57
:1029A000C80119DBF70101900020E9F7EE19FF09D2
:1029B0009F0140E050E0F8018181882389F0B70150
:1029C000C801E6DBC058DF4F0FB6F894DEBF0FBE7C
:1029D000CDBFDF91CF911F910F91FF90EF900895A0
:1029E00083859485A0E0B0E09058AF4EBF4F289803
:1029F0006A2F60686EBD00000DB407FEFDCF6EB596
:102A00009EBD00000DB407FEFDCF6EB58EBD00006B
:102A10000DB407FEFDCF8EB581E0F8018183B701CB
:102A2000C801B6DB289AF80143855485289890E9B7
:102A30009EBD00000DB407FEFDCF9EB594E29EBD85
:102A400000000DB407FEFDCF9EB598EE9EBD0000C0
:102A50000DB407FEFDCF9EB54EBD00000DB407FEC0
:102A6000FDCF9EB55EBD00000DB407FEFDCF9EB547
:102A70001EBC00000DB407FEFDCF9EB51EBC0000BD
:102A80000DB407FEFDCF9EB5289AF80111829ACFAA
:102A90004F925F926F927F928F929F92AF92BF926E
:102AA000CF92DF92EF92FF921F93CF93DF93CDB738
:102AB000DEB72C970FB6F894DEBF0FBECDBF2C014A
:102AC0008CE0EAE0F1E0DE01119601900D928A952A
:102AD000E1F78CB58C7F8CBD8DB581608DBD28985C
:102AE0001EBC00000DB407FEFDCF8EB51EBC00005D
:102AF0000DB407FEFDCF8EB51EBC00000DB407FE61
:102B0000FDCF8EB51EBC00000DB407FEFDCF8EB507
:102B10001EBC00000DB407FEFDCF8EB5289A64E1FF
:102B200070E080E090E00E948C0C64E170E080E056
:102B300090E00E948C0C10E098E0692E24E2722E46
:102B400030E1832E4CE6942E55E2A52E60E9B62E98
:102B500028988EBC00000DB407FEFDCF8EB57EBC5C
:102B600000000DB407FEFDCF8EB56EBC00000DB4A5
:102B700007FEFDCF8EB51EBC00000DB407FEFDCFD5
:102B80008EB51EBC00000DB407FEFDCF4EB51EBCB9
:102B900000000DB407FEFDCF3EB51EBC00000DB415
:102BA00007FEFDCF9EB51EBC00000DB407FEFDCF95
:102BB0008EB5289AC42ED32EE92EF82E89E09DE3F7
:102BC0000E94B80C28988EBC00000DB407FEFDCF03
:102BD0008EB57EBC00000DB407FEFDCF8EB56EBC79
:102BE00000000DB407FEFDCF8EB51EBC00000DB475
:102BF00007FEFDCF8EB51EBC00000DB407FEFDCF55
:102C0000EEB51EBC00000DB407FEFDCF3EB51EBCE8
:102C100000000DB407FEFDCF9EB51EBC00000DB434
:102C200007FEFDCF8EB5289A4E2F532F692F782F90
:102C30004C195D096E097F09440F551F661F771FE8
:102C4000440F551F661F771F440F551F661F771FC0
:102C5000440F551F661F771F440F551F661F771FB0
:102C6000440F551F661F771F411586EC58078DECE2
:102C7000680782E07807F0F42898BEBC00000DB425
:102C800007FEFDCF8EB5AEBC00000DB407FEFDCF34
:102C90008EB59EBC00000DB407FEFDCF8EB51EBDE7
:102CA00000000DB407FEFDCF8EB5289A1F5F1F31BF
:102CB00009F04ECF289880E98EBD00000DB407FEC4
:102CC000FDCF8EB584E28EBD00000DB407FEFDCFB2
:102CD0008EB58CE08EBD00000DB407FEFDCF8EB525
:102CE0004EBD00000DB407FEFDCF8EB55EBD0000E9
:102CF0000DB407FEFDCF8EB56EBD00000DB407FE0E
:102D0000FDCF8EB57EBD00000DB407FEFDCF8EB5A4
:102D1000289A289880E98EBD00000DB407FEFDCFEB
:102D20008EB51EBC00000DB407FEFDCF8EB51EBCD7
:102D300000000DB407FEFDCF8EB5FE013196CE0129
:102D40000D9621912EBD00000DB407FEFDCF2EB5CE
:102D5000E817F907B1F7289A289880E98EBD000096
:102D60000DB407FEFDCF8EB584E28EBD00000DB41C
:102D700007FEFDCF8EB580E58EBD00000DB407FEC9
:102D8000FDCF8EB582E08EBD00000DB407FEFDCFF5
:102D90008EB5289AF201148613868CEF9FE09687F1
:102DA00085872C960FB6F894DEBF0FBECDBFDF919E
:102DB000CF911F91FF90EF90DF90CF90BF90AF9099
:102DC0009F908F907F906F905F904F9008954F925B
:102DD0005F926F927F92AF92BF92CF92DF92EF920B
:102DE000FF920F931F93CF93DF93CDB7DEB7669714
:102DF0000FB6F894DEBF0FBECDBF5C0140E051EED0
:102E000060E070E087E392E00E94E706650121E25E
:102E1000C20ED11CF50187A190A5019619F08DB1C4
:102E2000887F8DB984B1856084B9289A0E94E90CA5
:102E30008CB58C7F8CBD8DB581608DBD8CB58F7D43
:102E40008CBD8CB5837F8CBDC60122DE289880E9BD
:102E50008EBD00000DB407FEFDCF8EB584E28EBDA1
:102E600000000DB407FEFDCF8EB588E48EBD0000D6
:102E70000DB407FEFDCF8EB51EBC00000DB407FEDD
:102E8000FDCF8EB51EBC00000DB407FEFDCF8EB584
:102E9000289A289880E98EBD00000DB407FEFDCF6A
:102EA0008EB584E28EBD00000DB407FEFDCF8EB559
:102EB0008CE48EBD00000DB407FEFDCF8EB58AE018
:102EC0008EBD00000DB407FEFDCF8EB51EBC000008
:102ED0000DB407FEFDCF8EB5289A289880E98EBDE7
:102EE00000000DB407FEFDCF8EB584E28EBD00005C
:102EF0000DB407FEFDCF8EB580E48EBD00000DB48D
:102F000007FEFDCF8EB58CE08EBD00000DB407FE30
:102F1000FDCF8EB51EBC00000DB407FEFDCF8EB5F3
:102F2000289A289880E98EBD00000DB407FEFDCFD9
:102F30008EB584E28EBD00000DB407FEFDCF8EB5C8
:102F40008CE38EBD00000DB407FEFDCF8EB584E28C
:102F50008EBD00000DB407FEFDCF8EB581E08EBDA5
:102F600000000DB407FEFDCF8EB5289A289880E9A1
:102F70008EBD00000DB407FEFDCF8EB584E28EBD80
:102F800000000DB407FEFDCF8EB584E38EBD0000BA
:102F90000DB407FEFDCF8EB51EBC00000DB407FEBC
:102FA000FDCF8EB51EBC00000DB407FEFDCF8EB563
:102FB000289A289880E98EBD00000DB407FEFDCF49
:102FC0008EB584E28EBD00000DB407FEFDCF8EB538
:102FD00088E38EBD00000DB407FEFDCF8EB589E2FB
:102FE0008EBD00000DB407FEFDCF8EB51EBC0000E7
:102FF0000DB407FEFDCF8EB5289A289880E98EBDC6
:1030000000000DB407FEFDCF8EB584E28EBD00003A
:103010000DB407FEFDCF8EB58CE28EBD00000DB461
:1030200007FEFDCF8EB58BE28EBD00000DB407FE0E
:10303000FDCF8EB51EBC00000DB407FEFDCF8EB5D2
:10304000289A289880E98EBD00000DB407FEFDCFB8
:103050008EB584E28EBD00000DB407FEFDCF8EB5A7
:1030600088E28EBD00000DB407FEFDCF8EB584E270
:103070008EBD00000DB407FEFDCF8EB582E08EBD83
:1030800000000DB407FEFDCF8EB5289A289880E980
:103090008EBD00000DB407FEFDCF8EB584E28EBD5F
:1030A00000000DB407FEFDCF8EB580E38EBD00009D
:1030B0000DB407FEFDCF8EB580EE8EBD00000DB4C1
:1030C00007FEFDCF8EB581E08EBD00000DB407FE7A
:1030D000FDCF8EB5289A289880E98EBD00000DB4EA
:1030E00007FEFDCF8EB584E28EBD00000DB407FE55
:1030F000FDCF8EB584E48EBD00000DB407FEFDCF7C
:103100008EB580E18EBD00000DB407FEFDCF8EB5FB
:1031100081E08EBD00000DB407FEFDCF8EB5289A6C
:10312000289880E98EBD00000DB407FEFDCF8EB556
:1031300084E28EBD00000DB407FEFDCF8EB588E69B
:103140008EBD00000DB407FEFDCF8EB581E08EBDB3
:1031500000000DB407FEFDCF8EB51EBC00000DB4FF
:1031600007FEFDCF8EB5289A289880E98EBD000015
:103170000DB407FEFDCF8EB584E28EBD00000DB408
:1031800007FEFDCF8EB580E68EBD00000DB407FEB4
:10319000FDCF8EB51EBC00000DB407FEFDCF8EB571
:1031A0001EBC00000DB407FEFDCF8EB5289A2898EE
:1031B00080E98EBD00000DB407FEFDCF8EB584E220
:1031C0008EBD00000DB407FEFDCF8EB58CE68EBD22
:1031D00000000DB407FEFDCF8EB585E08EBD00006A
:1031E0000DB407FEFDCF8EB51EBC00000DB407FE6A
:1031F000FDCF8EB5289A289888E48EBD00000DB4C6
:1032000007FEFDCF8EB51EBC00000DB407FEFDCF3E
:103210008EB51EBC00000DB407FEFDCF8EB51EBCE2
:1032200000000DB407FEFDCF8EB51EBC00000DB42E
:1032300007FEFDCF8EB5289A64E170E080E090E053
:103240000E948C0C40E150E060E070E087E392E087
:103250000E94C90828988CE08EBD00000DB407FEBE
:10326000FDCF8EB51EBC00000DB407FEFDCF8EB5A0
:103270001EBC00000DB407FEFDCF8EB51EBC0000C5
:103280000DB407FEFDCF8EB51EBC00000DB407FEC9
:10329000FDCF3EB51EBC00000DB407FEFDCF2EB520
:1032A0001EBC00000DB407FEFDCF9EB51EBC000085
:1032B0000DB407FEFDCF8EB5289A432E522E692EEF
:1032C000782E28E0421621E0520662067104A1F031
:1032D00066E271E087E392E00E94860820E130E038
:1032E000B301A20187E392E00E940F0A6DE371E04F
:1032F00087E392E00E94960840E05FEF6FEF7FEF78
:10330000C6010E94EB0F47E050E060E076E2C601A4
:103310000E94EB0F86E1E1E6F1E0DE0111960190FB
:103320000D928A95E1F74FEF5FEF6FEF74E0C60102
:103330000E94EB0FCE0101967C0100E016E02DE12A
:1033400042E250E060EF70E0C6019FD840E050E0FC
:103350006FEF74E0C6010E94EB0F89E491E09F9348
:103360008F9386E08F931F928DE18F931F9288E851
:103370008F931F9280EF8F93DF92CF92EED940E030
:1033800050E0BA01C6010E94EB0F41E05FEF6FEF22
:103390007FEFC6010E94EB0FC6010E94000D81E085
:1033A00090E0F50101A402C0880F991F0A94E2F78A
:1033B000289820E12EBD00000FB6F894DEBF0FBEA6
:1033C000CDBF0DB407FEFDCF2EB524E22EBD00000B
:1033D0000DB407FEFDCF2EB520E92EBD00000DB4C3
:1033E00007FEFDCF2EB51EBC00000DB407FEFDCFBD
:1033F0002EB51EBC00000DB407FEFDCF9EB5289A69
:10340000982B80E928988EBD00000DB407FEFDCFF3
:103410002EB524E22EBD00000DB407FEFDCF2EB563
:103420008EBD00000DB407FEFDCF8EB59EBD000021
:103430000DB407FEFDCF8EB5289A42E25FEF6FEF25
:103440007FEFC6010E94EB0F40E050E0BA01C601D9
:103450000E94EB0FF50182A1882309F490C027EFA9
:1034600031E040E050E06CE970E0C6010E94680E77
:10347000C6010E94000D40E05FEF6FEF7FEFC601D5
:103480000E94EB0F47E050E060E076E2C6010E9448
:10349000EB0F40E050E060E075E0C6010E94EB0FEA
:1034A00040E050E060E071E0C6010E94EB0F41E3B4
:1034B00050E468E077E0C6010E94EB0F41E354EF6F
:1034C00061E178E0C6010E94EB0F40E050E0BA01F4
:1034D000C6010E94EB0F41E05FEF6FEF7FEFC60187
:1034E0000E94EB0FC6010E94000D85E090E0F501FF
:1034F0009183808380E090E0A4EFB1E482839383A2
:10350000A483B58386E696E6A9E4B2E4868397832E
:10351000A087B18786EF98E2ACE6B0E4868797870C
:10352000A08BB18B8AE097EDA3E8B0E4828B938BFC
:10353000A48BB58B87ED93EAA0E8B0E4868B978BDC
:10354000A08FB18F8AE097EDA3E5B1E482879387DE
:10355000A487B58766960FB6F894DEBF0FBECDBFC1
:10356000DF91CF911F910F91FF90EF90DF90CF905F
:10357000BF90AF907F906F905F904F90089584A51B
:1035800095A5A0E0B0E09058AF4EBF4F28982A2FE5
:1035900020682EBD00000DB407FEFDCF2EB59EBDE8
:1035A00000000DB407FEFDCF2EB58EBD00000DB49A
:1035B00007FEFDCF8EB581E0F50182A327EF31E054
:1035C00040E050E06CE970E0C6010E94680E289A65
:1035D000F50184A595A5289820E92EBD00000DB41D
:1035E00007FEFDCF2EB524E22EBD00000DB407FE70
:1035F000FDCF2EB528EE2EBD00000DB407FEFDCF89
:103600002EB58EBD00000DB407FEFDCF2EB59EBDBC
:1036100000000DB407FEFDCF8EB51EBC00000DB43A
:1036200007FEFDCF8EB51EBC00000DB407FEFDCF1A
:103630008EB5289AF50112A21BCFCF93DF93CDB799
:10364000DEB768970FB6F894DEBF0FBECDBF0E94FD
:10365000C60C86E793E0BBDB17E8212E11E0312E84
:1036600008E5802E02E0902EA12CB12C80917603EB
:10367000909177038230910509F497C083309105CA
:103680000CF458C18430910509F45BC3059709F027
:10369000C5C340E05FEF6FEF7FEF87E993E00E94E3
:1036A000EB0F47E050E060E076E287E993E00E94AC
:1036B000EB0F86E1E1E6F1E0DE01119601900D925B
:1036C0008A95E1F74FEF5FEF6FEF74E087E993E0E2
:1036D0000E94EB0F9E012F5F3F4F790100E016E043
:1036E0002DE142E250E060EF70E087E993E00E9454
:1036F000451240E050E06FEF74E087E993E00E94EC
:10370000EB0F89E491E09F938F9386E08F931F9254
:103710008DE18F931F9288E88F931F9280EF8F9394
:1037200087E993E09F938F9318D84FEF5FEF6FEF88
:1037300074E087E993E00E94EB0F41E050E060E025
:103740007FE187E993E00E94EB0F40E050EF6DE0EE
:103750007FE887E993E00E94EB0F40E050E060E0F3
:1037600071E287E993E00E94EB0F40E050E0BA017C
:1037700087E993E00E94EB0F41E05FEF6FEF7FEF8F
:1037800087E993E00E94EB0F87E993E00E94000D28
:103790000FB6F894DEBF0FBECDBF80917603909137
:1037A00077038230910509F069CF0E94800C24EFE5
:1037B00031E040E050E084D56B017C0180919603BC
:1037C000882309F41EC507E711E08091960388233A
:1037D00009F410C5412C512C66246A9494E0792E8A
:1037E00040E05FEF6FEF7FEF87E993E00E94EB0F20
:1037F00047E050E060E076E287E993E00E94EB0F5B
:10380000B301A20187E993E00E94EB0F1F930F938E
:1038100086E08F931F928FE18F931F9284E48F93A2
:103820001F9280EF8F9387E993E09F938F930E947D
:10383000AD138091920390919303A0919403B09162
:10384000950320919003309191030FB6F894DEBF59
:103850000FBECDBF2730310508F0C9C4F901EE0F06
:10386000FF1FE55FFD4F20813181BF93AF939F9391
:103870008F933F932F9386E08F931F928DE18F93C9
:103880001F928CEA8F931F9280EF8F9387E993E0CA
:103890009F938F9325D80FB6F894DEBF0FBECDBF90
:1038A0009BEFC916D104E104F10480F140E05FEF21
:1038B0006FEF72E087E993E00E94EB0F40E15DE279
:1038C00061E07CE187E993E00E94EB0F40E050E08B
:1038D00060E07BE187E993E00E94EB0F47E050E076
:1038E00060E076E287E993E00E94EB0F40E05AE265
:1038F00063E07BE187E993E00E94EB0F47E050E053
:1039000060E076E287E993E00E94EB0F40E050E050
:10391000BA0187E993E00E94EB0F41E05FEF6FEFA0
:103920007FEF87E993E00E94EB0F87E993E00E9425
:10393000000D9CCE892B09F071C240E05FEF6FEF64
:103940007FEF87E993E00E94EB0F47E050E060E0F3
:1039500076E287E993E00E94EB0F40E050E06FEFE2
:1039600074E087E993E00E94EB0F3F922F921F9241
:103970001F922DE1D22EDF921F921F921F9235E0EF
:10398000F32EFF9207E913E01F930F930E94FA12A0
:103990004FEF5FEF6FEF74E0C8010E94EB0F809173
:1039A000840390918503A0918603B0918703BF9310
:1039B000AF939F938F9385E991E09F938F931F928D
:1039C0001F924CE1E42EEF921F928EE18F931F9293
:1039D000FF921F930F930E94FA1280918803909197
:1039E0008903A0918A03B0918B03BF93AF939F93F8
:1039F0008F9384EA91E09F938F931F921F92EF928F
:103A00001F9287E38F931F92FF921F930F930E9441
:103A1000FA1280918C0390918D03A0918E03B09146
:103A20008F030FB6F894DEBF0FBECDBFBF93AF9329
:103A30009F938F9383EB91E09F938F931F921F929D
:103A4000EF921F9280E58F931F92FF921F930F9327
:103A50000E94FA128091800390918103A0918203C9
:103A6000B0918303BF93AF939F938F9383EC91E0C7
:103A70009F938F931F921F92EF921F9289E68F93CD
:103A80001F92FF921F930F930E94FA1240E050E0A2
:103A90006FEF74E0C8010E94EB0F82ED91E09F93FD
:103AA0008F931F921F92DF921F928CE88F931F9229
:103AB000FF921F930F930E94FA120FB6F894DEBF85
:103AC0000FBECDBF4FEF5FEF6FEF74E0C8010E94F4
:103AD000EB0F8091780390917903A0917A03B091D4
:103AE0007B03BF93AF939F938F938DED91E09F9353
:103AF0008F931F921F92EF921F928AEA8F931F92C9
:103B0000FF921F930F930E94FA1280917C03909171
:103B10007D03A0917E03B0917F03BF93AF939F93EA
:103B20008F938AEE91E09F938F931F921F92EF9253
:103B30001F9283EC8F931F92FF921F930F930E940B
:103B4000FA124FEF5FEF6FEF74E0C8010E94EB0FC6
:103B50004AE05FEF6FEF7FEFC8010E94EB0F40E09C
:103B600050E06FEF70E0C8010E94EB0F49E05FEF9B
:103B70006FEF7FEFC8010E94EB0F40E050E06FEF66
:103B800070E0C8010E94EB0FC0907803D0907903D9
:103B9000E0907A03F0907B0340E15FEF6FEF7FEFFF
:103BA000C8010E94EB0F4EEA51E064E170E0C801E9
:103BB0000E94EB0F44E150E064EB70E0C8010E940A
:103BC000EB0FC701B601BBD354E6E52EF12CA701DC
:103BD000461B570B60E070E0BA0155274427C80127
:103BE0000E94EB0F44E650E060E070E0C8010E94E4
:103BF000EB0F40E050E06FEF74E0C8010E94EB0F64
:103C00008FEF91E09F938F93F6E0DF2EDF921F926C
:103C1000AFE1CA2ECF921F9230EF3F9321E02F9356
:103C200088EB8F931F930F93288F3F8B0E94AD13C8
:103C30000FB6F894DEBF0FBECDBF4FEF5FEF6FEF53
:103C400074E0C8010E94EB0F4AE05FEF6FEF7FEF77
:103C5000C8010E94EB0F40E050E06FEF70E0C80138
:103C60000E94EB0F49E05FEF6FEF7FEFC8010E940A
:103C7000EB0F40E050E06FEF70E0C8010E94EB0FE7
:103C800040907C0350907D0360907E0370907F0392
:103C900040E15FEF6FEF7FEFC8010E94EB0F4AE456
:103CA00051E064E170E0C8010E94EB0F44E150E094
:103CB00064EB70E0C8010E94EB0FC301B2013FD377
:103CC000A701461B570B60E070E0BA015527442757
:103CD000C8010E94EB0F44E650E060E070E0C801CC
:103CE0000E94EB0F40E050E06FEF74E0C8010E94CB
:103CF000EB0F81E092E09F938F93DF921F92CF9220
:103D00001F923F893F93288D2F9384E58F931F93B4
:103D10000F930E94AD1340E050E0BA01C8010E9429
:103D2000EB0F41E05FEF6FEF7FEFC8010E94EB0FF9
:103D3000C8010E94000D0FB6F894DEBF0FBECDBFC4
:103D400095CC0E94800CA5019401BAD2633C7140CD
:103D50008105910508F458C2C12CDD24DA94ED2CBC
:103D600072E0F72E412C55245A94652CE4E07E2E07
:103D700040E05FEF6FEF7FEF87E993E00E94EB0F8A
:103D800047E050E060E076E287E993E00E94EB0FC5
:103D9000B301A20187E993E00E94EB0FB701A601EE
:103DA00087E993E00E94EB0F83E092E09F938F936B
:103DB00086E08F931F928FE18F931F9288E88F93F5
:103DC0001F9280EF8F9387E993E09F938F930E94D8
:103DD000AD1340E15DE261E07CE187E993E00E94A0
:103DE000EB0F40E050E060E07BE187E993E00E9468
:103DF000EB0F47E050E060E076E287E993E00E9455
:103E0000EB0F40E05AE263E07BE187E993E00E9438
:103E1000EB0F47E050E060E076E2A3CC40E05FEFDC
:103E20006FEF7FEF87E993E00E94EB0F47E050E0F0
:103E300060E076E287E993E00E94EB0F40E050E01B
:103E40006FEF74E087E993E00E94EB0F3F922F92AF
:103E50001F921F927DE1D72EDF921F921F921F9219
:103E6000E5E0FE2EFF9207E913E01F930F930E94F7
:103E7000FA124FEF5FEF6FEF74E0C8010E94EB0F93
:103E80008091840390918503A0918603B09187036C
:103E9000BF93AF939F938F9385E991E09F938F9307
:103EA0001F921F92FCE1EF2EEF921F928EE18F93F3
:103EB0001F92FF921F930F930E94FA128091880322
:103EC00090918903A0918A03B0918B03BF93AF9324
:103ED0009F938F9384EA91E09F938F931F921F92F9
:103EE000EF921F9287E38F931F92FF921F930F937E
:103EF0000E94FA1280918C0390918D03A0918E0301
:103F0000B0918F030FB6F894DEBF0FBECDBFBF9345
:103F1000AF939F938F9383EB91E09F938F931F9227
:103F20001F92EF921F9280E58F931F92FF921F9333
:103F30000F930E94FA128091800390918103A091C7
:103F40008203B0918303BF93AF939F938F9383ECCE
:103F500091E09F938F931F921F92EF921F9289E699
:103F60008F931F92FF921F930F930E94FA1240E0CB
:103F700050E06FEF74E0C8010E94EB0F82ED91E01A
:103F80009F938F931F921F92DF921F928CE88F93C3
:103F90001F92FF921F930F930E94FA120FB6F8948C
:103FA000DEBF0FBECDBF4FEF5FEF6FEF74E0C80114
:103FB0000E94EB0F8091780390917903A0917A038E
:103FC000B0917B03BF93AF939F938F938DED91E05F
:103FD0009F938F931F921F92EF921F928AEA8F9363
:103FE0001F92FF921F930F930E94FA1280917C03FD
:103FF00090917D03A0917E03B0917F03BF93AF9317
:104000009F938F938AEE91E09F938F931F921F92BD
:10401000EF921F9283EC8F931F92FF921F930F9347
:104020000E94FA124FEF5FEF6FEF74E0C8010E9439
:10403000EB0F4AE05FEF6FEF7FEFC8010E94EB0FDD
:1040400040E050E06FEF70E0C8010E94EB0F49E0E4
:104050005FEF6FEF7FEFC8010E94EB0F40E050E091
:104060006FEF70E0C8010E94EB0FC0907803D09012
:104070007903E0907A03F0907B0340E15FEF6FEF0C
:104080007FEFC8010E94EB0F4EEA51E064E170E05F
:10409000C8010E94EB0F44E150E064EB70E0C801FE
:1040A0000E94EB0FC701B6014AD1A4E6EA2EF12C1B
:1040B000A701461B570B60E070E0BA015527442763
:1040C000C8010E94EB0F44E650E060E070E0C801D8
:1040D0000E94EB0F40E050E06FEF74E0C8010E94D7
:1040E000EB0F8FEF91E09F938F9386E0D82EDF92B6
:1040F0001F929FE1C92ECF921F9220EF2F9331E0A4
:104100003F9388EB8F931F930F93288F3F8B0E94D1
:10411000AD130FB6F894DEBF0FBECDBF4FEF5FEF0C
:104120006FEF74E0C8010E94EB0F4AE05FEF6FEFA2
:104130007FEFC8010E94EB0F40E050E06FEF70E0AE
:10414000C8010E94EB0F49E05FEF6FEF7FEFC801FE
:104150000E94EB0F40E050E06FEF70E0C8010E945A
:10416000EB0F40907C0350907D0360907E03709035
:104170007F0340E15FEF6FEF7FEFC8010E94EB0F1D
:104180004AE451E064E170E0C8010E94EB0F44E1B1
:1041900050E064EB70E0C8010E94EB0FC301B20174
:1041A000CED0A701461B570B60E070E0BA0155273F
:1041B0004427C8010E94EB0F44E650E060E070E045
:1041C000C8010E94EB0F40E050E06FEF74E0C801BF
:1041D0000E94EB0F81E092E09F938F93DF921F92FA
:1041E000CF921F92288D2F933F893F938ECD23E945
:1041F00032E03BCB412C55245A94652C84E0782E38
:10420000EFCA0EE711E0E1CA0E94800CA5019401FB
:1042100057D06D3271408105910568F0C12CDD24C5
:10422000DA94E12C52E0F52E412C55245A94612C5D
:1042300064E0762E9DCD0E94800CA501940140D0B3
:10424000673971058105910568F4C12CD12CEE24E4
:10425000EA9432E0F32E412C512C66246A9444E017
:10426000742E86CDC12CD12CE12CF2E0FF2E412CF6
:10427000512C612CA4E07A2E7BCD109297031092E2
:10428000990310929A0310929B0310929C038FEF54
:104290009FEF90939E0380939D031092A30310922F
:1042A000A2038CEF9FE09093A5038093A40387E083
:1042B00080939F0381E08093A00310929803089558
:1042C000A1E21A2EAA1BBB1BFD010DC0AA1FBB1F1A
:1042D000EE1FFF1FA217B307E407F50720F0A21B8C
:1042E000B30BE40BF50B661F771F881F991F1A94F9
:1042F00069F760957095809590959B01AC01BD0123
:10430000CF0108950DD0A59F900DB49F900DA49F4F
:10431000800D911D112408950790F691E02D0994C8
:10432000A29FB001B39FC001A39F700D811D1124F6
:10433000911DB29F700D811D1124911D089533D0E0
:1043400088F09F5790F0B92F9927B751A0F0D1F07E
:10435000660F771F881F991F1AF0BA95C9F712C008
:10436000B13081F03AD0B1E0089537C0672F782F8F
:104370008827B85F39F0B93FCCF386957795679574
:10438000B395D9F73EF490958095709561957F4FE0
:104390008F4F9F4F089557FD9058440F551F59F068
:1043A0005F3F71F04795880F97FB991F61F09F3F22
:1043B00079F087950895121613061406551FF2CF4B
:1043C0004695F1DF08C0161617061806991FF1CF9B
:1043D00086957105610508940895E894BB276627C2
:1043E0007727CB0197F90895283008F027E0332785
:1043F000DA01990F311D87FD916000966105710505
:1044000039F432602E5F3D9330E32A95E1F7089549
:104410009F3F30F080387105610509F03C5F3C5FDB
:104420003D93913008F08068911DDF93CF931F93E7
:104430000F93FF92EF92192F987F9695E92F9695FB
:104440009695E90FFF27E056FC4F99273327EE2476
:10445000FF24A701E70105900894079428F4360F7C
:10446000E71EF81E491F511D660F771F881F991FF1
:104470000694A1F70590079428F4E70EF81E491F4B
:10448000561FC11D770F881F991F661F0694A1F73D
:104490000590079428F4F80E491F561FC71FD11D19
:1044A000880F991F661F771F0694A1F70590079440
:1044B00020F4490F561FC71FD81F990F661F771F7B
:1044C000881F0694A9F784911095177041F0D6952E
:1044D000C79557954795F794E7941A95C1F7E6E481
:1044E000F3E068941590159135916591959105903B
:1044F0007FE27395E118F10A430B560BC90BD00903
:10450000C0F7E10CF11E431F561FC91FD01D7EF4DA
:10451000703311F48A95E6CFE894015030F0080F1B
:104520000AF40027021708F4202F2395022F7A336C
:1045300028F079E37D932A95E9F710C07D932A95B9
:1045400089F6069497956795379517951794E1180E
:10455000F10A430B560BC90BD00998F023957E91B5
:1045600073957A3308F070E37C932013B8F77E914B
:1045700070617D9330F0839571E37D9370E32A95AC
:10458000E1F71124EF90FF900F911F91CF91DF91F0
:10459000992787FD90950895FB01DC0105900D9208
:1045A0000020E1F70895FC01059061507040011072
:1045B000D8F7809590958E0F9F1F0895FC0161504C
:1045C000704001900110D8F7809590958E0F9F1F35
:1045D00008950F931F93CF93DF93182F092FEB01AB
:1045E0008B8181FD03C08FEF9FEF20C082FF10C041
:1045F0004E815F812C813D81421753077CF4E88115
:10460000F9819F012F5F3F4F39832883108306C0B4
:10461000E885F985812F0995892B29F72E813F811E
:104620002F5F3F4F3F832E83812F902FDF91CF91BC
:104630001F910F9108950F931F93CF93DF93CDB7E1
:10464000DEB72E970FB6F894DEBF0FBECDBF8C013C
:10465000CA0146E04C831A83098377FF02C060E0F9
:1046600070E8615071097E836D83A901BC01CE01A0
:1046700001960E9452024D815E8157FD0AC02F8132
:104680003885421753070CF49A01F801E20FF31F23
:1046900010822E960FB6F894DEBF0FBECDBFDF910D
:1046A000CF911F910F910895FA01AA27283051F157
:1046B000203181F1E8946F936E7F6E5F7F4F8F4F53
:1046C0009F4FAF4FB1E03ED0B4E03CD0670F781FB2
:1046D000891F9A1FA11D680F791F8A1F911DA11D97
:1046E0006A0F711D811D911DA11D20D009F46894D0
:1046F0003F912AE0269F11243019305D3193DEF678
:10470000CF010895462F4770405D4193B3E00FD02D
:10471000C9F7F6CF462F4F70405D4A3318F0495D18
:1047200031FD4052419302D0A9F7EACFB4E0A695FB
:104730009795879577956795BA95C9F7009761051D
:10474000710508959B01AC010A2E06945795479573
:1047500037952795BA95C9F7620F731F841F951F68
:08476000A01D0895F894FFCF9D
:104768000000A6032000010000000000000207006E
:10477800002600000000000000004A065908F9055C
:104788001106F6053C064572726F7220696E206349
:1047980068697020696420726561642000496E69E7
:1047A80074204661696C65640057414954494E4715
:1047B80020464F522043414E20444154412E2E2E34
:1047C80000466F726D756C6120456C656374726923
:1047D800632032303135004552524F522100574143
:1047E800524E494E472100426174746572792049DE
:1047F8006E666F3A00564D696E43656C6C3A2025BB
:104808002E326600564D617843656C6C3A20252E31
:10481800326600564D65616E43656C6C3A20252EF4
:1048280032660056426174746572793A20252E32D8
:10483800660054656D7020496E666F3A00544D6F7E
:10484800746F723A20252E32660054436F6E74726C
:104858006F6C6C65724D61783A20252E3266004D7A
:1048680000430044414E47455221002F031D0309D0
:0A48780003E902D202C002A302000D
:00000001FF
