:1000000043C300000C94D00B0C94010C0C94320CE4
:100010000C94630C0C94940C0C94C50C0C94F60C7E
:100020000C94270D60C300000C94ED0F5CC300001E
:100030005AC3000058C3000056C300000C940710B8
:1000400052C300000C94580D0C945E0E4CC300007B
:100050004AC300005EC7000046C3000044C300005E
:1000600042C300000C94220E3EC300003CC30000BB
:100070003AC3000038C3000036C3000034C3000098
:1000800088C7000030C300002EC300002CC300004E
:100090002AC300006E616E00696E6600FF0F0000EB
:1000A0000801010000F10000000800000000FF0F3F
:1000B00000000801010000F400000008000000003A
:1000C000FF0F00000801010000F30000000800001D
:1000D0000000FF0F00000801010000F2000000080E
:1000E00000000000FF0F00000801010000F0000008
:1000F000000800000000789CCDD4316EDB3014067F
:10010000E047D1288122003974D0647AC8A0D1A3F5
:1001100006C1766F9023F808193508319D0E197BBA
:10012000851E214760D1216B8F40C34357065E581F
:100130008015FB4849899CB8CED2210F02347C122D
:10014000DFFB2942219C2D7D9EDFBF3B18D535C8A2
:1001500060974131D350BF5104DD1E3B0B46B6C002
:100160004C45FC0DBCF235D0A0A507A64BE29B7315
:100170005E83AF3B0F5B5381F49BBD692ED60B1A98
:1001800094F42CA0BB9AC7F91E03B5D1C3C134B9EE
:1001900089CE1D4757839BE8D3CA1EF4621E5DF4C7
:1001A0005EBBE407F3017D917C8DDEE69DEBDEF71F
:1001B00066825E45976B03B42D7B2F6D1EE7DBEBEC
:1001C0000B37B836C07CC906179DE77503CB3FE8EF
:1001D0005C456FA2ABDA3CB974352C7FEFA26BE0C3
:1001E0000E925B930FEB2F71272AB2FBA539E86BB8
:1001F000896ED11FD165E7F36670826E815A896E70
:1002000045EF665D35E887DECDE060A7C9DB55B513
:10021000D10D090F6D74BE6F7B27764AD1F5E8F3D7
:10022000105DF31FE8B1BFFB873FB4C4024F0E2738
:100230009CDDB5C48184934E95635F03F120C9CEE4
:10024000E363F43F9CDF96692FB776C1B49354C142
:1002500051D1CE9DFCF286537B936EA0575759A681
:1002600018E4B99897391B394F0EC927507C12B33F
:1002700062F6ECA677A57F66D92DBA402FA28F5BD8
:1002800032D0EA1E3D83A214629E3C8DDE2708B068
:10029000D2F719DC021497718127EF1304F279F673
:1002A0002DA3D947280A7105634F090274DD262062
:1002B000006620A20FD1E384E1383E441FA2A37F51
:1002C0006F5F387F07FF27BCE064C5A99FDF77AF6A
:1002D0001C236D5EAE3FF6866F4FF737DD59C67D46
:1002E0003B339FC7F6CBE87F019D1F8D0852454DDC
:1002F0004F544520454D455247454E43592053489C
:100300005554444F574E00556E6B6E6F776E2042BA
:100310004D53204572726F720053687574646F7725
:100320006E204C617463682054726970706564005B
:100330005265736F6C766572204E6F7420436F6EDA
:100340006E6563746564004D43204375727220537B
:10035000656E736F72204661756C740047617465D9
:10036000204452562033204F76657274656D7000BC
:1003700047617465204452562032204F766572746E
:10038000656D700047617465204452562031204FDE
:1003900076657274656D7000504342204F766572C9
:1003A00074656D70004D6F64756C652043204F76E9
:1003B000657274656D70004D6F64756C65204220C8
:1003C0004F76657274656D70004D6F64756C652055
:1003D00041204F76657274656D70004D6F746F7259
:1003E000204F7665722054656D70004D4320436F39
:1003F0006D6D616E64204D657373616765204C6F30
:100400007374004D4320556E64657220566F6C7492
:10041000616765004D43204857204F7665722D4334
:10042000757272656E74004D43204465736174206B
:100430004661756C74004D4320496E766572746533
:10044000722054696D656F7574004D432044697264
:10045000656374696F6E204572726F72004D432040
:10046000496E766572746572204F76657274656D3B
:1004700070004D43204F76657220566F6C74616733
:1004800065004D43204F7665722043757272656E2C
:1004900074004D43204F766572205370656564008B
:1004A0004E4F2043454C4C20434F4D4D5300416E21
:1004B00020452D53746F70206973205072657373DB
:1004C00065640052656D6F74652052657175657362
:1004D0007400494D44204552524F520042535044FB
:1004E000204552524F5200494E56414C4944204DEE
:1004F0005347004856205052454348415247494EC1
:10050000473A20252E30665600736252494F2057D5
:1005100041524D3A20252E30664300474C56204C20
:100520004F5720564F4C544147453A20252E3266AE
:1005300056005041434B204C4F5720564F4C54418E
:1005400047453A20252E32665600424154544552C2
:1005500059205741524D3A20252E326643004D4FC7
:10056000544F52205741524D3A20252E32664300B7
:10057000434F4E54524F4C4C4552205741524D3AE6
:1005800020252E3266430000407A10F35A00A072F4
:100590004E18090010A5D4E80000E87648170000BE
:1005A000E40B54020000CA9A3B000000E1F505008C
:1005B0000080969800000040420F000000A08601D5
:1005C000000000102700000000E8030000000064A5
:1005D00000000000000A0000000000010000000010
:1005E000002C76D888DC674F0823DFC1DFAE59E1E5
:1005F000B1B796E5E3E453C63AE651997696E8E654
:10060000C28426EB898C9B62ED407C6FFCEFBC9C26
:100610009F40F2BAA56FA5F490055A2AF75C936B38
:100620006CF9676DC11BFCE0E40D47FEF520E6B5F3
:1006300000D0ED902E0300943577050080841E08CD
:100640000000204E0A000000C80C333333330F98EB
:100650006E12831141EF8D2114893BE65516CFFEB2
:10066000E6DB18D1844B381BF77C1D901DA4BBE43E
:1006700024203284725E228100C9F124ECA1E53D80
:100680002700F308C90FA91011241FBECFEFD0E136
:10069000DEBFCDBF12E0A0E0B1E0EAE3F9E500E0A3
:1006A0000BBF02C007900D92A438B107D9F724E020
:1006B000A4E8B2E001C01D92A733B207E1F716E04B
:1006C000C8E8D6E000E006C022970109FE010BBF92
:1006D0000E946C2AC238D10780E00807A9F70E945F
:1006E000CC250C949B2C8CCC2F923F924F925F92F6
:1006F0006F927F928F929F92AF92BF92CF92DF9232
:10070000EF92FF920F931F93CF93DF93CDB7DEB796
:1007100063970FB6F894DEBF0FBECDBF7C011B01FF
:100720006A01FC0117821682838181FF66C3BE01C4
:100730006F5F7F4F4B01F7019381F10193FD85912D
:1007400093FF81911F01882309F453C3853239F443
:1007500093FD859193FF81911F01853239F4B70193
:1007600090E00E94D22B56016501E5CF10E0512C9C
:1007700020E02032A0F48B3269F030F4803259F05E
:10078000833269F420612CC08D3239F0803339F422
:10079000216026C02260246023C0286021C027FD7C
:1007A00027C030ED380F3A3078F426FF06C0FAE063
:1007B0001F9F300D1124132F13C06AE0569E300D79
:1007C0001124532E20620CC08E3221F426FD11C359
:1007D000206406C08C3611F4206802C0883641F4CB
:1007E000F10193FD859193FF81911F018111C1CF8B
:1007F0009BEB980F933018F42061805E06C09BE954
:10080000980F933008F0AAC12F7E26FF16E02F73B1
:10081000722E853621F4F22FF0647F2E08C08636C2
:1008200021F4622F6068762E02C01111115077FEFC
:1008300007C01C3348F444244394410E27E00BC006
:10084000183030F4212F06C027E04CE3442E03C0BB
:1008500027E017E0412C560174E0A70EB11CF60109
:100860006081718182819381042DA4010E94D42A28
:100870006C01098100FF02C003FF06C071FC07C0C4
:1008800072FC08C0612C08C03DE2632E05C02BE25B
:10089000622E02C090E2692E802F8C7099F1662042
:1008A00011F084E001C083E0851510F0512C0BC0DD
:1008B000581A73FC08C0B70180E290E00E94D22B66
:1008C0005A94C9F7F3CF662029F0B701862D90E03E
:1008D0000E94D22B03FD03C008E910E002C004E926
:1008E00010E0F72DF0717F2EF8018491882309F430
:1008F00076C271108052B70190E00E94D22B0F5F38
:100900001F4FF2CF77FE0FC04C0C04FF04C08A814A
:10091000813309F44A94141474F5F8E0F41578F569
:1009200088E0482E2CC076FC2AC0812F90E08C15E0
:100930009D059CF06CEFC6166FEFD60674F0772D10
:100940007068772E0AC0E2E0F0E0EC0FFD1FE10FC7
:10095000F11D8081803319F411501111F4CF77FE0D
:100960000EC044244394410E812F90E0C816D9064E
:100970002CF41C1904C04424439401C010E077FEF9
:1009800007C01C141D043CF496012F5F3F4F05C0A7
:1009900025E030E002C021E030E0662011F02F5F5A
:1009A0003F4F112331F0412F50E04F5F5F4F240F35
:1009B000351F452D50E02417350714F4521A01C095
:1009C000512C872D897049F4552039F0B70180E208
:1009D00090E00E94D22B5A94F7CF662029F0B701FD
:1009E000862D90E00E94D22B73FC09C0552039F06F
:1009F000B70180E390E00E94D22B5A94F7CF77FEA4
:100A00005FC09C2D8D2DD7FE02C090E080E0692E46
:100A1000782E40E050E0C601841991099D878C87AB
:100A2000960126193709280D391D812F90E0EE27F0
:100A3000FF27E81BF90BFF87EE87FFEF6F167F0696
:100A400069F4B7018EE290E02B8B3A8B488B598B7F
:100A50000E94D22B598948893A892B89C614D70418
:100A600054F06C857D85661577052CF4F901E40F4B
:100A7000F51F818101C080E371E0671A71084F5F43
:100A80005F4FEE85FF856E167F066CF0B70190E034
:100A90002B8B3A8B488B598B0E94D22B2B893A890E
:100AA00048895989CACF6C147D0439F49A819633E8
:100AB00018F4953311F404FF81E3B70190E04BC0C3
:100AC0008A81813309F00F7EB70190E00E94D22B1A
:100AD000111105C074FE18C085E490E017C0B7017D
:100AE0008EE290E00E94D22B82E066246394680E2E
:100AF000F401E80FF11D8081B70190E00E94D22B34
:100B0000115041F3862DF1CF85E690E0B7010E94A8
:100B1000D22BD7FC05C0C114D10439F404FF05C0A1
:100B2000D194C194D1088DE201C08BE2B70190E06D
:100B30000E94D22B80E36AE0C616D1042CF08F5FAE
:100B4000FAE0CF1AD108F7CFB70190E00E94D22B7C
:100B5000B701C601C0960E94D22B41C1833631F045
:100B6000833779F0833509F058C021C0560172E00F
:100B7000A70EB11CF6018081898301E010E06401B9
:100B800014C05601F2E0AF0EB11CF601C080D18056
:100B900026FF03C0612F70E002C06FEF7FEFC60138
:100BA0002B8B0E94C72B8C012B892F7715C05601E8
:100BB000F2E0AF0EB11CF601C080D18026FF03C069
:100BC000612F70E002C06FEF7FEFC6012B8B0E9498
:100BD000BC2B8C012B892068722E23FD1AC0852D19
:100BE00090E008171907A8F4B70180E290E00E948E
:100BF000D22B5A94F4CFF60177FC859177FE819140
:100C00006F01B70190E00E94D22B51105A9401500D
:100C100011090115110579F7E2C0843611F0893602
:100C200051F5560127FF09C0F4E0AF0EB11CF601E3
:100C300060817181828193810AC0F2E0AF0EB11CA4
:100C4000F60160817181882777FD8095982F022FAA
:100C50000F7697FF08C090958095709561957F4FAE
:100C60008F4F9F4F00682AE030E0A4010E943D2C86
:100C7000C82EC8183EC0022F853721F40F7E2AE007
:100C800030E01DC0097F8F3691F018F4883559F097
:100C9000B0C0803719F0883711F0ABC0006104FF95
:100CA00009C0046007C024FF08C0066006C028E031
:100CB00030E005C020E130E002C020E132E0560122
:100CC00007FF09C0F4E0AF0EB11CF601608171812D
:100CD0008281938108C0F2E0AF0EB11CF601608101
:100CE000718180E090E0A4010E943D2CC82EC818BC
:100CF0000F7706FF0BC0202F2E7FC11650F404FF84
:100D00000AC002FD08C0202F2E7E05C0DC2C202F3B
:100D100003C0DC2C01C0D12E24FF0DC0FE01EC0D60
:100D2000F11D8081803311F4297E09C022FF06C0A5
:100D3000D394D39404C0822F867809F0D39423FDF2
:100D400013C020FF06C01C2DD51418F4150D1D1955
:100D5000D52CD51468F4B70180E290E02B8B0E946B
:100D6000D22BD3942B89F5CFD51410F45D1801C084
:100D7000512C24FF12C0B70180E390E02B8B0E941E
:100D8000D22B2B8922FF17C021FF03C088E590E0FA
:100D900002C088E790E0B7010CC0822F867859F036
:100DA00021FD02C080E201C08BE227FD8DE2B70188
:100DB00090E00E94D22BC11638F4B70180E390E096
:100DC0000E94D22B1150F7CFCA94F401EC0DF11D03
:100DD0008081B70190E00E94D22BC110F5CF552041
:100DE00009F4C2CCB70180E290E00E94D22B5A9461
:100DF000F6CFF7018681978102C08FEF9FEF639650
:100E00000FB6F894DEBF0FBECDBFDF91CF911F911B
:100E10000F91FF90EF90DF90CF90BF90AF909F9099
:100E20008F907F906F905F904F903F902F9008959C
:100E300080E090E00895FC0124853585F901E058B3
:100E4000FF4F8081918180589F4F32962081318160
:100E5000821B930B8F77907897FF08950197806896
:100E60009F6F01960895FC0184859585FC01EE57DE
:100E7000FF4F20813181DC01A058BF4F4D915C9123
:100E800042175307C1F0DC01A20FB31F8C912F5FF3
:100E90003F4F2F77307837FD04C03183208390E0B7
:100EA00008952150310920683F6F2F5F3F4F3183F4
:100EB000208390E008958FEF9FEF0895FC018485D3
:100EC0009585FC01E058FF4FDC01AE57BF4F8D9177
:100ED0009C91918380830895DC015296ED91FC9161
:100EE000539741E050E05B960C905B9702C0440F33
:100EF000551F0A94E2F7208130E024233523232B69
:100F0000D1F35696ED91FC915797608381E090E084
:100F100008951F920F920FB60F9211240BB60F92E5
:100F20002F933F934F935F936F938F939F93EF9381
:100F3000FF936091C6002091C2033091C303C901A1
:100F400001968F77907897FD1FC04091C403509110
:100F5000C5038417950741F0F901EE5BFC4F6083F0
:100F60009093C3038093C203FF91EF919F918F9160
:100F70006F915F914F913F912F910F900BBE0F900A
:100F80000FBE0F901F901895019780689F6F019674
:100F9000DCCF1F920F920FB60F9211240BB60F9257
:100FA0002F933F934F935F936F938F939F93EF9301
:100FB000FF936091CE0020913E0330913F03C90121
:100FC00001968F77907897FD1FC040914003509114
:100FD00041038417950741F0F901E254FD4F608306
:100FE00090933F0380933E03FF91EF919F918F91E8
:100FF0006F915F914F913F912F910F900BBE0F908A
:101000000FBE0F901F901895019780689F6F0196F3
:10101000DCCF7F928F929F92AF92BF92CF92DF925E
:10102000EF92FF920F931F93CF93DF93EC016A012E
:101030007B01413482E458078FE06807710508F4AA
:1010400055C0EA89FB8981E090E00C8C02C0880FD2
:10105000991F0A94E2F7808360E079E08DE390E0E5
:10106000A70196010E94402A2150310941095109E6
:101070005695479537952795C901EE85FF8590834D
:10108000E889F9898083EC89FD89408181E090E0DD
:101090009C01088C02C0220F331F0A94E2F7422BF6
:1010A0004083EC89FD8940819C01098C02C0220F9C
:1010B000331F0A94E2F7422B4083EC89FD8920819B
:1010C0000A8C02C0880F991F0A94E2F7282B20830C
:1010D000DF91CF911F910F91FF90EF90DF90CF9014
:1010E000BF90AF909F908F907F90089560E874E8D4
:1010F0008EE190E0A70196010E94402A49015A0121
:1011000081E0881A9108A108B108B694A794979431
:101110008794A50194012F5F3F4F4F4F5F4F220FE0
:10112000331F441F551F220F331F441F551F220F0B
:10113000331F441F551F220F331F441F551F60E0EC
:1011400074E284EF90E00E94402A0FEF10E0AFEFCE
:10115000B0E00E94622AA70196010E94402A021B69
:10116000130B10161106CCF5722E709460E079E026
:101170008DE390E0A70196010E94402A2150310999
:10118000410951092E7F2E5F3F4F4F4F5F4F220F76
:10119000331F441F551F220F331F441F551F60E08C
:1011A00074E284EF90E00E94402A0FEF10E0AFEF6E
:1011B000B0E00E94622AA70196010E94402A021B09
:1011C000130B101611066CF42095271508F439CF6F
:1011D000EA89FB891082C40150CF77247394720E80
:1011E000C5CF2F5FF2CF1092A4021092A30288EE17
:1011F00093E0A0E0B0E08093A5029093A602A093B4
:10120000A702B093A8022AE131E03093A202209312
:10121000A10242E453E05093AE024093AD0245EC8C
:1012200050E05093B0024093AF0244EC50E0509332
:10123000B2024093B10240EC50E05093B4024093AC
:10124000B30241EC50E05093B6024093B50246EC35
:1012500050E05093B8024093B702E4E0E093B90243
:1012600073E07093BA0267E06093BB0255E050935D
:10127000BC0241E04093BD021092870210928602A8
:101280008093880290938902A0938A02B0938B0284
:1012900030938502209384028EEB92E0909391022A
:1012A000809390028DEC90E0909393028093920251
:1012B0008CEC90E0909395028093940288EC90E0FF
:1012C000909397028093960289EC90E09093990214
:1012D000809398028EEC90E090939B0280939A0208
:1012E000E0939C0270939D0260939E0250939F0234
:1012F0004093A0020895CF92DF92EF92FF920F9356
:101300001F93CF93DF936C0141155105F1F08B01D1
:10131000EA01E12CF12CD8016D918D01D601ED91FE
:10132000FC910190F081E02DC6010995E80EF91EAF
:101330002197209781F7C701DF91CF911F910F91DE
:10134000FF90EF90DF90CF900895E12CF12CF3CF38
:10135000DB010D900020E9F7AD0141505109461B1A
:10136000570BDC01ED91FC910280F381E02D099493
:10137000EF92FF920F931F93CF93DF93EC01FB014A
:1013800001900020E9F7AF0141505109461B570B6E
:10139000E881F9810280F381E02D09958C01E881D3
:1013A000F9810190F081E02D6DE0CE0109957C017D
:1013B000E881F9810190F081E02D6AE0CE01099584
:1013C0000E0D1F1D800F911FDF91CF911F910F9167
:1013D000FF90EF9008952F923F924F925F926F92FD
:1013E0007F928F929F92AF92BF92CF92DF92EF92B5
:1013F000FF920F931F93CF93DF93CDB7DEB7A197E3
:101400000FB6F894DEBF0FBECDBF8C01411551055C
:1014100009F4C7C04A30510509F474C0942E6B0119
:10142000EE24D7FCE094FE2C19A2B1E0B41708F02A
:10143000C1C0442E512C612C712C5E01E1E2AE0E34
:10144000B11C02C069017A01C701B601A301920172
:101450000E94402A6C2D929E60191124F1E0AF1A6F
:10146000B10890E3960F87E3860F6A3008F4892F5E
:10147000D5018C93211531054105510519F7F50169
:1014800001900020E9F7AF01415051094A195B0969
:10149000D801ED91FC910280F381E02DB501C801E6
:1014A00009953C01D801ED91FC910190F081E02D6E
:1014B0006DE0C80109957C01D801ED91FC91019086
:1014C000F081E02D6AE0C8010995E60CF71C8E0D4D
:1014D0009F1DA1960FB6F894DEBF0FBECDBFDF9162
:1014E000CF911F910F91FF90EF90DF90CF90BF9021
:1014F000AF909F908F907F906F905F904F903F90B4
:101500002F9008954B01AA2497FCA094BA2CB7FC05
:1015100059C0D82C792DC50119A27E01B1E2EB0E7C
:10152000F11CBAE04B2E512C612C712C0BC0862F74
:10153000D7018C932115310541055105F1F0D22ECB
:10154000732FCA016D2DA30192010E94402A8D2D97
:10155000EAE02E9F80191124F1E0EF1AF10860E310
:10156000680F97E3980F8A3010F3892FD7018C9377
:10157000211531054105510511F7F70101900020B2
:10158000E9F7AF01415051094E195F09D801ED91BA
:10159000FC910280F381E02DB701C80109953C015F
:1015A00081CFDC01ED91FC910190F081E02D099556
:1015B0003C0178CFFAE04F2E512C612C712CAAE01F
:1015C0009A2E3BCFDC01ED91FC910190F081E02D52
:1015D0006DE209951C01CC24DD247601C818D908D8
:1015E000EA08FB0819A25E01B1E2AB0EB11C8AE069
:1015F000482E512C612C712C02C069017A01C7015F
:10160000B601A30192010E94402A6C2DEAE02E9FB0
:1016100060191124F1E0AF1AB10890E3960F87E347
:10162000860F6A3008F4892FD5018C932115310576
:101630004105510511F7F50101900020E9F7AF01CF
:10164000415051094A195B09D801ED91FC91028082
:10165000F381E02DB501C80109953C01620C731CB2
:1016600021CF8F929F92AF92BF92CF92DF92EF9253
:10167000FF920F931F93CF93DF93CDB7DEB7A19760
:101680000FB6F894DEBF0FBECDBF7C01D42EE52F80
:10169000CB012115310509F470C0C22E19A2B1E0A9
:1016A000B21708F075C0822E912CA12CB12C8E019E
:1016B0000F5D1F4F0BC0862FF80180832115310568
:1016C00041055105E9F0D22EE32FCA016D2D7E2F81
:1016D000A50194010E94402A8D2DC29E80191124DB
:1016E0000150110960E3680F97E3980F8A3018F3EF
:1016F000892FF8018083211531054105510519F71E
:10170000D8010D900020E9F7AD0141505109401B6F
:10171000510BD701ED91FC910280F381E02DB801CE
:10172000C70109958C01D701ED91FC910190F081E1
:10173000E02D6DE0C70109955C01D701ED91FC91A9
:101740000190F081E02D6AE0C70109950A0D1B1D8B
:10175000800F911FA1960FB6F894DEBF0FBECDBFCC
:10176000DF91CF911F910F91FF90EF90DF90CF907D
:10177000BF90AF909F908F900895D701ED91FC910D
:101780000190F081E02D642FC70109958C01CBCF2A
:101790007AE0872E912CA12CB12CFAE0CF2E87CFA6
:1017A0001F920F920FB60F9211240BB60F922F9328
:1017B0003F934F935F936F937F938F939F93AF93D9
:1017C000BF93EF93FF938091C6039091C703892B3A
:1017D00029F0E091C603F091C7030995FF91EF91BD
:1017E000BF91AF919F918F917F916F915F914F9139
:1017F0003F912F910F900BBE0F900FBE0F901F9037
:1018000018951F920F920FB60F9211240BB60F92DC
:101810002F933F934F935F936F937F938F939F93F8
:10182000AF93BF93EF93FF938091C8039091C90347
:10183000892B29F0E091C803F091C9030995FF9124
:10184000EF91BF91AF919F918F917F916F915F9138
:101850004F913F912F910F900BBE0F900FBE0F90A5
:101860001F9018951F920F920FB60F9211240BB66E
:101870000F922F933F934F935F936F937F938F9329
:101880009F93AF93BF93EF93FF938091CA0390917F
:10189000CB03892B29F0E091CA03F091CB03099582
:1018A000FF91EF91BF91AF919F918F917F916F9138
:1018B0005F914F913F912F910F900BBE0F900FBEF4
:1018C0000F901F9018951F920F920FB60F92112430
:1018D0000BB60F922F933F934F935F936F937F932A
:1018E0008F939F93AF93BF93EF93FF938091CC031C
:1018F0009091CD03892B29F0E091CC03F091CD0399
:101900000995FF91EF91BF91AF919F918F917F9139
:101910006F915F914F913F912F910F900BBE0F9060
:101920000FBE0F901F9018951F920F920FB60F9237
:1019300011240BB60F922F933F934F935F936F93A6
:101940007F938F939F93AF93BF93EF93FF93809178
:10195000CE039091CF03892B29F0E091CE03F09133
:10196000CF030995FF91EF91BF91AF919F918F9117
:101970007F916F915F914F913F912F910F900BBE8F
:101980000F900FBE0F901F9018951F920F920FB6D9
:101990000F9211240BB60F922F933F934F935F93A7
:1019A0006F937F938F939F93AF93BF93EF93FF9327
:1019B0008091D0039091D103892B29F0E091D0033D
:1019C000F091D1030995FF91EF91BF91AF919F9154
:1019D0008F917F916F915F914F913F912F910F90D8
:1019E0000BBE0F900FBE0F901F9018951F920F9275
:1019F0000FB60F9211240BB60F922F933F934F9374
:101A00005F936F937F938F939F93AF93BF93EF9366
:101A1000FF938091D2039091D303892B29F0E09119
:101A2000D203F091D3030995FF91EF91BF91AF914C
:101A30009F918F917F916F915F914F913F912F91E6
:101A40000F900BBE0F900FBE0F901F9018951F9216
:101A50000F920FB60F9211240BB60F922F933F9354
:101A60004F935F936F937F938F939F93AF93BF93A6
:101A7000EF93FF938091D4039091D503892B29F0A4
:101A8000E091D403F091D5030995FF91EF91BF91B7
:101A9000AF919F918F917F916F915F914F913F9106
:101AA0002F910F900BBE0F900FBE0F901F901895A7
:101AB0001F920F920FB60F9211242F933F938F9383
:101AC0009F93AF93BF938091D7039091D803A09138
:101AD000D903B091DA033091D60323E0230F2D37D9
:101AE00068F126E8230F0296A11DB11D2093D603AD
:101AF0008093D7039093D803A093D903B093DA03CC
:101B00008091DB039091DC03A091DD03B091DE03B3
:101B10000196A11DB11D8093DB039093DC03A0937C
:101B2000DD03B093DE03BF91AF919F918F913F9101
:101B30002F910F900FBE0F901F9018950196A11D29
:101B4000B11DD4CF2FB7F8946091D7037091D8030B
:101B50008091D9039091DA032FBF0895CF92DF923D
:101B6000EF92FF920F931F932FB7F894C090D70373
:101B7000D090D803E090D903F090DA032FBFEFB7ED
:101B8000F8940091D7031091D8032091D903309194
:101B9000DA03EFBF0C191D092E093F096017710701
:101BA0008207930760F71F910F91FF90EF90DF90EE
:101BB000CF9008950197009751F0880F991F880FD3
:101BC000991F02972FB7F8940197F1F72FBF089547
:101BD000789484B5886084BD84B5806484BD84B500
:101BE000826084BD84B5816084BDEEE6F0E08081D2
:101BF00081608083EAE7F0E0808184608083808177
:101C0000826080838081816080838081806880831E
:101C10001092C10008959FB7F8948091DF0381115D
:101C20000CC0289A209A8CB580618CBD8CB58064DC
:101C30008CBD219A229A8091DF038F5F8093DF030E
:101C40009FBF08951F920F920FB60F9211240BB6EB
:101C50000F922F933F934F935F936F937F938F9345
:101C60009F93AF93BF93EF93FF93E091E003F091C5
:101C7000E103309781F080917800209179006381B1
:101C8000748190E00180F281E02D922B09951092F1
:101C9000E1031092E003FF91EF91BF91AF919F910B
:101CA0008F917F916F915F914F913F912F910F9005
:101CB0000BBE0F900FBE0F901F9018951F920F92A2
:101CC0000FB60F9211240BB60F927F928F929F92B4
:101CD000AF92BF92CF92DF92EF92FF920F931F933A
:101CE0002F933F934F935F936F937F938F939F9324
:101CF000AF93BF93EF93FF93CF93DF93CDB7DEB74F
:101D00006197DEBFCDBFF090ED00B0EE7B2E10ED01
:101D1000C12E00ECD02E80EBE82E00EA10E9F0E8AE
:101D2000E0E770E660E550E440E330E220E106C021
:101D30001092ED008091EE0085FD15C09091E000BD
:101D40008091E100892B09F49FC08091E00080FD23
:101D5000EFCF8091E00081FF82C02093ED00809161
:101D6000EE0085FFEBCF1092EE008AE090E08C0F42
:101D70009D1F998788878091FA008A878091FA0051
:101D80008B878091FA008C878091FA008D878091F3
:101D9000FA008E878091FA008F878091FA00888BF5
:101DA0008091FA00898B8091EF008F708D838091F4
:101DB000EF00829581708F839091F00092FB9927BC
:101DC00090F99E83882309F49DC04091F30080918F
:101DD000F2008090F1002091F00090E0982F882789
:101DE0009295990F907EAA2797FDA095BA2F30E281
:101DF000839E40011124AA2497FCA094BA2C880D3C
:101E0000991DAA1DBB1D50E060E070E0E5E1440FA4
:101E1000551F661F771FEA95D1F7840F951FA61FE0
:101E2000B71F422F50E055954795559547955595C5
:101E30004795662757FD6095762F840F951FA61F3F
:101E4000B71F89839A83AB83BC836091ED00E091D7
:101E5000E203F091E303CE010196099560CF8091F2
:101E6000E00082FF03C03093ED0064CF8091E0007A
:101E700083FF03C04093ED005DCF8091E00084FFBD
:101E80002BC05093ED0056CFF092ED0061960FB647
:101E9000F894DEBF0FBECDBFDF91CF91FF91EF91E0
:101EA000BF91AF919F918F917F916F915F914F9172
:101EB0003F912F911F910F91FF90EF90DF90CF9066
:101EC000BF90AF909F908F907F900F900BBE0F9020
:101ED0000FBE0F901F9018958091E00085FF03C002
:101EE0006093ED0027CF8091E00086FD22C08091B5
:101EF000E00087FD2FC08091E10080FF1DC0F093BE
:101F0000ED0018CF2091F3008091F20090E09595BC
:101F100087959595879595958795959587959595A9
:101F2000879538E0239F800D911D11249A83898322
:101F30008CCF7093ED00FECE8091E10081FD07C053
:101F40008091E10082FF09C00093ED00F3CE109371
:101F5000ED00F0CEE093ED00EDCE8091E10083FF47
:101F600003C0E092ED00E6CE8091E10084FF03C063
:101F7000D092ED00DFCE8091E10085FF03C0C092DA
:101F8000ED00D8CE8091E10086FFD4CE7092ED00B6
:101F9000D1CE88E08093E7031092E9031092E80322
:101FA0001092EB031092EA038093EC031092EE037D
:101FB0001092ED031092F0031092EF038093F1035F
:101FC0001092F3031092F2031092F5031092F403AF
:101FD0001092E1031092E00308951F920F920FB642
:101FE0000F9211248F938091FB038F5F8093FB03EB
:101FF0008091FB038D3328F01092FB0382E08093E5
:10200000FC038F910F900FBE0F901F9018951F9299
:102010000F920FB60F9211242F933F938F939F939C
:10202000CF93DF9300D000D0CDB7DEB78091FA0315
:102030008F5F8093FA038091F9038F5F8093F90398
:102040008091FA038330B8F48091F9038E3120F047
:102050001092F903109226040F900F900F900F909A
:10206000DF91CF919F918F913F912F910F900FBE54
:102070000F901F9018951092FA0386B18983809172
:10208000E6038C839091E5039B832091E4032A83EC
:1020900030912504831709F443C031E030932604BE
:1020A00032E0309327041092F90320932304909395
:1020B00024048093250480E58093ED001092F300C2
:1020C00080EA8093F2001092F1001092F00080916B
:1020D000F0008093F00089818093FA008A818093D8
:1020E000FA008B818093FA008C818093FA008D81B5
:1020F0008093FA008E818093FA008F818093FA009A
:1021000088858093FA0088E48093EF008091F7033C
:1021100087FF9ACF1092F70381E08093F60394CF64
:1021200030912404931741F031E03093260430932A
:1021300027041092F903B9CF30912304231709F42F
:10214000B4CF31E030932604109227041092F903A3
:10215000ACCF1092280410922A0410922B041092F3
:102160002C0410922D048FEF9FEF90932F048093F7
:102170002E0410923404109233048CEF9FE090935D
:1021800036048093350487E08093300481E08093A7
:102190003104109229040895CF92DF92EF92FF92BA
:1021A000CF93DF93CDB7DEB76D970FB6F894DEBF50
:1021B0000FBECDBF1092FB03DC012D913C91223F5D
:1021C000310509F45CC108F04FC0203F310509F426
:1021D0003EC1213F3105D9F5DC011796ED91FC9107
:1021E0001897208181819281A381B48135813093B8
:1021F0001D04209322048A879B87AC87BD878D8529
:1022000089838C858A838B858B838A858C8389815E
:102210009A81AB81BC8180931E0490931F04A0938C
:102220002004B093210449E050E065EA70E0CE015B
:1022300001960E94AC2B80E48093ED008F81811188
:102240008EC090E88D818F70890F8093EF006D961E
:102250000FB6F894DEBF0FBECDBFDF91CF91FF90D8
:10226000EF90DF90CF900895233F310509F479C0B6
:10227000243F310561F7DC011796ED91FC91189729
:102280002281338180819181998B888B898989838F
:1022900088898A83E981FA81AF014427507860E018
:1022A00070E0BA0155274427CF0188279C77892BF6
:1022B00009F4C0C1CF019F77A0E0B0E0EDE0880F46
:1022C000991FAA1FBB1FEA95D1F7B85C842B952BE9
:1022D000A62BB72B8093150490931604A093170494
:1022E000B09318043F872E878F8589838E858A83D4
:1022F00029813A81A9014427507860E070E0BA0151
:1023000055274427C90188279C77892B09F48EC15A
:10231000C9019F77A0E0B0E0EDE0880F991FAA1FE8
:10232000BB1FEA95D1F7B85C842B952BA62BB72B56
:102330008093190490931A04A0931B04B0931C0477
:1023400049E050E067EB70E0CE0101960E94AC2BB3
:1023500080E38093ED008F81882309F472CF90E9A8
:1023600071CFDC011796ED91FC9118972281338192
:10237000808191819D8B8C8B8D8989838C898A83C7
:10238000E981FA81AF014427507860E070E0BA013A
:1023900055274427CF0188279C77892B09F452C100
:1023A000CF019F77A0E0B0E0FDE0880F991FAA1F42
:1023B000BB1FFA95D1F7B85C842B952BA62BB72BB6
:1023C00080930D0490930E04A0930F04B093100417
:1023D0003B8B2A8B8B8989838A898A8329813A81DD
:1023E000A9014427507860E070E0BA0155274427DE
:1023F000C90188279C77892B09F420C1C9019F77DF
:10240000A0E0B0E02DE0880F991FAA1FBB1F2A95FE
:10241000D1F7B85C842B952BA62BB72B8093110496
:1024200090931204A0931304B093140449E050E075
:1024300069EC70E0CE0101960E94AC2B80E28093A3
:10244000ED008F81882309F4FCCE90E9FBCEDC01FE
:102450001796ED91FC91189780818093FC0349E0D9
:1024600050E06DEE70E0CE0101960E94AC2B109210
:10247000ED008F81882309F4E4CE90E9E3CEDC01FE
:102480001796ED91FC911897628173814481558173
:1024900026813781808191819D8F8C8F8D8D89835D
:1024A0008C8D8A83E981FA816F01CC24B0E8DB222C
:1024B000E12CF12C7601DD24CC24CF0188279C77F8
:1024C000892B09F4CFC0CF019F77A0E0B0E0FDE0F9
:1024D000880F991FAA1FBB1FFA95D1F7B85C8C29EA
:1024E0009D29AE29BF298093FD039093FE03A093FD
:1024F000FF03B09300047B8F6A8F8B8D89838A8D55
:102500008A8369817A816B01CC24E0E8DE22E12CA8
:10251000F12C7601DD24CC24CB0188279C77892BF4
:1025200009F49CC0CB019F77A0E0B0E06DE0880F7C
:10253000991FAA1FBB1F6A95D1F7B85C8C299D29EA
:10254000AE29BF298093010490930204A093030451
:10255000B0930404598F488F898D8983888D8A832D
:10256000E981FA81AF014427507860E070E0BA0158
:1025700055274427CF0188279C77892B09F46AC007
:10258000CF019F77A0E0B0E0FDE0880F991FAA1F60
:10259000BB1FFA95D1F7B85C842B952BA62BB72BD4
:1025A0008093050490930604A0930704B093080455
:1025B0003F8B2E8B8F8989838E898A8329813A81EB
:1025C000A9014427507860E070E0BA0155274427FC
:1025D000C90188279C77892BC9F1C9019F77A0E0A1
:1025E000B0E02DE0880F991FAA1FBB1F2A95D1F7D5
:1025F000B85C842B952BA62BB72B80930904909362
:102600000A04A0930B04B0930C0449E050E06BED76
:1026100070E0CE0101960E94AC2B80E18093ED002A
:102620008F81882309F40DCE90E90CCE80E090E0F4
:10263000DC017ACE80E090E0DC0148CE80E090E0E2
:10264000DC01E8CE80E090E0DC01B6CE80E090E0F6
:10265000DC01CFCF80E090E0DC019ECF80E090E015
:10266000DC016CCF80E090E0DC0139CFFC0181819E
:1026700081115CC093858485289820E92EBD0000D7
:102680000DB407FEFDCF2EB524E22EBD00000DB423
:1026900007FEFDCF2EB528EE2EBD00000DB407FEBF
:1026A000FDCF2EB59EBD00000DB407FEFDCF9EB53B
:1026B0008EBD00000DB407FEFDCF8EB5289AA4EEA6
:1026C00074E260E128986EBD00000DB407FEFDCFF6
:1026D0008EB57EBD00000DB407FEFDCF8EB5AEBD3C
:1026E00000000DB407FEFDCF8EB51EBC00000DB47A
:1026F00007FEFDCF8EB51EBC00000DB407FEFDCF5A
:102700009EB51EBC00000DB407FEFDCF8EB5289A05
:10271000292F382F438554854217530729F02F3F1F
:102720003F4081F682E3089580E00895289A43852A
:102730005485289880E98EBD00000DB407FEFDCFBA
:102740008EB584E28EBD00000DB407FEFDCF8EB5C0
:1027500088EE8EBD00000DB407FEFDCF8EB54EBDD8
:1027600000000DB407FEFDCF8EB55EBD00000DB4B8
:1027700007FEFDCF8EB51EBC00000DB407FEFDCFD9
:102780008EB51EBC00000DB407FEFDCF8EB5289A95
:10279000118270CFCF93FC01CB012585368526179A
:1027A000370708F071C02181211174C03385248559
:1027B000289840E94EBD00000DB407FEFDCF4EB590
:1027C00044E24EBD00000DB407FEFDCF4EB548EE0D
:1027D0004EBD00000DB407FEFDCF4EB53EBD00005E
:1027E0000DB407FEFDCF3EB52EBD00000DB407FEB3
:1027F000FDCF2EB5289A258536852817390708F08C
:1028000040C0C4EEB4E2A0E16CEF7FE02898AEBD1A
:1028100000000DB407FEFDCF2EB5BEBD00000DB407
:1028200007FEFDCF2EB5CEBD00000DB407FEFDCFD7
:102830002EB51EBC00000DB407FEFDCF2EB51EBC8C
:1028400000000DB407FEFDCF3EB51EBC00000DB468
:1028500007FEFDCF2EB5289A432F522F4F3F2FE072
:102860005207A9F023853485241B350B2C7F3F703C
:10287000AB01421B530B568745874817590708F48D
:10288000C5CF818181113BC080E0CF91089582E363
:10289000CF910895289A43855485289820E92EBD24
:1028A00000000DB407FEFDCF2EB524E22EBD0000C2
:1028B0000DB407FEFDCF2EB528EE2EBD00000DB4E1
:1028C00007FEFDCF2EB54EBD00000DB407FEFDCFB7
:1028D0002EB55EBD00000DB407FEFDCF2EB51EBCAB
:1028E00000000DB407FEFDCF2EB51EBC00000DB4D8
:1028F00007FEFDCF2EB5289A21E0218357CF4385CF
:10290000548560E070E050586F4E7F4F2898862FB6
:1029100080688EBD00000DB407FEFDCF8EB55EBD94
:1029200000000DB407FEFDCF8EB54EBD00000DB406
:1029300007FEFDCF8EB581E08183A6CF6F927F9297
:102940008F929F92AF92BF92CF92DF92EF92FF92BF
:102950000F931F93CF93DF9300D000D0CDB7DEB796
:102960008C013B012D5F3F4F4F4F5F4F2C7F211557
:1029700031054105510509F440C0B8EEDB2E84E273
:10298000E82E90E9F92ECC24C394D8011D968D91A0
:102990009C911E97A0E0B0E082179307A407B507AB
:1029A00008F43FC080E090E0DC01F301E80FF91F7C
:1029B000E491EEBD00000DB407FEFDCF6EB50196AB
:1029C000A11DB11D82179307A407B50770F3D801A5
:1029D0001B968D919C911C97820F931F9F701C9644
:1029E0009C938E931B971D968D919C911E97821B95
:1029F000930B1E969C938E931D9780E00F900F90E3
:102A00000F900F90DF91CF911F910F91FF90EF905A
:102A1000DF90CF90BF90AF909F908F907F906F90FE
:102A20000895F801818181118FC0F8019385848513
:102A30002898FEBC00000DB407FEFDCF6EB5EEBCBD
:102A400000000DB407FEFDCF6EB5DEBC00000DB476
:102A500007FEFDCF6EB59EBD00000DB407FEFDCF95
:102A60009EB58EBD00000DB407FEFDCF8EB5289A31
:102A7000D8011D96ED91FC911E974F01A12CB12C10
:102A8000DA01C90182169306A406B50610F4D50131
:102A9000C4010097A105B10509F4CFC0812C912C88
:102AA0005401F301E80DF91DE491EEBD00000DB4F1
:102AB00007FEFDCF6EB5EFEF8E1A9E0AAE0ABE0A74
:102AC00088169906AA06BB0661F74C015D01F1E084
:102AD0008F1A9108A108B108B4016F5F7F4F660E8D
:102AE000771EF801A584B684F80163857485680FA4
:102AF000791F7F7074876387A81AB90AB686A5867E
:102B0000281B390B4A0B5B0B922F832F2130F8E0E7
:102B10003F074105510510F090E088E0692F782FBC
:102B2000C80129833A834B835C8334DE29813A814F
:102B30004B815C81823309F482C021153105410546
:102B4000510509F022CF59CF289A8385948528987A
:102B5000FEBC00000DB407FEFDCF6EB5EEBC00005C
:102B60000DB407FEFDCF6EB5DEBC00000DB407FE50
:102B7000FDCF6EB58EBD00000DB407FEFDCF6EB566
:102B80009EBD00000DB407FEFDCF8EB51EBC00003B
:102B90000DB407FEFDCF8EB51EBC00000DB407FEC0
:102BA000FDCF8EB5289AD80111961C9211971B96CD
:102BB0009C911B971C968C912898FEBC00000DB42C
:102BC00007FEFDCF6EB5EEBC00000DB407FEFDCFD5
:102BD0006EB5DEBC00000DB407FEFDCF6EB59EBD28
:102BE00000000DB407FEFDCF9EB58EBD00000DB4F4
:102BF00007FEFDCF8EB5289AF80183859485A0E065
:102C0000B0E09058AF4EBF4F28986A2F60686EBDF5
:102C100000000DB407FEFDCF6EB59EBD00000DB4E3
:102C200007FEFDCF6EB58EBD00000DB407FEFDCFD3
:102C30008EB5D8011196CC921BCF5F0155CF82E3A0
:102C4000DDCE0F931F93CF93DF938B01D82FC92F26
:102C500020912904222309F442C0209135043091A7
:102C600036042430310570F10EBD00000DB407FEAE
:102C7000FDCF8EB51EBD00000DB407FEFDCF8EB595
:102C8000DEBD00000DB407FEFDCF8EB5CEBD000049
:102C90000DB407FEFDCF8EB58091330490913404BE
:102CA00004969F7090933404809333042450310928
:102CB000309336042093350480E0DF91CF911F914B
:102CC0000F91089564E070E088E294E063DD823360
:102CD00009F49BC02091350430913604C5CFE091B2
:102CE0003304F0913404AF0160E070E050586F4E4F
:102CF0007F4F2898862F80688EBD00000DB407FE98
:102D0000FDCF8EB55EBD00000DB407FEFDCF8EB5C4
:102D10004EBD00000DB407FEFDCF8EB581E080935F
:102D2000290420913504309136042430310580F493
:102D300064E070E088E294E02DDD823309F46BC03A
:102D4000E0913304F091340420913504309136043D
:102D50000EBD00000DB407FEFDCF8EB51EBD0000F8
:102D60000DB407FEFDCF8EB5DEBD00000DB407FE2D
:102D7000FDCF8EB5CEBD00000DB407FEFDCF8EB5E4
:102D80003496FF70F0933404E093330424503109F7
:102D9000309336042093350480E0289AAF012898B8
:102DA00090E99EBD00000DB407FEFDCF9EB594E2F4
:102DB0009EBD00000DB407FEFDCF9EB598EE9EBDF2
:102DC00000000DB407FEFDCF9EB54EBD00000DB452
:102DD00007FEFDCF9EB55EBD00000DB407FEFDCF22
:102DE0009EB51EBC00000DB407FEFDCF9EB51EBCF7
:102DF00000000DB407FEFDCF9EB5289A109229045D
:102E0000DF91CF911F910F91089582E3DF91CF91D0
:102E10001F910F91089582E3E0913304F0913404FF
:102E2000BCCFCF92DF92EF92FF920F931F93CF937D
:102E3000DF9300D0CDB7DEB76C017B01FC0181814F
:102E4000882309F441C0F60185859685049780F1B1
:102E50004EBD00000DB407FEFDCF8EB55EBD000077
:102E60000DB407FEFDCF8EB5EEBC00000DB407FE1D
:102E7000FDCF8EB5FEBC00000DB407FEFDCF8EB5B4
:102E8000F6018385948504969F7094878387858552
:102E9000968504979687858780E00F900F90DF9145
:102EA000CF911F910F91FF90EF90DF90CF900895F9
:102EB00064E070E0C60149835A836CDC49815A8121
:102EC000823331F682E3E9CF0385148520E030E0D8
:102ED00010582F4E3F4F2898822F80688EBD0000DB
:102EE0000DB407FEFDCF8EB51EBD00000DB407FE6C
:102EF000FDCF8EB50EBD00000DB407FEFDCF8EB523
:102F000081E0F601818385859685049760F464E00D
:102F100070E0C60149835A833DDC49815A8182337E
:102F200011F482E325C04EBD00000DB407FEFDCFB5
:102F30008EB55EBD00000DB407FEFDCF8EB5EEBCB4
:102F400000000DB407FEFDCF8EB5FEBC00000DB431
:102F500007FEFDCF8EB5F6018385948504969F709C
:102F6000948783878585968504979687858780E0F3
:102F7000289AF60143855485289890E99EBD000063
:102F80000DB407FEFDCF9EB594E29EBD00000DB4CA
:102F900007FEFDCF9EB598EE9EBD00000DB407FE66
:102FA000FDCF9EB54EBD00000DB407FEFDCF9EB512
:102FB0005EBD00000DB407FEFDCF9EB51EBC000037
:102FC0000DB407FEFDCF9EB51EBC00000DB407FE7C
:102FD000FDCF9EB5289AF60111825FCF6F927F9246
:102FE0008F929F92AF92BF92CF92DF92EF92FF9219
:102FF0000F931F93CF93DF9300D000D0CDB7DEB7F0
:103000003C018B012D5F3F4F4F4F5F4F2C7F2115B0
:10301000310541055105E9F168EED62E74E2E72E3F
:10302000E0E9FE2ECC24C394D3011D968D919C9192
:103030001E97A0E0B0E082179307A407B507E8F158
:10304000F80180E090E0DC0161916EBD00000DB4FC
:1030500007FEFDCF6EB50196A11DB11D8217930726
:10306000A407B50788F3D3011B968D919C911C97FB
:10307000820F931F9F701C969C938E931B971D9697
:103080008D919C911E97821B930B1E969C938E9301
:103090001D9780E00F900F900F900F90DF91CF91D0
:1030A0001F910F91FF90EF90DF90CF90BF90AF9066
:1030B0009F908F907F906F900895F301818181118F
:1030C0008DC0F301938584852898FEBC00000DB463
:1030D00007FEFDCF6EB5EEBC00000DB407FEFDCFC0
:1030E0006EB5DEBC00000DB407FEFDCF6EB59EBD13
:1030F00000000DB407FEFDCF9EB58EBD00000DB4DF
:1031000007FEFDCF8EB5289AD3011D96ED91FC9157
:103110001E974F01A12CB12CDA01C901821693062A
:10312000A406B50610F4D501C4010097A105B105A8
:1031300009F4CDC0F801812C912C540161916EBD30
:1031400000000DB407FEFDCF6EB56FEF861A960A2C
:10315000A60AB60A88169906AA06BB0679F74C0194
:103160005D01E1E08E1A9108A108B108B4016F5F1A
:103170007F4F060F171FF301A584B684F301638503
:103180007485680F791F7F7074876387A81AB90ADE
:10319000B686A586281B390B4A0B5B0B922F832F13
:1031A0002130F8E03F074105510510F090E088E03C
:1031B000692F782FC30129833A834B835C83EADA32
:1031C00029813A814B815C81823309F482C02115C7
:1031D00031054105510509F027CF5BCF289A83853A
:1031E00094852898FEBC00000DB407FEFDCF6EB597
:1031F000EEBC00000DB407FEFDCF6EB5DEBC0000D6
:103200000DB407FEFDCF6EB58EBD00000DB407FEF8
:10321000FDCF6EB59EBD00000DB407FEFDCF8EB58F
:103220001EBC00000DB407FEFDCF8EB51EBC000015
:103230000DB407FEFDCF8EB5289AD30111961C92CE
:1032400011971B969C911B971C968C912898FEBCFD
:1032500000000DB407FEFDCF6EB5EEBC00000DB44E
:1032600007FEFDCF6EB5DEBC00000DB407FEFDCF3E
:103270006EB59EBD00000DB407FEFDCF9EB58EBDA0
:1032800000000DB407FEFDCF8EB5289AF3018385AB
:103290009485A0E0B0E09058AF4EBF4F28986A2FB9
:1032A00060686EBD00000DB407FEFDCF6EB59EBD1B
:1032B00000000DB407FEFDCF6EB58EBD00000DB44D
:1032C00007FEFDCF8EB5D3011196CC921DCF5F01C5
:1032D00055CF82E3DFCE8F929F92AF92BF92CF9273
:1032E000DF92EF92FF920F931F93CF93DF931F9282
:1032F000CDB7DEB74C016B015A014CE05FEF6FEFC9
:103300007FEF29838EDDA501662757FD6095762F17
:10331000BA0155274427C601A0E0B0E0482B592B3D
:103320006A2B7B2BC4017DDDA80160E070E0BA014F
:10333000552744272981422BC40173DDF7010190F1
:103340000020E9F7EE19FF099F0140E050E0F40189
:103350008181882381F0B701C4010F90DF91CF9163
:103360001F910F91FF90EF90DF90CF90BF90AF90A3
:103370009F908F9033CE83859485A0E0B0E09058E5
:10338000AF4EBF4F28986A2F60686EBD00000DB425
:1033900007FEFDCF6EB59EBD00000DB407FEFDCF4C
:1033A0006EB58EBD00000DB407FEFDCF8EB581E079
:1033B000F4018183B701C40111DE289AF401438529
:1033C0005485289890E99EBD00000DB407FEFDCFFE
:1033D0009EB594E29EBD00000DB407FEFDCF9EB5E4
:1033E00098EE9EBD00000DB407FEFDCF9EB54EBD0C
:1033F00000000DB407FEFDCF9EB55EBD00000DB40C
:1034000007FEFDCF9EB51EBC00000DB407FEFDCF2C
:103410009EB51EBC00000DB407FEFDCF9EB5289AD8
:10342000F40111820F90DF91CF911F910F91FF90C6
:10343000EF90DF90CF90BF90AF909F908F900895C6
:103440000F931F93CF93DF93CDB7DEB7C054D1094D
:103450000FB6F894DEBF0FBECDBF9E012E5A3F4F70
:1034600062964EAD5FAD629760E470E08E010F5FD3
:103470001F4FC8010E94042C4CE05FEF6FEF7FEFFD
:1034800088E294E0CEDC2B964EAD5FAD2B9760E0EA
:1034900070E02D968EAD9FAD2D97AA2797FDA09534
:1034A000BA2FDC0199278827482B592B6A2B7B2BB5
:1034B00088E294E0B6DC60964EAD5FAD609760E068
:1034C00070E0BA01552744272E968FAD2E97482BD2
:1034D00088E294E0A6DCF80101900020E9F7E01B07
:1034E000F10B9F0140E050E080912904882381F096
:1034F000B80188E294E072DDC05CDF4F0FB6F8944B
:10350000DEBF0FBECDBFDF91CF911F910F91089508
:103510008091330490913404A0E0B0E09058AF4E15
:10352000BF4F28986A2F60686EBD00000DB407FE7B
:10353000FDCF6EB59EBD00000DB407FEFDCF6EB58C
:103540008EBD00000DB407FEFDCF8EB581E08093E7
:103550002904B80188E294E041DD289A40913304BF
:1035600050913404289890E99EBD00000DB407FEE8
:10357000FDCF9EB594E29EBD00000DB407FEFDCFC9
:103580009EB598EE9EBD00000DB407FEFDCF9EB522
:103590004EBD00000DB407FEFDCF9EB55EBD000020
:1035A0000DB407FEFDCF9EB51EBC00000DB407FE96
:1035B000FDCF9EB51EBC00000DB407FEFDCF9EB52D
:1035C000289A1092290498CFEF92FF920F931F939D
:1035D000CF93DF93CDB7DEB7C058D1090FB6F894BB
:1035E000DEBF0FBECDBFC757DF4F08811981C95855
:1035F000D040CE56DF4F68817981C259D040CE018C
:1036000001960E94B52B7E0181E4E80EF11C9E011B
:103610002C563F4FAE014F5F5F4F60E470E0C70133
:103620000E94042C4CE05FEF6FEF7FEFC801F9DBE5
:10363000C557DF4F48815981CB58D04060E070E0DA
:10364000C357DF4F88819981CD58D040AA2797FD75
:10365000A095BA2FDC0199278827482B592B6A2B74
:103660007B2BC801DEDBC057DF4F48815981C05931
:10367000D04060E070E0BA0155274427C157DF4FC2
:103680008881CF58D040482BC801CBDBF70101908F
:103690000020E9F7EE19FF099F0140E050E0F80132
:1036A0008181882389F0B701C80198DCC058DF4FB9
:1036B0000FB6F894DEBF0FBECDBFDF91CF911F9143
:1036C0000F91FF90EF90089583859485A0E0B0E07E
:1036D0009058AF4EBF4F28986A2F60686EBD0000AB
:1036E0000DB407FEFDCF6EB59EBD00000DB407FE04
:1036F000FDCF6EB58EBD00000DB407FEFDCF8EB5BB
:1037000081E0F8018183B701C80168DC289AF801DB
:1037100043855485289890E99EBD00000DB407FEAE
:10372000FDCF9EB594E29EBD00000DB407FEFDCF17
:103730009EB598EE9EBD00000DB407FEFDCF9EB570
:103740004EBD00000DB407FEFDCF9EB55EBD00006E
:103750000DB407FEFDCF9EB51EBC00000DB407FEE4
:10376000FDCF9EB51EBC00000DB407FEFDCF9EB57B
:10377000289AF80111829ACF4F925F926F927F92AE
:103780008F929F92AF92BF92CF92DF92EF92FF9271
:103790001F93CF93DF93CDB7DEB72C970FB6F89476
:1037A000DEBF0FBECDBF2C018CE0EAE0F1E0DE0110
:1037B000119601900D928A95E1F78CB58C7F8CBDA6
:1037C0008DB581608DBD28981EBC00000DB407FE2C
:1037D000FDCF8EB51EBC00000DB407FEFDCF8EB52B
:1037E0001EBC00000DB407FEFDCF8EB51EBC000050
:1037F0000DB407FEFDCF8EB51EBC00000DB407FE54
:10380000FDCF8EB5289A64E170E080E090E00E94E0
:10381000AE0D64E170E080E090E00E94AE0D10E03B
:1038200098E0692E24E2722E30E1832E4CE6942E2D
:1038300055E2A52E60E9B62E28988EBC00000DB486
:1038400007FEFDCF8EB57EBC00000DB407FEFDCF98
:103850008EB56EBC00000DB407FEFDCF8EB51EBC4C
:1038600000000DB407FEFDCF8EB51EBC00000DB4E8
:1038700007FEFDCF4EB51EBC00000DB407FEFDCF08
:103880003EB51EBC00000DB407FEFDCF9EB51EBCAC
:1038900000000DB407FEFDCF8EB5289AC42ED32E9E
:1038A000E92EF82E89E09DE30E94DA0D28988EBC5F
:1038B00000000DB407FEFDCF8EB57EBC00000DB438
:1038C00007FEFDCF8EB56EBC00000DB407FEFDCF28
:1038D0008EB51EBC00000DB407FEFDCF8EB51EBC1C
:1038E00000000DB407FEFDCFEEB51EBC00000DB408
:1038F00007FEFDCF3EB51EBC00000DB407FEFDCF98
:103900009EB51EBC00000DB407FEFDCF8EB5289AF3
:103910004E2F532F692F782F4C195D096E097F099F
:10392000440F551F661F771F440F551F661F771FD3
:10393000440F551F661F771F440F551F661F771FC3
:10394000440F551F661F771F440F551F661F771FB3
:10395000411586EC58078DEC680782E07807F0F493
:103960002898BEBC00000DB407FEFDCF8EB5AEBCDE
:1039700000000DB407FEFDCF8EB59EBC00000DB457
:1039800007FEFDCF8EB51EBD00000DB407FEFDCFB6
:103990008EB5289A1F5F1F3109F04ECF289880E915
:1039A0008EBD00000DB407FEFDCF8EB584E28EBD46
:1039B00000000DB407FEFDCF8EB58CE08EBD00007B
:1039C0000DB407FEFDCF8EB54EBD00000DB407FE51
:1039D000FDCF8EB55EBD00000DB407FEFDCF8EB5E8
:1039E0006EBD00000DB407FEFDCF8EB57EBD00009C
:1039F0000DB407FEFDCF8EB5289A289880E98EBDBC
:103A000000000DB407FEFDCF8EB51EBC00000DB446
:103A100007FEFDCF8EB51EBC00000DB407FEFDCF26
:103A20008EB5FE013196CE010D9621912EBD00007E
:103A30000DB407FEFDCF2EB5E817F907B1F7289AA8
:103A4000289880E98EBD00000DB407FEFDCF8EB52D
:103A500084E28EBD00000DB407FEFDCF8EB580E57B
:103A60008EBD00000DB407FEFDCF8EB582E08EBD89
:103A700000000DB407FEFDCF8EB5289AF201148622
:103A800013868CEF9FE0968785872C960FB6F89467
:103A9000DEBF0FBECDBFDF91CF911F91FF90EF90A2
:103AA000DF90CF90BF90AF909F908F907F906F905E
:103AB0005F904F900895CF92DF92EF92FF920F9315
:103AC0001F93CF93DF93CDB7DEB76F970FB6F89400
:103AD000DEBF0FBECDBF40E051EE60E070E081EA96
:103AE00092E00E94090880912E0490912F04019683
:103AF00019F08DB1887F8DB984B1856084B9289A19
:103B00000E940B0E8CB58C7F8CBD8DB581608DBDF8
:103B10008CB58F7D8CBD8CB5837F8CBD88E294E0A5
:103B20002BDE289880E98EBD00000DB407FEFDCF86
:103B30008EB584E28EBD00000DB407FEFDCF8EB5BC
:103B400088E48EBD00000DB407FEFDCF8EB51EBC0F
:103B500000000DB407FEFDCF8EB51EBC00000DB4F5
:103B600007FEFDCF8EB5289A289880E98EBD00000B
:103B70000DB407FEFDCF8EB584E28EBD00000DB4FE
:103B800007FEFDCF8EB58CE48EBD00000DB407FEA0
:103B9000FDCF8EB58AE08EBD00000DB407FEFDCFCF
:103BA0008EB51EBC00000DB407FEFDCF8EB5289A61
:103BB000289880E98EBD00000DB407FEFDCF8EB5BC
:103BC00084E28EBD00000DB407FEFDCF8EB580E40B
:103BD0008EBD00000DB407FEFDCF8EB58CE08EBD0E
:103BE00000000DB407FEFDCF8EB51EBC00000DB465
:103BF00007FEFDCF8EB5289A289880E98EBD00007B
:103C00000DB407FEFDCF8EB584E28EBD00000DB46D
:103C100007FEFDCF8EB58CE38EBD00000DB407FE10
:103C2000FDCF8EB584E28EBD00000DB407FEFDCF42
:103C30008EB581E08EBD00000DB407FEFDCF8EB5C0
:103C4000289A289880E98EBD00000DB407FEFDCFAC
:103C50008EB584E28EBD00000DB407FEFDCF8EB59B
:103C600084E38EBD00000DB407FEFDCF8EB51EBCF3
:103C700000000DB407FEFDCF8EB51EBC00000DB4D4
:103C800007FEFDCF8EB5289A289880E98EBD0000EA
:103C90000DB407FEFDCF8EB584E28EBD00000DB4DD
:103CA00007FEFDCF8EB588E38EBD00000DB407FE84
:103CB000FDCF8EB589E28EBD00000DB407FEFDCFAD
:103CC0008EB51EBC00000DB407FEFDCF8EB5289A40
:103CD000289880E98EBD00000DB407FEFDCF8EB59B
:103CE00084E28EBD00000DB407FEFDCF8EB58CE2E0
:103CF0008EBD00000DB407FEFDCF8EB58BE28EBDEC
:103D000000000DB407FEFDCF8EB51EBC00000DB443
:103D100007FEFDCF8EB5289A289880E98EBD000059
:103D20000DB407FEFDCF8EB584E28EBD00000DB44C
:103D300007FEFDCF8EB588E28EBD00000DB407FEF4
:103D4000FDCF8EB584E28EBD00000DB407FEFDCF21
:103D50008EB582E08EBD00000DB407FEFDCF8EB59E
:103D6000289A289880E98EBD00000DB407FEFDCF8B
:103D70008EB584E28EBD00000DB407FEFDCF8EB57A
:103D800080E38EBD00000DB407FEFDCF8EB580EE42
:103D90008EBD00000DB407FEFDCF8EB581E08EBD57
:103DA00000000DB407FEFDCF8EB5289A289880E953
:103DB0008EBD00000DB407FEFDCF8EB584E28EBD32
:103DC00000000DB407FEFDCF8EB584E48EBD00006B
:103DD0000DB407FEFDCF8EB580E18EBD00000DB4A1
:103DE00007FEFDCF8EB581E08EBD00000DB407FE4D
:103DF000FDCF8EB5289A289880E98EBD00000DB4BD
:103E000007FEFDCF8EB584E28EBD00000DB407FE27
:103E1000FDCF8EB588E68EBD00000DB407FEFDCF48
:103E20008EB581E08EBD00000DB407FEFDCF8EB5CE
:103E30001EBC00000DB407FEFDCF8EB5289A289851
:103E400080E98EBD00000DB407FEFDCF8EB584E283
:103E50008EBD00000DB407FEFDCF8EB580E68EBD91
:103E600000000DB407FEFDCF8EB51EBC00000DB4E2
:103E700007FEFDCF8EB51EBC00000DB407FEFDCFC2
:103E80008EB5289A289880E98EBD00000DB407FEF3
:103E9000FDCF8EB584E28EBD00000DB407FEFDCFD0
:103EA0008EB58CE68EBD00000DB407FEFDCF8EB53D
:103EB00085E08EBD00000DB407FEFDCF8EB51EBCA3
:103EC00000000DB407FEFDCF8EB5289A289888E42F
:103ED0008EBD00000DB407FEFDCF8EB51EBC0000E8
:103EE0000DB407FEFDCF8EB51EBC00000DB407FE5D
:103EF000FDCF8EB51EBC00000DB407FEFDCF8EB504
:103F00001EBC00000DB407FEFDCF8EB5289A64E1FB
:103F100070E080E090E00E94AE0D40E150E060E093
:103F200070E081EA92E00E94EB0928988CE08EBD57
:103F300000000DB407FEFDCF8EB51EBC00000DB411
:103F400007FEFDCF8EB51EBC00000DB407FEFDCFF1
:103F50008EB51EBC00000DB407FEFDCF8EB51EBC95
:103F600000000DB407FEFDCF3EB51EBC00000DB431
:103F700007FEFDCF2EB51EBC00000DB407FEFDCF21
:103F80009EB51EBC00000DB407FEFDCF8EB5289A6D
:103F9000C32ED22EE92EF82E38E0C31631E0D30618
:103FA000E306F104A1F066E271E081EA92E00E948A
:103FB000A80920E130E0B701A60181EA92E00E9461
:103FC000310B6DE371E081EA92E00E94B80960E094
:103FD0007FEF8FEF9FEF0E94211667E070E080E097
:103FE00096E20E94211686E1E1E6F1E0DE011196FB
:103FF00001900D928A95E1F76FEF7FEF8FEF94E0DC
:104000000E942116CE0101967C0100E016E02DE110
:1040100042E250E060EF70E088E294E05CD960E05A
:1040200070E08FEF94E00E94211689E491E09F9365
:104030008F9386E08F931F928DE18F931F9288E874
:104040008F931F9280EF8F9388E294E09F938F93DA
:10405000F7D960E070E0CB010E94211661E07FEFAC
:104060008FEF9FEF0E94211688E294E00E943613A2
:1040700081E090E00090300402C0880F991F0A94FC
:10408000E2F7289820E12EBD00000FB6F894DEBFBD
:104090000FBECDBF0DB407FEFDCF2EB524E22EBD61
:1040A00000000DB407FEFDCF2EB520E92EBD0000A7
:1040B0000DB407FEFDCF2EB51EBC00000DB407FEEB
:1040C000FDCF2EB51EBC00000DB407FEFDCF9EB582
:1040D000289A982B80E928988EBD00000DB407FE21
:1040E000FDCF2EB524E22EBD00000DB407FEFDCF9E
:1040F0002EB58EBD00000DB407FEFDCF8EB59EBD62
:1041000000000DB407FEFDCF8EB5289A42E25FEFA6
:104110006FEF7FEF88E294E00E94111740E050E0DB
:10412000BA0188E294E00E94111780912904882343
:1041300009F408C427EF31E040E050E066EF70E09A
:1041400088E294E00E949E1488E294E00E94361374
:1041500060E07FEF8FEF9FEF0E94211667E070E035
:1041600080E096E20E94211660E070E080E095E039
:104170000E94211660E070E080E091E00E9421162C
:1041800041E350E468E077E088E294E00E94111790
:1041900041E354EF61E178E088E294E00E94111776
:1041A00060E070E0CB010E94211661E07FEF8FEFAD
:1041B0009FEF0E94211688E294E00E9436138CEC57
:1041C00090E19093E3038093E20381E08093D80031
:1041D0001092DE001092DF0090EA9093DB001092C4
:1041E000EC001092E2008CE08093E30086E3809381
:1041F000E4001092E5008091D80082608093D8009E
:104200001092ED001092EF001092EE0080E180938A
:10421000ED001092EF001092EE0080E28093ED002E
:104220001092EF001092EE0080E38093ED00109268
:10423000EF001092EE0080E48093ED001092EF000A
:104240001092EE0080E58093ED001092EF00109246
:10425000EE0080E68093ED001092EF001092EE00E9
:1042600080E78093ED001092EF001092EE0080E85E
:104270008093ED001092EF001092EE0080E98093A1
:10428000ED001092EF001092EE009093ED0010926E
:10429000EF001092EE0080EB8093ED001092EF00A3
:1042A0001092EE0080EC8093ED001092EF001092DF
:1042B000EE0080ED8093ED001092EF001092EE0082
:1042C00080EE8093ED001092EF001092EE0080EFF0
:1042D0008093ED001092EF001092EE00789449E088
:1042E00050E06DEE70E0CE0147960E94AC2B49E0A5
:1042F00050E064EE70E0CE0101960E94AC2B10926B
:10430000ED008091DE0081608093DE002D8D8F892D
:10431000988DA98DBA8D222309F42BC4AC01BD015F
:1043200015E176956795579547951A95D1F740937E
:10433000F300AC01BD010DE0769567955795479563
:104340000A95D1F74093F200AC01BD0195E0769556
:104350006795579547959A95D1F74093F100880F47
:10436000880F880F8093F0008091F0009C8D992336
:1043700009F4E6C294E0892B8093F0002D8D8981A9
:104380009A81AB81BC81222309F4E0C3AC01BD0159
:10439000E5E17695679557954795EA95D1F740936E
:1043A000F700AC01BD01FDE07695679557954795FF
:1043B000FA95D1F74093F600AC01BD01A5E07695E2
:1043C000679557954795AA95D1F74093F500880FC3
:1043D000880F880F8093F4009091F4008E818823D9
:1043E00009F4ACC224E081E03F81311101C080E0DA
:1043F000820F892B8093F4008D8D8111A5C390E8E5
:104400008B8D8F70890F8093EF0049E050E06BED4A
:1044100070E0CE0147960E94AC2B49E050E062ED7F
:1044200070E0CE0101960E94AC2B80E18093ED00FC
:104430008091DE0082608093DE002D8D8F89988DC3
:10444000A98DBA8D222309F46CC3AC01BD0115E11D
:1044500076956795579547951A95D1F74093F30050
:10446000AC01BD010DE076956795579547950A9586
:10447000D1F74093F200AC01BD0195E076956795C8
:10448000579547959A95D1F74093F100880F880F7B
:10449000880F8093F0008091F0009C8D992309F49F
:1044A0004BC294E0892B8093F0002D8D89819A81F5
:1044B000AB81BC81222309F421C3AC01BD01E5E13C
:1044C0007695679557954795EA95D1F74093F7000C
:1044D000AC01BD01FDE07695679557954795FA9536
:1044E000D1F74093F600AC01BD01A5E07695679544
:1044F00057954795AA95D1F74093F500880F880FF7
:10450000880F8093F4009091F4008E81882309F441
:1045100011C224E081E03F81311101C080E0820FAF
:10452000892B8093F4008D8D8111E6C290E88B8DEC
:104530008F70890F8093EF0049E050E069EC70E0E4
:10454000CE0147960E94AC2B49E050E060EC70E051
:10455000CE0101960E94AC2B80E28093ED00809109
:10456000DE0084608093DE002D8D8F89988DA98D6B
:10457000BA8D222309F4ADC2AC01BD0115E17695D7
:104580006795579547951A95D1F74093F300AC017D
:10459000BD010DE076956795579547950A95D1F73A
:1045A0004093F200AC01BD0195E076956795579573
:1045B00047959A95D1F74093F100880F880F880F9F
:1045C0008093F0008091F0009C8D992309F4B0C194
:1045D00094E0892B8093F0002D8D89819A81AB81A5
:1045E000BC81222309F462C2AC01BD01E5E17695EC
:1045F000679557954795EA95D1F74093F700AC0139
:10460000BD01FDE07695679557954795FA95D1F7E9
:104610004093F600AC01BD01A5E0769567955795EE
:104620004795AA95D1F74093F500880F880F880F1A
:104630008093F4009091F4008E81882309F476C170
:1046400024E081E03F81311101C080E0820F892B9D
:104650008093F4008D8D811127C290E88B8D8F702F
:10466000890F8093EF0049E050E067EB70E0CE01E6
:1046700047960E94AC2B49E050E06EEA70E0CE0114
:1046800001960E94AC2B80E38093ED008091DE00C8
:1046900088608093DE002D8D8F89988DA98DBA8DCD
:1046A000222309F4EEC1AC01BD0115E176956795B1
:1046B000579547951A95D1F74093F300AC01BD018A
:1046C0000DE076956795579547950A95D1F74093F4
:1046D000F200AC01BD0195E0769567955795479539
:1046E0009A95D1F74093F100880F880F880F809337
:1046F000F0008091F0009C8D992309F415C194E09D
:10470000892B8093F0002D8D89819A81AB81BC81AA
:10471000222309F4A3C1AC01BD01E5E176956795BB
:1047200057954795EA95D1F74093F700AC01BD0145
:10473000FDE07695679557954795FA95D1F74093A3
:10474000F600AC01BD01A5E07695679557954795B4
:10475000AA95D1F74093F500880F880F880F8093B2
:10476000F4009091F4008E81882309F4DBC024E0EA
:1047700081E03F81311101C080E0820F892B80935D
:10478000F4008D8D811168C190E88B8D8F70890F39
:104790008093EF0049E050E065EA70E0CE01479673
:1047A000DBD749E050E06CE970E0CE010196D4D748
:1047B00080E48093ED008091DE0080618093DE00D4
:1047C0002D8D8F89988DA98DBA8D222309F431C141
:1047D000AC01BD0115E176956795579547951A95FA
:1047E000D1F74093F300AC01BD010DE076956795DC
:1047F000579547950A95D1F74093F200AC01BD015A
:1048000095E076956795579547959A95D1F740939A
:10481000F100880F880F880F8093F0008091F000DE
:104820009C8D992309F47CC094E0892B8093F0003F
:104830002D8D89819A81AB81BC81222309F4E6C048
:10484000AC01BD01E5E17695679557954795EA95E9
:10485000D1F74093F700AC01BD01FDE07695679577
:1048600057954795FA95D1F74093F600AC01BD01F5
:10487000A5E07695679557954795AA95D1F740930A
:10488000F500880F880F880F8093F4009091F40052
:104890008E81882309F442C024E081E03F813111F8
:1048A00001C080E0820F892B8093F4008D8D8111EF
:1048B000ABC090E88B8D8F70890F8093EF0082E002
:1048C0008093FC0397E09093B00091E090936E008A
:1048D000109280008093810080916F0081608093AE
:1048E0006F008CE08093F8031092F6038FEF8093B3
:1048F000F70387B1807F87B988B18F6088B96F96D9
:104900000FB6F894DEBF0FBECDBFDF91CF911F91E0
:104910000F91FF90EF90DF90CF90089520E0BDCFF2
:1049200090E083CF20E024CF90E0EACE20E089CE53
:1049300090E04FCE20E0EECD90E0B4CD20E053CD1E
:1049400090E019CD8091330490913404A0E0B0E060
:104950009058AF4EBF4F28982A2F20682EBD0000D8
:104960000DB407FEFDCF2EB59EBD00000DB407FEB1
:10497000FDCF2EB58EBD00000DB407FEFDCF8EB568
:1049800081E08093290427EF31E040E050E066EFBA
:1049900070E088E294E00E949E14289A809133048B
:1049A00090913404289820E92EBD00000DB407FE34
:1049B000FDCF2EB524E22EBD00000DB407FEFDCFC5
:1049C0002EB528EE2EBD00000DB407FEFDCF2EB58E
:1049D0008EBD00000DB407FEFDCF2EB59EBD0000BC
:1049E0000DB407FEFDCF8EB51EBC00000DB407FE52
:1049F000FDCF8EB51EBC00000DB407FEFDCF8EB5F9
:104A0000289A10922904A0CB90E954CF9C013695A6
:104A1000279536952795369527952093F70082950B
:104A2000880F807E8093F6001092F5001092F400BB
:104A30002DCF9C0136952795369527953695279548
:104A40002093F3008295880F807E8093F20010926D
:104A5000F1001092F000E2CE90E997CE9C013695DD
:104A6000279536952795369527952093F7008295BB
:104A7000880F807E8093F6001092F5001092F4006B
:104A800070CE9C01369527953695279536952795B6
:104A90002093F3008295880F807E8093F20010921D
:104AA000F1001092F00025CE90E9D8CD9C0136950A
:104AB000279536952795369527952093F70082956B
:104AC000880F807E8093F6001092F5001092F4001B
:104AD000B1CD9C0136952795369527953695279526
:104AE0002093F3008295880F807E8093F2001092CD
:104AF000F1001092F00066CD90E919CD9C01369539
:104B0000279536952795369527952093F70082951A
:104B1000880F807E8093F6001092F5001092F400CA
:104B2000F2CC9C0136952795369527953695279595
:104B30002093F3008295880F807E8093F20010927C
:104B4000F1001092F000A7CC90E95ACC9C01369568
:104B5000279536952795369527952093F7008295CA
:104B6000880F807E8093F6001092F5001092F4007A
:104B700033CC9C0136952795369527953695279504
:104B80002093F3008295880F807E8093F20010922C
:104B9000F1001092F000E8CBCF93DF93CDB7DEB7F2
:104BA00066970FB6F894DEBF0FBECDBF0E94E80D2A
:104BB0000E945B1D94EF492E55245394612C712C57
:104BC0008091260481112CC08091FC03813009F46E
:104BD00086C008F486C1823009F424C1833009F00C
:104BE0007EC060E07FEF8FEF9FEF0E94211667E0AD
:104BF00070E080E096E20E94211660E070E0CB0158
:104C00000E94211661E07FEF8FEF9FEF0E94211637
:104C100088E294E00E943613809126048823A1F252
:104C200080912704882309F499C3813009F489C34A
:104C3000CC24CA94DC2CEC2C04E0F02E812C912C9A
:104C4000A12C82E0B82E60E07FEF8FEF9FEF0E94F3
:104C5000211667E070E080E096E20E942116C5010F
:104C6000B4010E94211667E070E080E096E20E94A5
:104C70002116C701B6010E942116E0912704F0E039
:104C8000EC51FC4F80811F928F938FEA91E09F93AC
:104C90008F9386E08F931F9280E28F931F9288E814
:104CA0008F931F9280EF8F9388E294E09F938F936E
:104CB0000E94201A60E070E0CB010E94211661E0A2
:104CC0007FEF8FEF9FEF0E94211688E294E00E9411
:104CD00036130FB6F894DEBF0FBECDBF71CF8091F3
:104CE0002204833009F447C308F40CC3843009F468
:104CF00062C3853009F050C30E94A20D28E532E05E
:104D000040E050E0BDD3633C71408105910508F45B
:104D10006EC3812C99249A94A92CA2E0BA2EC12C9E
:104D2000DD24DA94ED2CB4E0FB2E06E911E0332407
:104D3000339460E07FEF8FEF9FEF0E94211667E0D2
:104D400070E080E096E20E942116C701B6010E9441
:104D500021161F930F9386E08F931F928FE18F93FD
:104D60001F9284E48F931F9280EF8F9388E294E0E8
:104D70009F938F930E94201A80911E0490911F048C
:104D8000A0912004B0912104E0911D040FB6F89485
:104D9000DEBF0FBECDBFE33208F041C0F0E0EE0F42
:104DA000FF1FE35CFD4F20813181BF93AF939F9341
:104DB0008F933F932F9386E08F931F928DE18F9374
:104DC0001F928CEA8F931F9280EF8F9388E294E07A
:104DD0009F938F930E94E41A0FB6F894DEBF0FBE24
:104DE000CDBF332009F409CFC501B4010E942116BB
:104DF00060E17DE281E09CE10E94211660E070E0CC
:104E000080E09BE10E94211667E070E080E096E27E
:104E10000E94211660E07AE283E09BE1E6CE27EE75
:104E200034E0C3CF60E07FEF8FEF9FEF0E94211649
:104E300067E070E080E096E20E94211686E1E1E6FC
:104E4000F1E0DE01119601900D928A95E1F76FEF86
:104E50007FEF8FEF94E00E942116CE0101967C0136
:104E600000E016E02DE142E250E060EF70E088E201
:104E700094E00E946B1960E070E08FEF94E00E9474
:104E8000211689E491E09F938F9386E08F931F9280
:104E90008DE18F931F9288E88F931F9280EF8F93FD
:104EA00088E294E09F938F930E94201A6FEF7FEF28
:104EB0008FEF94E00E94211661E070E080E09FE1B6
:104EC0000E94211640E050EF6DE07FE888E294E018
:104ED0000E94111760E070E080E091E20E942116CC
:104EE000E9CE60E07FEF8FEF9FEF0E94211667E031
:104EF00070E080E096E20E94211660E070E08FEFA3
:104F000094E00E94211682EB91E09F938F931F9271
:104F10001F92EDE1DE2EDF921F921F921F92F5E0AD
:104F2000FF2EFF9208E214E01F930F930E94201AB5
:104F30006FEF7FEF8FEF94E00E94211680911104B4
:104F400090911204A0911304B0911404BF93AF93F5
:104F50009F938F9380EC91E09F938F931F921F926A
:104F6000ACE1EA2EEF921F928EE18F931F92FF9297
:104F70001F930F930E94201A80911504909116049C
:104F8000A0911704B0911804BF93AF939F938F9390
:104F90008FEC91E09F938F931F921F92EF921F923D
:104FA00087E38F931F92FF921F930F930E94201A03
:104FB0008091190490911A04A0911B04B0911C04D3
:104FC0000FB6F894DEBF0FBECDBFBF93AF939F93D4
:104FD0008F938EED91E09F938F931F921F92EF928C
:104FE0001F9280E58F931F92FF921F930F930E9451
:104FF000201A80910D0490910E04A0910F04B0919D
:105000001004BF93AF939F938F938EEE91E09F9385
:105010008F931F921F92EF921F9289E68F931F9298
:10502000FF921F930F930E94201A60E070E08FEFB1
:1050300094E00E9421168DEF91E09F938F931F9231
:105040001F92DF921F928CE88F931F92FF921F9303
:105050000F930E94201A0FB6F894DEBF0FBECDBF8B
:105060006FEF7FEF8FEF94E00E9421168091FD0398
:105070009091FE03A091FF03B0910004BF93AF9302
:105080009F938F9388E092E09F938F931F921F923C
:10509000EF921F928AEA8F931F92FF921F930F93B2
:1050A0000E94201A8091010490910204A0910304AF
:1050B000B0910404BF93AF939F938F9385E192E0E7
:1050C0009F938F931F921F92EF921F9283EC8F9367
:1050D0001F92FF921F930F930E94201A8091050444
:1050E00090910604A0910704B0910804BF93AF9378
:1050F0009F938F938AE292E09F938F931F921F92C8
:10510000EF921F928CED8F931F92FF921F930F933C
:105110000E94201A0FB6F894DEBF0FBECDBF6FEF0E
:105120007FEF8FEF94E00E9421164AE05FEF6FEF70
:105130007FEFC8010E94111740E050E06FEF70E070
:10514000C8010E94111749E05FEF6FEF7FEFC801C0
:105150000E94111740E050E06FEF70E0C8010E941C
:105160001117C090FD03D090FE03E090FF03F09074
:10517000000440E15FEF6FEF7FEFC8010E9411175D
:105180004EEA51E064E170E0C8010E94111744E169
:1051900050E064EB70E0C8010E941117C701B6012E
:1051A000AED1B4E6AB2EB12CA501461B570B60E087
:1051B00070E0BA0155274427C8010E94111744E640
:1051C00050E060E070E0C8010E94111760E070E0FC
:1051D0008FEF94E00E94211689E392E09F938F93D2
:1051E00096E0292E2F921F922FE1322E3F921F928E
:1051F00030EF832E8F92992493949F9288EB8F9314
:105200001F930F930E94201A6FEF7FEF8FEF94E0B0
:105210000E9421164AE05FEF6FEF7FEFC8010E9406
:10522000111740E050E06FEF70E0C8010E941117C5
:1052300049E05FEF6FEF7FEFC8010E94111740E078
:1052400050E06FEF70E0C8010E941117C090010498
:10525000D0900204E0900304F090040440E15FEF7A
:105260006FEF7FEFC8010E9411174AE451E064E13B
:1052700070E0C8010E94111744E150E064EB70E057
:10528000C8010E941117C701B60139D1A501461BFB
:10529000570B60E070E0BA0155274427C8010E940F
:1052A000111744E650E060E070E0C8010E94111759
:1052B00060E070E08FEF94E00E9421168BE392E0B3
:1052C0009F938F932F921F923F921F928F929F9244
:1052D00084E58F931F930F930E94201A60E070E083
:1052E000CB010E94211661E07FEF8FEF9FEF0E94BC
:1052F0002116C8010E9436130FB6F894DEBF0FBE08
:10530000CDBF5ECC813008F447C00E94A20DA3013E
:105310009201B6D0332433946B3F7105810591051A
:1053200008F4312C812C99249A94A92C42E0B42EB3
:10533000C12CDD24DA94ED2C54E0F52E06E811E0C2
:10534000F8CCCC24CA94D12CE12CF4E0FF2E812C93
:1053500099249A94A92CA2E0BA2E75CCCC24CA9494
:10536000DC2CE12CB4E0FB2E812C912CAA24AA94F5
:1053700012E0B12E68CC812C99249A94A92C62E079
:10538000B62EC12CDD24DA94ED2C74E0F72E07E75D
:1053900011E033243394CDCC812C912CA12C12E03C
:1053A000B12EC12CD12CE12C04E0F02E0EE911E03D
:1053B00033243394BECC0E94A20DA301920160D08D
:1053C000332433946B3F71058105910508F4312C2A
:1053D000812C912CAA24AA9422E0B22EC12CD12C8B
:1053E000EE24EA9434E0F32E0FE811E0A2CC0E9400
:1053F000A20D28E532E040E050E042D06D3271402D
:105400008105910588F0812C99249A94A12CE2E0E1
:10541000BE2EC12CDD24DA94E12CF4E0FF2E06E947
:1054200011E03324339485CC0E94A20D28E532E0AC
:1054300040E050E025D0673971058105910578F08D
:10544000812C912CA12C82E0B82EC12CD12CE12CE6
:1054500094E0F92E06E911E0332433946ACC812CD0
:10546000912CAA24AA9462E0B62EC12CD12CEE2451
:10547000EA9474E0F72E06E911E03324339459CC12
:10548000A1E21A2EAA1BBB1BFD010DC0AA1FBB1F48
:10549000EE1FFF1FA217B307E407F50720F0A21BBA
:1054A000B30BE40BF50B661F771F881F991F1A9427
:1054B00069F760957095809590959B01AC01BD0151
:1054C000CF0108950DD0A59F900DB49F900DA49F7E
:1054D000800D911D112408950790F691E02D0994F7
:1054E000A29FB001B39FC001A39F700D811D112425
:1054F000911DB29F700D811D1124911D089533D00F
:1055000088F09F5790F0B92F9927B751A0F0D1F0AC
:10551000660F771F881F991F1AF0BA95C9F712C036
:10552000B13081F03AD0B1E0089537C0672F782FBD
:105530008827B85F39F0B93FCCF3869577956795A2
:10554000B395D9F73EF490958095709561957F4F0E
:105550008F4F9F4F089557FD9058440F551F59F096
:105560005F3F71F04795880F97FB991F61F09F3F50
:1055700079F087950895121613061406551FF2CF79
:105580004695F1DF08C0161617061806991FF1CFC9
:1055900086957105610508940895E894BB276627F0
:1055A0007727CB0197F90895283008F027E03327B3
:1055B000DA01990F311D87FD916000966105710533
:1055C00039F432602E5F3D9330E32A95E1F7089578
:1055D0009F3F30F080387105610509F03C5F3C5F0A
:1055E0003D93913008F08068911DDF93CF931F9316
:1055F0000F93FF92EF92192F987F9695E92F96952A
:105600009695E90FFF27EF51FA4F99273327EE249C
:10561000FF24A701E70105900894079428F4360FAA
:10562000E71EF81E491F511D660F771F881F991F1F
:105630000694A1F70590079428F4E70EF81E491F79
:10564000561FC11D770F881F991F661F0694A1F76B
:105650000590079428F4F80E491F561FC71FD11D47
:10566000880F991F661F771F0694A1F7059007946E
:1056700020F4490F561FC71FD81F990F661F771FA9
:10568000881F0694A9F784911095177041F0D6955C
:10569000C79557954795F794E7941A95C1F7E7E8AA
:1056A000F5E0689415901591359165919591059067
:1056B0007FE27395E118F10A430B560BC90BD00931
:1056C000C0F7E10CF11E431F561FC91FD01D7EF409
:1056D000703311F48A95E6CFE894015030F0080F4A
:1056E0000AF40027021708F4202F2395022F7A339B
:1056F00028F079E37D932A95E9F710C07D932A95E8
:1057000089F6069497956795379517951794E1183C
:10571000F10A430B560BC90BD00998F023957E91E3
:1057200073957A3308F070E37C932013B8F77E9179
:1057300070617D9330F0839571E37D9370E32A95DA
:10574000E1F71124EF90FF900F911F91CF91DF911E
:10575000992787FD90950895FB01DC0102C0059013
:105760000D9241505040D8F70895FB01DC0105909F
:105770000D920020E1F70895FC0105906150704002
:105780000110D8F7809590958E0F9F1F0895FC010A
:105790006150704001900110D8F7809590958E0F60
:1057A0009F1F08950F931F93CF93DF93182F092FF7
:1057B000EB018B8181FD03C08FEF9FEF20C082FF43
:1057C00010C04E815F812C813D81421753077CF4CC
:1057D000E881F9819F012F5F3F4F39832883108330
:1057E00006C0E885F985812F0995892B29F72E8137
:1057F0003F812F5F3F4F3F832E83812F902FDF917B
:10580000CF911F910F9108950F931F93CF93DF9323
:10581000CDB7DEB72E970FB6F894DEBF0FBECDBF63
:105820008C01CA0146E04C831A83098377FF02C0CA
:1058300060E070E8615071097E836D83A901BC014D
:10584000CE0101960E9474034D815E8157FD0AC00E
:105850002F813885421753070CF49A01F801E20FA3
:10586000F31F10822E960FB6F894DEBF0FBECDBF89
:10587000DF91CF911F910F910895FA01AA27283047
:1058800051F1203181F1E8946F936E7F6E5F7F4F0D
:105890008F4F9F4FAF4FB1E03ED0B4E03CD0670F89
:1058A000781F891F9A1FA11D680F791F8A1F911DDC
:1058B000A11D6A0F711D811D911DA11D20D009F42C
:1058C00068943F912AE0269F11243019305D31936E
:1058D000DEF6CF010895462F4770405D4193B3E057
:1058E0000FD0C9F7F6CF462F4F70405D4A3318F0FE
:1058F000495D31FD4052419302D0A9F7EACFB4E0AF
:10590000A6959795879577956795BA95C9F7009766
:105910006105710508959B01AC010A2E0694579507
:10592000479537952795BA95C9F7620F731F841F5E
:0A593000951FA01D0895F894FFCF05
:10593A0000003704200001000000000000020700F8
:10594A00002600000000000000006C077B091B070E
:10595A00330718075E074572726F7220696E2063FB
:10596A0068697020696420726561642000496E6903
:10597A0074204661696C65640057414954494E4731
:10598A0020464F522043414E20444154412E2E2E50
:10599A0000466F726D756C6120456C65637472693F
:1059AA006320323031350052657475726E20746F1F
:1059BA002050697473005741524E494E47210045A1
:1059CA0052524F52210044414E4745522100556ED2
:1059DA006B6E6F776E2053657665726974790025F0
:1059EA0064004261747465727920496E666F3A0088
:1059FA00564D696E43656C6C3A20252E3266005608
:105A0A004D617843656C6C3A20252E326600564DFE
:105A1A0065616E43656C6C3A20252E3266005642EB
:105A2A006174746572793A20252E32660054656D68
:105A3A007020496E666F3A00544D6F746F723A2047
:105A4A00252E32660054436F6E74726F6C6C6572E9
:105A5A004D61783A20252E3266005443656C6C4DB0
:105A6A0061783A20252E3266004D00430070055EAB
:105A7A00054A0532051B050905F304DC04D204C3F3
:105A8A0004AE04A0049204820472045D044A04363B
:105A9A0004270414040304EB03DB03C903B703A5B7
:105AAA00039803840370035C034703300319030755
:045ABA0003ED0200F6
:00000001FF
