:100000004BC00000CBC50000FAC5000029C60000A7
:1000100058C6000087C60000B6C60000E5C600004E
:1000200014C7000068C0000066C0000064C0000083
:1000300062C0000060C000005EC000005CC0000044
:100040005AC0000033C7000056C0000054C0000072
:1000500052C00000C2C000004EC000004CC00000F2
:100060004AC0000048C0000046C0000044C0000074
:1000700042C0000040C000003EC000003CC0000084
:10008000ECC0000038C0000036C0000034C00000E2
:1000900032C000005702981011241FBECFEFD0E1EC
:1000A000DEBFCDBF11E0A0E0B1E0E8EFF1E200E09B
:1000B0000BBF02C007900D92A23CB107D9F723E015
:1000C000A2ECB1E001C01D92AD32B207E1F710E041
:1000D000C8E9D0E000E006C022970109FE010BBF8D
:1000E0000E94E710C439D10780E00807A9F70E94F1
:1000F00092100C94FA1084CF80E090E00895FC01F7
:1001000024853585F901E058FF4F80819181805821
:100110009F4F329620813181821B930B8F7790788D
:1001200097FF0895019780689F6F01960895FC01DD
:1001300084859585FC01EE57FF4F20813181DC01DC
:10014000A058BF4F4D915C9142175307C1F0DC019D
:10015000A20FB31F8C912F5F3F4F2F77307837FD61
:1001600004C03183208390E0089521503109206834
:100170003F6F2F5F3F4F3183208390E008958FEFD3
:100180009FEF0895FC0184859585FC01E058FF4FA1
:10019000DC01AE57BF4F8D919C9191838083089570
:1001A000DC015296ED91FC91539741E050E05B9653
:1001B0000C905B9702C0440F551F0A94E2F7208110
:1001C00030E024233523232BD1F35696ED91FC9177
:1001D0005797608381E090E008951F920F920FB6C9
:1001E0000F9211240BB60F922F933F934F935F936F
:1001F0006F938F939F93EF93FF936091C60020912D
:10020000000330910103C90101968F77907897FD23
:100210001FC040910203509103038417950741F0DA
:10022000F901E058FD4F6083909301038093000330
:10023000FF91EF919F918F916F915F914F913F91BE
:100240002F910F900BBE0F900FBE0F901F9018951F
:10025000019780689F6F0196DCCF1F920F920FB6B7
:100260000F9211240BB60F922F933F934F935F93EE
:100270006F938F939F93EF93FF936091CE002091A4
:100280007C0230917D02C90101968F77907897FDAD
:100290001FC040917E0250917F028417950741F064
:1002A000F901E450FE4F608390937D0280937C02BD
:1002B000FF91EF919F918F916F915F914F913F913E
:1002C0002F910F900BBE0F900FBE0F901F9018959F
:1002D000019780689F6F0196DCCF7F928F929F92EB
:1002E000AF92BF92CF92DF92EF92FF920F931F9344
:1002F000CF93DF93EC016A017B01413482E458071C
:100300008FE06807710508F455C0EA89FB8981E030
:1003100090E00C8C02C0880F991F0A94E2F780834A
:1003200060E079E08DE390E0A70196010E94BB10A8
:10033000215031094109510956954795379527951F
:10034000C901EE85FF859083E889F9898083EC896E
:10035000FD89408181E090E09C01088C02C0220F61
:10036000331F0A94E2F7422B4083EC89FD894081D8
:100370009C01098C02C0220F331F0A94E2F7422B22
:100380004083EC89FD8920810A8C02C0880F991F67
:100390000A94E2F7282B2083DF91CF911F910F91D0
:1003A000FF90EF90DF90CF90BF90AF909F908F9095
:1003B0007F90089560E874E88EE190E0A7019601CF
:1003C0000E94BB1049015A0181E0881A9108A108D6
:1003D000B108B694A79497948794A50194012F5FD0
:1003E0003F4F4F4F5F4F220F331F441F551F220FA8
:1003F000331F441F551F220F331F441F551F220F49
:10040000331F441F551F60E074E284EF90E00E94A8
:10041000BB100FEF10E0AFEFB0E00E94DD10A701BE
:1004200096010E94BB10021B130B10161106CCF58F
:10043000722E709460E079E08DE390E0A701960160
:100440000E94BB1021503109410951092E7F2E5FB6
:100450003F4F4F4F5F4F220F331F441F551F220F37
:10046000331F441F551F60E074E284EF90E00E9448
:10047000BB100FEF10E0AFEFB0E00E94DD10A7015E
:1004800096010E94BB10021B130B101611066CF490
:100490002095271508F439CFEA89FB891082C40119
:1004A00050CF77247394720EC5CF2F5FF2CF109286
:1004B000E2011092E10188EE93E0A0E0B0E08093C9
:1004C000E3019093E401A093E501B093E6012AE1F2
:1004D00031E03093E0012093DF0140E852E0509397
:1004E000EC014093EB0145EC50E05093EE0140935A
:1004F000ED0144EC50E05093F0014093EF0140ECEB
:1005000050E05093F2014093F10141EC50E05093E0
:10051000F4014093F30146EC50E05093F601409310
:10052000F501E4E0E093F70173E07093F80167E010
:100530006093F90155E05093FA0141E04093FB01CB
:100540001092C5011092C4018093C6019093C70117
:10055000A093C801B093C9013093C3012093C20195
:100560008CEF91E09093CF018093CE018DEC90E0E1
:100570009093D1018093D0018CEC90E09093D301C3
:100580008093D20188EC90E09093D5018093D401C0
:1005900089EC90E09093D7018093D6018EEC90E0A7
:1005A0009093D9018093D801E093DA017093DB0135
:1005B0006093DC015093DD014093DE010895CF92FA
:1005C000DF92EF92FF920F931F93CF93DF936C0113
:1005D00041155105F1F08B01EA01E12CF12CD80114
:1005E0006D918D01D601ED91FC910190F081E02D8E
:1005F000C6010995E80EF91E2197209781F7C701DA
:10060000DF91CF911F910F91FF90EF90DF90CF90EE
:100610000895E12CF12CF3CFDB010D900020E9F7D8
:10062000AD0141505109461B570BDC01ED91FC9186
:100630000280F381E02D0994EF92FF920F931F93B4
:10064000CF93DF93EC01FB0101900020E9F7AF01AC
:1006500041505109461B570BE881F9810280F38113
:10066000E02D09958C01E881F9810190F081E02D60
:100670006DE0CE0109957C01E881F9810190F0815E
:10068000E02D6AE0CE0109950E0D1F1D800F911F10
:10069000DF91CF911F910F91FF90EF9008952F92CE
:1006A0003F924F925F926F927F928F929F92AF9202
:1006B000BF92CF92DF92EF92FF920F931F93CF934F
:1006C000DF93CDB7DEB7A1970FB6F894DEBF0FBEAC
:1006D000CDBF8C014115510509F4C7C04A30510501
:1006E00009F474C0942E6B01EE24D7FCE094FE2C28
:1006F00019A2B1E0B41708F0C1C0442E512C612CEE
:10070000712C5E01E1E2AE0EB11C02C069017A01FA
:10071000C701B601A30192010E94BB106C2D929EED
:1007200060191124F1E0AF1AB10890E3960F87E346
:10073000860F6A3008F4892FD5018C932115310575
:100740004105510519F7F50101900020E9F7AF01C6
:10075000415051094A195B09D801ED91FC91028081
:10076000F381E02DB501C80109953C01D801ED9157
:10077000FC910190F081E02D6DE0C80109957C01AC
:10078000D801ED91FC910190F081E02D6AE0C80163
:100790000995E60CF71C8E0D9F1DA1960FB6F894D7
:1007A000DEBF0FBECDBFDF91CF911F910F91FF90A4
:1007B000EF90DF90CF90BF90AF909F908F907F9001
:1007C0006F905F904F903F902F9008954B01AA2417
:1007D00097FCA094BA2CB7FC59C0D82C792DC50130
:1007E00019A27E01B1E2EB0EF11CBAE04B2E512CA6
:1007F000612C712C0BC0862FD7018C9321153105EC
:1008000041055105F1F0D22E732FCA016D2DA301C0
:1008100092010E94BB108D2DEAE02E9F80191124B9
:10082000F1E0EF1AF10860E3680F97E3980F8A3060
:1008300010F3892FD7018C932115310541055105FE
:1008400011F7F70101900020E9F7AF01415051097C
:100850004E195F09D801ED91FC910280F381E02DE2
:10086000B701C80109953C0181CFDC01ED91FC91F4
:100870000190F081E02D09953C0178CFFAE04F2EF0
:10088000512C612C712CAAE09A2E3BCFDC01ED910A
:10089000FC910190F081E02D6DE209951C01CC24C2
:1008A000DD247601C818D908EA08FB0819A25E0100
:1008B000B1E2AB0EB11C8AE0482E512C612C712C98
:1008C00002C069017A01C701B601A30192010E9429
:1008D000BB106C2DEAE02E9F60191124F1E0AF1AD5
:1008E000B10890E3960F87E3860F6A3008F4892FEA
:1008F000D5018C93211531054105510511F7F501FD
:1009000001900020E9F7AF01415051094A195B09F4
:10091000D801ED91FC910280F381E02DB501C80171
:1009200009953C01620C731C21CF4F925F926F922C
:100930007F929F92AF92BF92CF92DF92EF92FF92FF
:100940000F931F93CF93DF93CDB7DEB7A1970FB669
:10095000F894DEBF0FBECDBF5C014115510509F40F
:100960006DC0942E19A2B1E0B41708F070C0442EE7
:10097000512C612C712C6B01E12CF12C8E010F5D3F
:100980001F4F02C069017A01C701B601A30192019C
:100990000E94BB106C2D929E601911240150110908
:1009A00090E3960F87E3860F6A3008F4892FF801E9
:1009B0008083211531054105510521F7D8010D909E
:1009C0000020E9F7AD0141505109401B510BD50101
:1009D000ED91FC910280F381E02DB801C5010995EC
:1009E0008C01D501ED91FC910190F081E02D6DE03D
:1009F000C50109957C01D501ED91FC910190F08133
:100A0000E02D6AE0C50109950E0D1F1D800F911F95
:100A1000A1960FB6F894DEBF0FBECDBFDF91CF9188
:100A20001F910F91FF90EF90DF90CF90BF90AF900C
:100A30009F907F906F905F904F900895DC01ED91B3
:100A4000FC910190F081E02D09958C01CACF9AE0CC
:100A5000492E512C612C712C2AE0922E8CCF8F9232
:100A60009F92AF92BF92CF92DF92EF92FF920F933D
:100A70001F93CF93DF93CDB7DEB7A1970FB6F8944E
:100A8000DEBF0FBECDBF7C01D42EE52FCB012115DB
:100A9000310509F470C0C22E19A2B1E0B21708F0F6
:100AA00075C0822E912CA12CB12C8E010F5D1F4F91
:100AB0000BC0862FF80180832115310541055105B2
:100AC000E9F0D22EE32FCA016D2D7E2FA5019401EE
:100AD0000E94BB108D2DC29E801911240150110956
:100AE00060E3680F97E3980F8A3018F3892FF801B5
:100AF0008083211531054105510519F7D8010D9065
:100B00000020E9F7AD0141505109401B510BD701BD
:100B1000ED91FC910280F381E02DB801C7010995A8
:100B20008C01D701ED91FC910190F081E02D6DE0F9
:100B3000C70109955C01D701ED91FC910190F0810D
:100B4000E02D6AE0C70109950A0D1B1D800F911F5A
:100B5000A1960FB6F894DEBF0FBECDBFDF91CF9147
:100B60001F910F91FF90EF90DF90CF90BF90AF90CB
:100B70009F908F900895D701ED91FC910190F081A5
:100B8000E02D642FC70109958C01CBCF7AE0872E29
:100B9000912CA12CB12CFAE0CF2E87CF1F920F926F
:100BA0000FB60F9211240BB60F922F933F934F93D2
:100BB0005F936F937F938F939F93AF93BF93EF93C5
:100BC000FF938091040390910503892B29F0E09114
:100BD0000403F09105030995FF91EF91BF91AF9147
:100BE0009F918F917F916F915F914F913F912F9145
:100BF0000F900BBE0F900FBE0F901F9018951F9275
:100C00000F920FB60F9211240BB60F922F933F93B2
:100C10004F935F936F937F938F939F93AF93BF9304
:100C2000EF93FF938091060390910703892B29F09E
:100C3000E0910603F09107030995FF91EF91BF91B1
:100C4000AF919F918F917F916F915F914F913F9164
:100C50002F910F900BBE0F900FBE0F901F90189505
:100C60001F920F920FB60F9211240BB60F922F9373
:100C70003F934F935F936F937F938F939F93AF9324
:100C8000BF93EF93FF938091080390910903892B01
:100C900029F0E0910803F09109030995FF91EF9184
:100CA000BF91AF919F918F917F916F915F914F9184
:100CB0003F912F910F900BBE0F900FBE0F901F9082
:100CC00018951F920F920FB60F9211240BB60F9228
:100CD0002F933F934F935F936F937F938F939F9344
:100CE000AF93BF93EF93FF9380910A0390910B030F
:100CF000892B29F0E0910A03F0910B030995FF91EC
:100D0000EF91BF91AF919F918F917F916F915F9183
:100D10004F913F912F910F900BBE0F900FBE0F90F0
:100D20001F9018951F920F920FB60F9211240BB6B9
:100D30000F922F933F934F935F936F937F938F9374
:100D40009F93AF93BF93EF93FF9380910C03909188
:100D50000D03892B29F0E0910C03F0910D03099507
:100D6000FF91EF91BF91AF919F918F917F916F9183
:100D70005F914F913F912F910F900BBE0F900FBE3F
:100D80000F901F9018951F920F920FB60F9211247B
:100D90000BB60F922F933F934F935F936F937F9375
:100DA0008F939F93AF93BF93EF93FF9380910E0325
:100DB00090910F03892B29F0E0910E03F0910F031E
:100DC0000995FF91EF91BF91AF919F918F917F9185
:100DD0006F915F914F913F912F910F900BBE0F90AC
:100DE0000FBE0F901F9018951F920F920FB60F9283
:100DF00011240BB60F922F933F934F935F936F93F2
:100E00007F938F939F93AF93BF93EF93FF938091C3
:100E1000100390911103892B29F0E0911003F091B8
:100E200011030995FF91EF91BF91AF919F918F9120
:100E30007F916F915F914F913F912F910F900BBEDA
:100E40000F900FBE0F901F9018951F920F920FB624
:100E50000F9211240BB60F922F933F934F935F93F2
:100E60006F937F938F939F93AF93BF93EF93FF9372
:100E70008091120390911303892B29F0E0911203C2
:100E8000F09113030995FF91EF91BF91AF919F915D
:100E90008F917F916F915F914F913F912F910F9023
:100EA0000BBE0F900FBE0F901F9018951F920F92C0
:100EB0000FB60F9211242F933F938F939F93AF936D
:100EC000BF938091150390911603A0911703B091E1
:100ED00018033091140323E0230F2D3768F126E81F
:100EE000230F0296A11DB11D2093140380931503B7
:100EF00090931603A0931703B093180380911903DE
:100F000090911A03A0911B03B0911C030196A11D9F
:100F1000B11D8093190390931A03A0931B03B09300
:100F20001C03BF91AF919F918F913F912F910F9093
:100F30000FBE0F901F9018950196A11DB11DD4CF23
:100F4000CF92DF92EF92FF920F931F932FB7F894F7
:100F5000C0901503D0901603E0901703F09018038B
:100F60002FBFEFB7F894009115031091160320914D
:100F7000170330911803EFBF0C191D092E093F0903
:100F8000601771078207930760F71F910F91FF9019
:100F9000EF90DF90CF900895789484B5886084BDF9
:100FA00084B5806484BD84B5826084BD84B581606D
:100FB00084BDEEE6F0E0808181608083E1E8F0E0CE
:100FC000808182608083808181608083E0E8F0E0BE
:100FD000808181608083E1E9F0E0808182608083AC
:100FE000808181608083E0E9F0E08081816080839E
:100FF000E0EBF0E080818460808380818064808386
:10100000EAE7F0E080818460808380818260808371
:101010008081816080838081806880831092C1009C
:1010200008959FB7F89480911D0381110CC0289AF0
:10103000209A8CB580618CBD8CB580648CBD219A62
:10104000229A80911D038F5F80931D039FBF089597
:101050000F931F93CF93DF93CDB7DEB72C970FB6C7
:10106000F894DEBF0FBECDBF8C018CE0EAE0F1E06A
:10107000DE01119601900D928A95E1F766E271E02A
:101080008FED91E0D9DA8CB583608CBD8DB58E7F04
:101090008DBD6AE271E08FED91E0CEDA28981EBC3A
:1010A00000000DB407FEFDCF8EB51EBC00000DB4D0
:1010B00007FEFDCF8EB51EBC00000DB407FEFDCFB0
:1010C0008EB51EBC00000DB407FEFDCF8EB51EBC54
:1010D00000000DB407FEFDCF8EB5289A64E170E0E4
:1010E00080E090E02DDF6EE271E08FED91E0A4DA18
:1010F00064E170E080E090E023DF62E371E08FED77
:1011000091E09ADA289880E98EBD00000DB407FEC0
:10111000FDCF8EB51EBC00000DB407FEFDCF8EB511
:101120001EBC00000DB407FEFDCF8EB5FE0131964A
:101130009E01235F3F4F81918EBD00000DB407FEDD
:10114000FDCF8EB5E217F307B1F7289A289880E90A
:101150008EBD00000DB407FEFDCF8EB584E28EBDBE
:1011600000000DB407FEFDCF8EB580E58EBD0000FA
:101170000DB407FEFDCF8EB582E08EBD00000DB42C
:1011800007FEFDCF8EB5289AF801148613868CEFE2
:101190009FE0968785872C960FB6F894DEBF0FBE2A
:1011A000CDBFDF91CF911F910F910895CF92DF9224
:1011B000EF92FF926FE371E08FED91E03DDA68E22C
:1011C00071E08FED91E038DA80912403909125034E
:1011D000019619F08DB1887F8DB96CE271E08FEDC9
:1011E00091E02ADA84B1856084B9289A1ADF8CB537
:1011F0008C7F8CBD8DB581608DBD8CB58F7D8CBD98
:101200008CB5837F8CBD60E371E08FED91E014DAE3
:101210008EE193E01DDF64E371E08FED91E00CDA85
:10122000289880E98EBD00000DB407FEFDCF8EB575
:1012300084E28EBD00000DB407FEFDCF8EB588E4BC
:101240008EBD00000DB407FEFDCF8EB51EBC0000A4
:101250000DB407FEFDCF8EB51EBC00000DB407FE19
:10126000FDCF8EB5289A289880E98EBD00000DB478
:1012700007FEFDCF8EB584E28EBD00000DB407FEE3
:10128000FDCF8EB58CE48EBD00000DB407FEFDCF02
:101290008EB58AE08EBD00000DB407FEFDCF8EB581
:1012A0001EBC00000DB407FEFDCF8EB5289A28980D
:1012B00080E98EBD00000DB407FEFDCF8EB584E23F
:1012C0008EBD00000DB407FEFDCF8EB580E48EBD4F
:1012D00000000DB407FEFDCF8EB58CE08EBD000082
:1012E0000DB407FEFDCF8EB51EBC00000DB407FE89
:1012F000FDCF8EB5289A289880E98EBD00000DB4E8
:1013000007FEFDCF8EB584E28EBD00000DB407FE52
:10131000FDCF8EB58CE38EBD00000DB407FEFDCF72
:101320008EB584E28EBD00000DB407FEFDCF8EB5F4
:1013300081E08EBD00000DB407FEFDCF8EB5289A6A
:10134000289880E98EBD00000DB407FEFDCF8EB554
:1013500084E28EBD00000DB407FEFDCF8EB584E3A0
:101360008EBD00000DB407FEFDCF8EB51EBC000083
:101370000DB407FEFDCF8EB51EBC00000DB407FEF8
:10138000FDCF8EB5289A289880E98EBD00000DB457
:1013900007FEFDCF8EB584E28EBD00000DB407FEC2
:1013A000FDCF8EB588E38EBD00000DB407FEFDCFE6
:1013B0008EB589E28EBD00000DB407FEFDCF8EB55F
:1013C0001EBC00000DB407FEFDCF8EB5289A2898EC
:1013D00080E98EBD00000DB407FEFDCF8EB584E21E
:1013E0008EBD00000DB407FEFDCF8EB58CE28EBD24
:1013F00000000DB407FEFDCF8EB58BE28EBD000060
:101400000DB407FEFDCF8EB51EBC00000DB407FE67
:10141000FDCF8EB5289A289880E98EBD00000DB4C6
:1014200007FEFDCF8EB584E28EBD00000DB407FE31
:10143000FDCF8EB588E28EBD00000DB407FEFDCF56
:101440008EB584E28EBD00000DB407FEFDCF8EB5D3
:1014500082E08EBD00000DB407FEFDCF8EB5289A48
:10146000289880E98EBD00000DB407FEFDCF8EB533
:1014700084E28EBD00000DB407FEFDCF8EB580E383
:101480008EBD00000DB407FEFDCF8EB580EE8EBD83
:1014900000000DB407FEFDCF8EB581E08EBD0000CB
:1014A0000DB407FEFDCF8EB5289A289880E98EBD31
:1014B00000000DB407FEFDCF8EB584E28EBD0000A6
:1014C0000DB407FEFDCF8EB584E48EBD00000DB4D3
:1014D00007FEFDCF8EB580E18EBD00000DB407FE86
:1014E000FDCF8EB581E08EBD00000DB407FEFDCFAF
:1014F0008EB5289A289880E98EBD00000DB407FEAD
:10150000FDCF8EB584E28EBD00000DB407FEFDCF89
:101510008EB588E68EBD00000DB407FEFDCF8EB5FA
:1015200081E08EBD00000DB407FEFDCF8EB51EBC60
:1015300000000DB407FEFDCF8EB5289A289880E9EB
:101540008EBD00000DB407FEFDCF8EB584E28EBDCA
:1015500000000DB407FEFDCF8EB580E68EBD000005
:101560000DB407FEFDCF8EB51EBC00000DB407FE06
:10157000FDCF8EB51EBC00000DB407FEFDCF8EB5AD
:10158000289A289880E98EBD00000DB407FEFDCF93
:101590008EB584E28EBD00000DB407FEFDCF8EB582
:1015A0008CE68EBD00000DB407FEFDCF8EB585E044
:1015B0008EBD00000DB407FEFDCF8EB51EBC000031
:1015C0000DB407FEFDCF8EB5289A289884E48EBD11
:1015D00000000DB407FEFDCF8EB51EBC00000DB49B
:1015E00007FEFDCF8EB51EBC00000DB407FEFDCF7B
:1015F0008EB51EBC00000DB407FEFDCF8EB51EBC1F
:1016000000000DB407FEFDCF8EB5289A64E170E0AE
:1016100080E090E095DC8CB58C7F8CBD8DB58160D1
:101620008DBD40E150E060E070E08FED91E037D893
:1016300066E371E08FED91E00E941C0360ED77E0BE
:1016400080E090E07DDC64E471E08FED91E00E9449
:101650001C0328988CE08EBD00000DB407FEFDCF62
:101660008EB51EBC00000DB407FEFDCF8EB51EBCAE
:1016700000000DB407FEFDCF8EB51EBC00000DB4FA
:1016800007FEFDCF8EB51EBC00000DB407FEFDCFDA
:101690003EB51EBC00000DB407FEFDCF2EB51EBC2E
:1016A00000000DB407FEFDCF9EB51EBC00000DB4BA
:1016B00007FEFDCF8EB5289AC32ED22EE92EF82E26
:1016C00088E0C81681E0D806E806F104A1F061E5DB
:1016D00071E08FED91E00E940C0320E130E0B70152
:1016E000A6018FED91E0BBD981E090E0FF90EF90F3
:1016F000DF90CF90089568E671E08FED91E00E9451
:101700001C0381E090E00090260302C0880F991F1F
:101710000A94E2F78095289890E19EBD00000DB4F0
:1017200007FEFDCF9EB594E29EBD00000DB407FEFE
:10173000FDCF9EB590E99EBD00000DB407FEFDCF24
:101740009EB51EBC00000DB407FEFDCF9EB51EBCAD
:1017500000000DB407FEFDCF9EB5289A982380E9BE
:1017600028988EBD00000DB407FEFDCF2EB524E2F3
:101770002EBD00000DB407FEFDCF2EB58EBD0000BE
:101780000DB407FEFDCF8EB59EBD00000DB407FE63
:10179000FDCF8EB5289A63E771E08FED91E00E944E
:1017A0001C0380E090E0FF90EF90DF90CF900895D1
:1017B000CF93FC01CB01258536852617370708F026
:1017C00071C02181211174C033852485289840E996
:1017D0004EBD00000DB407FEFDCF4EB544E24EBD38
:1017E00000000DB407FEFDCF4EB548EE4EBD000023
:1017F0000DB407FEFDCF4EB53EBD00000DB407FE93
:10180000FDCF3EB52EBD00000DB407FEFDCF2EB5B9
:10181000289A258536852817390708F040C0C4EE78
:10182000B4E2A0E16CEF7FE02898AEBD00000DB4FB
:1018300007FEFDCF2EB5BEBD00000DB407FEFDCFE7
:101840002EB5CEBD00000DB407FEFDCF2EB51EBCDB
:1018500000000DB407FEFDCF2EB51EBC00000DB478
:1018600007FEFDCF3EB51EBC00000DB407FEFDCF48
:101870002EB5289A432F522F4F3F2FE05207A9F041
:1018800023853485241B350B2C7F3F70AB01421B15
:10189000530B568745874817590708F4C5CF8181F0
:1018A00081113BC080E0CF91089582E3CF910895EC
:1018B000289A43855485289820E92EBD00000DB450
:1018C00007FEFDCF2EB524E22EBD00000DB407FEAD
:1018D000FDCF2EB528EE2EBD00000DB407FEFDCFC6
:1018E0002EB54EBD00000DB407FEFDCF2EB55EBD7A
:1018F00000000DB407FEFDCF2EB51EBC00000DB4D8
:1019000007FEFDCF2EB51EBC00000DB407FEFDCFB7
:101910002EB5289A21E0218357CF4385548560E076
:1019200070E050586F4E7F4F2898862F80688EBD8C
:1019300000000DB407FEFDCF8EB55EBD00000DB4F6
:1019400007FEFDCF8EB54EBD00000DB407FEFDCFE6
:101950008EB581E08183A6CF6F927F928F929F9206
:10196000AF92BF92CF92DF92EF92FF920F931F93AD
:10197000CF93DF9300D000D0CDB7DEB73C018B0111
:101980002D5F3F4F4F4F5F4F2C7F21153105410594
:101990005105E9F188EED82E94E2E92E60E9F62EA1
:1019A000CC24C394D3011D968D919C911E97A0E0E9
:1019B000B0E082179307A407B507E8F1F80180E0CB
:1019C00090E0DC0161916EBD00000DB407FEFDCF1B
:1019D0006EB50196A11DB11D82179307A407B50727
:1019E00088F3D3011B968D919C911C97820F931FB6
:1019F0009F701C969C938E931B971D968D919C9126
:101A00001E97821B930B1E969C938E931D9780E0CE
:101A10000F900F900F900F90DF91CF911F910F912A
:101A2000FF90EF90DF90CF90BF90AF909F908F90FE
:101A30007F906F900895F301818181118DC0F30132
:101A4000938584852898FEBC00000DB407FEFDCF69
:101A50006EB5EEBC00000DB407FEFDCF6EB5DEBC6A
:101A600000000DB407FEFDCF6EB59EBD00000DB4A5
:101A700007FEFDCF9EB58EBD00000DB407FEFDCF65
:101A80008EB5289AD3011D96ED91FC911E974F01BA
:101A9000A12CB12CDA01C90182169306A406B50661
:101AA00010F4D501C4010097A105B10509F4CDC01A
:101AB000F801812C912C540161916EBD00000DB490
:101AC00007FEFDCF6EB56FEF861A960AA60AB60A14
:101AD00088169906AA06BB0679F74C015D01E1E07C
:101AE0008E1A9108A108B108B4016F5F7F4F060FED
:101AF000171FF301A584B684F30163857485680F0D
:101B0000791F7F7074876387A81AB90AB686A5867D
:101B1000281B390B4A0B5B0B922F832F2130F8E0E7
:101B20003F074105510510F090E088E0692F782FBC
:101B3000C30129833A834B835C833ADE29813A814E
:101B40004B815C81823309F482C021153105410546
:101B5000510509F027CF5BCF289A83859485289873
:101B6000FEBC00000DB407FEFDCF6EB5EEBC00005C
:101B70000DB407FEFDCF6EB5DEBC00000DB407FE50
:101B8000FDCF6EB58EBD00000DB407FEFDCF6EB566
:101B90009EBD00000DB407FEFDCF8EB51EBC00003B
:101BA0000DB407FEFDCF8EB51EBC00000DB407FEC0
:101BB000FDCF8EB5289AD30111961C9211971B96D2
:101BC0009C911B971C968C912898FEBC00000DB42C
:101BD00007FEFDCF6EB5EEBC00000DB407FEFDCFD5
:101BE0006EB5DEBC00000DB407FEFDCF6EB59EBD28
:101BF00000000DB407FEFDCF9EB58EBD00000DB4F4
:101C000007FEFDCF8EB5289AF30183859485A0E069
:101C1000B0E09058AF4EBF4F28986A2F60686EBDF5
:101C200000000DB407FEFDCF6EB59EBD00000DB4E3
:101C300007FEFDCF6EB58EBD00000DB407FEFDCFD3
:101C40008EB5D3011196CC921DCF5F0155CF82E3A3
:101C5000DFCECF92DF92EF92FF920F931F93CF933D
:101C6000DF9300D0CDB7DEB76C017B01FC01818131
:101C7000882309F441C0F60185859685049780F193
:101C80004EBD00000DB407FEFDCF8EB55EBD000059
:101C90000DB407FEFDCF8EB5EEBC00000DB407FEFF
:101CA000FDCF8EB5FEBC00000DB407FEFDCF8EB596
:101CB000F6018385948504969F7094878387858534
:101CC000968504979687858780E00F900F90DF9127
:101CD000CF911F910F91FF90EF90DF90CF900895DB
:101CE00064E070E0C60149835A8362DD49815A810C
:101CF000823331F682E3E9CF0385148520E030E0BA
:101D000010582F4E3F4F2898822F80688EBD0000BC
:101D10000DB407FEFDCF8EB51EBD00000DB407FE4D
:101D2000FDCF8EB50EBD00000DB407FEFDCF8EB504
:101D300081E0F601818385859685049760F464E0EF
:101D400070E0C60149835A8333DD49815A81823369
:101D500011F482E325C04EBD00000DB407FEFDCF97
:101D60008EB55EBD00000DB407FEFDCF8EB5EEBC96
:101D700000000DB407FEFDCF8EB5FEBC00000DB413
:101D800007FEFDCF8EB5F6018385948504969F707E
:101D9000948783878585968504979687858780E0D5
:101DA000289AF60143855485289890E99EBD000045
:101DB0000DB407FEFDCF9EB594E29EBD00000DB4AC
:101DC00007FEFDCF9EB598EE9EBD00000DB407FE48
:101DD000FDCF9EB54EBD00000DB407FEFDCF9EB5F4
:101DE0005EBD00000DB407FEFDCF9EB51EBC000019
:101DF0000DB407FEFDCF9EB51EBC00000DB407FE5E
:101E0000FDCF9EB5289AF60111825FCFDF92EF9247
:101E1000FF920F931F93CF93DF93CDB7DEB76697F3
:101E20000FB6F894DEBF0FBECDBF86E1E2E8F1E069
:101E30008E010F5F1F4FD80101900D928A95E1F737
:101E400040E05FEF6FEF7FEF8EE193E002DF47E06E
:101E500050E060E076E28EE193E0FBDE4FEF5FEF73
:101E60006FEF74E08EE193E0F4DE4CE05FEF6FEF34
:101E70007FEF8EE193E0EDDE40EF50E068E870E048
:101E80008EE193E0E6DE4DE150E060E076E08EE149
:101E900093E0DFDEF80101900020E9F7E01BF10B91
:101EA0009F0140E050E080911F03882309F48EC019
:101EB000B8018EE193E050DD40E050E0BA018EE1E0
:101EC00093E0C7DE41E05FEF6FEF7FEF8EE193E0DD
:101ED000C0DE80911F038111D5C02091290330916C
:101EE0002A039091290380912A03289840E94EBD46
:101EF00000000DB407FEFDCF4EB544E24EBD00001C
:101F00000DB407FEFDCF4EB548EE4EBD00000DB43A
:101F100007FEFDCF4EB59EBD00000DB407FEFDCF00
:101F20009EB58EBD00000DB407FEFDCF8EB5289A7C
:101F300074EED72EE4E2EE2EF0E1FF2E2898FEBCE0
:101F400000000DB407FEFDCF8EB5EEBC00000DB451
:101F500007FEFDCF8EB5DEBC00000DB407FEFDCF41
:101F60008EB51EBC00000DB407FEFDCF8EB51EBCA5
:101F700000000DB407FEFDCF9EB51EBC00000DB4E1
:101F800007FEFDCF8EB5289A092F182F201731078D
:101F900079F040E150E0B8018FED91E00E949504A6
:101FA0000F3F1F4029F02091290330912A03C6CF0B
:101FB00066960FB6F894DEBF0FBECDBFDF91CF910E
:101FC0001F910F91FF90EF90DF900895809129036A
:101FD00090912A03A0E0B0E09058AF4EBF4F2898F0
:101FE0006A2F60686EBD00000DB407FEFDCF6EB5B0
:101FF0009EBD00000DB407FEFDCF6EB58EBD000086
:102000000DB407FEFDCF8EB581E080931F03B801AC
:102010008EE193E0A1DC289A8091290390912A0314
:10202000289820E92EBD00000DB407FEFDCF2EB587
:1020300024E22EBD00000DB407FEFDCF2EB528EE24
:102040002EBD00000DB407FEFDCF2EB58EBD0000E5
:102050000DB407FEFDCF2EB59EBD00000DB407FEEA
:10206000FDCF8EB51EBC00000DB407FEFDCF8EB5B2
:102070001EBC00000DB407FEFDCF8EB5289A10924D
:102080001F031ACF289A2091290330912A03C901EE
:10209000289840E94EBD00000DB407FEFDCF4EB5B7
:1020A00044E24EBD00000DB407FEFDCF4EB548EE34
:1020B0004EBD00000DB407FEFDCF4EB58EBD000035
:1020C0000DB407FEFDCF4EB59EBD00000DB407FE5A
:1020D000FDCF8EB51EBC00000DB407FEFDCF8EB542
:1020E0001EBC00000DB407FEFDCF8EB5289A1092DD
:1020F0001F03F7CE40E855E260E070E08FED91E01D
:102100000E946D0168E971E08FED91E00E941C036F
:102110004DD8892B09F47ADE6EEA71E08FED91E0FB
:102120000C941C030E94CC07E5DF80E090E008954A
:1021300010921E031092200310922103109222038A
:10214000109223038FEF9FEF909325038093240336
:1021500010922A03109229038CEF9FE090932C0396
:1021600080932B0387E08093260381E080932703ED
:1021700010921F030895A1E21A2EAA1BBB1BFD019A
:102180000DC0AA1FBB1FEE1FFF1FA217B307E40756
:10219000F50720F0A21BB30BE40BF50B661F771FAE
:1021A000881F991F1A9469F760957095809590958E
:1021B0009B01AC01BD01CF0108950DD0A59F900DED
:1021C000B49F900DA49F800D911D11240895079038
:1021D000F691E02D0994A29FB001B39FC001A39F87
:1021E000700D811D1124911DB29F700D811D112450
:0821F000911D0895F894FFCF42
:1021F80000002D032000010000000000000207007D
:1022080000260000000000000000D000DF027F0070
:1022180097007C00C200332E3100332E3200332E5B
:102228003300332E340046696E697368656420494B
:102238006E6974005265616420436869702049447E
:10224800004572726F7220696E2063686970206938
:1022580064207265616420005475726E206F6E2070
:10226800424C0046696E69736820537461727475D4
:102278007000466F726D756C6120456C6563747291
:1022880069632032303135002D2D5374617274200A
:102298004170706C69636174696F6E2D2D002D2D0E
:1022A800456E64204170706C69636174696F6E2D4E
:0222B8002D00F7
:00000001FF
