:10000000ABC300000C94380C0C94690C0C949A0C43
:100010000C94CB0C0C94FC0C0C942D0D0C945E0DDC
:100020000C948F0DC8C300000C945510C4C300007D
:10003000C2C30000C0C30000BEC300000C946F1018
:10004000BAC300000C94C00D0C94C60EB4C30000DB
:10005000B2C30000C6C70000AEC30000ACC30000BE
:10006000AAC300000C948A0EA6C30000A4C300001B
:10007000A2C30000A0C300009EC300009CC30000F8
:10008000F0C7000098C3000096C3000094C30000AE
:1000900092C300006E616E00696E6600FF0F000083
:1000A0000801010000F10000000800000000FF0F3F
:1000B00000000801010000F400000008000000003A
:1000C000FF0F00000801010000F30000000800001D
:1000D0000000FF0F00000801010000F2000000080E
:1000E00000000000FF0F00000801010000F0000008
:1000F000000800000000789CCDD4316EDB3014067F
:10010000E047D1288122003974D0647AC8A0D1A3F5
:1001100006C1766F9023F808193508319D0E197BBA
:10012000851E214760D1216B8F40C34357065E581F
:100130008015FB4849899CB8CED2210F02347C122D
:10014000DFFB2942219C2D7D9EDFBF3B18D535C8A2
:1001500060974131D350BF5104DD1E3B0B46B6C002
:100160004C45FC0DBCF235D0A0A507A64BE29B7315
:100170005E83AF3B0F5B5381F49BBD692ED60B1A98
:1001800094F42CA0BB9AC7F91E03B5D1C3C134B9EE
:1001900089CE1D4757839BE8D3CA1EF4621E5DF4C7
:1001A0005EBBE407F3017D917C8DDEE69DEBDEF71F
:1001B00066825E45976B03B42D7B2F6D1EE7DBEBEC
:1001C0000B37B836C07CC906179DE77503CB3FE8EF
:1001D0005C456FA2ABDA3CB974352C7FEFA26BE0C3
:1001E0000E925B930FEB2F71272AB2FBA539E86BB8
:1001F000896ED11FD165E7F36670826E815A896E70
:1002000045EF665D35E887DECDE060A7C9DB55B513
:10021000D10D090F6D74BE6F7B27764AD1F5E8F3D7
:10022000105DF31FE8B1BFFB873FB4C4024F0E2738
:100230009CDDB5C48184934E95635F03F120C9CEE4
:10024000E363F43F9CDF96692FB776C1B49354C142
:1002500051D1CE9DFCF286537B936EA0575759A681
:1002600018E4B99897391B394F0EC927507C12B33F
:1002700062F6ECA677A57F66D92DBA402FA28F5BD8
:1002800032D0EA1E3D83A214629E3C8DDE2708B068
:10029000D2F719DC021497718127EF1304F279F673
:1002A0002DA3D947280A7105634F090274DD262062
:1002B000006620A20FD1E384E1383E441FA2A37F51
:1002C0006F5F387F07FF27BCE064C5A99FDF77AF6A
:1002D0001C236D5EAE3FF6866F4FF737DD59C67D46
:1002E0003B339FC7F6CBE87F019D1F8D0835032D5B
:1002F0000325031D0315030D030503FD024D554C96
:1003000054492D38004D554C54492D37004D554C0E
:1003100054492D36004D554C54492D35004D554C02
:1003200054492D34004D554C54492D33004D554CF6
:1003300054492D32004D554C54492D3100524547FA
:10034000454E2D3800524547454E2D370052454702
:10035000454E2D3600524547454E2D3500524547F6
:10036000454E2D3400524547454E2D3300524547EA
:10037000454E2D3200524547454E2D3100B703B151
:1003800003AB03A5039F03990393038D03545251B9
:100390002D38005452512D37005452512D360054EF
:1003A00052512D35005452512D34005452512D3399
:1003B000005452512D32005452512D310052454DAE
:1003C0004F544520454D455247454E4359205348CB
:1003D0005554444F574E00556E6B6E6F776E2042EA
:1003E0004D53204572726F720053687574646F7755
:1003F0006E204C617463682054726970706564008B
:100400005265736F6C766572204E6F7420436F6E09
:100410006E6563746564004D4320437572722053AA
:10042000656E736F72204661756C74004761746508
:10043000204452562033204F76657274656D7000EB
:1004400047617465204452562032204F766572749D
:10045000656D700047617465204452562031204F0D
:1004600076657274656D7000504342204F766572F8
:1004700074656D70004D6F64756C652043204F7618
:10048000657274656D70004D6F64756C65204220F7
:100490004F76657274656D70004D6F64756C652084
:1004A00041204F76657274656D70004D6F746F7288
:1004B000204F7665722054656D70004D4320436F68
:1004C0006D6D616E64204D657373616765204C6F5F
:1004D0007374004D4320556E64657220566F6C74C2
:1004E000616765004D43204857204F7665722D4364
:1004F000757272656E74004D43204465736174209B
:100500004661756C74004D4320496E766572746562
:10051000722054696D656F7574004D432044697293
:10052000656374696F6E204572726F72004D43206F
:10053000496E766572746572204F76657274656D6A
:1005400070004D43204F76657220566F6C74616762
:1005500065004D43204F7665722043757272656E5B
:1005600074004D43204F76657220537065656400BA
:100570004E4F2043454C4C20434F4D4D5300416E50
:1005800020452D53746F702069732050726573730A
:1005900065640052656D6F74652052657175657391
:1005A0007400494D44204552524F5200425350442A
:1005B000204552524F5200494E56414C4944204D1D
:1005C0005347004856205052454348415247494EF0
:1005D000473A20252E30665600736252494F205705
:1005E00041524D3A20252E30664300474C56204C50
:1005F0004F5720564F4C544147453A20252E3266DE
:1006000056005041434B204C4F5720564F4C5441BD
:1006100047453A20252E32665600424154544552F1
:1006200059205741524D3A20252E326643004D4FF6
:10063000544F52205741524D3A20252E32664300E6
:10064000434F4E54524F4C4C4552205741524D3A15
:1006500020252E3266430000407A10F35A00A07223
:100660004E18090010A5D4E80000E87648170000ED
:10067000E40B54020000CA9A3B000000E1F50500BB
:100680000080969800000040420F000000A0860104
:10069000000000102700000000E8030000000064D4
:1006A00000000000000A000000000001000000003F
:1006B000002C76D888DC674F0823DFC1DFAE59E114
:1006C000B1B796E5E3E453C63AE651997696E8E683
:1006D000C28426EB898C9B62ED407C6FFCEFBC9C56
:1006E0009F40F2BAA56FA5F490055A2AF75C936B68
:1006F0006CF9676DC11BFCE0E40D47FEF520E6B523
:1007000000D0ED902E0300943577050080841E08FC
:100710000000204E0A000000C80C333333330F981A
:100720006E12831141EF8D2114893BE65516CFFEE1
:10073000E6DB18D1844B381BF77C1D901DA4BBE46D
:1007400024203284725E228100C9F124ECA1E53DAF
:1007500027005B093110111111241FBECFEFD0E12A
:10076000DEBFCDBF12E0A0E0B1E0E4E9FAE500E0D1
:100770000BBF02C007900D92A639B107D9F724E04C
:10078000A6E9B2E001C01D92A934B207E1F717E073
:10079000C8E5D7E000E006C022970109FE010BBFC3
:1007A0000E940A2BC235D10780E00807A9F70E94F2
:1007B00036260C94482D24CC2F923F924F925F9274
:1007C0006F927F928F929F92AF92BF92CF92DF9261
:1007D000EF92FF920F931F93CF93DF93CDB7DEB7C6
:1007E00063970FB6F894DEBF0FBECDBF7C011B012F
:1007F0006A01FC0117821682838181FF66C3BE01F4
:100800006F5F7F4F4B01F7019381F10193FD85915C
:1008100093FF81911F01882309F453C3853239F472
:1008200093FD859193FF81911F01853239F4B701C2
:1008300090E00E947F2C56016501E5CF10E0512C1D
:1008400020E02032A0F48B3269F030F4803259F08D
:10085000833269F420612CC08D3239F0803339F451
:10086000216026C02260246023C0286021C027FDAB
:1008700027C030ED380F3A3078F426FF06C0FAE092
:100880001F9F300D1124132F13C06AE0569E300DA8
:100890001124532E20620CC08E3221F426FD11C388
:1008A000206406C08C3611F4206802C0883641F4FA
:1008B000F10193FD859193FF81911F018111C1CFBA
:1008C0009BEB980F933018F42061805E06C09BE983
:1008D000980F933008F0AAC12F7E26FF16E02F73E1
:1008E000722E853621F4F22FF0647F2E08C08636F2
:1008F00021F4622F6068762E02C01111115077FE2C
:1009000007C01C3348F444244394410E27E00BC035
:10091000183030F4212F06C027E04CE3442E03C0EA
:1009200027E017E0412C560174E0A70EB11CF60138
:100930006081718182819381042DA4010E94722BB8
:100940006C01098100FF02C003FF06C071FC07C0F3
:1009500072FC08C0612C08C03DE2632E05C02BE28A
:10096000622E02C090E2692E802F8C7099F1662071
:1009700011F084E001C083E0851510F0512C0BC00C
:10098000581A73FC08C0B70180E290E00E947F2CE7
:100990005A94C9F7F3CF662029F0B701862D90E06D
:1009A0000E947F2C03FD03C008E910E002C004E9A7
:1009B00010E0F72DF0717F2EF8018491882309F45F
:1009C00076C271108052B70190E00E947F2C0F5FB9
:1009D0001F4FF2CF77FE0FC04C0C04FF04C08A817A
:1009E000813309F44A94141474F5F8E0F41578F599
:1009F00088E0482E2CC076FC2AC0812F90E08C1510
:100A00009D059CF06CEFC6166FEFD60674F0772D3F
:100A10007068772E0AC0E2E0F0E0EC0FFD1FE10FF6
:100A2000F11D8081803319F411501111F4CF77FE3C
:100A30000EC044244394410E812F90E0C816D9067D
:100A40002CF41C1904C04424439401C010E077FE28
:100A500007C01C141D043CF496012F5F3F4F05C0D6
:100A600025E030E002C021E030E0662011F02F5F89
:100A70003F4F112331F0412F50E04F5F5F4F240F64
:100A8000351F452D50E02417350714F4521A01C0C4
:100A9000512C872D897049F4552039F0B70180E237
:100AA00090E00E947F2C5A94F7CF662029F0B7017E
:100AB000862D90E00E947F2C73FC09C0552039F0F0
:100AC000B70180E390E00E947F2C5A94F7CF77FE25
:100AD0005FC09C2D8D2DD7FE02C090E080E0692E76
:100AE000782E40E050E0C601841991099D878C87DB
:100AF000960126193709280D391D812F90E0EE2720
:100B0000FF27E81BF90BFF87EE87FFEF6F167F06C5
:100B100069F4B7018EE290E02B8B3A8B488B598BAE
:100B20000E947F2C598948893A892B89C614D70499
:100B300054F06C857D85661577052CF4F901E40F7A
:100B4000F51F818101C080E371E0671A71084F5F72
:100B50005F4FEE85FF856E167F066CF0B70190E063
:100B60002B8B3A8B488B598B0E947F2C2B893A898F
:100B700048895989CACF6C147D0439F49A81963317
:100B800018F4953311F404FF81E3B70190E04BC0F2
:100B90008A81813309F00F7EB70190E00E947F2C9B
:100BA000111105C074FE18C085E490E017C0B701AC
:100BB0008EE290E00E947F2C82E066246394680EAF
:100BC000F401E80FF11D8081B70190E00E947F2CB5
:100BD000115041F3862DF1CF85E690E0B7010E94D8
:100BE0007F2CD7FC05C0C114D10439F404FF05C023
:100BF000D194C194D1088DE201C08BE2B70190E09D
:100C00000E947F2C80E36AE0C616D1042CF08F5F2F
:100C1000FAE0CF1AD108F7CFB70190E00E947F2CFD
:100C2000B701C601C0960E947F2C41C1833631F0C6
:100C3000833779F0833509F058C021C0560172E03E
:100C4000A70EB11CF6018081898301E010E06401E8
:100C500014C05601F2E0AF0EB11CF601C080D18085
:100C600026FF03C0612F70E002C06FEF7FEFC60167
:100C70002B8B0E94742C8C012B892F7715C0560169
:100C8000F2E0AF0EB11CF601C080D18026FF03C098
:100C9000612F70E002C06FEF7FEFC6012B8B0E94C7
:100CA000692C8C012B892068722E23FD1AC0852D9A
:100CB00090E008171907A8F4B70180E290E00E94BD
:100CC0007F2C5A94F4CFF60177FC859177FE8191C1
:100CD0006F01B70190E00E947F2C51105A9401508F
:100CE00011090115110579F7E2C0843611F0893632
:100CF00051F5560127FF09C0F4E0AF0EB11CF60113
:100D000060817181828193810AC0F2E0AF0EB11CD3
:100D1000F60160817181882777FD8095982F022FD9
:100D20000F7697FF08C090958095709561957F4FDD
:100D30008F4F9F4F00682AE030E0A4010E94EA2C08
:100D4000C82EC8183EC0022F853721F40F7E2AE036
:100D500030E01DC0097F8F3691F018F4883559F0C6
:100D6000B0C0803719F0883711F0ABC0006104FFC4
:100D700009C0046007C024FF08C0066006C028E060
:100D800030E005C020E130E002C020E132E0560151
:100D900007FF09C0F4E0AF0EB11CF601608171815C
:100DA0008281938108C0F2E0AF0EB11CF601608130
:100DB000718180E090E0A4010E94EA2CC82EC8183E
:100DC0000F7706FF0BC0202F2E7FC11650F404FFB3
:100DD0000AC002FD08C0202F2E7E05C0DC2C202F6B
:100DE00003C0DC2C01C0D12E24FF0DC0FE01EC0D90
:100DF000F11D8081803311F4297E09C022FF06C0D5
:100E0000D394D39404C0822F867809F0D39423FD21
:100E100013C020FF06C01C2DD51418F4150D1D1984
:100E2000D52CD51468F4B70180E290E02B8B0E949A
:100E30007F2CD3942B89F5CFD51410F45D1801C005
:100E4000512C24FF12C0B70180E390E02B8B0E944D
:100E50007F2C2B8922FF17C021FF03C088E590E07B
:100E600002C088E790E0B7010CC0822F867859F065
:100E700021FD02C080E201C08BE227FD8DE2B701B7
:100E800090E00E947F2CC11638F4B70180E390E017
:100E90000E947F2C1150F7CFCA94F401EC0DF11D84
:100EA0008081B70190E00E947F2CC110F5CF5520C2
:100EB00009F4C2CCB70180E290E00E947F2C5A94E2
:100EC000F6CFF7018681978102C08FEF9FEF63967F
:100ED0000FB6F894DEBF0FBECDBFDF91CF911F914B
:100EE0000F91FF90EF90DF90CF90BF90AF909F90C9
:100EF0008F907F906F905F904F903F902F900895CC
:100F000080E090E00895FC0124853585F901E058E2
:100F1000FF4F8081918180589F4F3296208131818F
:100F2000821B930B8F77907897FF089501978068C5
:100F30009F6F01960895FC0184859585FC01EE570D
:100F4000FF4F20813181DC01A058BF4F4D915C9152
:100F500042175307C1F0DC01A20FB31F8C912F5F22
:100F60003F4F2F77307837FD04C03183208390E0E6
:100F700008952150310920683F6F2F5F3F4F318323
:100F8000208390E008958FEF9FEF0895FC01848502
:100F90009585FC01E058FF4FDC01AE57BF4F8D91A6
:100FA0009C91918380830895DC015296ED91FC9190
:100FB000539741E050E05B960C905B9702C0440F62
:100FC000551F0A94E2F7208130E024233523232B98
:100FD000D1F35696ED91FC915797608381E090E0B4
:100FE00008951F920F920FB60F9211240BB60F9215
:100FF0002F933F934F935F936F938F939F93EF93B1
:10100000FF936091C6002091D4033091D503C901AC
:1010100001968F77907897FD1FC04091D60350912D
:10102000D7038417950741F0F901EC5AFC4F608310
:101030009093D5038093D403FF91EF919F918F916B
:101040006F915F914F913F912F910F900BBE0F9039
:101050000FBE0F901F901895019780689F6F0196A3
:10106000DCCF1F920F920FB60F9211240BB60F9286
:101070002F933F934F935F936F938F939F93EF9330
:10108000FF936091CE002091500330915103C9012C
:1010900001968F77907897FD1FC040915203509131
:1010A00053038417950741F0F901E053FD4F608326
:1010B0009093510380935003FF91EF919F918F91F3
:1010C0006F915F914F913F912F910F900BBE0F90B9
:1010D0000FBE0F901F901895019780689F6F019623
:1010E000DCCF7F928F929F92AF92BF92CF92DF928E
:1010F000EF92FF920F931F93CF93DF93EC016A015E
:101100007B01413482E458078FE06807710508F4D9
:1011100055C0EA89FB8981E090E00C8C02C0880F01
:10112000991F0A94E2F7808360E079E08DE390E014
:10113000A70196010E94DE2A215031094109510977
:101140005695479537952795C901EE85FF8590837C
:10115000E889F9898083EC89FD89408181E090E00C
:101160009C01088C02C0220F331F0A94E2F7422B25
:101170004083EC89FD8940819C01098C02C0220FCB
:10118000331F0A94E2F7422B4083EC89FD892081CA
:101190000A8C02C0880F991F0A94E2F7282B20833B
:1011A000DF91CF911F910F91FF90EF90DF90CF9043
:1011B000BF90AF909F908F907F90089560E874E803
:1011C0008EE190E0A70196010E94DE2A49015A01B2
:1011D00081E0881A9108A108B108B694A794979461
:1011E0008794A50194012F5F3F4F4F4F5F4F220F10
:1011F000331F441F551F220F331F441F551F220F3B
:10120000331F441F551F220F331F441F551F60E01B
:1012100074E284EF90E00E94DE2A0FEF10E0AFEF5F
:10122000B0E00E94002BA70196010E94DE2A021B5B
:10123000130B10161106CCF5722E709460E079E055
:101240008DE390E0A70196010E94DE2A215031092A
:10125000410951092E7F2E5F3F4F4F4F5F4F220FA5
:10126000331F441F551F220F331F441F551F60E0BB
:1012700074E284EF90E00E94DE2A0FEF10E0AFEFFF
:10128000B0E00E94002BA70196010E94DE2A021BFB
:10129000130B101611066CF42095271508F439CF9E
:1012A000EA89FB891082C40150CF77247394720EAF
:1012B000C5CF2F5FF2CF1092B6021092B50288EE22
:1012C00093E0A0E0B0E08093B7029093B802A093BF
:1012D000B902B093BA022AE131E03093B40220930C
:1012E000B30244E553E05093C0024093BF0245EC83
:1012F00050E05093C2024093C10244EC50E050933E
:10130000C4024093C30240EC50E05093C6024093A5
:10131000C50241EC50E05093C8024093C70246EC2E
:1013200050E05093CA024093C902E4E0E093CB023C
:1013300073E07093CC0267E06093CD0255E0509368
:10134000CE0241E04093CF0210929902109298028F
:1013500080939A0290939B02A0939C02B0939D026B
:10136000309397022093960280ED92E09093A3022F
:101370008093A2028DEC90E09093A5028093A4024A
:101380008CEC90E09093A7028093A60288EC90E00A
:101390009093A9028093A80289EC90E09093AB020D
:1013A0008093AA028EEC90E09093AD028093AC0201
:1013B000E093AE027093AF026093B0025093B1021B
:1013C0004093B2020895CF92DF92EF92FF920F9373
:1013D0001F93CF93DF936C0141155105F1F08B0101
:1013E000EA01E12CF12CD8016D918D01D601ED912E
:1013F000FC910190F081E02DC6010995E80EF91EDF
:101400002197209781F7C701DF91CF911F910F910D
:10141000FF90EF90DF90CF900895E12CF12CF3CF67
:10142000DB010D900020E9F7AD0141505109461B49
:10143000570BDC01ED91FC910280F381E02D0994C2
:10144000EF92FF920F931F93CF93DF93EC01FB0179
:1014500001900020E9F7AF0141505109461B570B9D
:10146000E881F9810280F381E02D09958C01E88102
:10147000F9810190F081E02D6DE0CE0109957C01AC
:10148000E881F9810190F081E02D6AE0CE010995B3
:101490000E0D1F1D800F911FDF91CF911F910F9196
:1014A000FF90EF9008952F923F924F925F926F922C
:1014B0007F928F929F92AF92BF92CF92DF92EF92E4
:1014C000FF920F931F93CF93DF93CDB7DEB7A19712
:1014D0000FB6F894DEBF0FBECDBF8C01411551058C
:1014E00009F4C7C04A30510509F474C0942E6B0149
:1014F000EE24D7FCE094FE2C19A2B1E0B41708F05A
:10150000C1C0442E512C612C712C5E01E1E2AE0E63
:10151000B11C02C069017A01C701B601A3019201A1
:101520000E94DE2A6C2D929E60191124F1E0AF1A00
:10153000B10890E3960F87E3860F6A3008F4892F8D
:10154000D5018C93211531054105510519F7F50198
:1015500001900020E9F7AF01415051094A195B0998
:10156000D801ED91FC910280F381E02DB501C80115
:1015700009953C01D801ED91FC910190F081E02D9D
:101580006DE0C80109957C01D801ED91FC910190B5
:10159000F081E02D6AE0C8010995E60CF71C8E0D7C
:1015A0009F1DA1960FB6F894DEBF0FBECDBFDF9191
:1015B000CF911F910F91FF90EF90DF90CF90BF9050
:1015C000AF909F908F907F906F905F904F903F90E3
:1015D0002F9008954B01AA2497FCA094BA2CB7FC35
:1015E00059C0D82C792DC50119A27E01B1E2EB0EAC
:1015F000F11CBAE04B2E512C612C712C0BC0862FA4
:10160000D7018C932115310541055105F1F0D22EFA
:10161000732FCA016D2DA30192010E94DE2A8D2D28
:10162000EAE02E9F80191124F1E0EF1AF10860E33F
:10163000680F97E3980F8A3010F3892FD7018C93A6
:10164000211531054105510511F7F70101900020E1
:10165000E9F7AF01415051094E195F09D801ED91E9
:10166000FC910280F381E02DB701C80109953C018E
:1016700081CFDC01ED91FC910190F081E02D099585
:101680003C0178CFFAE04F2E512C612C712CAAE04E
:101690009A2E3BCFDC01ED91FC910190F081E02D81
:1016A0006DE209951C01CC24DD247601C818D90807
:1016B000EA08FB0819A25E01B1E2AB0EB11C8AE098
:1016C000482E512C612C712C02C069017A01C7018E
:1016D000B601A30192010E94DE2A6C2DEAE02E9F42
:1016E00060191124F1E0AF1AB10890E3960F87E377
:1016F000860F6A3008F4892FD5018C9321153105A6
:101700004105510511F7F50101900020E9F7AF01FE
:10171000415051094A195B09D801ED91FC910280B1
:10172000F381E02DB501C80109953C01620C731CE1
:1017300021CF8F929F92AF92BF92CF92DF92EF9282
:10174000FF920F931F93CF93DF93CDB7DEB7A1978F
:101750000FB6F894DEBF0FBECDBF7C01D42EE52FAF
:10176000CB012115310509F470C0C22E19A2B1E0D8
:10177000B21708F075C0822E912CA12CB12C8E01CD
:101780000F5D1F4F0BC0862FF80180832115310597
:1017900041055105E9F0D22EE32FCA016D2D7E2FB0
:1017A000A50194010E94DE2A8D2DC29E801911246C
:1017B0000150110960E3680F97E3980F8A3018F31E
:1017C000892FF8018083211531054105510519F74D
:1017D000D8010D900020E9F7AD0141505109401B9F
:1017E000510BD701ED91FC910280F381E02DB801FE
:1017F000C70109958C01D701ED91FC910190F08111
:10180000E02D6DE0C70109955C01D701ED91FC91D8
:101810000190F081E02D6AE0C70109950A0D1B1DBA
:10182000800F911FA1960FB6F894DEBF0FBECDBFFB
:10183000DF91CF911F910F91FF90EF90DF90CF90AC
:10184000BF90AF909F908F900895D701ED91FC913C
:101850000190F081E02D642FC70109958C01CBCF59
:101860007AE0872E912CA12CB12CFAE0CF2E87CFD5
:101870001F920F920FB60F9211240BB60F922F9357
:101880003F934F935F936F937F938F939F93AF9308
:10189000BF93EF93FF938091D8039091D903892B45
:1018A00029F0E091D803F091D9030995FF91EF91C8
:1018B000BF91AF919F918F917F916F915F914F9168
:1018C0003F912F910F900BBE0F900FBE0F901F9066
:1018D00018951F920F920FB60F9211240BB60F920C
:1018E0002F933F934F935F936F937F938F939F9328
:1018F000AF93BF93EF93FF938091DA039091DB0353
:10190000892B29F0E091DA03F091DB030995FF912F
:10191000EF91BF91AF919F918F917F916F915F9167
:101920004F913F912F910F900BBE0F900FBE0F90D4
:101930001F9018951F920F920FB60F9211240BB69D
:101940000F922F933F934F935F936F937F938F9358
:101950009F93AF93BF93EF93FF938091DC0390919C
:10196000DD03892B29F0E091DC03F091DD0309957B
:10197000FF91EF91BF91AF919F918F917F916F9167
:101980005F914F913F912F910F900BBE0F900FBE23
:101990000F901F9018951F920F920FB60F9211245F
:1019A0000BB60F922F933F934F935F936F937F9359
:1019B0008F939F93AF93BF93EF93FF938091DE0339
:1019C0009091DF03892B29F0E091DE03F091DF0392
:1019D0000995FF91EF91BF91AF919F918F917F9169
:1019E0006F915F914F913F912F910F900BBE0F9090
:1019F0000FBE0F901F9018951F920F920FB60F9267
:101A000011240BB60F922F933F934F935F936F93D5
:101A10007F938F939F93AF93BF93EF93FF938091A7
:101A2000E0039091E103892B29F0E091E003F0912C
:101A3000E1030995FF91EF91BF91AF919F918F9134
:101A40007F916F915F914F913F912F910F900BBEBE
:101A50000F900FBE0F901F9018951F920F920FB608
:101A60000F9211240BB60F922F933F934F935F93D6
:101A70006F937F938F939F93AF93BF93EF93FF9356
:101A80008091E2039091E303892B29F0E091E20336
:101A9000F091E3030995FF91EF91BF91AF919F9171
:101AA0008F917F916F915F914F913F912F910F9007
:101AB0000BBE0F900FBE0F901F9018951F920F92A4
:101AC0000FB60F9211240BB60F922F933F934F93A3
:101AD0005F936F937F938F939F93AF93BF93EF9396
:101AE000FF938091E4039091E503892B29F0E09125
:101AF000E403F091E5030995FF91EF91BF91AF9158
:101B00009F918F917F916F915F914F913F912F9115
:101B10000F900BBE0F900FBE0F901F9018951F9245
:101B20000F920FB60F9211240BB60F922F933F9383
:101B30004F935F936F937F938F939F93AF93BF93D5
:101B4000EF93FF938091E6039091E703892B29F0AF
:101B5000E091E603F091E7030995FF91EF91BF91C2
:101B6000AF919F918F917F916F915F914F913F9135
:101B70002F910F900BBE0F900FBE0F901F901895D6
:101B80001F920F920FB60F9211242F933F938F93B2
:101B90009F93AF93BF938091E9039091EA03A09143
:101BA000EB03B091EC033091E80323E0230F2D37D2
:101BB00068F126E8230F0296A11DB11D2093E803CA
:101BC0008093E9039093EA03A093EB03B093EC03B3
:101BD0008091ED039091EE03A091EF03B091F0039B
:101BE0000196A11DB11D8093ED039093EE03A09388
:101BF000EF03B093F003BF91AF919F918F913F910D
:101C00002F910F900FBE0F901F9018950196A11D58
:101C1000B11DD4CF2FB7F8946091E9037091EA0316
:101C20008091EB039091EC032FBF0895CF92DF9248
:101C3000EF92FF920F931F932FB7F894C090E90390
:101C4000D090EA03E090EB03F090EC032FBFEFB7E6
:101C5000F8940091E9031091EA032091EB0330918D
:101C6000EC03EFBF0C191D092E093F09601771071E
:101C70008207930760F71F910F91FF90EF90DF901D
:101C8000CF9008950197009751F0880F991F880F02
:101C9000991F02972FB7F8940197F1F72FBF089576
:101CA000789484B5886084BD84B5806484BD84B52F
:101CB000826084BD84B5816084BDEEE6F0E0808101
:101CC00081608083EAE7F0E08081846080838081A6
:101CD000826080838081816080838081806880834E
:101CE0001092C10008959FB7F8948091F10381117B
:101CF0000CC0289A209A8CB580618CBD8CB580640C
:101D00008CBD219A229A8091F1038F5F8093F10319
:101D10009FBF08951F920F920FB60F9211240BB61A
:101D20000F922F933F934F935F936F937F938F9374
:101D30009F93AF93BF93EF93FF93E091F203F091E2
:101D4000F303309781F080917800209179006381CE
:101D5000748190E00180F281E02D922B0995109220
:101D6000F3031092F203FF91EF91BF91AF919F9116
:101D70008F917F916F915F914F913F912F910F9034
:101D80000BBE0F900FBE0F901F9018951F920F92D1
:101D90000FB60F9211240BB60F927F928F929F92E3
:101DA000AF92BF92CF92DF92EF92FF920F931F9369
:101DB0002F933F934F935F936F937F938F939F9353
:101DC000AF93BF93EF93FF93CF93DF93CDB7DEB77E
:101DD0006197DEBFCDBFF090ED00B0EE7B2E10ED31
:101DE000C12E00ECD02E80EBE82E00EA10E9F0E8DE
:101DF000E0E770E660E550E440E330E220E106C051
:101E00001092ED008091EE0085FD15C09091E000EC
:101E10008091E100892B09F49FC08091E00080FD52
:101E2000EFCF8091E00081FF82C02093ED00809190
:101E3000EE0085FFEBCF1092EE008AE090E08C0F71
:101E40009D1F998788878091FA008A878091FA0080
:101E50008B878091FA008C878091FA008D87809122
:101E6000FA008E878091FA008F878091FA00888B24
:101E70008091FA00898B8091EF008F708D83809123
:101E8000EF00829581708F839091F00092FB9927EB
:101E900090F99E83882309F49DC04091F3008091BE
:101EA000F2008090F1002091F00090E0982F8827B8
:101EB0009295990F907EAA2797FDA095BA2F30E2B0
:101EC000839E40011124AA2497FCA094BA2C880D6B
:101ED000991DAA1DBB1D50E060E070E0E5E1440FD4
:101EE000551F661F771FEA95D1F7840F951FA61F10
:101EF000B71F422F50E055954795559547955595F5
:101F00004795662757FD6095762F840F951FA61F6E
:101F1000B71F89839A83AB83BC836091ED00E09106
:101F2000F403F091F503CE010196099560CF8091FD
:101F3000E00082FF03C03093ED0064CF8091E000A9
:101F400083FF03C04093ED005DCF8091E00084FFEC
:101F50002BC05093ED0056CFF092ED0061960FB676
:101F6000F894DEBF0FBECDBFDF91CF91FF91EF910F
:101F7000BF91AF919F918F917F916F915F914F91A1
:101F80003F912F911F910F91FF90EF90DF90CF9095
:101F9000BF90AF909F908F907F900F900BBE0F904F
:101FA0000FBE0F901F9018958091E00085FF03C031
:101FB0006093ED0027CF8091E00086FD22C08091E4
:101FC000E00087FD2FC08091E10080FF1DC0F093ED
:101FD000ED0018CF2091F3008091F20090E09595EC
:101FE00087959595879595958795959587959595D9
:101FF000879538E0239F800D911D11249A83898352
:102000008CCF7093ED00FECE8091E10081FD07C082
:102010008091E10082FF09C00093ED00F3CE1093A0
:10202000ED00F0CEE093ED00EDCE8091E10083FF76
:1020300003C0E092ED00E6CE8091E10084FF03C092
:10204000D092ED00DFCE8091E10085FF03C0C09209
:10205000ED00D8CE8091E10086FFD4CE7092ED00E5
:10206000D1CE88E08093F9031092FB031092FA031B
:102070001092FD031092FC038093FE031092000463
:102080001092FF0310920204109201048093030443
:102090001092050410920404109207041092060492
:1020A0001092F3031092F20308951F920F920FB64D
:1020B0000F9211248F9380910D048F5F80930D04F4
:1020C00080910D048D3328F010920D0482E08093EE
:1020D0000E048F910F900FBE0F901F9018951F92B6
:1020E0000F920FB60F9211242F933F938F939F93CC
:1020F000CF93DF9300D000D0CDB7DEB780910C0432
:102100008F5F80930C0480910B048F5F80930B048E
:1021100080910C048330B8F480910B048E3120F050
:1021200010920B04109238040F900F900F900F90A4
:10213000DF91CF919F918F913F912F910F900FBE83
:102140000F901F90189510920C0486B1898380918E
:10215000F8038C839091F7039B832091F6032A83E5
:1021600030913704831709F443C031E030933804C9
:1021700032E03093390410920B042093350490938D
:1021800036048093370480E58093ED001092F300CD
:1021900080EA8093F2001092F1001092F00080919A
:1021A000F0008093F00089818093FA008A81809307
:1021B000FA008B818093FA008C818093FA008D81E4
:1021C0008093FA008E818093FA008F818093FA00C9
:1021D00088858093FA0088E48093EF008091090459
:1021E00087FF9ACF1092090481E08093080494CF6E
:1021F00030913604931741F031E030933804309336
:10220000390410920B04B9CF30913504231709F427
:10221000B4CF31E0309338041092390410920B049B
:10222000ACCF10923A0410923C0410923D041092EC
:102230003E0410923F048FEF9FEF909341048093F0
:10224000400410924604109245048CEF9FE0909356
:1022500048048093470487E08093420481E08093A0
:10226000430410923B040895CF92DF92EF92FF92C5
:10227000CF93DF93CDB7DEB76D970FB6F894DEBF7F
:102280000FBECDBF10920D04DC012D913C91223F79
:10229000310509F45CC108F04FC0203F310509F455
:1022A0003EC1213F3105D9F5DC011796ED91FC9136
:1022B0001897208181819281A381B48135813093E7
:1022C0002F04209334048A879B87AC87BD878D8534
:1022D00089838C858A838B858B838A858C8389818E
:1022E0009A81AB81BC818093300490933104A09398
:1022F0003204B093330449E050E065EA70E0CE0167
:1023000001960E944A2C80E48093ED008F81811118
:102310008EC090E88D818F70890F8093EF006D964D
:102320000FB6F894DEBF0FBECDBFDF91CF91FF9007
:10233000EF90DF90CF900895233F310509F479C0E5
:10234000243F310561F7DC011796ED91FC91189758
:102350002281338180819181998B888B89898983BE
:1023600088898A83E981FA81AF014427507860E047
:1023700070E0BA0155274427CF0188279C77892B25
:1023800009F4C0C1CF019F77A0E0B0E0EDE0880F75
:10239000991FAA1FBB1FEA95D1F7B85C842B952B18
:1023A000A62BB72B8093270490932804A09329048D
:1023B000B0932A043F872E878F8589838E858A83F1
:1023C00029813A81A9014427507860E070E0BA0180
:1023D00055274427C90188279C77892B09F48EC18A
:1023E000C9019F77A0E0B0E0EDE0880F991FAA1F18
:1023F000BB1FEA95D1F7B85C842B952BA62BB72B86
:1024000080932B0490932C04A0932D04B0932E045E
:1024100049E050E067EB70E0CE0101960E944A2C43
:1024200080E38093ED008F81882309F472CF90E9D7
:1024300071CFDC011796ED91FC91189722813381C1
:10244000808191819D8B8C8B8D8989838C898A83F6
:10245000E981FA81AF014427507860E070E0BA0169
:1024600055274427CF0188279C77892B09F452C12F
:10247000CF019F77A0E0B0E0FDE0880F991FAA1F71
:10248000BB1FFA95D1F7B85C842B952BA62BB72BE5
:1024900080931F0490932004A0932104B0932204FE
:1024A0003B8B2A8B8B8989838A898A8329813A810C
:1024B000A9014427507860E070E0BA01552744270D
:1024C000C90188279C77892B09F420C1C9019F770E
:1024D000A0E0B0E02DE0880F991FAA1FBB1F2A952E
:1024E000D1F7B85C842B952BA62BB72B80932304B4
:1024F00090932404A0932504B093260449E050E06F
:1025000069EC70E0CE0101960E944A2C80E2809333
:10251000ED008F81882309F4FCCE90E9FBCEDC012D
:102520001796ED91FC911897808180930E0449E0F5
:1025300050E06DEE70E0CE0101960E944A2C1092A0
:10254000ED008F81882309F4E4CE90E9E3CEDC012D
:102550001796ED91FC9118976281738144815581A2
:1025600026813781808191819D8F8C8F8D8D89838C
:102570008C8D8A83E981FA816F01CC24B0E8DB225B
:10258000E12CF12C7601DD24CC24CF0188279C7727
:10259000892B09F4CFC0CF019F77A0E0B0E0FDE028
:1025A000880F991FAA1FBB1FFA95D1F7B85C8C2919
:1025B0009D29AE29BF2980930F0490931004A09306
:1025C0001104B09312047B8F6A8F8B8D89838A8D5F
:1025D0008A8369817A816B01CC24E0E8DE22E12CD8
:1025E000F12C7601DD24CC24CB0188279C77892B24
:1025F00009F49CC0CB019F77A0E0B0E06DE0880FAC
:10260000991FAA1FBB1F6A95D1F7B85C8C299D2919
:10261000AE29BF298093130490931404A09315044A
:10262000B0931604598F488F898D8983888D8A834A
:10263000E981FA81AF014427507860E070E0BA0187
:1026400055274427CF0188279C77892B09F46AC036
:10265000CF019F77A0E0B0E0FDE0880F991FAA1F8F
:10266000BB1FFA95D1F7B85C842B952BA62BB72B03
:102670008093170490931804A0931904B0931A043C
:102680003F8B2E8B8F8989838E898A8329813A811A
:10269000A9014427507860E070E0BA01552744272B
:1026A000C90188279C77892BC9F1C9019F77A0E0D0
:1026B000B0E02DE0880F991FAA1FBB1F2A95D1F704
:1026C000B85C842B952BA62BB72B80931B0490937F
:1026D0001C04A0931D04B0931E0449E050E06BED70
:1026E00070E0CE0101960E944A2C80E18093ED00BB
:1026F0008F81882309F40DCE90E90CCE80E090E024
:10270000DC017ACE80E090E0DC0148CE80E090E011
:10271000DC01E8CE80E090E0DC01B6CE80E090E025
:10272000DC01CFCF80E090E0DC019ECF80E090E044
:10273000DC016CCF80E090E0DC0139CFFC018181CD
:1027400081115CC093858485289820E92EBD000006
:102750000DB407FEFDCF2EB524E22EBD00000DB452
:1027600007FEFDCF2EB528EE2EBD00000DB407FEEE
:10277000FDCF2EB59EBD00000DB407FEFDCF9EB56A
:102780008EBD00000DB407FEFDCF8EB5289AA4EED5
:1027900074E260E128986EBD00000DB407FEFDCF25
:1027A0008EB57EBD00000DB407FEFDCF8EB5AEBD6B
:1027B00000000DB407FEFDCF8EB51EBC00000DB4A9
:1027C00007FEFDCF8EB51EBC00000DB407FEFDCF89
:1027D0009EB51EBC00000DB407FEFDCF8EB5289A35
:1027E000292F382F438554854217530729F02F3F4F
:1027F0003F4081F682E3089580E00895289A43855A
:102800005485289880E98EBD00000DB407FEFDCFE9
:102810008EB584E28EBD00000DB407FEFDCF8EB5EF
:1028200088EE8EBD00000DB407FEFDCF8EB54EBD07
:1028300000000DB407FEFDCF8EB55EBD00000DB4E7
:1028400007FEFDCF8EB51EBC00000DB407FEFDCF08
:102850008EB51EBC00000DB407FEFDCF8EB5289AC4
:10286000118270CFCF93FC01CB01258536852617C9
:10287000370708F071C02181211174C03385248588
:10288000289840E94EBD00000DB407FEFDCF4EB5BF
:1028900044E24EBD00000DB407FEFDCF4EB548EE3C
:1028A0004EBD00000DB407FEFDCF4EB53EBD00008D
:1028B0000DB407FEFDCF3EB52EBD00000DB407FEE2
:1028C000FDCF2EB5289A258536852817390708F0BB
:1028D00040C0C4EEB4E2A0E16CEF7FE02898AEBD4A
:1028E00000000DB407FEFDCF2EB5BEBD00000DB437
:1028F00007FEFDCF2EB5CEBD00000DB407FEFDCF07
:102900002EB51EBC00000DB407FEFDCF2EB51EBCBB
:1029100000000DB407FEFDCF3EB51EBC00000DB497
:1029200007FEFDCF2EB5289A432F522F4F3F2FE0A1
:102930005207A9F023853485241B350B2C7F3F706B
:10294000AB01421B530B568745874817590708F4BC
:10295000C5CF818181113BC080E0CF91089582E392
:10296000CF910895289A43855485289820E92EBD53
:1029700000000DB407FEFDCF2EB524E22EBD0000F1
:102980000DB407FEFDCF2EB528EE2EBD00000DB410
:1029900007FEFDCF2EB54EBD00000DB407FEFDCFE6
:1029A0002EB55EBD00000DB407FEFDCF2EB51EBCDA
:1029B00000000DB407FEFDCF2EB51EBC00000DB407
:1029C00007FEFDCF2EB5289A21E0218357CF4385FE
:1029D000548560E070E050586F4E7F4F2898862FE6
:1029E00080688EBD00000DB407FEFDCF8EB55EBDC4
:1029F00000000DB407FEFDCF8EB54EBD00000DB436
:102A000007FEFDCF8EB581E08183A6CF6F927F92C6
:102A10008F929F92AF92BF92CF92DF92EF92FF92EE
:102A20000F931F93CF93DF9300D000D0CDB7DEB7C5
:102A30008C013B012D5F3F4F4F4F5F4F2C7F211586
:102A400031054105510509F440C0B8EEDB2E84E2A2
:102A5000E82E90E9F92ECC24C394D8011D968D91CF
:102A60009C911E97A0E0B0E082179307A407B507DA
:102A700008F43FC080E090E0DC01F301E80FF91FAB
:102A8000E491EEBD00000DB407FEFDCF6EB50196DA
:102A9000A11DB11D82179307A407B50770F3D801D4
:102AA0001B968D919C911C97820F931F9F701C9673
:102AB0009C938E931B971D968D919C911E97821BC4
:102AC000930B1E969C938E931D9780E00F900F9012
:102AD0000F900F90DF91CF911F910F91FF90EF908A
:102AE000DF90CF90BF90AF909F908F907F906F902E
:102AF0000895F801818181118FC0F8019385848543
:102B00002898FEBC00000DB407FEFDCF6EB5EEBCEC
:102B100000000DB407FEFDCF6EB5DEBC00000DB4A5
:102B200007FEFDCF6EB59EBD00000DB407FEFDCFC4
:102B30009EB58EBD00000DB407FEFDCF8EB5289A60
:102B4000D8011D96ED91FC911E974F01A12CB12C3F
:102B5000DA01C90182169306A406B50610F4D50160
:102B6000C4010097A105B10509F4CFC0812C912CB7
:102B70005401F301E80DF91DE491EEBD00000DB420
:102B800007FEFDCF6EB5EFEF8E1A9E0AAE0ABE0AA3
:102B900088169906AA06BB0661F74C015D01F1E0B3
:102BA0008F1A9108A108B108B4016F5F7F4F660EBC
:102BB000771EF801A584B684F80163857485680FD3
:102BC000791F7F7074876387A81AB90AB686A586AD
:102BD000281B390B4A0B5B0B922F832F2130F8E017
:102BE0003F074105510510F090E088E0692F782FEC
:102BF000C80129833A834B835C8334DE29813A817F
:102C00004B815C81823309F482C021153105410575
:102C1000510509F022CF59CF289A838594852898A9
:102C2000FEBC00000DB407FEFDCF6EB5EEBC00008B
:102C30000DB407FEFDCF6EB5DEBC00000DB407FE7F
:102C4000FDCF6EB58EBD00000DB407FEFDCF6EB595
:102C50009EBD00000DB407FEFDCF8EB51EBC00006A
:102C60000DB407FEFDCF8EB51EBC00000DB407FEEF
:102C7000FDCF8EB5289AD80111961C9211971B96FC
:102C80009C911B971C968C912898FEBC00000DB45B
:102C900007FEFDCF6EB5EEBC00000DB407FEFDCF04
:102CA0006EB5DEBC00000DB407FEFDCF6EB59EBD57
:102CB00000000DB407FEFDCF9EB58EBD00000DB423
:102CC00007FEFDCF8EB5289AF80183859485A0E094
:102CD000B0E09058AF4EBF4F28986A2F60686EBD25
:102CE00000000DB407FEFDCF6EB59EBD00000DB413
:102CF00007FEFDCF6EB58EBD00000DB407FEFDCF03
:102D00008EB5D8011196CC921BCF5F0155CF82E3CF
:102D1000DDCE0F931F93CF93DF938B01D82FC92F55
:102D200020913B04222309F442C0209147043091B2
:102D300048042430310570F10EBD00000DB407FECB
:102D4000FDCF8EB51EBD00000DB407FEFDCF8EB5C4
:102D5000DEBD00000DB407FEFDCF8EB5CEBD000078
:102D60000DB407FEFDCF8EB58091450490914604C9
:102D700004969F7090934604809345042450310933
:102D8000309348042093470480E0DF91CF911F9156
:102D90000F91089564E070E08AE394E063DD82338C
:102DA00009F49BC02091470430914804C5CFE091BD
:102DB0004504F0914604AF0160E070E050586F4E5A
:102DC0007F4F2898862F80688EBD00000DB407FEC7
:102DD000FDCF8EB55EBD00000DB407FEFDCF8EB5F4
:102DE0004EBD00000DB407FEFDCF8EB581E080938F
:102DF0003B0420914704309148042430310580F48D
:102E000064E070E08AE394E02DDD823309F46BC066
:102E1000E0914504F0914604209147043091480424
:102E20000EBD00000DB407FEFDCF8EB51EBD000027
:102E30000DB407FEFDCF8EB5DEBD00000DB407FE5C
:102E4000FDCF8EB5CEBD00000DB407FEFDCF8EB513
:102E50003496FF70F0934604E09345042450310902
:102E6000309348042093470480E0289AAF012898C3
:102E700090E99EBD00000DB407FEFDCF9EB594E223
:102E80009EBD00000DB407FEFDCF9EB598EE9EBD21
:102E900000000DB407FEFDCF9EB54EBD00000DB481
:102EA00007FEFDCF9EB55EBD00000DB407FEFDCF51
:102EB0009EB51EBC00000DB407FEFDCF9EB51EBC26
:102EC00000000DB407FEFDCF9EB5289A10923B047A
:102ED000DF91CF911F910F91089582E3DF91CF9100
:102EE0001F910F91089582E3E0914504F09146040B
:102EF000BCCFCF92DF92EF92FF920F931F93CF93AD
:102F0000DF9300D0CDB7DEB76C017B01FC0181817E
:102F1000882309F441C0F60185859685049780F1E0
:102F20004EBD00000DB407FEFDCF8EB55EBD0000A6
:102F30000DB407FEFDCF8EB5EEBC00000DB407FE4C
:102F4000FDCF8EB5FEBC00000DB407FEFDCF8EB5E3
:102F5000F6018385948504969F7094878387858581
:102F6000968504979687858780E00F900F90DF9174
:102F7000CF911F910F91FF90EF90DF90CF90089528
:102F800064E070E0C60149835A836CDC49815A8150
:102F9000823331F682E3E9CF0385148520E030E007
:102FA00010582F4E3F4F2898822F80688EBD00000A
:102FB0000DB407FEFDCF8EB51EBD00000DB407FE9B
:102FC000FDCF8EB50EBD00000DB407FEFDCF8EB552
:102FD00081E0F601818385859685049760F464E03D
:102FE00070E0C60149835A833DDC49815A818233AE
:102FF00011F482E325C04EBD00000DB407FEFDCFE5
:103000008EB55EBD00000DB407FEFDCF8EB5EEBCE3
:1030100000000DB407FEFDCF8EB5FEBC00000DB460
:1030200007FEFDCF8EB5F6018385948504969F70CB
:10303000948783878585968504979687858780E022
:10304000289AF60143855485289890E99EBD000092
:103050000DB407FEFDCF9EB594E29EBD00000DB4F9
:1030600007FEFDCF9EB598EE9EBD00000DB407FE95
:10307000FDCF9EB54EBD00000DB407FEFDCF9EB541
:103080005EBD00000DB407FEFDCF9EB51EBC000066
:103090000DB407FEFDCF9EB51EBC00000DB407FEAB
:1030A000FDCF9EB5289AF60111825FCF6F927F9275
:1030B0008F929F92AF92BF92CF92DF92EF92FF9248
:1030C0000F931F93CF93DF9300D000D0CDB7DEB71F
:1030D0003C018B012D5F3F4F4F4F5F4F2C7F2115E0
:1030E000310541055105E9F168EED62E74E2E72E6F
:1030F000E0E9FE2ECC24C394D3011D968D919C91C2
:103100001E97A0E0B0E082179307A407B507E8F187
:10311000F80180E090E0DC0161916EBD00000DB42B
:1031200007FEFDCF6EB50196A11DB11D8217930755
:10313000A407B50788F3D3011B968D919C911C972A
:10314000820F931F9F701C969C938E931B971D96C6
:103150008D919C911E97821B930B1E969C938E9330
:103160001D9780E00F900F900F900F90DF91CF91FF
:103170001F910F91FF90EF90DF90CF90BF90AF9095
:103180009F908F907F906F900895F30181818111BE
:103190008DC0F301938584852898FEBC00000DB492
:1031A00007FEFDCF6EB5EEBC00000DB407FEFDCFEF
:1031B0006EB5DEBC00000DB407FEFDCF6EB59EBD42
:1031C00000000DB407FEFDCF9EB58EBD00000DB40E
:1031D00007FEFDCF8EB5289AD3011D96ED91FC9187
:1031E0001E974F01A12CB12CDA01C901821693065A
:1031F000A406B50610F4D501C4010097A105B105D8
:1032000009F4CDC0F801812C912C540161916EBD5F
:1032100000000DB407FEFDCF6EB56FEF861A960A5B
:10322000A60AB60A88169906AA06BB0679F74C01C3
:103230005D01E1E08E1A9108A108B108B4016F5F49
:103240007F4F060F171FF301A584B684F301638532
:103250007485680F791F7F7074876387A81AB90A0D
:10326000B686A586281B390B4A0B5B0B922F832F42
:103270002130F8E03F074105510510F090E088E06B
:10328000692F782FC30129833A834B835C83EADA61
:1032900029813A814B815C81823309F482C02115F6
:1032A00031054105510509F027CF5BCF289A838569
:1032B00094852898FEBC00000DB407FEFDCF6EB5C6
:1032C000EEBC00000DB407FEFDCF6EB5DEBC000005
:1032D0000DB407FEFDCF6EB58EBD00000DB407FE28
:1032E000FDCF6EB59EBD00000DB407FEFDCF8EB5BF
:1032F0001EBC00000DB407FEFDCF8EB51EBC000045
:103300000DB407FEFDCF8EB5289AD30111961C92FD
:1033100011971B969C911B971C968C912898FEBC2C
:1033200000000DB407FEFDCF6EB5EEBC00000DB47D
:1033300007FEFDCF6EB5DEBC00000DB407FEFDCF6D
:103340006EB59EBD00000DB407FEFDCF9EB58EBDCF
:1033500000000DB407FEFDCF8EB5289AF3018385DA
:103360009485A0E0B0E09058AF4EBF4F28986A2FE8
:1033700060686EBD00000DB407FEFDCF6EB59EBD4A
:1033800000000DB407FEFDCF6EB58EBD00000DB47C
:1033900007FEFDCF8EB5D3011196CC921DCF5F01F4
:1033A00055CF82E3DFCE8F929F92AF92BF92CF92A2
:1033B000DF92EF92FF920F931F93CF93DF931F92B1
:1033C000CDB7DEB74C016B015A014CE05FEF6FEFF8
:1033D0007FEF29838EDDA501662757FD6095762F47
:1033E000BA0155274427C601A0E0B0E0482B592B6D
:1033F0006A2B7B2BC4017DDDA80160E070E0BA017F
:10340000552744272981422BC40173DDF701019020
:103410000020E9F7EE19FF099F0140E050E0F401B8
:103420008181882381F0B701C4010F90DF91CF9192
:103430001F910F91FF90EF90DF90CF90BF90AF90D2
:103440009F908F9033CE83859485A0E0B0E0905814
:10345000AF4EBF4F28986A2F60686EBD00000DB454
:1034600007FEFDCF6EB59EBD00000DB407FEFDCF7B
:103470006EB58EBD00000DB407FEFDCF8EB581E0A8
:10348000F4018183B701C40111DE289AF401438558
:103490005485289890E99EBD00000DB407FEFDCF2D
:1034A0009EB594E29EBD00000DB407FEFDCF9EB513
:1034B00098EE9EBD00000DB407FEFDCF9EB54EBD3B
:1034C00000000DB407FEFDCF9EB55EBD00000DB43B
:1034D00007FEFDCF9EB51EBC00000DB407FEFDCF5C
:1034E0009EB51EBC00000DB407FEFDCF9EB5289A08
:1034F000F40111820F90DF91CF911F910F91FF90F6
:10350000EF90DF90CF90BF90AF909F908F900895F5
:103510000F931F93CF93DF93CDB7DEB7C054D1097C
:103520000FB6F894DEBF0FBECDBF9E012E5A3F4F9F
:1035300062964EAD5FAD629760E470E08E010F5F02
:103540001F4FC8010E94B12C4CE05FEF6FEF7FEF7F
:103550008AE394E0CEDC2B964EAD5FAD2B9760E016
:1035600070E02D968EAD9FAD2D97AA2797FDA09563
:10357000BA2FDC0199278827482B592B6A2B7B2BE4
:103580008AE394E0B6DC60964EAD5FAD609760E094
:1035900070E0BA01552744272E968FAD2E97482B01
:1035A0008AE394E0A6DCF80101900020E9F7E01B33
:1035B000F10B9F0140E050E080913B04882381F0B3
:1035C000B8018AE394E072DDC05CDF4F0FB6F89477
:1035D000DEBF0FBECDBFDF91CF911F910F91089538
:1035E0008091450490914604A0E0B0E09058AF4E21
:1035F000BF4F28986A2F60686EBD00000DB407FEAB
:10360000FDCF6EB59EBD00000DB407FEFDCF6EB5BB
:103610008EBD00000DB407FEFDCF8EB581E0809316
:103620003B04B8018AE394E041DD289A40914504C7
:1036300050914604289890E99EBD00000DB407FE05
:10364000FDCF9EB594E29EBD00000DB407FEFDCFF8
:103650009EB598EE9EBD00000DB407FEFDCF9EB551
:103660004EBD00000DB407FEFDCF9EB55EBD00004F
:103670000DB407FEFDCF9EB51EBC00000DB407FEC5
:10368000FDCF9EB51EBC00000DB407FEFDCF9EB55C
:10369000289A10923B0498CFEF92FF920F931F93BA
:1036A000CF93DF93CDB7DEB7C058D1090FB6F894EA
:1036B000DEBF0FBECDBFC757DF4F08811981C95884
:1036C000D040CE56DF4F68817981C259D040CE01BB
:1036D00001960E94532C7E0181E4E80EF11C9E01AC
:1036E0002C563F4FAE014F5F5F4F60E470E0C70163
:1036F0000E94B12C4CE05FEF6FEF7FEFC801F9DB68
:10370000C557DF4F48815981CB58D04060E070E009
:10371000C357DF4F88819981CD58D040AA2797FDA4
:10372000A095BA2FDC0199278827482B592B6A2BA3
:103730007B2BC801DEDBC057DF4F48815981C05960
:10374000D04060E070E0BA0155274427C157DF4FF1
:103750008881CF58D040482BC801CBDBF7010190BE
:103760000020E9F7EE19FF099F0140E050E0F80161
:103770008181882389F0B701C80198DCC058DF4FE8
:103780000FB6F894DEBF0FBECDBFDF91CF911F9172
:103790000F91FF90EF90089583859485A0E0B0E0AD
:1037A0009058AF4EBF4F28986A2F60686EBD0000DA
:1037B0000DB407FEFDCF6EB59EBD00000DB407FE33
:1037C000FDCF6EB58EBD00000DB407FEFDCF8EB5EA
:1037D00081E0F8018183B701C80168DC289AF8010B
:1037E00043855485289890E99EBD00000DB407FEDE
:1037F000FDCF9EB594E29EBD00000DB407FEFDCF47
:103800009EB598EE9EBD00000DB407FEFDCF9EB59F
:103810004EBD00000DB407FEFDCF9EB55EBD00009D
:103820000DB407FEFDCF9EB51EBC00000DB407FE13
:10383000FDCF9EB51EBC00000DB407FEFDCF9EB5AA
:10384000289AF80111829ACF4F925F926F927F92DD
:103850008F929F92AF92BF92CF92DF92EF92FF92A0
:103860001F93CF93DF93CDB7DEB72C970FB6F894A5
:10387000DEBF0FBECDBF2C018CE0EAE0F1E0DE013F
:10388000119601900D928A95E1F78CB58C7F8CBDD5
:103890008DB581608DBD28981EBC00000DB407FE5B
:1038A000FDCF8EB51EBC00000DB407FEFDCF8EB55A
:1038B0001EBC00000DB407FEFDCF8EB51EBC00007F
:1038C0000DB407FEFDCF8EB51EBC00000DB407FE83
:1038D000FDCF8EB5289A64E170E080E090E00E9410
:1038E000160E64E170E080E090E00E94160E10E099
:1038F00098E0692E24E2722E30E1832E4CE6942E5D
:1039000055E2A52E60E9B62E28988EBC00000DB4B5
:1039100007FEFDCF8EB57EBC00000DB407FEFDCFC7
:103920008EB56EBC00000DB407FEFDCF8EB51EBC7B
:1039300000000DB407FEFDCF8EB51EBC00000DB417
:1039400007FEFDCF4EB51EBC00000DB407FEFDCF37
:103950003EB51EBC00000DB407FEFDCF9EB51EBCDB
:1039600000000DB407FEFDCF8EB5289AC42ED32ECD
:10397000E92EF82E89E09DE30E94420E28988EBC25
:1039800000000DB407FEFDCF8EB57EBC00000DB467
:1039900007FEFDCF8EB56EBC00000DB407FEFDCF57
:1039A0008EB51EBC00000DB407FEFDCF8EB51EBC4B
:1039B00000000DB407FEFDCFEEB51EBC00000DB437
:1039C00007FEFDCF3EB51EBC00000DB407FEFDCFC7
:1039D0009EB51EBC00000DB407FEFDCF8EB5289A23
:1039E0004E2F532F692F782F4C195D096E097F09CF
:1039F000440F551F661F771F440F551F661F771F03
:103A0000440F551F661F771F440F551F661F771FF2
:103A1000440F551F661F771F440F551F661F771FE2
:103A2000411586EC58078DEC680782E07807F0F4C2
:103A30002898BEBC00000DB407FEFDCF8EB5AEBC0D
:103A400000000DB407FEFDCF8EB59EBC00000DB486
:103A500007FEFDCF8EB51EBD00000DB407FEFDCFE5
:103A60008EB5289A1F5F1F3109F04ECF289880E944
:103A70008EBD00000DB407FEFDCF8EB584E28EBD75
:103A800000000DB407FEFDCF8EB58CE08EBD0000AA
:103A90000DB407FEFDCF8EB54EBD00000DB407FE80
:103AA000FDCF8EB55EBD00000DB407FEFDCF8EB517
:103AB0006EBD00000DB407FEFDCF8EB57EBD0000CB
:103AC0000DB407FEFDCF8EB5289A289880E98EBDEB
:103AD00000000DB407FEFDCF8EB51EBC00000DB476
:103AE00007FEFDCF8EB51EBC00000DB407FEFDCF56
:103AF0008EB5FE013196CE010D9621912EBD0000AE
:103B00000DB407FEFDCF2EB5E817F907B1F7289AD7
:103B1000289880E98EBD00000DB407FEFDCF8EB55C
:103B200084E28EBD00000DB407FEFDCF8EB580E5AA
:103B30008EBD00000DB407FEFDCF8EB582E08EBDB8
:103B400000000DB407FEFDCF8EB5289AF201148651
:103B500013868CEF9FE0968785872C960FB6F89496
:103B6000DEBF0FBECDBFDF91CF911F91FF90EF90D1
:103B7000DF90CF90BF90AF909F908F907F906F908D
:103B80005F904F900895CF92DF92EF92FF920F9344
:103B90001F93CF93DF93CDB7DEB76F970FB6F8942F
:103BA000DEBF0FBECDBF40E051EE60E070E083EBC2
:103BB00092E00E9471088091400490914104019626
:103BC00019F08DB1887F8DB984B1856084B9289A48
:103BD0000E94730E8CB58C7F8CBD8DB581608DBDC0
:103BE0008CB58F7D8CBD8CB5837F8CBD8AE394E0D2
:103BF0002BDE289880E98EBD00000DB407FEFDCFB6
:103C00008EB584E28EBD00000DB407FEFDCF8EB5EB
:103C100088E48EBD00000DB407FEFDCF8EB51EBC3E
:103C200000000DB407FEFDCF8EB51EBC00000DB424
:103C300007FEFDCF8EB5289A289880E98EBD00003A
:103C40000DB407FEFDCF8EB584E28EBD00000DB42D
:103C500007FEFDCF8EB58CE48EBD00000DB407FECF
:103C6000FDCF8EB58AE08EBD00000DB407FEFDCFFE
:103C70008EB51EBC00000DB407FEFDCF8EB5289A90
:103C8000289880E98EBD00000DB407FEFDCF8EB5EB
:103C900084E28EBD00000DB407FEFDCF8EB580E43A
:103CA0008EBD00000DB407FEFDCF8EB58CE08EBD3D
:103CB00000000DB407FEFDCF8EB51EBC00000DB494
:103CC00007FEFDCF8EB5289A289880E98EBD0000AA
:103CD0000DB407FEFDCF8EB584E28EBD00000DB49D
:103CE00007FEFDCF8EB58CE38EBD00000DB407FE40
:103CF000FDCF8EB584E28EBD00000DB407FEFDCF72
:103D00008EB581E08EBD00000DB407FEFDCF8EB5EF
:103D1000289A289880E98EBD00000DB407FEFDCFDB
:103D20008EB584E28EBD00000DB407FEFDCF8EB5CA
:103D300084E38EBD00000DB407FEFDCF8EB51EBC22
:103D400000000DB407FEFDCF8EB51EBC00000DB403
:103D500007FEFDCF8EB5289A289880E98EBD000019
:103D60000DB407FEFDCF8EB584E28EBD00000DB40C
:103D700007FEFDCF8EB588E38EBD00000DB407FEB3
:103D8000FDCF8EB589E28EBD00000DB407FEFDCFDC
:103D90008EB51EBC00000DB407FEFDCF8EB5289A6F
:103DA000289880E98EBD00000DB407FEFDCF8EB5CA
:103DB00084E28EBD00000DB407FEFDCF8EB58CE20F
:103DC0008EBD00000DB407FEFDCF8EB58BE28EBD1B
:103DD00000000DB407FEFDCF8EB51EBC00000DB473
:103DE00007FEFDCF8EB5289A289880E98EBD000089
:103DF0000DB407FEFDCF8EB584E28EBD00000DB47C
:103E000007FEFDCF8EB588E28EBD00000DB407FE23
:103E1000FDCF8EB584E28EBD00000DB407FEFDCF50
:103E20008EB582E08EBD00000DB407FEFDCF8EB5CD
:103E3000289A289880E98EBD00000DB407FEFDCFBA
:103E40008EB584E28EBD00000DB407FEFDCF8EB5A9
:103E500080E38EBD00000DB407FEFDCF8EB580EE71
:103E60008EBD00000DB407FEFDCF8EB581E08EBD86
:103E700000000DB407FEFDCF8EB5289A289880E982
:103E80008EBD00000DB407FEFDCF8EB584E28EBD61
:103E900000000DB407FEFDCF8EB584E48EBD00009A
:103EA0000DB407FEFDCF8EB580E18EBD00000DB4D0
:103EB00007FEFDCF8EB581E08EBD00000DB407FE7C
:103EC000FDCF8EB5289A289880E98EBD00000DB4EC
:103ED00007FEFDCF8EB584E28EBD00000DB407FE57
:103EE000FDCF8EB588E68EBD00000DB407FEFDCF78
:103EF0008EB581E08EBD00000DB407FEFDCF8EB5FE
:103F00001EBC00000DB407FEFDCF8EB5289A289880
:103F100080E98EBD00000DB407FEFDCF8EB584E2B2
:103F20008EBD00000DB407FEFDCF8EB580E68EBDC0
:103F300000000DB407FEFDCF8EB51EBC00000DB411
:103F400007FEFDCF8EB51EBC00000DB407FEFDCFF1
:103F50008EB5289A289880E98EBD00000DB407FE22
:103F6000FDCF8EB584E28EBD00000DB407FEFDCFFF
:103F70008EB58CE68EBD00000DB407FEFDCF8EB56C
:103F800085E08EBD00000DB407FEFDCF8EB51EBCD2
:103F900000000DB407FEFDCF8EB5289A289888E45E
:103FA0008EBD00000DB407FEFDCF8EB51EBC000017
:103FB0000DB407FEFDCF8EB51EBC00000DB407FE8C
:103FC000FDCF8EB51EBC00000DB407FEFDCF8EB533
:103FD0001EBC00000DB407FEFDCF8EB5289A64E12B
:103FE00070E080E090E00E94160E40E150E060E05A
:103FF00070E083EB92E00E94530A28988CE08EBD1B
:1040000000000DB407FEFDCF8EB51EBC00000DB440
:1040100007FEFDCF8EB51EBC00000DB407FEFDCF20
:104020008EB51EBC00000DB407FEFDCF8EB51EBCC4
:1040300000000DB407FEFDCF3EB51EBC00000DB460
:1040400007FEFDCF2EB51EBC00000DB407FEFDCF50
:104050009EB51EBC00000DB407FEFDCF8EB5289A9C
:10406000C32ED22EE92EF82E38E0C31631E0D30647
:10407000E306F104A1F066E271E083EB92E00E94B6
:10408000100A20E130E0B701A60183EB92E00E9424
:10409000990B6DE371E083EB92E00E94200A60E0EF
:1040A0007FEF8FEF9FEF0E94891667E070E080E05E
:1040B00096E20E94891686E1E1E6F1E0DE011196C2
:1040C00001900D928A95E1F76FEF7FEF8FEF94E00B
:1040D0000E948916CE0101967C0100E016E02DE1D8
:1040E00042E250E060EF70E08AE394E05CD960E087
:1040F00070E08FEF94E00E94891689E491E09F932D
:104100008F9386E08F931F928DE18F931F9288E8A3
:104110008F931F9280EF8F938AE394E09F938F9306
:10412000F7D960E070E0CB010E94891661E07FEF73
:104130008FEF9FEF0E9489168AE394E00E949E13FE
:1041400081E090E00090420402C0880F991F0A9419
:10415000E2F7289820E12EBD00000FB6F894DEBFEC
:104160000FBECDBF0DB407FEFDCF2EB524E22EBD90
:1041700000000DB407FEFDCF2EB520E92EBD0000D6
:104180000DB407FEFDCF2EB51EBC00000DB407FE1A
:10419000FDCF2EB51EBC00000DB407FEFDCF9EB5B1
:1041A000289A982B80E928988EBD00000DB407FE50
:1041B000FDCF2EB524E22EBD00000DB407FEFDCFCD
:1041C0002EB58EBD00000DB407FEFDCF8EB59EBD91
:1041D00000000DB407FEFDCF8EB5289A42E25FEFD6
:1041E0006FEF7FEF8AE394E00E94791740E050E0A0
:1041F000BA018AE394E00E94791780913B048823F6
:1042000009F40AC427EF31E040E050E066EF70E0C7
:104210008AE394E00E9406158AE394E00E949E13CC
:1042200060E07FEF8FEF9FEF0E94891667E070E0FC
:1042300080E096E20E94891660E070E080E095E000
:104240000E94891660E070E080E091E00E9489168B
:1042500041E350E468E077E08AE394E00E94791754
:1042600041E354EF61E178E08AE394E00E9479173A
:1042700060E070E0CB010E94891661E07FEF8FEF74
:104280009FEF0E9489168AE394E00E949E1384E3C4
:1042900091E19093F5038093F40381E08093D8003B
:1042A0001092DE001092DF0090EA9093DB001092F3
:1042B000EC001092E2008CE08093E30086E38093B0
:1042C000E4001092E5008091D80082608093D800CD
:1042D0001092ED001092EF001092EE0080E18093BA
:1042E000ED001092EF001092EE0080E28093ED005E
:1042F0001092EF001092EE0080E38093ED00109298
:10430000EF001092EE0080E48093ED001092EF0039
:104310001092EE0080E58093ED001092EF00109275
:10432000EE0080E68093ED001092EF001092EE0018
:1043300080E78093ED001092EF001092EE0080E88D
:104340008093ED001092EF001092EE0080E98093D0
:10435000ED001092EF001092EE009093ED0010929D
:10436000EF001092EE0080EB8093ED001092EF00D2
:104370001092EE0080EC8093ED001092EF0010920E
:10438000EE0080ED8093ED001092EF001092EE00B1
:1043900080EE8093ED001092EF001092EE0080EF1F
:1043A0008093ED001092EF001092EE00789449E0B7
:1043B00050E06DEE70E0CE0147960E944A2C49E035
:1043C00050E064EE70E0CE0101960E944A2C1092FB
:1043D000ED008091DE0081608093DE002D8D8F895D
:1043E000988DA98DBA8D222309F42DC4AC01BD018D
:1043F00015E176956795579547951A95D1F74093AE
:10440000F300AC01BD010DE0769567955795479592
:104410000A95D1F74093F200AC01BD0195E0769585
:104420006795579547959A95D1F74093F100880F76
:10443000880F880F8093F0008091F0009C8D992365
:1044400009F4E8C294E0892B8093F0002D8D8981D6
:104450009A81AB81BC81222309F4E2C3AC01BD0186
:10446000E5E17695679557954795EA95D1F740939D
:10447000F700AC01BD01FDE076956795579547952E
:10448000FA95D1F74093F600AC01BD01A5E0769511
:10449000679557954795AA95D1F74093F500880FF2
:1044A000880F880F8093F4009091F4008E81882308
:1044B00009F4AEC224E081E03F81311101C080E007
:1044C000820F892B8093F4008D8D8111A7C390E812
:1044D0008B8D8F70890F8093EF0049E050E06BED7A
:1044E00070E0CE0147960E944A2C49E050E062ED10
:1044F00070E0CE0101960E944A2C80E18093ED008D
:104500008091DE0082608093DE002D8D8F89988DF2
:10451000A98DBA8D222309F46EC3AC01BD0115E14A
:1045200076956795579547951A95D1F74093F3007F
:10453000AC01BD010DE076956795579547950A95B5
:10454000D1F74093F200AC01BD0195E076956795F7
:10455000579547959A95D1F74093F100880F880FAA
:10456000880F8093F0008091F0009C8D992309F4CE
:104570004DC294E0892B8093F0002D8D89819A8122
:10458000AB81BC81222309F423C3AC01BD01E5E169
:104590007695679557954795EA95D1F74093F7003B
:1045A000AC01BD01FDE07695679557954795FA9565
:1045B000D1F74093F600AC01BD01A5E07695679573
:1045C00057954795AA95D1F74093F500880F880F26
:1045D000880F8093F4009091F4008E81882309F471
:1045E00013C224E081E03F81311101C080E0820FDD
:1045F000892B8093F4008D8D8111E8C290E88B8D1A
:104600008F70890F8093EF0049E050E069EC70E013
:10461000CE0147960E944A2C49E050E060EC70E0E1
:10462000CE0101960E944A2C80E28093ED00809199
:10463000DE0084608093DE002D8D8F89988DA98D9A
:10464000BA8D222309F4AFC2AC01BD0115E1769504
:104650006795579547951A95D1F74093F300AC01AC
:10466000BD010DE076956795579547950A95D1F769
:104670004093F200AC01BD0195E0769567955795A2
:1046800047959A95D1F74093F100880F880F880FCE
:104690008093F0008091F0009C8D992309F4B2C1C1
:1046A00094E0892B8093F0002D8D89819A81AB81D4
:1046B000BC81222309F464C2AC01BD01E5E1769519
:1046C000679557954795EA95D1F74093F700AC0168
:1046D000BD01FDE07695679557954795FA95D1F719
:1046E0004093F600AC01BD01A5E07695679557951E
:1046F0004795AA95D1F74093F500880F880F880F4A
:104700008093F4009091F4008E81882309F478C19D
:1047100024E081E03F81311101C080E0820F892BCC
:104720008093F4008D8D811129C290E88B8D8F705C
:10473000890F8093EF0049E050E067EB70E0CE0115
:1047400047960E944A2C49E050E06EEA70E0CE01A4
:1047500001960E944A2C80E38093ED008091DE0058
:1047600088608093DE002D8D8F89988DA98DBA8DFC
:10477000222309F4F0C1AC01BD0115E176956795DE
:10478000579547951A95D1F74093F300AC01BD01B9
:104790000DE076956795579547950A95D1F7409323
:1047A000F200AC01BD0195E0769567955795479568
:1047B0009A95D1F74093F100880F880F880F809366
:1047C000F0008091F0009C8D992309F417C194E0CA
:1047D000892B8093F0002D8D89819A81AB81BC81DA
:1047E000222309F4A5C1AC01BD01E5E176956795E9
:1047F00057954795EA95D1F74093F700AC01BD0175
:10480000FDE07695679557954795FA95D1F74093D2
:10481000F600AC01BD01A5E07695679557954795E3
:10482000AA95D1F74093F500880F880F880F8093E1
:10483000F4009091F4008E81882309F4DDC024E017
:1048400081E03F81311101C080E0820F892B80938C
:10485000F4008D8D81116AC190E88B8D8F70890F66
:104860008093EF0049E050E065EA70E0CE014796A2
:104870000E944A2C49E050E06CE970E0CE010196BC
:104880000E944A2C80E48093ED008091DE008061DC
:104890008093DE002D8D8F89988DA98DBA8D22236E
:1048A00009F431C1AC01BD0115E1769567955795C5
:1048B00047951A95D1F74093F300AC01BD010DE087
:1048C00076956795579547950A95D1F74093F200ED
:1048D000AC01BD0195E076956795579547959A95FA
:1048E000D1F74093F100880F880F880F8093F00074
:1048F0008091F0009C8D992309F47CC094E0892B71
:104900008093F0002D8D89819A81AB81BC81222317
:1049100009F4E6C0AC01BD01E5E1769567955795D0
:104920004795EA95D1F74093F700AC01BD01FDE052
:104930007695679557954795FA95D1F74093F60088
:10494000AC01BD01A5E07695679557954795AA9569
:10495000D1F74093F500880F880F880F8093F400FB
:104960009091F4008E81882309F442C024E081E014
:104970003F81311101C080E0820F892B8093F400C8
:104980008D8D8111ABC090E88B8D8F70890F8093D6
:10499000EF0082E080930E0497E09093B00091E0E6
:1049A00090936E00109280008093810080916F0040
:1049B000816080936F008CE080930A041092080459
:1049C0008FEF8093090487B1807F87B988B18F60AA
:1049D00088B96F960FB6F894DEBF0FBECDBFDF91DA
:1049E000CF911F910F91FF90EF90DF90CF9008959E
:1049F00020E0BDCF90E083CF20E022CF90E0E8CE52
:104A000020E087CE90E04DCE20E0ECCD90E0B2CD1E
:104A100020E051CD90E017CD80914504909146045F
:104A2000A0E0B0E09058AF4EBF4F28982A2F2068E2
:104A30002EBD00000DB407FEFDCF2EB59EBD0000BB
:104A40000DB407FEFDCF2EB58EBD00000DB407FEE0
:104A5000FDCF8EB581E080933B0427EF31E040E04D
:104A600050E066EF70E08AE394E00E940615289A11
:104A70008091450490914604289820E92EBD0000BD
:104A80000DB407FEFDCF2EB524E22EBD00000DB4FF
:104A900007FEFDCF2EB528EE2EBD00000DB407FE9B
:104AA000FDCF2EB58EBD00000DB407FEFDCF2EB597
:104AB0009EBD00000DB407FEFDCF8EB51EBC0000EC
:104AC0000DB407FEFDCF8EB51EBC00000DB407FE71
:104AD000FDCF8EB5289A10923B049ECB90E954CF1F
:104AE0009C013695279536952795369527952093E1
:104AF000F7008295880F807E8093F6001092F50073
:104B00001092F4002DCF9C01369527953695279568
:104B1000369527952093F3008295880F807E8093A9
:104B2000F2001092F1001092F000E2CE90E995CEE2
:104B30009C01369527953695279536952795209390
:104B4000F7008295880F807E8093F6001092F50022
:104B50001092F4006ECE9C013695279536952795D8
:104B6000369527952093F3008295880F807E809359
:104B7000F2001092F1001092F00023CE90E9D6CD11
:104B80009C01369527953695279536952795209340
:104B9000F7008295880F807E8093F6001092F500D2
:104BA0001092F400AFCD9C01369527953695279548
:104BB000369527952093F3008295880F807E809309
:104BC000F2001092F1001092F00064CD90E917CD40
:104BD0009C013695279536952795369527952093F0
:104BE000F7008295880F807E8093F6001092F50082
:104BF0001092F400F0CC9C013695279536952795B8
:104C0000369527952093F3008295880F807E8093B8
:104C1000F2001092F1001092F000A5CC90E958CC6F
:104C20009C0136952795369527953695279520939F
:104C3000F7008295880F807E8093F6001092F50031
:104C40001092F40031CC9C01369527953695279526
:104C5000369527952093F3008295880F807E809368
:104C6000F2001092F1001092F000E6CBCF93DF93A8
:104C7000CDB7DEB7A0970FB6F894DEBF0FBECDBF9D
:104C80000E94500E0E94C31D9E012F5F3F4F59018D
:104C90008091380481112CC080910E04813009F478
:104CA000A5C008F446C1823009F441C3833009F03D
:104CB0009DC060E07FEF8FEF9FEF0E94891667E055
:104CC00070E080E096E20E94891660E070E0CB011F
:104CD0000E94891661E07FEF8FEF9FEF0E94891697
:104CE0008AE394E00E949E13809138048823A1F205
:104CF000E0913904F0E0EA50FC4F008180913904E2
:104D000010E0813009F4E1C308F4F7C3823059F4AC
:104D1000F801EE0FFF1FE351FD4F6591749140E2E2
:104D200050E0C501C7D5CC24CA94DC2CEC2C44E05F
:104D3000F42E412C512C612C52E0752E60E07FEF57
:104D40008FEF9FEF0E94891667E070E080E096E2A7
:104D50000E948916C301B2010E94891667E070E0C3
:104D600080E096E20E948916C701B6010E9489166A
:104D70001F930F938FEA91E09F938F9386E08F9319
:104D80001F9280E28F931F9288E88F931F9280EF8B
:104D90008F930AE314E01F930F930E94881ABF9227
:104DA000AF9282EB91E09F938F931F921F928FE1BE
:104DB0008F931F9289E18F931F928F931F930F936D
:104DC0000E94881A60E070E0CB010E94891661E0C1
:104DD0007FEF8FEF9FEF0E948916C8010E949E13FC
:104DE0000FB6F894DEBF0FBECDBF52CF8091340412
:104DF000833009F42CC308F40AC3843009F447C390
:104E0000853009F035C30E940A0E28E532E040E003
:104E100050E0D4D3633C71408105910508F485C30B
:104E2000412C55245A94652CA2E07A2EC12CDD2405
:104E3000DA94ED2CB4E0FB2E06E911E0992493946A
:104E400060E07FEF8FEF9FEF0E94891667E070E0D0
:104E500080E096E20E948916C701B6010E94891679
:104E60001F930F9386E08F931F928FE18F931F9272
:104E700084E48F931F9280EF8F938AE394E09F9353
:104E80008F930E94881A8091300490913104A091F0
:104E90003204B0913304E0912F040FB6F894DEBFD2
:104EA0000FBECDBFE33208F041C0F0E0EE0FFF1FB0
:104EB000E05CFD4F20813181BF93AF939F938F932F
:104EC0003F932F9386E08F931F928DE18F931F92D4
:104ED0008CEA8F931F9280EF8F938AE394E09F93E5
:104EE0008F930E944C1B0FB6F894DEBF0FBECDBF50
:104EF000992009F4EACEC301B2010E94891660E14B
:104F00007DE281E09CE10E94891660E070E080E033
:104F10009BE10E94891667E070E080E096E20E94C3
:104F2000891660E07AE283E09BE1C7CE27EB35E0AB
:104F3000C3CF60E07FEF8FEF9FEF0E94891667E09D
:104F400070E080E096E20E94891660E070E08FEFEA
:104F500094E00E94891685EB91E09F938F931F92B6
:104F60001F92EDE1DE2EDF921F921F921F92F5E05D
:104F7000FF2EFF920AE314E01F930F930E94881AFA
:104F80006FEF7FEF8FEF94E00E94891680912304EA
:104F900090912404A0912504B0912604BF93AF936F
:104FA0009F938F9383EC91E09F938F931F921F9217
:104FB000ACE1EA2EEF921F928EE18F931F92FF9247
:104FC0001F930F930E94881A8091270490912804C0
:104FD000A0912904B0912A04BF93AF939F938F931C
:104FE00082ED91E09F938F931F921F92EF921F92F9
:104FF00087E38F931F92FF921F930F930E94881A4B
:1050000080912B0490912C04A0912D04B0912E043A
:105010000FB6F894DEBF0FBECDBFBF93AF939F9383
:105020008F9381EE91E09F938F931F921F92EF9247
:105030001F9280E58F931F92FF921F930F930E9400
:10504000881A80911F0490912004A0912104B091AE
:105050002204BF93AF939F938F9381EF91E09F932F
:105060008F931F921F92EF921F9289E68F931F9248
:10507000FF921F930F930E94881A60E070E08FEFF9
:1050800094E00E94891680E092E09F938F931F9294
:105090001F92DF921F928CE88F931F92FF921F93B3
:1050A0000F930E94881A0FB6F894DEBF0FBECDBFD3
:1050B0006FEF7FEF8FEF94E00E94891680910F04CD
:1050C00090911004A0911104B0911204BF93AF937A
:1050D0009F938F938BE092E09F938F931F921F92E9
:1050E000EF921F928AEA8F931F92FF921F930F9362
:1050F0000E94881A8091130490911404A0911504C1
:10510000B0911604BF93AF939F938F9388E192E081
:105110009F938F931F921F92EF921F9283EC8F9316
:105120001F92FF921F930F930E94881A8091170479
:1051300090911804A0911904B0911A04BF93AF93F1
:105140009F938F938DE292E09F938F931F921F9274
:10515000EF921F928CED8F931F92FF921F930F93EC
:105160000E94881A0FB6F894DEBF0FBECDBF6FEF56
:105170007FEF8FEF94E00E9489164AE05FEF6FEFB8
:105180007FEFC8010E94791740E050E06FEF70E0B8
:10519000C8010E94791749E05FEF6FEF7FEFC80108
:1051A0000E94791740E050E06FEF70E0C8010E9464
:1051B0007917C0900F04D0901004E0901104F09083
:1051C000120440E15FEF6FEF7FEFC8010E94791793
:1051D0004EEA51E064E170E0C8010E94791744E1B1
:1051E00050E064EB70E0C8010E947917C701B60176
:1051F00024D2B4E6EB2EF12CA701461B570B60E03E
:1052000070E0BA0155274427C8010E94791744E687
:1052100050E060E070E0C8010E94791760E070E043
:105220008FEF94E00E9489168CE392E09F938F9316
:1052300096E0892E8F921F922FE1922E9F921F92BD
:1052400030EFC32ECF92DD24D394DF9288EB8F937F
:105250001F930F930E94881A6FEF7FEF8FEF94E0F8
:105260000E9489164AE05FEF6FEF7FEFC8010E944E
:10527000791740E050E06FEF70E0C8010E947917A5
:1052800049E05FEF6FEF7FEFC8010E94791740E0C0
:1052900050E06FEF70E0C8010E947917409013044E
:1052A00050901404609015047090160440E15FEF74
:1052B0006FEF7FEFC8010E9479174AE451E064E183
:1052C00070E0C8010E94791744E150E064EB70E09F
:1052D000C8010E947917C301B201AFD1A701461BD3
:1052E000570B60E070E0BA0155274427C8010E94BF
:1052F000791744E650E060E070E0C8010E94791739
:1053000060E070E08FEF94E00E9489168EE392E0F7
:105310009F938F938F921F929F921F92CF92DF92B3
:1053200084E58F931F930F930E94881A4BCD60E002
:105330007FEF8FEF9FEF0E94891667E070E080E0BB
:1053400096E20E94891686E1E1E6F1E0D50101903E
:105350000D928A95E1F76FEF7FEF8FEF94E00E9457
:105360008916750100E016E02DE142E250E060EFA1
:1053700070E08AE394E00E94D31960E070E08FEF60
:1053800094E00E94891689E491E09F938F9386E0D0
:105390008F931F928DE18F931F9288E88F931F92B6
:1053A00080EF8F938AE394E09F938F930E94881AF3
:1053B0006FEF7FEF8FEF94E00E94891661E070E05D
:1053C00080E09FE10E94891640E050EF6DE07FE8A9
:1053D0008AE394E00E94791760E070E080E091E257
:1053E0000E94891660E070E0CB010E94891661E09E
:1053F0007FEF8FEF9FEF0E9489168AE394E00E946F
:105400009E130FB6F894DEBF0FBECDBF41CC8130E6
:1054100078F10E940A0E24EF31E040E050E0CED057
:10542000992493946B3F71058105910508F4912CA3
:10543000412C55245A94652C42E0742EC12CDD2455
:10544000DA94ED2C54E0F52E06E811E0F9CC412C6D
:1054500055245A94652C62E0762EC12CDD24DA9412
:10546000ED2C74E0F72E07E711E099249394E8CC33
:10547000412C512C612C12E0712EC12CD12CE12C2D
:1054800004E0F02E0EE911E099249394D9CC0E9407
:105490000A0E24EF31E040E050E090D0992493943C
:1054A0006B3F71058105910508F4912C412C512C1D
:1054B00066246A9422E0722EC12CD12CEE24EA9448
:1054C00034E0F32E0FE811E0BBCCF801EE0FFF1F24
:1054D000EA57FD4F6591749140E250E0C501EAD171
:1054E000CC24CA94D12CE12C24E0F22E412C55245A
:1054F0005A94652C32E0732E21CCF801EE0FFF1F79
:10550000E358FC4F6591749140E250E0C501D2D15F
:10551000CC24CA94DC2CE12CB4E0FB2E412C512C81
:1055200066246A9482E0782E09CC0E940A0E28E54F
:1055300032E040E050E042D06D327140810591058B
:1055400088F0412C55245A94612CE2E07E2EC12C27
:10555000DD24DA94E12CF4E0FF2E06E911E0992431
:1055600093946ECC0E940A0E28E532E040E050E0B1
:1055700025D0673971058105910578F0412C512CB2
:10558000612C82E0782EC12CD12CE12C94E0F92EF4
:1055900006E911E09924939453CC412C512C6624B4
:1055A0006A9462E0762EC12CD12CEE24EA9474E049
:1055B000F72E06E911E09924939442CCA1E21A2E29
:1055C000AA1BBB1BFD010DC0AA1FBB1FEE1FFF1FA7
:1055D000A217B307E407F50720F0A21BB30BE40BF7
:1055E000F50B661F771F881F991F1A9469F760953E
:1055F0007095809590959B01AC01BD01CF010895F8
:105600000DD0A59F900DB49F900DA49F800D911D6E
:10561000112408950790F691E02D0994A29FB001FE
:10562000B39FC001A39F700D811D1124911DB29FD6
:10563000700D811D1124911D089533D088F09F575E
:1056400090F0B92F9927B751A0F0D1F0660F771FCE
:10565000881F991F1AF0BA95C9F712C0B13081F0AE
:105660003AD0B1E0089537C0672F782F8827B85F08
:1056700039F0B93FCCF3869577956795B395D9F70F
:105680003EF490958095709561957F4F8F4F9F4F19
:10569000089557FD9058440F551F59F05F3F71F022
:1056A0004795880F97FB991F61F09F3F79F0879589
:1056B0000895121613061406551FF2CF4695F1DF12
:1056C00008C0161617061806991FF1CF86957105A2
:1056D000610508940895E894BB2766277727CB01D6
:1056E00097F90895283008F027E03327DA01990F59
:1056F000311D87FD916000966105710539F43260B6
:105700002E5F3D9330E32A95E1F708959F3F30F0F7
:1057100080387105610509F03C5F3C5F3D93913035
:1057200008F08068911DDF93CF931F930F93FF9232
:10573000EF92192F987F9695E92F96959695E90FF8
:10574000FF27EF54F94F99273327EE24FF24A701B1
:10575000E70105900894079428F4360FE71EF81E19
:10576000491F511D660F771F881F991F0694A1F7C7
:105770000590079428F4E70EF81E491F561FC11D17
:10578000770F881F991F661F0694A1F7059007944D
:1057900028F4F80E491F561FC71FD11D880F991FE7
:1057A000661F771F0694A1F70590079420F4490F10
:1057B000561FC71FD81F990F661F771F881F069493
:1057C000A9F784911095177041F0D695C795579514
:1057D0004795F794E7941A95C1F7E7E5F6E06894E2
:1057E0001590159135916591959105907FE273958E
:1057F000E118F10A430B560BC90BD009C0F7E10CB5
:10580000F11E431F561FC91FD01D7EF4703311F4C3
:105810008A95E6CFE894015030F0080F0AF400278B
:10582000021708F4202F2395022F7A3328F079E30A
:105830007D932A95E9F710C07D932A9589F6069401
:1058400097956795379517951794E118F10A430BCB
:10585000560BC90BD00998F023957E9173957A3336
:1058600008F070E37C932013B8F77E9170617D930C
:1058700030F0839571E37D9370E32A95E1F711246D
:10588000EF90FF900F911F91CF91DF91992787FDA6
:1058900090950895FB01DC0102C005900D924150E6
:1058A0005040D8F70895FB01DC0105900D920020CF
:1058B000E1F70895FB01DC014150504048F00590AC
:1058C0000D920020C9F701C01D9241505040E0F7F1
:1058D0000895FC010590615070400110D8F7809543
:1058E00090958E0F9F1F0895FC01615070400190AC
:1058F0000110D8F7809590958E0F9F1F08950F93F4
:105900001F93CF93DF93182F092FEB018B8181FD1C
:1059100003C08FEF9FEF20C082FF10C04E815F81D8
:105920002C813D81421753077CF4E881F9819F0166
:105930002F5F3F4F39832883108306C0E885F985A0
:10594000812F0995892B29F72E813F812F5F3F4FAA
:105950003F832E83812F902FDF91CF911F910F9145
:1059600008950F931F93CF93DF93CDB7DEB72E9794
:105970000FB6F894DEBF0FBECDBF8C01CA0146E062
:105980004C831A83098377FF02C060E070E861509E
:1059900071097E836D83A901BC01CE0101960E942D
:1059A000DC034D815E8157FD0AC02F813885421787
:1059B00053070CF49A01F801E20FF31F10822E96A0
:1059C0000FB6F894DEBF0FBECDBFDF91CF911F9110
:1059D0000F910895FA01AA27283051F1203181F161
:1059E000E8946F936E7F6E5F7F4F8F4F9F4FAF4FE7
:1059F000B1E03ED0B4E03CD0670F781F891F9A1FFA
:105A0000A11D680F791F8A1F911DA11D6A0F711DAD
:105A1000811D911DA11D20D009F468943F912AE0B9
:105A2000269F11243019305D3193DEF6CF010895A1
:105A3000462F4770405D4193B3E00FD0C9F7F6CFD2
:105A4000462F4F70405D4A3318F0495D31FD40529A
:105A5000419302D0A9F7EACFB4E0A6959795879530
:105A600077956795BA95C9F700976105710508950F
:105A70009B01AC010A2E06945795479537952795BB
:105A8000BA95C9F7620F731F841F951FA01D089553
:045A9000F894FFCFB8
:105A9400000049042000010000000000000207008B
:105AA40000260000000000000000D407E30983077B
:105AB4009B078007C6074572726F7220696E206368
:105AC40068697020696420726561642000496E69A8
:105AD40074204661696C65640057414954494E47D6
