:100000004CC00000D2C700000C9411080C944D089D
:100010000C9489080C94C5080C9401090C943D09B2
:100020000C94790969C0000067C0000065C0000039
:1000300063C0000061C000005FC000005DC0000040
:100040005BC000000C94BC0957C0000055C0000004
:1000500053C00000E0C000004FC000004DC00000D1
:100060004BC0000049C0000047C0000045C0000070
:1000700043C0000041C000003FC000003DC0000080
:1000800005C1000039C0000037C0000035C00000C5
:1000900033C00000FD051F172B1711241FBECFEF23
:1000A000D0E1DEBFCDBF11E0A0E0B1E0E0E2FFE2D1
:1000B00000E00BBF02C007900D92A639B107D9F737
:1000C00023E0A6E9B1E001C01D92A630B207E1F736
:1000D00010E0C8E9D0E000E006C022970109FE0167
:1000E0000BBF0E946317C439D10780E00807A9F746
:1000F0000E94070F0C947F1783CFCF93DF9300D01C
:10010000CDB7DEB79A83898389819A8121E931E06D
:10011000FC013183208389819A81FC011382128240
:100120000F900F90DF91CF910895CF93DF9300D080
:10013000CDB7DEB79A83898389819A81DEDF898191
:100140009A8121E831E0FC013183208329813A81C1
:1001500088EE93E0A0E0B0E0F90184839583A68364
:10016000B7830F900F90DF91CF910895CF93DF93D6
:1001700000D0CDB7DEB79A83898380E090E00F90FE
:100180000F90DF91CF910895CF93DF9300D000D0EF
:100190001F92CDB7DEB78B837D836C838C819D816D
:1001A00080589F4FFC018081918101968F779078D4
:1001B000992324F4019780689F6F01969A8389831D
:1001C0008C819D818E579F4FFC01208131818981D7
:1001D0009A8128173907B9F08C819D8180589F4FEB
:1001E000FC01808191812C813D81820F931F2B81A5
:1001F000FC0120838C819D8180589F4F29813A8109
:10020000FC01318320830F900F900F900F900F907F
:10021000DF91CF9108951F920F9200905F000F928F
:10022000112400905B000F922F933F934F935F93A5
:100230006F937F938F939F93AF93BF93EF93FF93AE
:10024000CF93DF931F92CDB7DEB786EC90E0FC0131
:100250008081898366E971E0898196DF0F90DF9163
:10026000CF91FF91EF91BF91AF919F918F917F912E
:100270006F915F914F913F912F910F9000925B0092
:100280000F9000925F000F901F9018951F920F9291
:1002900000905F000F92112400905B000F922F934B
:1002A0003F934F935F936F937F938F939F93AF93FE
:1002B000BF93EF93FF93CF93DF931F92CDB7DEB73A
:1002C0008EEC90E0FC01808189836AE172E0898193
:1002D0005BDF0F90DF91CF91FF91EF91BF91AF91D5
:1002E0009F918F917F916F915F914F913F912F914E
:1002F0000F9000925B000F9000925F000F901F9094
:1003000018958F92AF92CF92DF92EF92FF920F9358
:100310001F93CF93DF93CDB7DEB760970FB6F894F6
:10032000DEBF0FBECDBF9A8389837C836B835E83E0
:100330004D8338872F831A870987FC86EB86DE86F4
:10034000CD86AF86888A89819A81EFDE89819A81FC
:1003500021E731E0FC013183208389819A812B815F
:100360003C81FC013587248789819A812D813E81DA
:10037000FC013787268789819A812F813885FC0186
:10038000318B208B89819A8129853A85FC01338BB9
:10039000228B89819A812B853C85FC01358B248BAE
:1003A00089819A812D853E85FC01378B268B898139
:1003B0009A812F85FC01208F89819A812889FC01EF
:1003C000218F89819A812D8DFC01228F89819A81CB
:1003D0002E8DFC01238F89819A812F8DFC01248F22
:1003E00060960FB6F894DEBF0FBECDBFDF91CF9100
:1003F0001F910F91FF90EF90DF90CF90AF908F9073
:100400000895CF93DF93CDB7DEB7CB55D1090FB6A3
:10041000F894DEBF0FBECDBF9F838E834887598778
:100420006A877B8788859985AA85BB85853224EF75
:100430009207A105B10518F081E08B83C1C1288521
:1004400039854A855B8588E498EEA1E0B0E0BC017F
:10045000CD010E943717DA01C9010197A109B1093D
:10046000B695A795979587950196A11DB11D880F03
:10047000991FAA1FBB1F880F991FAA1FBB1F880F98
:10048000991FAA1FBB1F880F991FAA1FBB1F9C0182
:10049000AD0180E492E4AFE0B0E0BC01CD010E9488
:1004A0003717DA01C9019C01AD018FEF90E0DC0143
:1004B0000E945917DC01CB01288539854A855B8567
:1004C000BC01CD010E943717DA01C9012FEF30E0DE
:1004D000A901481B590BCA01181619060CF049C08E
:1004E000288539854A855B8588E498EEA1E0B0E0EF
:1004F000BC01CD010E943717DA01C9010197A1099A
:10050000B109B695A795979587950196A11DB11D3F
:10051000880F991FAA1FBB1F880F991FAA1FBB1FF7
:10052000880F991FAA1FBB1F880F991FAA1FBB1FE7
:100530009C01AD0180E492E4AFE0B0E0BC01CD01EC
:100540000E943717DA01C9019C01AD018FEF90E0DD
:10055000DC010E945917DC01CB01288539854A85C9
:100560005B85BC01CD010E943717DA01C901809576
:1005700048C0288539854A855B8588E498EEA1E0E6
:10058000B0E0BC01CD010E943717DA01C901019723
:10059000A109B109B695A795979587950196A11DD3
:1005A000B11D880F991FAA1FBB1F880F991FAA1F73
:1005B000BB1F880F991FAA1FBB1F880F991FAA1F57
:1005C000BB1F9C01AD0180E492E4AFE0B0E0BC0150
:1005D000CD010E943717DA01C9019C01AD018FEFEF
:1005E00090E0DC010E945917DC01CB012885398598
:1005F0004A855B85BC01CD010E943717DA01C9012C
:100600008F5F8C83288539854A855B8580E990EDED
:10061000A3E0B0E0BC01CD010E943717DA01C901A7
:100620000197A109B109B695A79597958795019668
:10063000A11DB11D880F991FAA1FBB1F880F991FED
:10064000AA1FBB1F880F991FAA1FBB1F9C01AD01CA
:1006500080E492E4AFE0B0E0BC01CD010E94371726
:10066000DA01C9019C01AD018FEF90E0DC010E942D
:100670005917DC01CB01288539854A855B85BC018A
:10068000CD010E943717DA01C9012FEF30E0F901DF
:10069000E81BF90BCF01181619060CF045C0288588
:1006A00039854A855B8580E990EDA3E0B0E0BC0127
:1006B000CD010E943717DA01C9010197A109B109DB
:1006C000B695A795979587950196A11DB11D880FA1
:1006D000991FAA1FBB1F880F991FAA1FBB1F880F36
:1006E000991FAA1FBB1F9C01AD0180E492E4AFE0FB
:1006F000B0E0BC01CD010E943717DA01C9019C01AD
:10070000AD018FEF90E0DC010E945917DC01CB01B5
:10071000288539854A855B85BC01CD010E94371744
:10072000DA01C901809544C0288539854A855B85F1
:1007300080E990EDA3E0B0E0BC01CD010E94371745
:10074000DA01C9010197A109B109B695A795979555
:1007500087950196A11DB11D880F991FAA1FBB1F68
:10076000880F991FAA1FBB1F880F991FAA1FBB1FA5
:100770009C01AD0180E492E4AFE0B0E0BC01CD01AA
:100780000E943717DA01C9019C01AD018FEF90E09B
:10079000DC010E945917DC01CB01288539854A8587
:1007A0005B85BC01CD010E943717DA01C9018F5F5B
:1007B0008D8381E02C819D81921708F080E08B83EE
:1007C0008B81882361F18E819F81FC0182899389CD
:1007D0002E813F81F901248D422F50E021E030E04D
:1007E00002C0220F331F4A95E2F7FC0120832885BF
:1007F00039854A855B8580E990EDA3E0B0E0BC01D6
:10080000CD010E943717DA01C9010197A109B10989
:10081000B695A795979587959A8389831EC08E81F3
:100820009F81FC0182899389FC011082288539858A
:100830004A855B8588E498EEA1E0B0E0BC01CD017B
:100840000E943717DA01C9010197A109B109B695CC
:10085000A795979587959A8389838E819F81FC01BF
:100860008685978529813A81232F3327FC012083B0
:100870008E819F81FC01808991892981FC012083DF
:100880008E819F81FC01848995892E813F81F901A8
:1008900024893589F9012081622F2E813F81F90158
:1008A000208D422F50E021E030E002C0220F331FA4
:1008B0004A95E2F7262BFC0120838E819F81FC0163
:1008C000848995892E813F81F90124893589F9012F
:1008D0002081622F2E813F81F901218D422F50E02E
:1008E00021E030E002C0220F331F4A95E2F7262BA9
:1008F000FC0120838E819F81FC01848995892E8152
:100900003F81F90124893589F9012081622F2E81E7
:100910003F81F901228D422F50E021E030E0042E8A
:1009200002C0220F331F0A94E2F7262BFC0120831A
:10093000C55ADF4F0FB6F894DEBF0FBECDBFDF91B3
:10094000CF910895CF93DF9300D0CDB7DEB79A83D0
:10095000898389819A81FC018485958580589F4F80
:10096000FC01808191819C0120583F4F89819A81AF
:10097000FC01848595858E579F4FFC018081918174
:10098000A901481B590BCA018F779078992324F449
:10099000019780689F6F01960F900F90DF91CF9124
:1009A0000895CF93DF9300D01F92CDB7DEB79B831E
:1009B0008A838A819B81FC018485958580589F4F1D
:1009C000FC01208131818A819B81FC018485958590
:1009D0008E579F4FFC01808191812817390719F4A8
:1009E0008FEF9FEF36C08A819B81FC01248535857E
:1009F0008A819B81FC01848595858E579F4FFC01E0
:100A000080819181820F931FFC01808189838A817B
:100A10009B81FC01448555858A819B81FC018485ED
:100A200095858E579F4FFC018081918101968F772C
:100A30009078992324F4019780689F6F01969C0118
:100A4000CA018E579F4FFC01318320838981882FF3
:100A500090E00F900F900F90DF91CF910895CF937A
:100A6000DF9300D0CDB7DEB79A83898389819A81DD
:100A7000FC018485958529813A81F9012485358594
:100A80002E573F4FF9012081318180589F4FFC0143
:100A9000318320830F900F90DF91CF910895CF93F2
:100AA000DF9300D01F92CDB7DEB79A8389836B8323
:100AB000000089819A81FC0182899389FC018081EF
:100AC000882F90E029813A81F901238D222F30E08F
:100AD00002C0959587952A95E2F78170992721E0C4
:100AE000009709F020E0222321F789819A81FC01F7
:100AF000868997892B81FC01208381E090E00F900B
:100B00000F900F90DF91CF9108958F92AF92CF9277
:100B1000DF92EF92FF920F931F93CF93DF9300D05A
:100B200000D0CDB7DEB79A8389837C836B838981BC
:100B30009A818130910509F051C08B819C818F3F52
:100B40002FEF920709F04AC081E08F9385E08F93E1
:100B500087E08F930F2EF3E08F2EF02D6894AA2458
:100B6000A2F80F2EF6ECCF2ED12CF02D0F2EF1EC9B
:100B7000EF2EF12CF02D00EC10E024EC30E045ECF1
:100B800050E066E971E08EE992E0BBDB0F900F90D8
:100B90000F9081E08F9385E08F9387E08F930F2EE6
:100BA000F3E08F2EF02D6894AA24A2F80F2EFEEC0D
:100BB000CF2ED12CF02D0F2EF9ECEF2EF12CF02DA5
:100BC00008EC10E02CEC30E04DEC50E06AE172E013
:100BD0008BEB92E096DB0F900F900F900F900F90A1
:100BE0000F900F90DF91CF911F910F91FF90EF9099
:100BF000DF90CF90AF908F900895CF93DF93CDB7D4
:100C0000DEB76FEF7FEF81E090E07FDFDF91CF9184
:100C100008950F931F93CF93DF9300D000D0CDB7EB
:100C2000DEB79A8389837C836B8389819A81FC01F7
:100C3000808191810296FC01008111818B819C81D0
:100C40000E947617AC012B813C8189819A81B90180
:100C5000F80109950F900F900F900F90DF91CF91B1
:100C60001F910F910895CF93DF93CDB7DEB72897EB
:100C70000FB6F894DEBF0FBECDBF9C838B837E83FF
:100C80006D8358874F831A8219821CC08B819C8187
:100C9000FC0180819181FC01208131818D819E81C7
:100CA000AC014F5F5F4F5E834D83FC0140818B81C0
:100CB0009C81642FF901099529813A81820F931F44
:100CC0009A8389838F8198859C01215031093887C7
:100CD0002F8321E0009709F420E02223B9F68981CF
:100CE0009A8128960FB6F894DEBF0FBECDBFDF9174
:100CF000CF910895CF93DF9300D000D0CDB7DEB76A
:100D00009A8389837C836B832B813C8189819A813F
:100D1000B9017FDF0F900F900F900F90DF91CF916F
:100D20000895CF93DF9300D01F92CDB7DEB79A839B
:100D300089836B8389819A81FC0180819181FC0187
:100D40002081318189819A816B81F90109950F9008
:100D50000F900F90DF91CF910895CF93DF93CDB790
:100D6000DEB728970FB6F894DEBF0FBECDBF9A83CB
:100D700089834B835C836D837E8338872F838F8148
:100D80009885009779F489819A81FC01808191810D
:100D9000FC01208131814B8189819A81642FF90185
:100DA00009950BC02F818B819C81AD81BE81E9812A
:100DB000FA81AC01BD01CF0185D028960FB6F89419
:100DC000DEBF0FBECDBFDF91CF910895CF93DF93EC
:100DD00000D000D0CDB7DEB79C838B838B819C8104
:100DE0006DE09FDF9A8389838B819C816AE099DF24
:100DF00029813A81820F931F9A83898389819A81FD
:100E00000F900F900F900F90DF91CF910895CF9397
:100E1000DF9300D000D000D0CDB7DEB79C838B83AA
:100E20007E836D832D813E818B819C81B90162DF40
:100E30009A8389838B819C81C9DF29813A81820FC2
:100E4000931F9A83898389819A8126960FB6F89495
:100E5000DEBF0FBECDBFDF91CF910895CF93DF935B
:100E6000CDB7DEB72A970FB6F894DEBF0FBECDBF61
:100E70009C838B834D835E836F8378873A87298732
:100E800029853A858D819E81AF81B885EB81FC8172
:100E9000AC01BD01CF0161DF9A8389838B819C8185
:100EA00095DF29813A81820F931F9A8389838981F3
:100EB0009A812A960FB6F894DEBF0FBECDBFDF91A0
:100EC000CF910895CF93DF93CDB7DEB7E3970FB6F9
:100ED000F894DEBF0FBECDBF9AA789A74BA75CA72A
:100EE0006DA77EA72FA780E290E09E01285F3F4F6D
:100EF000820F931F9A83898389819A81FC011082D2
:100F00008FA5823010F48AE08FA78BA59CA5ADA594
:100F1000BEA58B839C83AD83BE838FA5282F30E035
:100F200040E050E08BA59CA5ADA5BEA5BC01CD01C0
:100F30000E943717DA01C9018BA79CA7ADA7BEA7EE
:100F40009B812BA58FA5289F802D1124F92FF81B9D
:100F50008F2F8F8389819A8101979A8389838F81CB
:100F60008A3020F48F8120E3280F03C08F8127E38C
:100F7000280F89819A81FC0120838BA59CA5ADA5B2
:100F8000BEA50097A105B10509F0BFCF29813A811F
:100F900089A59AA5B9013DDEE3960FB6F894DEBFA8
:100FA0000FBECDBFDF91CF9108951F920F92009099
:100FB0005F000F92112400905B000F922F933F93DC
:100FC0004F935F936F937F938F939F93AF93BF9351
:100FD000EF93FF93CF93DF93CDB7DEB78091D80225
:100FE0009091D902009731F08091D8029091D90266
:100FF000FC010995DF91CF91FF91EF91BF91AF91E6
:101000009F918F917F916F915F914F913F912F9120
:101010000F9000925B000F9000925F000F901F9066
:1010200018951F920F9200905F000F92112400906C
:101030005B000F922F933F934F935F936F937F9338
:101040008F939F93AF93BF93EF93FF93CF93DF93D0
:10105000CDB7DEB78091DA029091DB02009731F0D4
:101060008091DA029091DB02FC010995DF91CF912A
:10107000FF91EF91BF91AF919F918F917F916F9170
:101080005F914F913F912F910F9000925B000F90D5
:1010900000925F000F901F9018951F920F92009082
:1010A0005F000F92112400905B000F922F933F93EB
:1010B0004F935F936F937F938F939F93AF93BF9360
:1010C000EF93FF93CF93DF93CDB7DEB78091DC0230
:1010D0009091DD02009731F08091DC029091DD0269
:1010E000FC010995DF91CF91FF91EF91BF91AF91F5
:1010F0009F918F917F916F915F914F913F912F9130
:101100000F9000925B000F9000925F000F901F9075
:1011100018951F920F9200905F000F92112400907B
:101120005B000F922F933F934F935F936F937F9347
:101130008F939F93AF93BF93EF93FF93CF93DF93DF
:10114000CDB7DEB78091DE029091DF02009731F0DB
:101150008091DE029091DF02FC010995DF91CF9131
:10116000FF91EF91BF91AF919F918F917F916F917F
:101170005F914F913F912F910F9000925B000F90E4
:1011800000925F000F901F9018951F920F92009091
:101190005F000F92112400905B000F922F933F93FA
:1011A0004F935F936F937F938F939F93AF93BF936F
:1011B000EF93FF93CF93DF93CDB7DEB78091E0023B
:1011C0009091E102009731F08091E0029091E1026C
:1011D000FC010995DF91CF91FF91EF91BF91AF9104
:1011E0009F918F917F916F915F914F913F912F913F
:1011F0000F9000925B000F9000925F000F901F9085
:1012000018951F920F9200905F000F92112400908A
:101210005B000F922F933F934F935F936F937F9356
:101220008F939F93AF93BF93EF93FF93CF93DF93EE
:10123000CDB7DEB78091E2029091E302009731F0E2
:101240008091E2029091E302FC010995DF91CF9138
:10125000FF91EF91BF91AF919F918F917F916F918E
:101260005F914F913F912F910F9000925B000F90F3
:1012700000925F000F901F9018951F920F920090A0
:101280005F000F92112400905B000F922F933F9309
:101290004F935F936F937F938F939F93AF93BF937E
:1012A000EF93FF93CF93DF93CDB7DEB78091E40246
:1012B0009091E502009731F08091E4029091E5026F
:1012C000FC010995DF91CF91FF91EF91BF91AF9113
:1012D0009F918F917F916F915F914F913F912F914E
:1012E0000F9000925B000F9000925F000F901F9094
:1012F00018951F920F9200905F000F92112400909A
:101300005B000F922F933F934F935F936F937F9365
:101310008F939F93AF93BF93EF93FF93CF93DF93FD
:10132000CDB7DEB78091E6029091E702009731F0E9
:101330008091E6029091E702FC010995DF91CF913F
:10134000FF91EF91BF91AF919F918F917F916F919D
:101350005F914F913F912F910F9000925B000F9002
:1013600000925F000F901F901895CF93DF93CDB739
:10137000DEB7DF91CF9108951F920F9200905F002A
:101380000F9211248F939F93AF93BF93CF93DF93CB
:10139000CDB7DEB72597DEBFCDBF8091EC0290912F
:1013A000ED02A091EE02B091EF0289839A83AB83A4
:1013B000BC838091F0028D8389819A81AB81BC814D
:1013C0004096A11DB11D89839A83AB83BC838D8117
:1013D000805D8D838D818D3770F08D818D578D83EC
:1013E00089819A81AB81BC810196A11DB11D898340
:1013F0009A83AB83BC838D818093F00289819A812B
:10140000AB81BC818093EC029093ED02A093EE023D
:10141000B093EF028091E8029091E902A091EA0274
:10142000B091EB020196A11DB11D8093E80290934B
:10143000E902A093EA02B093EB020F900F900F9095
:101440000F900F90DF91CF91BF91AF919F918F91AE
:101450000F9000925F000F901F901895CF93DF932D
:1014600000D000D01F92CDB7DEB78FE590E0FC0131
:1014700080818983F8948091EC029091ED02A09193
:10148000EE02B091EF028A839B83AC83BD838FE52C
:1014900090E02981FC0120838A819B81AC81BD8100
:1014A000BC01CD010F900F900F900F900F90DF9126
:1014B000CF910895CF93DF93CDB7DEB728970FB6BE
:1014C000F894DEBF0FBECDBF6D837E838F83988778
:1014D000C5DFDC01CB0189839A83AB83BC83000029
:1014E000BDDF9B01AC0189819A81AB81BC81281B46
:1014F000390B4A0B5B0B8D819E81AF81B8858217BA
:101500009307A407B50760F728960FB6F894DEBFD7
:101510000FBECDBFDF91CF910895CF93DF931F9280
:10152000CDB7DEB78FE590E0FC0180818983F89428
:101530008091F1028823B1F585E290E025E230E068
:10154000F90120812160FC01208384E290E024E203
:1015500030E0F90120812160FC0120838CE490E0DF
:101560002CE430E0F90120812061FC0120838CE42F
:1015700090E02CE430E0F90120812064FC0120831C
:1015800084E290E024E230E0F90120812260FC0155
:10159000208384E290E024E230E0F901208124609D
:1015A000FC0120838091F1028F5F8093F1028FE52F
:1015B00090E02981FC0120830F90DF91CF91089565
:1015C000CF93DF931F92CDB7DEB789838EE490E08F
:1015D0002981FC012083000000008DE490E0FC01E3
:1015E00080818095881F8827881F8823B1F78EE423
:1015F00090E0FC0180810F90DF91CF910895CF930F
:10160000DF931F92CDB7DEB789838981882351F498
:101610008CE490E02CE430E0F90120812062FC01B0
:10162000208309C08CE490E02CE430E0F9012081B3
:101630002F7DFC0120830F90DF91CF910895CF93F0
:10164000DF931F92CDB7DEB789838CE490E02CE462
:1016500030E0F9012081322F337F2981232BFC01D7
:1016600020830F90DF91CF910895CF93DF931F9246
:10167000CDB7DEB789838CE490E02CE430E0F9014B
:101680002081322F3C7F29812370232BFC01208372
:101690008DE490E02DE430E0F9012081422F4E7F6F
:1016A0002981222F30E03595279535952795217092
:1016B000242BFC0120830F90DF91CF910895CF93CD
:1016C000DF9300D0CDB7DEB79A8389830F900F9058
:1016D000DF91CF910895CF93DF93CDB7DEB72797F2
:1016E0000FB6F894DEBF0FBECDBF9A8389837C838B
:1016F0006B835E834D832F8389819A812F81FC01C7
:10170000208389819A812B813C81FC013283218352
:1017100089819A812D813E81FC0134832383279620
:101720000FB6F894DEBF0FBECDBFDF91CF91089505
:10173000CF93DF9300D0CDB7DEB79A8389830F9024
:101740000F90DF91CF910895CF93DF9300D0CDB765
:10175000DEB79A83898389819A81FC018381948190
:1017600029813A81F90123813481F901408129815C
:101770003A81F9012081242BFC01208389819A81FF
:10178000FC018181928129813A81F9012181328193
:10179000F901408129813A81F9012081242BFC0142
:1017A0002083BBDE84E061DF81E029DF80E047DF6A
:1017B0000F900F90DF91CF910895CF93DF9300D0DA
:1017C00000D000D0CDB7DEB79A8389834B835C838A
:1017D0006D837E838B819C81AD81BE81803422E4C8
:1017E00092072FE0A207B10518F486E03EDF02C0A1
:1017F00084E03BDF26960FB6F894DEBF0FBECDBF68
:10180000DF91CF910895CF93DF93CDB7DEB72A97BD
:101810000FB6F894DEBF0FBECDBF9E838D834F837E
:10182000588769877A878F819885A985BA85898342
:101830009A83AB83BC838D819E81FC0181819281DF
:101840002D813E81F90121813281F9012081422FD0
:101850002D813E81F901208120952423FC012083E4
:101860008B81AEDE8A81ACDE8981AADE80E0A8DED3
:101870002A960FB6F894DEBF0FBECDBFDF91CF9191
:101880000895CF93DF93CDB7DEB72A970FB6F894BC
:10189000DEBF0FBECDBF9E838D834F835887698780
:1018A0007A878F819885A985BA8589839A83AB8346
:1018B000BC838D819E81FC01818192812D813E813D
:1018C000F90121813281F9012081422F2D813E8150
:1018D000F901208120952423FC0120838B818068DD
:1018E0006FDE8A816DDE89816BDE2A960FB6F894F1
:1018F000DEBF0FBECDBFDF91CF910895CF93DF93B1
:10190000CDB7DEB727970FB6F894DEBF0FBECDBFB9
:101910009B838A834C835D836E837F838C819D81CF
:10192000AE81BF812A813B81AC01BD01C9016BDF62
:1019300080E046DE89838A819B8162D189812796F6
:101940000FB6F894DEBF0FBECDBFDF91CF910895E3
:10195000CF93DF93CDB7DEB728970FB6F894DEBFED
:101960000FBECDBF9C838B834D835E836F8378874F
:101970008D819E81AF81B8852B813C81AC01BD01F9
:10198000C90141DF80E01CDE898380E019DE8A83A3
:101990008B819C8135D189819A8128960FB6F894E4
:1019A000DEBF0FBECDBFDF91CF910895CF93DF9300
:1019B000CDB7DEB72A970FB6F894DEBF0FBECDBF06
:1019C0009E838D834F83588769877A878F81988517
:1019D000A985BA852D813E81AC01BD01C90113DF06
:1019E00080E0EEDD898380E0EBDD8A8380E0E8DD66
:1019F0008B8380E0E5DD8C838D819E8101D189819F
:101A00009A81AB81BC81BC01CD012A960FB6F894B6
:101A1000DEBF0FBECDBFDF91CF910895CF93DF938F
:101A2000CDB7DEB727970FB6F894DEBF0FBECDBF98
:101A30009A8389834B835C836D837E832F838B8121
:101A40009C81AD81BE8129813A81AC01BD01C90172
:101A500018DF8F81B5DD89819A81D2D027960FB6A4
:101A6000F894DEBF0FBECDBFDF91CF910895CF9325
:101A7000DF93CDB7DEB72A970FB6F894DEBF0FBE5F
:101A8000CDBF9C838B834D835E836F8378873A873A
:101A9000298789859A859A8389838D819E81AF81E3
:101AA000B8852B813C81AC01BD01C901EADE898189
:101AB00087DD8A8185DD8B819C81A2D02A960FB635
:101AC000F894DEBF0FBECDBFDF91CF9108950F9385
:101AD0001F93CF93DF93CDB7DEB72E970FB6F89451
:101AE000DEBF0FBECDBF9E838D834F83588769872E
:101AF0007A870B871C872D873E878B859C85AD85D4
:101B0000BE8589839A83AB83BC838F819885A985A1
:101B1000BA852D813E81AC01BD01C901B2DE89814A
:101B20004FDD8A814DDD8B814BDD8C8149DD8D81DF
:101B30009E8166D02E960FB6F894DEBF0FBECDBF45
:101B4000DF91CF911F910F910895EF92FF920F9324
:101B50001F93CF93DF93CDB7DEB760970FB6F8949E
:101B6000DEBF0FBECDBF9E838D834F8358876987AD
:101B70007A873C872B87ED86FE860F87188B8F81AF
:101B80009885A985BA852D813E81AC01BD01C90129
:101B900078DE19821A821B821C8215C08B859C8577
:101BA0009C012F5F3F4F3C872B87FC01808108DD24
:101BB00089819A81AB81BC810196A11DB11D898368
:101BC0009A83AB83BC8329813A814B815C818D856B
:101BD0009E85AF85B889281739074A075B07F0F259
:101BE0008D819E810DD060960FB6F894DEBF0FBE3A
:101BF000CDBFDF91CF911F910F91FF90EF9008958E
:101C0000CF93DF9300D0CDB7DEB79A8389838981E4
:101C10009A81FC018181928129813A81F901218196
:101C20003281F901408129813A81F9012081242BF7
:101C3000FC0120830F900F90DF91CF910895CF93F7
:101C4000DF9300D01F92CDB7DEB79A8389836B8371
:101C50008B81B6DC0F900F900F90DF91CF9108959C
:101C6000CF93DF93CDB7DEB72A970FB6F894DEBFD8
:101C70000FBECDBF9E838D834F83588769877A8738
:101C80008F819885A985BA8589839A83AB83BC8324
:101C9000898196DC8A8194DC8B8192DC8C8190DC5A
:101CA0002A960FB6F894DEBF0FBECDBFDF91CF915D
:101CB0000895CF93DF9300D000D0CDB7DEB719825F
:101CC0001A821B821C8240E050E061E082EF92E0C9
:101CD000CDD064E170E080E090E0ECDB40E050E0EB
:101CE0006CE070E082EF92E061DEDC01CB01898381
:101CF0009A83AB83BC8389819A81AB81BC81883014
:101D000021E09207A207B105A1F06AE071E08EE937
:101D100092E00E947A0689819A81AB81BC8120E1A0
:101D200030E0AC01BD018EE992E098D881E090E00E
:101D300005C082EF92E0B5D080E090E00F900F9068
:101D40000F900F90DF91CF910895EF92FF920F9334
:101D50001F93CF93DF93CDB7DEB766970FB6F89496
:101D6000DEBF0FBECDBF26E1E1E2F1E0CE0101967C
:101D7000DC0101900D922A95E1F782EF92E0BDD04F
:101D80002FEF4FEF6FEF82EF92E0CCD0CE010196B4
:101D90007C0100E016E02DE148E850E060EF70E0E3
:101DA00082EF92E0E9D082EF92E058D182EF92E0A8
:101DB00067D166960FB6F894DEBF0FBECDBFDF9138
:101DC000CF911F910F91FF90EF900895CF93DF93E4
:101DD000CDB7DEB740E855E260E070E08EE992E012
:101DE0000E94010267E371E08EE992E010D861DFA2
:101DF00021E0009709F420E0222309F4A6DF6DE436
:101E000071E08EE992E003D8DF91CF910895CF93EE
:101E1000DF93CDB7DEB7DADF60ED77E080E090E00A
:101E200049DB82EF92E071D1FFCFCF93DF9300D0F7
:101E300000D0CDB7DEB79A8389836B834C838981C9
:101E40009A8176D189819A812B81FC0120838C81B2
:101E5000282F30E089819A81FC01348723870F90F5
:101E60000F900F900F90DF91CF910895CF93DF9354
:101E700000D000D01F92CDB7DEB79A8389836B83E1
:101E80005D834C8389819A812C813D81A9016B817D
:101E9000ABD10F900F900F900F900F90DF91CF91DB
:101EA00008951F93CF93DF9300D0CDB7DEB79A8309
:101EB000898389819A81FC018585282F30E081E022
:101EC00090E002C0880F991F2A95E2F7182F8981A8
:101ED0009A8140E954E260E170E010DD812B282F07
:101EE00089819A8140E954E260E170E097DD0F90CA
:101EF0000F90DF91CF911F910895CF93DF9300D082
:101F0000CDB7DEB79A83898389819A81BAD18981D5
:101F10009A8121E041E061E0C7D10F900F90DF91FD
:101F2000CF910895CF93DF93CDB7DEB729970FB642
:101F3000F894DEBF0FBECDBF9E838D836F8348872D
:101F400029878985898388858A838F818B8384E02B
:101F50008C8389819A81AB81BC812D813E81AC01CA
:101F6000BD01C901D4D129960FB6F894DEBF0FBECA
:101F7000CDBFDF91CF910895EF92FF920F931F9302
:101F8000CF93DF93CDB7DEB72C970FB6F894DEBFB3
:101F90000FBECDBF9B838A837D836C835F834E831B
:101FA00028871A870987FC86EB868A819B814CE00B
:101FB0005FEF6FEF7FEFABD18E819F81AA2797FDF7
:101FC000A095BA2FAC01332722278C819D81AA27A7
:101FD00097FDA095BA2FAA27BB27822B932BA42B62
:101FE000B52B2A813B81AC01BD01C90190D1898506
:101FF0009A85CC01A0E0B0E0AC0133272227888588
:10200000882F90E0A0E0B0E0AA27BB27822B932B7B
:10201000A42BB52B2A813B81AC01BD01C90177D12D
:102020008B859C8563D70196CC01A0E0B0E06B85E1
:102030007C85EA81FB819C01AD01CF01A5D189831B
:1020400089812C960FB6F894DEBF0FBECDBFDF910D
:10205000CF911F910F91FF90EF900895CF93DF9351
:1020600000D0CDB7DEB79A83898389819A81CFD199
:1020700089819A81DED10F900F90DF91CF910895E1
:10208000CF93DF9300D000D0CDB7DEB79C838B8396
:102090008B819C81FC018681882319F08B819C8136
:1020A000DBD18B819C81FC01208931898B819C81D2
:1020B00048EE54E260E170E0DADC08C089819A8180
:1020C0008F3FFFE09F0711F482E318C08B819C8152
:1020D00044EE54E260E170E03BDC9A8389838B81BB
:1020E0009C81FC018089918941E029813A812817EE
:1020F000390709F440E0442309F780E00F900F907E
:102100000F900F90DF91CF910895CF93DF9300D080
:10211000CDB7DEB79A83898389819A8147E050E001
:1021200060E076E2F4D00F900F90DF91CF910895A8
:10213000CF93DF9300D0CDB7DEB79A8389838981AF
:102140009A81BDDA89819A81FC01158289819A81FF
:10215000FC01178210861186128689819A812FEFE1
:102160003FEFFC013487238789819A81FC01118A22
:10217000108A89819A812CEF3FE0FC01338B228BFE
:1021800089819A8127E0FC01258789819A8121E054
:10219000FC01268789819A81FC01168284E290E005
:1021A000FC018081882F90E0AC0185E290E0FC0189
:1021B0008081882F90E0BC0189819A8120E08BDAB0
:1021C0000F900F90DF91CF910895CF93DF9300D0C0
:1021D000CDB7DEB79A83898389819A81A9DA0F9076
:1021E0000F90DF91CF910895CF93DF9300D000D06F
:1021F0001F92CDB7DEB79A8389836B835D834C834F
:1022000089819A81FC01838594858F3FFFEF9F0729
:1022100049F08DE290E02DE230E0F9012081287F45
:10222000FC01208389819A818FDA89819A813DD14D
:1022300089819A816B8148D18C819D818170992798
:10224000009741F089819A8148E450E060E070E0B5
:10225000B3D207C089819A8144E450E060E070E025
:10226000ABD289819A8140E45FE660E471E0A5DA4F
:1022700080E00F900F900F900F900F90DF91CF9113
:102280000895CF93DF9300D0CDB7DEB79A838983CB
:1022900089819A8140E05FEF6FEF7FEF38D00F9038
:1022A0000F90DF91CF910895CF93DF9300D000D0AE
:1022B00000D0CDB7DEB79B838A836C834D832E839A
:1022C0008C81882F90E0880F991F880F991F282FE5
:1022D0008D81882F90E0880F991F922F982B8E81E7
:1022E000892B89838981882F90E0A0E0B0E0B662D5
:1022F0002A813B81AC01BD01C90109D026960FB6E8
:10230000F894DEBF0FBECDBFDF91CF910895CF937C
:10231000DF93CDB7DEB727970FB6F894DEBF0FBEB9
:10232000CDBF9B838A834C835D836E837F838A8149
:102330009B81FC018681882391F48A819B8170D2E4
:102340008C819D81AE81BF812A813B81AC01BD0121
:10235000C90189D289838A819B817ED00BC08C81FF
:102360009D81AE81BF812A813B81AC01BD01C90144
:102370007AD28983898127960FB6F894DEBF0FBE83
:10238000CDBFDF91CF910895CF93DF93CDB7DEB767
:1023900029970FB6F894DEBF0FBECDBF9B838A830B
:1023A0007D836C832E833F83488759878A819B81F5
:1023B000FC0186818823A1F48A819B8131D28E81A0
:1023C0009F81A885B9856C817D81EA81FB819C0113
:1023D000AD01CF0199D289838A819B813DD00DC007
:1023E0008E819F81A885B9856C817D81EA81FB8181
:1023F0009C01AD01CF0188D28983898129960FB6CE
:10240000F894DEBF0FBECDBFDF91CF910895CF937B
:10241000DF9300D0CDB7DEB79A83898389819A8113
:1024200040E050E0BA0173DF0F900F90DF91CF9141
:102430000895CF93DF9300D0CDB7DEB79A83898319
:1024400089819A8141E05FEF6FEF7FEF60DF0F904E
:102450000F90DF91CF9108950F931F93CF93DF9348
:1024600000D0CDB7DEB79A83898389819A81C8DB92
:1024700089819A81FC0180899189CC01A0E0B0E03A
:10248000E981FA818C019D0148EE54E260E170E03F
:10249000CF011DDB89819A81FC0116820F900F907C
:1024A000DF91CF911F910F910895CF93DF9300D0CB
:1024B000CDB7DEB79A83898389819A816DD30F90D6
:1024C0000F90DF91CF910895CF93DF9300D01F92AB
:1024D000CDB7DEB79A8389836B838B81882309F01C
:1024E00076C089819A8120E030E048E454E260E1DE
:1024F00070E0BDDA89819A8122E030E04CE454E258
:1025000060E170E0B4DA89819A812DE030E040E446
:1025100054E260E170E0ABDA89819A8127E031E032
:102520004CE354E260E170E0A2DA89819A8120E014
:1025300030E044E354E260E170E099DA89819A8105
:102540002AE030E048E354E260E170E090DA89810B
:102550009A8126E430E04CE254E260E170E087DAF0
:1025600089819A8128E931E048E254E260E170E033
:102570007EDA89819A8120E431E040E354E260E12F
:1025800070E075DA89819A8120EF30E044E454E20A
:1025900060E170E06CDA89819A8120E030E048E601
:1025A00054E260E170E063DA89819A8122E030E0F0
:1025B00040E654E260E170E05ADA89819A8128E0CD
:1025C00030E04CE654E260E170E051DAEFC08B811C
:1025D000813009F076C089819A8120E030E048E4BA
:1025E00054E260E170E043DA89819A812AE030E0C8
:1025F0004CE454E260E170E03ADA89819A812CE09F
:1026000030E040E454E260E170E031DA89819A819F
:1026100024E231E04CE354E260E170E028DA8981A1
:102620009A8120E030E044E354E260E170E01FDA98
:1026300089819A8129E230E048E354E260E170E068
:1026400016DA89819A812BE230E04CE254E260E1B3
:1026500070E00DDA89819A8124E232E048E254E2A6
:1026600060E170E004DA89819A8120EE31E040E394
:1026700054E260E170E0FBD989819A8120E131E088
:1026800044E454E260E170E0F2D989819A8121E06A
:1026900030E048E654E260E170E0E9D989819A814E
:1026A00020E030E040E654E260E170E0E0D989816A
:1026B0009A8125E030E04CE654E260E170E0D7D941
:1026C00075C089819A8120E030E048E454E260E1FD
:1026D00070E0CDD989819A812AE030E04CE454E25F
:1026E00060E170E0C4D989819A812CE030E040E457
:1026F00054E260E170E0BBD989819A8124E231E043
:102700004CE354E260E170E0B2D989819A8120E023
:1027100030E044E354E260E170E0A9D989819A8114
:1027200029E230E048E354E260E170E0A0D9898119
:102730009A812BE230E04CE254E260E170E097D9FC
:1027400089819A8124E232E048E254E260E170E05B
:102750008ED989819A8120EE31E040E354E260E134
:1027600070E085D989819A8120E131E044E454E226
:1027700060E170E07CD989819A8121E030E048E60F
:1027800054E260E170E073D989819A8120E030E001
:1027900040E654E260E170E06AD989819A8125E0DF
:1027A00030E04CE654E260E170E061D90F900F90A8
:1027B0000F90DF91CF910895CF93DF93CDB7DEB720
:1027C0002A970FB6F894DEBF0FBECDBF9E838D83D0
:1027D0004F83588769877A878F819885A985BA85BD
:1027E000DC019927882789839A83AB83BC832D8159
:1027F0003E8189819A81AB81BC81AC01BD01C90157
:102800007DD864E170E080E090E00E945A0A2A9648
:102810000FB6F894DEBF0FBECDBFDF91CF91089504
:10282000CF93DF9300D0CDB7DEB79A8389838981B8
:102830009A81FC0180899189CC01A0E0B0E0905898
:10284000AF4EBF4F29813A81AC01BD01C90119D8F2
:1028500089819A8121E0FC01268380E00F900F900E
:10286000DF91CF910895CF93DF9300D000D000D0B7
:10287000CDB7DEB79A8389834B835C836D837E8378
:1028800089819A81FC01828993898430910570F451
:1028900089819A8164E070E0DFD1982F81E09233E2
:1028A00009F080E0882311F082E325C029813A8174
:1028B0008B819C81AD81BE81AC01BD01C901D0D9A4
:1028C00089819A81FC018089918904969C013F70DD
:1028D00089819A81FC01318B208B89819A81FC014D
:1028E000828993899C012450310989819A81FC0154
:1028F000338B228B80E026960FB6F894DEBF0FBE96
:10290000CDBFDF91CF910895EF92FF920F931F9368
:10291000CF93DF93CDB7DEB760970FB6F894DEBFE5
:102920000FBECDBF9A8789877C876B872D873E87AF
:102930004F87588B8D859E85AF85B8890396A11DDD
:10294000B11D8C7F8D879E87AF87B88B0EC18D851B
:102950009E85AF85B8898D839E83AF83B88789852F
:102960009A85FC01828993899C0140E050E08D8129
:102970009E81AF81B885281739074A075B0708F0A1
:1029800098C089859A85EAD189859A85FC018289D2
:102990009389CC01A0E0B0E02D813E814F81588524
:1029A000281739074A075B0710F4DA01C9018D833C
:1029B0009E83AF83B88719821A821B821C8218C03B
:1029C0008B859C859C012F5F3F4F3C872B87FC01AB
:1029D000208189859A85622F32D989819A81AB813C
:1029E000BC810196A11DB11D89839A83AB83BC83F1
:1029F00029813A814B815C818D819E81AF81B8852F
:102A0000281739074A075B07D8F289859A85FC01A0
:102A1000208931898D819E81820F931F9C013F7097
:102A200089859A85FC01318B208B89859A85FC01EB
:102A3000228933898D819E81281B390B89859A854E
:102A4000FC01338B228B2D853E854F8558898D81E6
:102A50009E81AF81B88579018A01E81AF90A0A0BCB
:102A60001B0BD801C7018D879E87AF87B88B8D85DB
:102A70009E85AF85B889813008E09007A105B10532
:102A800020F080E098E0A0E0B0E08D839E83AF83EB
:102A9000B8872D813E8189859A85B901DDD0982F2F
:102AA00081E0923309F080E0882309F45EC082E37C
:102AB00066C019821A821B821C8218C08B859C8575
:102AC0009C012F5F3F4F3C872B87FC01208189852C
:102AD0009A85622FB4D889819A81AB81BC81019695
:102AE000A11DB11D89839A83AB83BC8329813A815F
:102AF0004B815C818D819E81AF81B8852817390714
:102B00004A075B07D8F289859A85FC0120893189BB
:102B10008D819E81820F931F9C013F7089859A85CC
:102B2000FC01318B208B89859A85FC0122893389B0
:102B30008D819E81281B390B89859A85FC01338BF9
:102B4000228B2D853E854F8558898D819E81AF8151
:102B5000B88579018A01E81AF90A0A0B1B0BD8011A
:102B6000C7018D879E87AF87B88B8D859E85AF8582
:102B7000B8890097A105B10509F0E9CE80E060961B
:102B80000FB6F894DEBF0FBECDBFDF91CF911F917E
:102B90000F91FF90EF900895EF92FF920F931F9384
:102BA000CF93DF93CDB7DEB72E970FB6F894DEBF85
:102BB0000FBECDBF9E878D872CE0E1E6F1E0CE0110
:102BC0000196DC0101900D922A95E1F78D859E8595
:102BD00040E052E16AE770E00E94DD0B8D859E8542
:102BE00040E050E0BA01E8DD64E170E080E090E0B0
:102BF0000E945A0A8D859E851CE0E12EF12C00E092
:102C000010E09E012F5F3F4F40E050E060E170E038
:102C10000E94A50D8D859E8522E040E554E260E18D
:102C200070E00E940E0D8D859E85FC01118A108A30
:102C30008D859E852CEF3FE0FC01338B228B2E96F9
:102C40000FB6F894DEBF0FBECDBFDF91CF911F91BD
:102C50000F91FF90EF900895CF93DF9300D000D0B5
:102C600000D0CDB7DEB79C838B837E836D838B8151
:102C70009C81FC01228933898D819E812817390727
:102C800008F062C08B819C81FC018681882341F021
:102C90008B819C81E1DB8B819C8121E0FC0126837F
:102CA0008B819C81FC01208931898B819C8148EE3C
:102CB00054E260E170E00E94370D33C08B819C814B
:102CC00044EE54E260E170E00E94A80C9A8389838C
:102CD00089819A818F3FFFE09F0711F482E335C01D
:102CE0008B819C81FC012089318989819A81A9018C
:102CF000481B590BCA019C012C7F3F708B819C8122
:102D0000FC01338B228B8B819C81FC01828993890E
:102D10002CEF3FE0281B390B8B819C81FC01338B0E
:102D2000228B8B819C81FC01228933898D819E813C
:102D30002817390718F28B819C81FC018681882332
:102D400019F08B819C816CDD80E026960FB6F8949B
:102D5000DEBF0FBECDBFDF91CF910895CF93DF933C
:102D600000D0CDB7DEB79A83898389819A81FC012F
:102D700086818823A1F089819A816EDB89819A817D
:102D8000FC012089318989819A8148EE54E260E111
:102D900070E00E94370D89819A8142DD0DC08981E2
:102DA0009A81FC012089318989819A8148EE54E217
:102DB00060E170E00E94370D80E00F900F90DF918E
:102DC000CF910895CF93DF9300D000D0CDB7DEB779
:102DD0009A8389837C836B8389819A818130910571
:102DE00059F48B819C818F3F2FEF920729F447E0A4
:102DF00060E082EF92E019D889819A81009749F4C6
:102E00008B819C818F3F2FEF920719F482EF92E024
:102E100007D00F900F900F900F90DF91CF910895F2
:102E2000CF93DF9300D0CDB7DEB79A8389838981B2
:102E30009A81CBD90F900F90DF91CF910895CF93C6
:102E4000DF93CDB7DEB76FEF7FEF81E090E0BADFC1
:102E5000DF91CF910895CF93DF93CDB7DEB76FEFBA
:102E60007FEF80E090E0AEDFDF91CF910895A1E2A7
:102E70001A2EAA1BBB1BFD010DC0AA1FBB1FEE1FF4
:102E8000FF1FA217B307E407F50720F0A21BB30B3F
:102E9000E40BF50B661F771F881F991F1A9469F7BB
:102EA00060957095809590959B01AC01BD01CF0117
:102EB00008950DD0A59F900DB49F900DA49F800DF7
:102EC000911D112408950790F691E02D0994A29F79
:102ED000B001B39FC001A39F700D811D1124911DEE
:102EE000B29F700D811D1124911D0895FC01019068
:102EF0000020E9F7809590958E0F9F1F089510E0B0
:102F0000C8E9D0E000E005C022970109FE010BBF2F
:102F1000DADFCA39D10780E00807B1F7F894FFCFAC
:102F2000000006032000010000004572726F72204D
:102F3000696E20636869702069642072656164202D
:102F400000466F726D756C6120456C6563747269C3
:102F5000632032303135002D2D537461727420415D
:102F600070706C69636174696F6E2D2D002D2D4535
:102F70006E64204170706C69636174696F6E2D2D91
:102F80000000000002070000260000000000000012
:102F9000004F053306A204D104B6002F050000003F
:102FA00000B5093306B509B509B509B50900000032
:062FB00000B50933060024
:00000001FF
